Component: ARM Compiler 5.06 update 6 (build 750) Tool: armlink [4d35ed]

==============================================================================

Section Cross References

    interrupts_cw32f030.o(i.DMACH1_IRQHandler) refers to cw32f030_dma.o(i.DMA_GetITStatus) for DMA_GetITStatus
    interrupts_cw32f030.o(i.DMACH1_IRQHandler) refers to cw32f030_dma.o(i.DMA_ClearITPendingBit) for DMA_ClearITPendingBit
    interrupts_cw32f030.o(i.GTIM1_IRQHandler) refers to cw32f030_gtim.o(i.GTIM_GetITStatus) for GTIM_GetITStatus
    interrupts_cw32f030.o(i.GTIM1_IRQHandler) refers to cw32f030_gtim.o(i.GTIM_ClearITPendingBit) for GTIM_ClearITPendingBit
    startup_cw32f030.o(RESET) refers to startup_cw32f030.o(STACK) for __initial_sp
    startup_cw32f030.o(RESET) refers to startup_cw32f030.o(.text) for Reset_Handler
    startup_cw32f030.o(RESET) refers to interrupts_cw32f030.o(i.NMI_Handler) for NMI_Handler
    startup_cw32f030.o(RESET) refers to interrupts_cw32f030.o(i.HardFault_Handler) for HardFault_Handler
    startup_cw32f030.o(RESET) refers to interrupts_cw32f030.o(i.SVC_Handler) for SVC_Handler
    startup_cw32f030.o(RESET) refers to interrupts_cw32f030.o(i.PendSV_Handler) for PendSV_Handler
    startup_cw32f030.o(RESET) refers to cw32f030_systick.o(i.SysTick_Handler) for SysTick_Handler
    startup_cw32f030.o(RESET) refers to interrupts_cw32f030.o(i.WDT_IRQHandler) for WDT_IRQHandler
    startup_cw32f030.o(RESET) refers to interrupts_cw32f030.o(i.LVD_IRQHandler) for LVD_IRQHandler
    startup_cw32f030.o(RESET) refers to interrupts_cw32f030.o(i.RTC_IRQHandler) for RTC_IRQHandler
    startup_cw32f030.o(RESET) refers to interrupts_cw32f030.o(i.FLASHRAM_IRQHandler) for FLASHRAM_IRQHandler
    startup_cw32f030.o(RESET) refers to interrupts_cw32f030.o(i.RCC_IRQHandler) for RCC_IRQHandler
    startup_cw32f030.o(RESET) refers to interrupts_cw32f030.o(i.GPIOA_IRQHandler) for GPIOA_IRQHandler
    startup_cw32f030.o(RESET) refers to interrupts_cw32f030.o(i.GPIOB_IRQHandler) for GPIOB_IRQHandler
==============================================================================

Removing Unused input sections from the image.

    Removing interrupts_cw32f030.o(.rev16_text), (4 bytes).
    Removing interrupts_cw32f030.o(.revsh_text), (4 bytes).
    Removing main.o(.rev16_text), (4 bytes).
    Removing main.o(.revsh_text), (4 bytes).
    Removing motorcontrol.o(.rev16_text), (4 bytes).
    Removing motorcontrol.o(.revsh_text), (4 bytes).
    Removing oled_i2c.o(.rev16_text), (4 bytes).
    Removing oled_i2c.o(.revsh_text), (4 bytes).
    Removing oled_i2c.o(i.I2C_OLED_DisPlay_Off), (22 bytes).
    Removing oled_i2c.o(i.I2C_OLED_DisPlay_On), (22 bytes).
    Removing oled_i2c.o(i.I2C_OLED_DrawCircle), (154 bytes).
    Removing oled_i2c.o(i.I2C_OLED_DrawLine), (184 bytes).
    Removing oled_i2c.o(i.I2C_OLED_Pow), (26 bytes).
    Removing oled_i2c.o(i.I2C_OLED_Print), (264 bytes).
    Removing oled_i2c.o(i.I2C_OLED_ShowPicture), (100 bytes).
    Removing oled_i2c.o(.constdata), (15200 bytes).
    Removing font.o(.rev16_text), (4 bytes).
    Removing font.o(.revsh_text), (4 bytes).
==============================================================================

Image Symbol Table

    Local Symbols

    Symbol Name                              Value     Ov Type        Size  Object(Section)

    RESET                                    0x00000000   Section      192  startup_cw32f030.o(RESET)
    ../clib/microlib/division.c              0x00000000   Number         0  uidiv.o ABSOLUTE
    ../clib/microlib/division.c              0x00000000   Number         0  uldiv.o ABSOLUTE
    ../clib/microlib/division.c              0x00000000   Number         0  ldiv.o ABSOLUTE
    ../clib/microlib/division.c              0x00000000   Number         0  idiv.o ABSOLUTE
    ../clib/microlib/init/entry.s            0x00000000   Number         0  entry9a.o ABSOLUTE
    ../clib/microlib/init/entry.s            0x00000000   Number         0  entry.o ABSOLUTE
    ../clib/microlib/init/entry.s            0x00000000   Number         0  entry10a.o ABSOLUTE
    ../clib/microlib/init/entry.s            0x00000000   Number         0  entry10b.o ABSOLUTE
    ../clib/microlib/init/entry.s            0x00000000   Number         0  entry11a.o ABSOLUTE
    ../clib/microlib/init/entry.s            0x00000000   Number         0  entry11b.o ABSOLUTE
    ../clib/microlib/init/entry.s            0x00000000   Number         0  entry9b.o ABSOLUTE
    ../clib/microlib/init/entry.s            0x00000000   Number         0  entry2.o ABSOLUTE
    ../clib/microlib/init/entry.s            0x00000000   Number         0  entry7a.o ABSOLUTE
    ../clib/microlib/init/entry.s            0x00000000   Number         0  entry5.o ABSOLUTE
    ../clib/microlib/init/entry.s            0x00000000   Number         0  entry7b.o ABSOLUTE
    ../clib/microlib/init/entry.s            0x00000000   Number         0  entry8a.o ABSOLUTE
    ../clib/microlib/init/entry.s            0x00000000   Number         0  entry8b.o ABSOLUTE
    ../clib/microlib/longlong.c              0x00000000   Number         0  llsshr.o ABSOLUTE
    ../clib/microlib/longlong.c              0x00000000   Number         0  llushr.o ABSOLUTE
    ../clib/microlib/longlong.c              0x00000000   Number         0  llshl.o ABSOLUTE
    ../clib/microlib/malloc/malloc.c         0x00000000   Number         0  malloc.o ABSOLUTE
    ../clib/microlib/malloc/malloc.c         0x00000000   Number         0  mallocr.o ABSOLUTE
    ../clib/microlib/malloc/malloc.c         0x00000000   Number         0  malloca.o ABSOLUTE
    ../clib/microlib/malloc/malloc.c         0x00000000   Number         0  mallocra.o ABSOLUTE
    ../clib/microlib/malloc/mvars.c          0x00000000   Number         0  mvars.o ABSOLUTE
    ../clib/microlib/printf/printf.c         0x00000000   Number         0  printfa.o ABSOLUTE
    ../clib/microlib/printf/printf.c         0x00000000   Number         0  printf8.o ABSOLUTE
    ../clib/microlib/printf/printf.c         0x00000000   Number         0  printf7.o ABSOLUTE
    ../clib/microlib/printf/printf.c         0x00000000   Number         0  printf6.o ABSOLUTE
    ../clib/microlib/printf/printf.c         0x00000000   Number         0  printf4.o ABSOLUTE
    ../clib/microlib/printf/printf.c         0x00000000   Number         0  printf3.o ABSOLUTE
    ../clib/microlib/printf/printf.c         0x00000000   Number         0  printf2.o ABSOLUTE
    ../clib/microlib/printf/printf.c         0x00000000   Number         0  printf1.o ABSOLUTE
    ../clib/microlib/printf/printf.c         0x00000000   Number         0  printf0.o ABSOLUTE
    ../clib/microlib/printf/printf.c         0x00000000   Number         0  printfb.o ABSOLUTE
    ../clib/microlib/printf/printf.c         0x00000000   Number         0  printf5.o ABSOLUTE
    ../clib/microlib/printf/stubs.s          0x00000000   Number         0  stubs.o ABSOLUTE
    ../clib/microlib/stdio/fputc.c           0x00000000   Number         0  fputc.o ABSOLUTE
    ../clib/microlib/stdio/semi.s            0x00000000   Number         0  semi.o ABSOLUTE
    ../clib/microlib/stdio/streams.c         0x00000000   Number         0  stdout.o ABSOLUTE
    ../clib/microlib/string/memcpy.c         0x00000000   Number         0  memcpya.o ABSOLUTE
    ../clib/microlib/string/memcpy.c         0x00000000   Number         0  memcpyb.o ABSOLUTE
    ../clib/microlib/stubs.s                 0x00000000   Number         0  iusesemip.o ABSOLUTE
    ../clib/microlib/stubs.s                 0x00000000   Number         0  iusefp.o ABSOLUTE
    ../fplib/microlib/d2f.c                  0x00000000   Number         0  d2f.o ABSOLUTE
    ../fplib/microlib/f2d.c                  0x00000000   Number         0  f2d.o ABSOLUTE
    ../fplib/microlib/fpadd.c                0x00000000   Number         0  fadd.o ABSOLUTE
    ../fplib/microlib/fpadd.c                0x00000000   Number         0  dadd.o ABSOLUTE
    ../fplib/microlib/fpdiv.c                0x00000000   Number         0  fdiv.o ABSOLUTE
    ../fplib/microlib/fpdiv.c                0x00000000   Number         0  ddiv.o ABSOLUTE
    ../fplib/microlib/fpepilogue.c           0x00000000   Number         0  fepilogue.o ABSOLUTE
    ../fplib/microlib/fpepilogue.c           0x00000000   Number         0  depilogue.o ABSOLUTE
    ../fplib/microlib/fpfix.c                0x00000000   Number         0  dfixui.o ABSOLUTE
    ../fplib/microlib/fpfix.c                0x00000000   Number         0  dfixul.o ABSOLUTE
    ../fplib/microlib/fpfix.c                0x00000000   Number         0  ffixi.o ABSOLUTE
    ../fplib/microlib/fpfix.c                0x00000000   Number         0  ffixui.o ABSOLUTE
    ../fplib/microlib/fpflt.c                0x00000000   Number         0  fflti.o ABSOLUTE
    ../fplib/microlib/fpflt.c                0x00000000   Number         0  ffltui.o ABSOLUTE
    ../fplib/microlib/fpflt.c                0x00000000   Number         0  dfltui.o ABSOLUTE
    ../fplib/microlib/fpmul.c                0x00000000   Number         0  dmul.o ABSOLUTE
    ../fplib/microlib/fpmul.c                0x00000000   Number         0  fmul.o ABSOLUTE
    ..\Libraries\src\cw32f030_adc.c          0x00000000   Number         0  cw32f030_adc.o ABSOLUTE
    ..\Libraries\src\cw32f030_atim.c         0x00000000   Number         0  cw32f030_atim.o ABSOLUTE
    ..\Libraries\src\cw32f030_awt.c          0x00000000   Number         0  cw32f030_awt.o ABSOLUTE
    ..\Libraries\src\cw32f030_btim.c         0x00000000   Number         0  cw32f030_btim.o ABSOLUTE
    ..\Libraries\src\cw32f030_crc.c          0x00000000   Number         0  cw32f030_crc.o ABSOLUTE
    ..\Libraries\src\cw32f030_debug.c        0x00000000   Number         0  cw32f030_debug.o ABSOLUTE
    ..\Libraries\src\cw32f030_digitalsign.c  0x00000000   Number         0  cw32f030_digitalsign.o ABSOLUTE
    ..\Libraries\src\cw32f030_dma.c          0x00000000   Number         0  cw32f030_dma.o ABSOLUTE
    ..\Libraries\src\cw32f030_flash.c        0x00000000   Number         0  cw32f030_flash.o ABSOLUTE
    ..\Libraries\src\cw32f030_gpio.c         0x00000000   Number         0  cw32f030_gpio.o ABSOLUTE
    ..\Libraries\src\cw32f030_gtim.c         0x00000000   Number         0  cw32f030_gtim.o ABSOLUTE
    ..\Libraries\src\cw32f030_i2c.c          0x00000000   Number         0  cw32f030_i2c.o ABSOLUTE
    ..\Libraries\src\cw32f030_iwdt.c         0x00000000   Number         0  cw32f030_iwdt.o ABSOLUTE
    ..\Libraries\src\cw32f030_lvd.c          0x00000000   Number         0  cw32f030_lvd.o ABSOLUTE
    ..\Libraries\src\cw32f030_pwr.c          0x00000000   Number         0  cw32f030_pwr.o ABSOLUTE
    ..\Libraries\src\cw32f030_ram.c          0x00000000   Number         0  cw32f030_ram.o ABSOLUTE
    ..\Libraries\src\cw32f030_rcc.c          0x00000000   Number         0  cw32f030_rcc.o ABSOLUTE
    ..\Libraries\src\cw32f030_rtc.c          0x00000000   Number         0  cw32f030_rtc.o ABSOLUTE
    ..\Libraries\src\cw32f030_spi.c          0x00000000   Number         0  cw32f030_spi.o ABSOLUTE
    ..\Libraries\src\cw32f030_systick.c      0x00000000   Number         0  cw32f030_systick.o ABSOLUTE
    ..\Libraries\src\cw32f030_uart.c         0x00000000   Number         0  cw32f030_uart.o ABSOLUTE
    ..\Libraries\src\cw32f030_vc.c           0x00000000   Number         0  cw32f030_vc.o ABSOLUTE
    ..\Libraries\src\cw32f030_wwdt.c         0x00000000   Number         0  cw32f030_wwdt.o ABSOLUTE
    ..\Libraries\src\system_cw32f030.c       0x00000000   Number         0  system_cw32f030.o ABSOLUTE
    ..\\Libraries\\src\\cw32f030_adc.c       0x00000000   Number         0  cw32f030_adc.o ABSOLUTE
    ..\\Libraries\\src\\cw32f030_atim.c      0x00000000   Number         0  cw32f030_atim.o ABSOLUTE
    ..\\Libraries\\src\\cw32f030_awt.c       0x00000000   Number         0  cw32f030_awt.o ABSOLUTE
    ..\\Libraries\\src\\cw32f030_btim.c      0x00000000   Number         0  cw32f030_btim.o ABSOLUTE
    ..\\Libraries\\src\\cw32f030_crc.c       0x00000000   Number         0  cw32f030_crc.o ABSOLUTE
    ..\\Libraries\\src\\cw32f030_debug.c     0x00000000   Number         0  cw32f030_debug.o ABSOLUTE
    ..\\Libraries\\src\\cw32f030_digitalsign.c 0x00000000   Number         0  cw32f030_digitalsign.o ABSOLUTE
    ..\\Libraries\\src\\cw32f030_dma.c       0x00000000   Number         0  cw32f030_dma.o ABSOLUTE
    ..\\Libraries\\src\\cw32f030_flash.c     0x00000000   Number         0  cw32f030_flash.o ABSOLUTE
    ..\\Libraries\\src\\cw32f030_gpio.c      0x00000000   Number         0  cw32f030_gpio.o ABSOLUTE
    ..\\Libraries\\src\\cw32f030_gtim.c      0x00000000   Number         0  cw32f030_gtim.o ABSOLUTE
    ..\\Libraries\\src\\cw32f030_i2c.c       0x00000000   Number         0  cw32f030_i2c.o ABSOLUTE
    ..\\Libraries\\src\\cw32f030_iwdt.c      0x00000000   Number         0  cw32f030_iwdt.o ABSOLUTE
    ..\\Libraries\\src\\cw32f030_lvd.c       0x00000000   Number         0  cw32f030_lvd.o ABSOLUTE
    ..\\Libraries\\src\\cw32f030_pwr.c       0x00000000   Number         0  cw32f030_pwr.o ABSOLUTE
    ..\\Libraries\\src\\cw32f030_ram.c       0x00000000   Number         0  cw32f030_ram.o ABSOLUTE
    ..\\Libraries\\src\\cw32f030_rcc.c       0x00000000   Number         0  cw32f030_rcc.o ABSOLUTE
    ..\\Libraries\\src\\cw32f030_rtc.c       0x00000000   Number         0  cw32f030_rtc.o ABSOLUTE
    ..\\Libraries\\src\\cw32f030_spi.c       0x00000000   Number         0  cw32f030_spi.o ABSOLUTE
    ..\\Libraries\\src\\cw32f030_systick.c   0x00000000   Number         0  cw32f030_systick.o ABSOLUTE
    ..\\Libraries\\src\\cw32f030_uart.c      0x00000000   Number         0  cw32f030_uart.o ABSOLUTE
    ..\\Libraries\\src\\cw32f030_vc.c        0x00000000   Number         0  cw32f030_vc.o ABSOLUTE
    ..\\Libraries\\src\\cw32f030_wwdt.c      0x00000000   Number         0  cw32f030_wwdt.o ABSOLUTE
    ..\\Libraries\\src\\system_cw32f030.c    0x00000000   Number         0  system_cw32f030.o ABSOLUTE
    USER\MAIN.c                              0x00000000   Number         0  main.o ABSOLUTE
    USER\MOTORCONTROL.C                      0x00000000   Number         0  motorcontrol.o ABSOLUTE
    USER\OLED_I2C.c                          0x00000000   Number         0  oled_i2c.o ABSOLUTE
    USER\\MAIN.c                             0x00000000   Number         0  main.o ABSOLUTE
    USER\\MOTORCONTROL.C                     0x00000000   Number         0  motorcontrol.o ABSOLUTE
    USER\\OLED_I2C.c                         0x00000000   Number         0  oled_i2c.o ABSOLUTE
    USER\\font.c                             0x00000000   Number         0  font.o ABSOLUTE
    USER\\interrupts_cw32f030.c              0x00000000   Number         0  interrupts_cw32f030.o ABSOLUTE
    USER\font.c                              0x00000000   Number         0  font.o ABSOLUTE
    USER\interrupts_cw32f030.c               0x00000000   Number         0  interrupts_cw32f030.o ABSOLUTE
    USER\startup_cw32f030.s                  0x00000000   Number         0  startup_cw32f030.o ABSOLUTE
    cdcmple.s                                0x00000000   Number         0  cdcmple.o ABSOLUTE
    cdrcmple.s                               0x00000000   Number         0  cdrcmple.o ABSOLUTE
    dc.s                                     0x00000000   Number         0  dc.o ABSOLUTE
    handlers.s                               0x00000000   Number         0  handlers.o ABSOLUTE
    init.s                                   0x00000000   Number         0  init.o ABSOLUTE
    .ARM.Collect$$$$00000000                 0x000000c0   Section        0  entry.o(.ARM.Collect$$$$00000000)
    .ARM.Collect$$$$00000001                 0x000000c0   Section        4  entry2.o(.ARM.Collect$$$$00000001)
    .ARM.Collect$$$$00000004                 0x000000c4   Section        4  entry5.o(.ARM.Collect$$$$00000004)
    .ARM.Collect$$$$00000008                 0x000000c8   Section        0  entry7b.o(.ARM.Collect$$$$00000008)
    .ARM.Collect$$$$0000000A                 0x000000c8   Section        0  entry8b.o(.ARM.Collect$$$$0000000A)
    .ARM.Collect$$$$0000000B                 0x000000c8   Section        8  entry9a.o(.ARM.Collect$$$$0000000B)
    .ARM.Collect$$$$0000000D                 0x000000d0   Section        0  entry10a.o(.ARM.Collect$$$$0000000D)
    .ARM.Collect$$$$0000000F                 0x000000d0   Section        0  entry11a.o(.ARM.Collect$$$$0000000F)
    .ARM.Collect$$$$00002712                 0x000000d0   Section        4  entry2.o(.ARM.Collect$$$$00002712)
    __lit__00000000                          0x000000d0   Data           4  entry2.o(.ARM.Collect$$$$00002712)
    .text                                    0x000000d4   Section       60  startup_cw32f030.o(.text)
    .text                                    0x00000110   Section        0  uidiv.o(.text)
    .text                                    0x0000013c   Section        0  idiv.o(.text)
    .text                                    0x00000164   Section        0  memcpya.o(.text)
    .text                                    0x00000188   Section        0  dadd.o(.text)
    .text                                    0x000002ec   Section        0  dmul.o(.text)
    .text                                    0x000003bc   Section        0  dfltui.o(.text)
    .text                                    0x000003d8   Section        0  ffixui.o(.text)
    .text                                    0x00000400   Section        0  dfixui.o(.text)
    .text                                    0x0000043c   Section       40  cdcmple.o(.text)
    .text                                    0x00000464   Section       40  cdrcmple.o(.text)
    .text                                    0x0000048c   Section        0  d2f.o(.text)
    .text                                    0x000004c4   Section        0  llshl.o(.text)
    .text                                    0x000004e4   Section        0  llushr.o(.text)
    .text                                    0x00000506   Section        0  llsshr.o(.text)
    .text                                    0x0000052c   Section        0  fepilogue.o(.text)
    .text                                    0x0000052c   Section        0  iusefp.o(.text)
    .text                                    0x000005ae   Section        0  depilogue.o(.text)
    .text                                    0x0000066c   Section       36  init.o(.text)
    .text                                    0x00000690   Section        0  iusesemip.o(.text)
    .text                                    0x00000690   Section        0  semi.o(.text)
    i.ADC_Configuration                      0x00000690   Section        0  main.o(i.ADC_Configuration)
    i.ADC_Enable                             0x00000764   Section        0  cw32f030_adc.o(i.ADC_Enable)
    i.ADC_GetITStatus                        0x00000784   Section        0  cw32f030_adc.o(i.ADC_GetITStatus)
    i.ADC_IRQHandler                         0x0000079c   Section        0  interrupts_cw32f030.o(i.ADC_IRQHandler)
    i.ADC_Init                               0x000007a0   Section        0  cw32f030_adc.o(i.ADC_Init)
    i.ADC_SoftwareStartConvCmd               0x00000800   Section        0  cw32f030_adc.o(i.ADC_SoftwareStartConvCmd)
    i.ATIIM_init                             0x00000824   Section        0  main.o(i.ATIIM_init)
    i.ATIM_ClearITPendingBit                 0x00000970   Section        0  cw32f030_atim.o(i.ATIM_ClearITPendingBit)
    i.ATIM_Cmd                               0x0000097c   Section        0  cw32f030_atim.o(i.ATIM_Cmd)
    i.ATIM_CtrlPWMOutputs                    0x00000994   Section        0  cw32f030_atim.o(i.ATIM_CtrlPWMOutputs)
    i.ATIM_GetITStatus                       0x000009b4   Section        0  cw32f030_atim.o(i.ATIM_GetITStatus)
    i.ATIM_IRQHandler                        0x000009cc   Section        0  main.o(i.ATIM_IRQHandler)
    i.ATIM_Init                              0x000009e4   Section        0  cw32f030_atim.o(i.ATIM_Init)
    i.ATIM_OC1AInit                          0x00000a4c   Section        0  cw32f030_atim.o(i.ATIM_OC1AInit)
    i.ATIM_OC2AInit                          0x00000ac0   Section        0  cw32f030_atim.o(i.ATIM_OC2AInit)
    i.ATIM_OC3AInit                          0x00000b38   Section        0  cw32f030_atim.o(i.ATIM_OC3AInit)
    i.ATIM_PWMOutputConfig                   0x00000bb0   Section        0  cw32f030_atim.o(i.ATIM_PWMOutputConfig)
    i.ATIM_SetCompare1A                      0x00000bfc   Section        0  cw32f030_atim.o(i.ATIM_SetCompare1A)
    i.ATIM_SetCompare2A                      0x00000c08   Section        0  cw32f030_atim.o(i.ATIM_SetCompare2A)
    i.ATIM_SetCompare3A                      0x00000c14   Section        0  cw32f030_atim.o(i.ATIM_SetCompare3A)
    i.AWT_IRQHandler                         0x00000c20   Section        0  interrupts_cw32f030.o(i.AWT_IRQHandler)
    i.BTIM1_IRQHandler                       0x00000c24   Section        0  main.o(i.BTIM1_IRQHandler)
    i.BTIM3_IRQHandler                       0x00000c90   Section        0  interrupts_cw32f030.o(i.BTIM3_IRQHandler)
    i.BTIM_ClearITPendingBit                 0x00000c92   Section        0  cw32f030_btim.o(i.BTIM_ClearITPendingBit)
    i.BTIM_Cmd                               0x00000c9a   Section        0  cw32f030_btim.o(i.BTIM_Cmd)
    i.BTIM_GetITStatus                       0x00000cb2   Section        0  cw32f030_btim.o(i.BTIM_GetITStatus)
    i.BTIM_ITConfig                          0x00000cc4   Section        0  cw32f030_btim.o(i.BTIM_ITConfig)
    i.BTIM_TimeBaseInit                      0x00000cd8   Section        0  cw32f030_btim.o(i.BTIM_TimeBaseInit)
    i.BTIM_init                              0x00000cf8   Section        0  main.o(i.BTIM_init)
    i.Commutation                            0x00000d4c   Section        0  motorcontrol.o(i.Commutation)
    i.DMACH1_IRQHandler                      0x00000e80   Section        0  interrupts_cw32f030.o(i.DMACH1_IRQHandler)
    i.DMACH23_IRQHandler                     0x00000e94   Section        0  interrupts_cw32f030.o(i.DMACH23_IRQHandler)
    i.DMACH45_IRQHandler                     0x00000e96   Section        0  interrupts_cw32f030.o(i.DMACH45_IRQHandler)
    i.DMA_ClearITPendingBit                  0x00000e98   Section        0  cw32f030_dma.o(i.DMA_ClearITPendingBit)
    i.DMA_Cmd                                0x00000ea8   Section        0  cw32f030_dma.o(i.DMA_Cmd)
    i.DMA_GetITStatus                        0x00000ec0   Section        0  cw32f030_dma.o(i.DMA_GetITStatus)
    i.DMA_ITConfig                           0x00000ed8   Section        0  cw32f030_dma.o(i.DMA_ITConfig)
    i.DMA_Init                               0x00000eec   Section        0  cw32f030_dma.o(i.DMA_Init)
    i.DMA_StructInit                         0x00000f28   Section        0  cw32f030_dma.o(i.DMA_StructInit)
    i.FAULT_IRQHandler                       0x00000f40   Section        0  interrupts_cw32f030.o(i.FAULT_IRQHandler)
    i.FLASHRAM_IRQHandler                    0x00000f42   Section        0  interrupts_cw32f030.o(i.FLASHRAM_IRQHandler)
    i.FLASH_SetLatency                       0x00000f44   Section        0  cw32f030_flash.o(i.FLASH_SetLatency)
    i.GPIOA_IRQHandler                       0x00000f68   Section        0  interrupts_cw32f030.o(i.GPIOA_IRQHandler)
    i.GPIOB_IRQHandler                       0x00000f6a   Section        0  interrupts_cw32f030.o(i.GPIOB_IRQHandler)
    i.GPIOC_IRQHandler                       0x00000f6c   Section        0  interrupts_cw32f030.o(i.GPIOC_IRQHandler)
    i.GPIOF_IRQHandler                       0x00000f6e   Section        0  interrupts_cw32f030.o(i.GPIOF_IRQHandler)
    i.GPIO_Configuration                     0x00000f70   Section        0  main.o(i.GPIO_Configuration)
    i.GPIO_Init                              0x00001010   Section        0  cw32f030_gpio.o(i.GPIO_Init)
    i.GPIO_WritePin                          0x00001110   Section        0  cw32f030_gpio.o(i.GPIO_WritePin)
    i.GTIM1_IRQHandler                       0x0000111c   Section        0  interrupts_cw32f030.o(i.GTIM1_IRQHandler)
    i.GTIM2_IRQHandler                       0x00001138   Section        0  main.o(i.GTIM2_IRQHandler)
    i.GTIM3_IRQHandler                       0x000011d0   Section        0  interrupts_cw32f030.o(i.GTIM3_IRQHandler)
    i.GTIM4_IRQHandler                       0x000011d2   Section        0  interrupts_cw32f030.o(i.GTIM4_IRQHandler)
    i.GTIM_ClearITPendingBit                 0x000011d4   Section        0  cw32f030_gtim.o(i.GTIM_ClearITPendingBit)
    i.GTIM_Cmd                               0x000011e0   Section        0  cw32f030_gtim.o(i.GTIM_Cmd)
    i.GTIM_GetITStatus                       0x000011fc   Section        0  cw32f030_gtim.o(i.GTIM_GetITStatus)
    i.GTIM_ICInit                            0x00001214   Section        0  cw32f030_gtim.o(i.GTIM_ICInit)
    i.GTIM_ITConfig                          0x0000125c   Section        0  cw32f030_gtim.o(i.GTIM_ITConfig)
    i.GTIM_TimeBaseInit                      0x0000128c   Section        0  cw32f030_gtim.o(i.GTIM_TimeBaseInit)
    i.GTIM_init                              0x000012cc   Section        0  main.o(i.GTIM_init)
    i.GetConslonsCode_from_EXFlash           0x000013e4   Section        0  font.o(i.GetConslonsCode_from_EXFlash)
    i.GetGBKCode_from_EXFlash                0x00001420   Section        0  font.o(i.GetGBKCode_from_EXFlash)
    i.HALL_Check                             0x00001444   Section        0  motorcontrol.o(i.HALL_Check)
    i.HALL_MOTOR_START                       0x000014b4   Section        0  motorcontrol.o(i.HALL_MOTOR_START)
    i.HardFault_Handler                      0x000014f4   Section        0  interrupts_cw32f030.o(i.HardFault_Handler)
    i.I2C1_DeInit                            0x000014f8   Section        0  cw32f030_i2c.o(i.I2C1_DeInit)
    i.I2C1_IRQHandler                        0x00001524   Section        0  interrupts_cw32f030.o(i.I2C1_IRQHandler)
    i.I2C2_IRQHandler                        0x00001526   Section        0  interrupts_cw32f030.o(i.I2C2_IRQHandler)
    i.I2C_AcknowledgeConfig                  0x00001528   Section        0  cw32f030_i2c.o(i.I2C_AcknowledgeConfig)
    i.I2C_BaudGeneratorEnable                0x00001542   Section        0  cw32f030_i2c.o(i.I2C_BaudGeneratorEnable)
    i.I2C_ClearIrq                           0x0000155c   Section        0  cw32f030_i2c.o(i.I2C_ClearIrq)
    i.I2C_Cmd                                0x00001566   Section        0  cw32f030_i2c.o(i.I2C_Cmd)
    i.I2C_FilterConfig                       0x00001580   Section        0  cw32f030_i2c.o(i.I2C_FilterConfig)
    i.I2C_GenerateSTART                      0x0000159a   Section        0  cw32f030_i2c.o(i.I2C_GenerateSTART)
    i.I2C_GenerateSTOP                       0x000015ce   Section        0  cw32f030_i2c.o(i.I2C_GenerateSTOP)
    i.I2C_GetIrq                             0x000015e8   Section        0  cw32f030_i2c.o(i.I2C_GetIrq)
    i.I2C_GetState                           0x000015f4   Section        0  cw32f030_i2c.o(i.I2C_GetState)
    i.I2C_MasterWriteEepromData1             0x000015fc   Section        0  oled_i2c.o(i.I2C_MasterWriteEepromData1)
    i.I2C_Master_Init                        0x000016ae   Section        0  cw32f030_i2c.o(i.I2C_Master_Init)
    i.I2C_OLED_Clear                         0x000016e4   Section        0  oled_i2c.o(i.I2C_OLED_Clear)
    i.I2C_OLED_ClearPoint                    0x0000173c   Section        0  oled_i2c.o(i.I2C_OLED_ClearPoint)
    i.I2C_OLED_Clear_Line                    0x00001808   Section        0  oled_i2c.o(i.I2C_OLED_Clear_Line)
    i.I2C_OLED_DrawPoint                     0x00001828   Section        0  oled_i2c.o(i.I2C_OLED_DrawPoint)
    i.I2C_OLED_Init                          0x00001890   Section        0  oled_i2c.o(i.I2C_OLED_Init)
    i.I2C_OLED_Move                          0x0000192c   Section        0  oled_i2c.o(i.I2C_OLED_Move)
    i.I2C_OLED_ShowChar                      0x000019fc   Section        0  oled_i2c.o(i.I2C_OLED_ShowChar)
    i.I2C_OLED_ShowChar_CH                   0x00001aa4   Section        0  oled_i2c.o(i.I2C_OLED_ShowChar_CH)
    i.I2C_OLED_ShowString                    0x00001b14   Section        0  oled_i2c.o(i.I2C_OLED_ShowString)
    i.I2C_OLED_UPdata                        0x00001bc8   Section        0  oled_i2c.o(i.I2C_OLED_UPdata)
    i.I2C_Send7bitAddress                    0x00001c30   Section        0  cw32f030_i2c.o(i.I2C_Send7bitAddress)
    i.I2C_SendData                           0x00001c42   Section        0  cw32f030_i2c.o(i.I2C_SendData)
    i.I2C_SetBaud                            0x00001c46   Section        0  cw32f030_i2c.o(i.I2C_SetBaud)
    i.I2C_init                               0x00001c4c   Section        0  oled_i2c.o(i.I2C_init)
    i.LVD_IRQHandler                         0x00001cdc   Section        0  interrupts_cw32f030.o(i.LVD_IRQHandler)
    i.NMI_Handler                            0x00001cde   Section        0  interrupts_cw32f030.o(i.NMI_Handler)
    i.OLED_StrEscCharacter                   0x00001ce0   Section        0  oled_i2c.o(i.OLED_StrEscCharacter)
    i.PendSV_Handler                         0x00001f58   Section        0  interrupts_cw32f030.o(i.PendSV_Handler)
    i.RCC_AHBPeriphClk_Enable                0x00001f5c   Section        0  cw32f030_rcc.o(i.RCC_AHBPeriphClk_Enable)
    i.RCC_APBPeriphClk_Enable2               0x00001f7c   Section        0  cw32f030_rcc.o(i.RCC_APBPeriphClk_Enable2)
    i.RCC_Configuration                      0x00001f9c   Section        0  main.o(i.RCC_Configuration)
    i.RCC_HCLKPRS_Config                     0x00001fe8   Section        0  cw32f030_rcc.o(i.RCC_HCLKPRS_Config)
    i.RCC_HSI_Enable                         0x00002008   Section        0  cw32f030_rcc.o(i.RCC_HSI_Enable)
    i.RCC_IRQHandler                         0x0000203c   Section        0  interrupts_cw32f030.o(i.RCC_IRQHandler)
    i.RCC_PCLKPRS_Config                     0x00002040   Section        0  cw32f030_rcc.o(i.RCC_PCLKPRS_Config)
    i.RCC_PLL_Enable                         0x00002060   Section        0  cw32f030_rcc.o(i.RCC_PLL_Enable)
    i.RCC_SysClk_Switch                      0x00002114   Section        0  cw32f030_rcc.o(i.RCC_SysClk_Switch)
    i.RCC_Sysctrl_GetHClkFreq                0x00002154   Section        0  cw32f030_rcc.o(i.RCC_Sysctrl_GetHClkFreq)
    i.RCC_SystemCoreClockUpdate              0x0000222c   Section        0  cw32f030_rcc.o(i.RCC_SystemCoreClockUpdate)
    i.RTC_IRQHandler                         0x00002238   Section        0  interrupts_cw32f030.o(i.RTC_IRQHandler)
    i.SPI1_IRQHandler                        0x0000223a   Section        0  interrupts_cw32f030.o(i.SPI1_IRQHandler)
    i.SPI2_IRQHandler                        0x0000223c   Section        0  interrupts_cw32f030.o(i.SPI2_IRQHandler)
    i.SVC_Handler                            0x0000223e   Section        0  interrupts_cw32f030.o(i.SVC_Handler)
    i.SysTick_Handler                        0x00002240   Section        0  cw32f030_systick.o(i.SysTick_Handler)
    i.SystemCoreClockUpdate                  0x00002258   Section        0  system_cw32f030.o(i.SystemCoreClockUpdate)
    i.SystemInit                             0x00002268   Section        0  system_cw32f030.o(i.SystemInit)
    i.UART1_IRQHandler                       0x000022a4   Section        0  interrupts_cw32f030.o(i.UART1_IRQHandler)
    i.UART2_IRQHandler                       0x000022a6   Section        0  interrupts_cw32f030.o(i.UART2_IRQHandler)
    i.UART3_IRQHandler                       0x000022a8   Section        0  interrupts_cw32f030.o(i.UART3_IRQHandler)
    i.VC1_IRQHandler                         0x000022aa   Section        0  interrupts_cw32f030.o(i.VC1_IRQHandler)
    i.VC2_IRQHandler                         0x000022ac   Section        0  interrupts_cw32f030.o(i.VC2_IRQHandler)
    i.WDT_IRQHandler                         0x000022ae   Section        0  interrupts_cw32f030.o(i.WDT_IRQHandler)
    i.WriteCmd                               0x000022b0   Section        0  oled_i2c.o(i.WriteCmd)
    i.WriteDat                               0x000022c4   Section        0  oled_i2c.o(i.WriteDat)
    i.__0printf$1                            0x000022d8   Section        0  printf1.o(i.__0printf$1)
    i.__0sprintf$1                           0x000022f8   Section        0  printf1.o(i.__0sprintf$1)
    i.__ARM_clz                              0x00002320   Section        0  depilogue.o(i.__ARM_clz)
    i.__ARM_common_switch8                   0x0000234e   Section        0  cw32f030_i2c.o(i.__ARM_common_switch8)
    i.__NVIC_EnableIRQ                       0x0000236c   Section        0  main.o(i.__NVIC_EnableIRQ)
    __NVIC_EnableIRQ                         0x0000236d   Thumb Code    26  main.o(i.__NVIC_EnableIRQ)
    i.__scatterload_copy                     0x0000238c   Section       14  handlers.o(i.__scatterload_copy)
    i.__scatterload_null                     0x0000239a   Section        2  handlers.o(i.__scatterload_null)
    i.__scatterload_zeroinit                 0x0000239c   Section       14  handlers.o(i.__scatterload_zeroinit)
    i._printf_core                           0x000023ac   Section        0  printf1.o(i._printf_core)
    _printf_core                             0x000023ad   Thumb Code   332  printf1.o(i._printf_core)
    i._sputc                                 0x000024fc   Section        0  printf1.o(i._sputc)
    _sputc                                   0x000024fd   Thumb Code    10  printf1.o(i._sputc)
    i.fputc                                  0x00002506   Section        0  fputc.o(i.fputc)
    i.free                                   0x00002518   Section        0  malloc.o(i.free)
    i.main                                   0x0000256c   Section        0  main.o(i.main)
    i.malloc                                 0x000027fc   Section        0  malloc.o(i.malloc)
    .constdata                               0x00002868   Section       30  motorcontrol.o(.constdata)
    .constdata                               0x00002886   Section    15200  font.o(.constdata)
    ASCII8x16_Table                          0x00002886   Data        1520  font.o(.constdata)
    ASCII16x24_Table                         0x00002e76   Data        4560  font.o(.constdata)
    ASCII24x32_Table                         0x00004046   Data        9120  font.o(.constdata)
    .constdata                               0x000063e8   Section      100  cw32f030_rcc.o(.constdata)
    .data                                    0x20000000   Section       32  main.o(.data)
    count2                                   0x2000001c   Data           4  main.o(.data)
    .data                                    0x20000020   Section       17  motorcontrol.o(.data)
    hallerrnum                               0x20000030   Data           1  motorcontrol.o(.data)
    .data                                    0x20000034   Section       10  oled_i2c.o(.data)
    .data                                    0x20000040   Section       72  font.o(.data)
    .data                                    0x20000088   Section        9  cw32f030_systick.o(.data)
    .data                                    0x20000094   Section        4  system_cw32f030.o(.data)
    .data                                    0x20000098   Section        4  stdout.o(.data)
    .data                                    0x2000009c   Section        4  mvars.o(.data)
    .data                                    0x200000a0   Section        4  mvars.o(.data)
    .bss                                     0x200000a4   Section      150  main.o(.bss)
    .bss                                     0x2000013a   Section     1024  oled_i2c.o(.bss)
    HEAP                                     0x20000540   Section      512  startup_cw32f030.o(HEAP)
    STACK                                    0x20000740   Section      512  startup_cw32f030.o(STACK)

    Global Symbols

    Symbol Name                              Value     Ov Type        Size  Object(Section)

    BuildAttributes$$THM_ISAv3M$S$PE$A:L22$X:L11$S22$IEEE1$IW$USESV6$~STKCKD$USESV7$~SHL$OTIME$ROPI$EBA8$MICROLIB$REQ8$PRES8$EABIv2 0x00000000   Number         0  anon$$obj.o ABSOLUTE
    __ARM_use_no_argv                        0x00000000   Number         0  main.o ABSOLUTE
    __Vectors                                0x00000000   Data           0  startup_cw32f030.o(RESET)
    _printf_a                                0x00000000   Number         0  stubs.o ABSOLUTE
    _printf_c                                0x00000000   Number         0  stubs.o ABSOLUTE
    _printf_charcount                        0x00000000   Number         0  stubs.o ABSOLUTE
    _printf_d                                0x00000000   Number         0  stubs.o ABSOLUTE
    _printf_e                                0x00000000   Number         0  stubs.o ABSOLUTE
    _printf_f                                0x00000000   Number         0  stubs.o ABSOLUTE
    _printf_flags                            0x00000000   Number         0  stubs.o ABSOLUTE
    _printf_fp_dec                           0x00000000   Number         0  stubs.o ABSOLUTE
    _printf_fp_hex                           0x00000000   Number         0  stubs.o ABSOLUTE
    _printf_g                                0x00000000   Number         0  stubs.o ABSOLUTE
    _printf_i                                0x00000000   Number         0  stubs.o ABSOLUTE
    _printf_int_dec                          0x00000000   Number         0  stubs.o ABSOLUTE
    _printf_l                                0x00000000   Number         0  stubs.o ABSOLUTE
    _printf_lc                               0x00000000   Number         0  stubs.o ABSOLUTE
    _printf_ll                               0x00000000   Number         0  stubs.o ABSOLUTE
    _printf_lld                              0x00000000   Number         0  stubs.o ABSOLUTE
    _printf_lli                              0x00000000   Number         0  stubs.o ABSOLUTE
    _printf_llo                              0x00000000   Number         0  stubs.o ABSOLUTE
    _printf_llu                              0x00000000   Number         0  stubs.o ABSOLUTE
    _printf_llx                              0x00000000   Number         0  stubs.o ABSOLUTE
    _printf_longlong_dec                     0x00000000   Number         0  stubs.o ABSOLUTE
    _printf_longlong_hex                     0x00000000   Number         0  stubs.o ABSOLUTE
    _printf_longlong_oct                     0x00000000   Number         0  stubs.o ABSOLUTE
    _printf_ls                               0x00000000   Number         0  stubs.o ABSOLUTE
    _printf_mbtowc                           0x00000000   Number         0  stubs.o ABSOLUTE
    _printf_n                                0x00000000   Number         0  stubs.o ABSOLUTE
    _printf_o                                0x00000000   Number         0  stubs.o ABSOLUTE
    _printf_p                                0x00000000   Number         0  stubs.o ABSOLUTE
    _printf_percent                          0x00000000   Number         0  stubs.o ABSOLUTE
    _printf_pre_padding                      0x00000000   Number         0  stubs.o ABSOLUTE
    _printf_return_value                     0x00000000   Number         0  stubs.o ABSOLUTE
    _printf_s                                0x00000000   Number         0  stubs.o ABSOLUTE
    _printf_sizespec                         0x00000000   Number         0  stubs.o ABSOLUTE
    _printf_str                              0x00000000   Number         0  stubs.o ABSOLUTE
    _printf_truncate_signed                  0x00000000   Number         0  stubs.o ABSOLUTE
    _printf_truncate_unsigned                0x00000000   Number         0  stubs.o ABSOLUTE
    _printf_u                                0x00000000   Number         0  stubs.o ABSOLUTE
    _printf_wc                               0x00000000   Number         0  stubs.o ABSOLUTE
    _printf_wctomb                           0x00000000   Number         0  stubs.o ABSOLUTE
    _printf_widthprec                        0x00000000   Number         0  stubs.o ABSOLUTE
    _printf_x                                0x00000000   Number         0  stubs.o ABSOLUTE
    __cpp_initialize__aeabi_                  - Undefined Weak Reference
    __cxa_finalize                            - Undefined Weak Reference
    __decompress                              - Undefined Weak Reference
    _clock_init                               - Undefined Weak Reference
    _microlib_exit                            - Undefined Weak Reference
    __Vectors_End                            0x000000c0   Data           0  startup_cw32f030.o(RESET)
    __Vectors_Size                           0x000000c0   Number         0  startup_cw32f030.o ABSOLUTE
    __main                                   0x000000c1   Thumb Code     0  entry.o(.ARM.Collect$$$$00000000)
    _main_stk                                0x000000c1   Thumb Code     0  entry2.o(.ARM.Collect$$$$00000001)
    _main_scatterload                        0x000000c5   Thumb Code     0  entry5.o(.ARM.Collect$$$$00000004)
    __main_after_scatterload                 0x000000c9   Thumb Code     0  entry5.o(.ARM.Collect$$$$00000004)
    _main_clock                              0x000000c9   Thumb Code     0  entry7b.o(.ARM.Collect$$$$00000008)
    _main_cpp_init                           0x000000c9   Thumb Code     0  entry8b.o(.ARM.Collect$$$$0000000A)
    _main_init                               0x000000c9   Thumb Code     0  entry9a.o(.ARM.Collect$$$$0000000B)
    __rt_final_cpp                           0x000000d1   Thumb Code     0  entry10a.o(.ARM.Collect$$$$0000000D)
    __rt_final_exit                          0x000000d1   Thumb Code     0  entry11a.o(.ARM.Collect$$$$0000000F)
    Reset_Handler                            0x000000d5   Thumb Code    26  startup_cw32f030.o(.text)
    BTIM2_IRQHandler                         0x000000f9   Thumb Code     0  startup_cw32f030.o(.text)
    __aeabi_uidiv                            0x00000111   Thumb Code     0  uidiv.o(.text)
    __aeabi_uidivmod                         0x00000111   Thumb Code    44  uidiv.o(.text)
    __aeabi_idiv                             0x0000013d   Thumb Code     0  idiv.o(.text)
    __aeabi_idivmod                          0x0000013d   Thumb Code    40  idiv.o(.text)
    __aeabi_memcpy                           0x00000165   Thumb Code    36  memcpya.o(.text)
    __aeabi_memcpy4                          0x00000165   Thumb Code     0  memcpya.o(.text)
    __aeabi_memcpy8                          0x00000165   Thumb Code     0  memcpya.o(.text)
    __aeabi_dadd                             0x00000189   Thumb Code   328  dadd.o(.text)
    __aeabi_dsub                             0x000002d1   Thumb Code    12  dadd.o(.text)
    __aeabi_drsub                            0x000002dd   Thumb Code    12  dadd.o(.text)
    __aeabi_dmul                             0x000002ed   Thumb Code   202  dmul.o(.text)
    __aeabi_ui2d                             0x000003bd   Thumb Code    24  dfltui.o(.text)
    __aeabi_f2uiz                            0x000003d9   Thumb Code    40  ffixui.o(.text)
    __aeabi_d2uiz                            0x00000401   Thumb Code    50  dfixui.o(.text)
    __aeabi_cdcmpeq                          0x0000043d   Thumb Code     0  cdcmple.o(.text)
    __aeabi_cdcmple                          0x0000043d   Thumb Code    38  cdcmple.o(.text)
    __aeabi_cdrcmple                         0x00000465   Thumb Code    38  cdrcmple.o(.text)
    __aeabi_d2f                              0x0000048d   Thumb Code    56  d2f.o(.text)
    __aeabi_llsl                             0x000004c5   Thumb Code    32  llshl.o(.text)
    _ll_shift_l                              0x000004c5   Thumb Code     0  llshl.o(.text)
    __aeabi_llsr                             0x000004e5   Thumb Code    34  llushr.o(.text)
    _ll_ushift_r                             0x000004e5   Thumb Code     0  llushr.o(.text)
    __aeabi_lasr                             0x00000507   Thumb Code    38  llsshr.o(.text)
    _ll_sshift_r                             0x00000507   Thumb Code     0  llsshr.o(.text)
    __I$use$fp                               0x0000052d   Thumb Code     0  iusefp.o(.text)
    _float_round                             0x0000052d   Thumb Code    16  fepilogue.o(.text)
    _float_epilogue                          0x0000053d   Thumb Code   114  fepilogue.o(.text)
    _double_round                            0x000005af   Thumb Code    26  depilogue.o(.text)
    _double_epilogue                         0x000005c9   Thumb Code   164  depilogue.o(.text)
    __scatterload                            0x0000066d   Thumb Code    28  init.o(.text)
    __scatterload_rt2                        0x0000066d   Thumb Code     0  init.o(.text)
    ADC_Configuration                        0x00000691   Thumb Code   186  main.o(i.ADC_Configuration)
    __I$use$semihosting$fputc                0x00000691   Thumb Code     0  iusesemip.o(.text)
    __semihosting_library_function           0x00000691   Thumb Code     0  semi.o(.text)
    ADC_Enable                               0x00000765   Thumb Code    28  cw32f030_adc.o(i.ADC_Enable)
    ADC_GetITStatus                          0x00000785   Thumb Code    20  cw32f030_adc.o(i.ADC_GetITStatus)
    ADC_IRQHandler                           0x0000079d   Thumb Code     2  interrupts_cw32f030.o(i.ADC_IRQHandler)
    ADC_Init                                 0x000007a1   Thumb Code    86  cw32f030_adc.o(i.ADC_Init)
    ADC_SoftwareStartConvCmd                 0x00000801   Thumb Code    32  cw32f030_adc.o(i.ADC_SoftwareStartConvCmd)
    ATIIM_init                               0x00000825   Thumb Code   318  main.o(i.ATIIM_init)
    ATIM_ClearITPendingBit                   0x00000971   Thumb Code     8  cw32f030_atim.o(i.ATIM_ClearITPendingBit)
    ATIM_Cmd                                 0x0000097d   Thumb Code    20  cw32f030_atim.o(i.ATIM_Cmd)
    ATIM_CtrlPWMOutputs                      0x00000995   Thumb Code    26  cw32f030_atim.o(i.ATIM_CtrlPWMOutputs)
    ATIM_GetITStatus                         0x000009b5   Thumb Code    20  cw32f030_atim.o(i.ATIM_GetITStatus)
    ATIM_IRQHandler                          0x000009cd   Thumb Code    24  main.o(i.ATIM_IRQHandler)
    ATIM_Init                                0x000009e5   Thumb Code    94  cw32f030_atim.o(i.ATIM_Init)
    ATIM_OC1AInit                            0x00000a4d   Thumb Code   110  cw32f030_atim.o(i.ATIM_OC1AInit)
    ATIM_OC2AInit                            0x00000ac1   Thumb Code   114  cw32f030_atim.o(i.ATIM_OC2AInit)
    ATIM_OC3AInit                            0x00000b39   Thumb Code   114  cw32f030_atim.o(i.ATIM_OC3AInit)
    ATIM_PWMOutputConfig                     0x00000bb1   Thumb Code    72  cw32f030_atim.o(i.ATIM_PWMOutputConfig)
    ATIM_SetCompare1A                        0x00000bfd   Thumb Code     6  cw32f030_atim.o(i.ATIM_SetCompare1A)
    ATIM_SetCompare2A                        0x00000c09   Thumb Code     6  cw32f030_atim.o(i.ATIM_SetCompare2A)
    ATIM_SetCompare3A                        0x00000c15   Thumb Code     6  cw32f030_atim.o(i.ATIM_SetCompare3A)
    AWT_IRQHandler                           0x00000c21   Thumb Code     2  interrupts_cw32f030.o(i.AWT_IRQHandler)
    BTIM1_IRQHandler                         0x00000c25   Thumb Code    82  main.o(i.BTIM1_IRQHandler)
    BTIM3_IRQHandler                         0x00000c91   Thumb Code     2  interrupts_cw32f030.o(i.BTIM3_IRQHandler)
    BTIM_ClearITPendingBit                   0x00000c93   Thumb Code     8  cw32f030_btim.o(i.BTIM_ClearITPendingBit)
    BTIM_Cmd                                 0x00000c9b   Thumb Code    24  cw32f030_btim.o(i.BTIM_Cmd)
    BTIM_GetITStatus                         0x00000cb3   Thumb Code    18  cw32f030_btim.o(i.BTIM_GetITStatus)
    BTIM_ITConfig                            0x00000cc5   Thumb Code    20  cw32f030_btim.o(i.BTIM_ITConfig)
    BTIM_TimeBaseInit                        0x00000cd9   Thumb Code    28  cw32f030_btim.o(i.BTIM_TimeBaseInit)
    BTIM_init                                0x00000cf9   Thumb Code    72  main.o(i.BTIM_init)
    Commutation                              0x00000d4d   Thumb Code   300  motorcontrol.o(i.Commutation)
    DMACH1_IRQHandler                        0x00000e81   Thumb Code    20  interrupts_cw32f030.o(i.DMACH1_IRQHandler)
    DMACH23_IRQHandler                       0x00000e95   Thumb Code     2  interrupts_cw32f030.o(i.DMACH23_IRQHandler)
    DMACH45_IRQHandler                       0x00000e97   Thumb Code     2  interrupts_cw32f030.o(i.DMACH45_IRQHandler)
    DMA_ClearITPendingBit                    0x00000e99   Thumb Code    12  cw32f030_dma.o(i.DMA_ClearITPendingBit)
    DMA_Cmd                                  0x00000ea9   Thumb Code    24  cw32f030_dma.o(i.DMA_Cmd)
    DMA_GetITStatus                          0x00000ec1   Thumb Code    20  cw32f030_dma.o(i.DMA_GetITStatus)
    DMA_ITConfig                             0x00000ed9   Thumb Code    20  cw32f030_dma.o(i.DMA_ITConfig)
    DMA_Init                                 0x00000eed   Thumb Code    60  cw32f030_dma.o(i.DMA_Init)
    DMA_StructInit                           0x00000f29   Thumb Code    24  cw32f030_dma.o(i.DMA_StructInit)
    FAULT_IRQHandler                         0x00000f41   Thumb Code     2  interrupts_cw32f030.o(i.FAULT_IRQHandler)
    FLASHRAM_IRQHandler                      0x00000f43   Thumb Code     2  interrupts_cw32f030.o(i.FLASHRAM_IRQHandler)
    FLASH_SetLatency                         0x00000f45   Thumb Code    28  cw32f030_flash.o(i.FLASH_SetLatency)
    GPIOA_IRQHandler                         0x00000f69   Thumb Code     2  interrupts_cw32f030.o(i.GPIOA_IRQHandler)
    GPIOB_IRQHandler                         0x00000f6b   Thumb Code     2  interrupts_cw32f030.o(i.GPIOB_IRQHandler)
    GPIOC_IRQHandler                         0x00000f6d   Thumb Code     2  interrupts_cw32f030.o(i.GPIOC_IRQHandler)
    GPIOF_IRQHandler                         0x00000f6f   Thumb Code     2  interrupts_cw32f030.o(i.GPIOF_IRQHandler)
    GPIO_Configuration                       0x00000f71   Thumb Code   142  main.o(i.GPIO_Configuration)
    GPIO_Init                                0x00001011   Thumb Code   252  cw32f030_gpio.o(i.GPIO_Init)
    GPIO_WritePin                            0x00001111   Thumb Code    12  cw32f030_gpio.o(i.GPIO_WritePin)
    GTIM1_IRQHandler                         0x0000111d   Thumb Code    24  interrupts_cw32f030.o(i.GTIM1_IRQHandler)
    GTIM2_IRQHandler                         0x00001139   Thumb Code   122  main.o(i.GTIM2_IRQHandler)
    GTIM3_IRQHandler                         0x000011d1   Thumb Code     2  interrupts_cw32f030.o(i.GTIM3_IRQHandler)
    GTIM4_IRQHandler                         0x000011d3   Thumb Code     2  interrupts_cw32f030.o(i.GTIM4_IRQHandler)
    GTIM_ClearITPendingBit                   0x000011d5   Thumb Code    12  cw32f030_gtim.o(i.GTIM_ClearITPendingBit)
    GTIM_Cmd                                 0x000011e1   Thumb Code    28  cw32f030_gtim.o(i.GTIM_Cmd)
    GTIM_GetITStatus                         0x000011fd   Thumb Code    24  cw32f030_gtim.o(i.GTIM_GetITStatus)
    GTIM_ICInit                              0x00001215   Thumb Code    72  cw32f030_gtim.o(i.GTIM_ICInit)
    GTIM_ITConfig                            0x0000125d   Thumb Code    46  cw32f030_gtim.o(i.GTIM_ITConfig)
    GTIM_TimeBaseInit                        0x0000128d   Thumb Code    60  cw32f030_gtim.o(i.GTIM_TimeBaseInit)
    GTIM_init                                0x000012cd   Thumb Code   258  main.o(i.GTIM_init)
    GetConslonsCode_from_EXFlash             0x000013e5   Thumb Code    58  font.o(i.GetConslonsCode_from_EXFlash)
    GetGBKCode_from_EXFlash                  0x00001421   Thumb Code    16  font.o(i.GetGBKCode_from_EXFlash)
    HALL_Check                               0x00001445   Thumb Code    96  motorcontrol.o(i.HALL_Check)
    HALL_MOTOR_START                         0x000014b5   Thumb Code    46  motorcontrol.o(i.HALL_MOTOR_START)
    HardFault_Handler                        0x000014f5   Thumb Code     4  interrupts_cw32f030.o(i.HardFault_Handler)
    I2C1_DeInit                              0x000014f9   Thumb Code    36  cw32f030_i2c.o(i.I2C1_DeInit)
    I2C1_IRQHandler                          0x00001525   Thumb Code     2  interrupts_cw32f030.o(i.I2C1_IRQHandler)
    I2C2_IRQHandler                          0x00001527   Thumb Code     2  interrupts_cw32f030.o(i.I2C2_IRQHandler)
    I2C_AcknowledgeConfig                    0x00001529   Thumb Code    26  cw32f030_i2c.o(i.I2C_AcknowledgeConfig)
    I2C_BaudGeneratorEnable                  0x00001543   Thumb Code    26  cw32f030_i2c.o(i.I2C_BaudGeneratorEnable)
    I2C_ClearIrq                             0x0000155d   Thumb Code    10  cw32f030_i2c.o(i.I2C_ClearIrq)
    I2C_Cmd                                  0x00001567   Thumb Code    26  cw32f030_i2c.o(i.I2C_Cmd)
    I2C_FilterConfig                         0x00001581   Thumb Code    26  cw32f030_i2c.o(i.I2C_FilterConfig)
    I2C_GenerateSTART                        0x0000159b   Thumb Code    52  cw32f030_i2c.o(i.I2C_GenerateSTART)
    I2C_GenerateSTOP                         0x000015cf   Thumb Code    26  cw32f030_i2c.o(i.I2C_GenerateSTOP)
    I2C_GetIrq                               0x000015e9   Thumb Code    12  cw32f030_i2c.o(i.I2C_GetIrq)
    I2C_GetState                             0x000015f5   Thumb Code     8  cw32f030_i2c.o(i.I2C_GetState)
    I2C_MasterWriteEepromData1               0x000015fd   Thumb Code   178  oled_i2c.o(i.I2C_MasterWriteEepromData1)
    I2C_Master_Init                          0x000016af   Thumb Code    54  cw32f030_i2c.o(i.I2C_Master_Init)
    I2C_OLED_Clear                           0x000016e5   Thumb Code    66  oled_i2c.o(i.I2C_OLED_Clear)
    I2C_OLED_ClearPoint                      0x0000173d   Thumb Code   190  oled_i2c.o(i.I2C_OLED_ClearPoint)
    I2C_OLED_Clear_Line                      0x00001809   Thumb Code    28  oled_i2c.o(i.I2C_OLED_Clear_Line)
    I2C_OLED_DrawPoint                       0x00001829   Thumb Code    90  oled_i2c.o(i.I2C_OLED_DrawPoint)
    I2C_OLED_Init                            0x00001891   Thumb Code   154  oled_i2c.o(i.I2C_OLED_Init)
    I2C_OLED_Move                            0x0000192d   Thumb Code   200  oled_i2c.o(i.I2C_OLED_Move)
    I2C_OLED_ShowChar                        0x000019fd   Thumb Code   164  oled_i2c.o(i.I2C_OLED_ShowChar)
    I2C_OLED_ShowChar_CH                     0x00001aa5   Thumb Code   112  oled_i2c.o(i.I2C_OLED_ShowChar_CH)
    I2C_OLED_ShowString                      0x00001b15   Thumb Code   174  oled_i2c.o(i.I2C_OLED_ShowString)
    I2C_OLED_UPdata                          0x00001bc9   Thumb Code    92  oled_i2c.o(i.I2C_OLED_UPdata)
    I2C_Send7bitAddress                      0x00001c31   Thumb Code    18  cw32f030_i2c.o(i.I2C_Send7bitAddress)
    I2C_SendData                             0x00001c43   Thumb Code     4  cw32f030_i2c.o(i.I2C_SendData)
    I2C_SetBaud                              0x00001c47   Thumb Code     4  cw32f030_i2c.o(i.I2C_SetBaud)
    I2C_init                                 0x00001c4d   Thumb Code   128  oled_i2c.o(i.I2C_init)
    LVD_IRQHandler                           0x00001cdd   Thumb Code     2  interrupts_cw32f030.o(i.LVD_IRQHandler)
    NMI_Handler                              0x00001cdf   Thumb Code     2  interrupts_cw32f030.o(i.NMI_Handler)
    OLED_StrEscCharacter                     0x00001ce1   Thumb Code   626  oled_i2c.o(i.OLED_StrEscCharacter)
    PendSV_Handler                           0x00001f59   Thumb Code     2  interrupts_cw32f030.o(i.PendSV_Handler)
    RCC_AHBPeriphClk_Enable                  0x00001f5d   Thumb Code    28  cw32f030_rcc.o(i.RCC_AHBPeriphClk_Enable)
    RCC_APBPeriphClk_Enable2                 0x00001f7d   Thumb Code    28  cw32f030_rcc.o(i.RCC_APBPeriphClk_Enable2)
    RCC_Configuration                        0x00001f9d   Thumb Code    62  main.o(i.RCC_Configuration)
    RCC_HCLKPRS_Config                       0x00001fe9   Thumb Code    20  cw32f030_rcc.o(i.RCC_HCLKPRS_Config)
    RCC_HSI_Enable                           0x00002009   Thumb Code    44  cw32f030_rcc.o(i.RCC_HSI_Enable)
    RCC_IRQHandler                           0x0000203d   Thumb Code     2  interrupts_cw32f030.o(i.RCC_IRQHandler)
    RCC_PCLKPRS_Config                       0x00002041   Thumb Code    20  cw32f030_rcc.o(i.RCC_PCLKPRS_Config)
    RCC_PLL_Enable                           0x00002061   Thumb Code   168  cw32f030_rcc.o(i.RCC_PLL_Enable)
    RCC_SysClk_Switch                        0x00002115   Thumb Code    54  cw32f030_rcc.o(i.RCC_SysClk_Switch)
    RCC_Sysctrl_GetHClkFreq                  0x00002155   Thumb Code   194  cw32f030_rcc.o(i.RCC_Sysctrl_GetHClkFreq)
    RCC_SystemCoreClockUpdate                0x0000222d   Thumb Code     6  cw32f030_rcc.o(i.RCC_SystemCoreClockUpdate)
    RTC_IRQHandler                           0x00002239   Thumb Code     2  interrupts_cw32f030.o(i.RTC_IRQHandler)
    SPI1_IRQHandler                          0x0000223b   Thumb Code     2  interrupts_cw32f030.o(i.SPI1_IRQHandler)
    SPI2_IRQHandler                          0x0000223d   Thumb Code     2  interrupts_cw32f030.o(i.SPI2_IRQHandler)
    SVC_Handler                              0x0000223f   Thumb Code     2  interrupts_cw32f030.o(i.SVC_Handler)
    SysTick_Handler                          0x00002241   Thumb Code    16  cw32f030_systick.o(i.SysTick_Handler)
    SystemCoreClockUpdate                    0x00002259   Thumb Code     8  system_cw32f030.o(i.SystemCoreClockUpdate)
    SystemInit                               0x00002269   Thumb Code    54  system_cw32f030.o(i.SystemInit)
    UART1_IRQHandler                         0x000022a5   Thumb Code     2  interrupts_cw32f030.o(i.UART1_IRQHandler)
    UART2_IRQHandler                         0x000022a7   Thumb Code     2  interrupts_cw32f030.o(i.UART2_IRQHandler)
    UART3_IRQHandler                         0x000022a9   Thumb Code     2  interrupts_cw32f030.o(i.UART3_IRQHandler)
    VC1_IRQHandler                           0x000022ab   Thumb Code     2  interrupts_cw32f030.o(i.VC1_IRQHandler)
    VC2_IRQHandler                           0x000022ad   Thumb Code     2  interrupts_cw32f030.o(i.VC2_IRQHandler)
    WDT_IRQHandler                           0x000022af   Thumb Code     2  interrupts_cw32f030.o(i.WDT_IRQHandler)
    WriteCmd                                 0x000022b1   Thumb Code    16  oled_i2c.o(i.WriteCmd)
    WriteDat                                 0x000022c5   Thumb Code    16  oled_i2c.o(i.WriteDat)
    __0printf$1                              0x000022d9   Thumb Code    24  printf1.o(i.__0printf$1)
    __1printf$1                              0x000022d9   Thumb Code     0  printf1.o(i.__0printf$1)
    __2printf                                0x000022d9   Thumb Code     0  printf1.o(i.__0printf$1)
    __0sprintf$1                             0x000022f9   Thumb Code    36  printf1.o(i.__0sprintf$1)
    __1sprintf$1                             0x000022f9   Thumb Code     0  printf1.o(i.__0sprintf$1)
    __2sprintf                               0x000022f9   Thumb Code     0  printf1.o(i.__0sprintf$1)
    __ARM_clz                                0x00002321   Thumb Code    46  depilogue.o(i.__ARM_clz)
    __ARM_common_switch8                     0x0000234f   Thumb Code    28  cw32f030_i2c.o(i.__ARM_common_switch8)
    __scatterload_copy                       0x0000238d   Thumb Code    14  handlers.o(i.__scatterload_copy)
    __scatterload_null                       0x0000239b   Thumb Code     2  handlers.o(i.__scatterload_null)
    __scatterload_zeroinit                   0x0000239d   Thumb Code    14  handlers.o(i.__scatterload_zeroinit)
    fputc                                    0x00002507   Thumb Code    18  fputc.o(i.fputc)
    free                                     0x00002519   Thumb Code    80  malloc.o(i.free)
    main                                     0x0000256d   Thumb Code   528  main.o(i.main)
    malloc                                   0x000027fd   Thumb Code    92  malloc.o(i.malloc)
    PWM_EN_TAB                               0x00002868   Data          24  motorcontrol.o(.constdata)
    STEP_TAB                                 0x00002880   Data           6  motorcontrol.o(.constdata)
    hsiprs_tbl                               0x000063e8   Data          64  cw32f030_rcc.o(.constdata)
    Region$$Table$$Base                      0x0000644c   Number         0  anon$$obj.o(Region$$Table)
    Region$$Table$$Limit                     0x0000646c   Number         0  anon$$obj.o(Region$$Table)
    RealS                                    0x20000000   Data           4  main.o(.data)
    HALLcount                                0x20000004   Data           4  main.o(.data)
    ADC_Result_Array                         0x20000008   Data           2  main.o(.data)
    timecount                                0x2000000c   Data           4  main.o(.data)
    timecount1                               0x20000010   Data           4  main.o(.data)
    PWMFLA                                   0x20000014   Data           1  main.o(.data)
    Menu                                     0x20000018   Data           4  main.o(.data)
    ErrorCode                                0x20000020   Data           4  motorcontrol.o(.data)
    Cur_step                                 0x20000024   Data           4  motorcontrol.o(.data)
    Motor_Start_F                            0x20000028   Data           4  motorcontrol.o(.data)
    OutPwm                                   0x2000002c   Data           4  motorcontrol.o(.data)
    Fonttemp                                 0x20000034   Data           4  oled_i2c.o(.data)
    I2C_OFFSET_W                             0x20000038   Data           2  oled_i2c.o(.data)
    I2C_OFFSET_H                             0x2000003a   Data           2  oled_i2c.o(.data)
    I2C_P_x                                  0x2000003c   Data           1  oled_i2c.o(.data)
    I2C_P_y                                  0x2000003d   Data           1  oled_i2c.o(.data)
    everRead                                 0x20000040   Data           1  font.o(.data)
    Font8x16                                 0x20000048   Data          16  font.o(.data)
    Font16x24                                0x20000058   Data          16  font.o(.data)
    Font24x32                                0x20000068   Data          16  font.o(.data)
    GB2312_H1616                             0x20000078   Data          16  font.o(.data)
    uwTick                                   0x20000088   Data           4  cw32f030_systick.o(.data)
    uwTickPrio                               0x2000008c   Data           4  cw32f030_systick.o(.data)
    uwTickFreq                               0x20000090   Data           1  cw32f030_systick.o(.data)
    SystemCoreClock                          0x20000094   Data           4  system_cw32f030.o(.data)
    __stdout                                 0x20000098   Data           4  stdout.o(.data)
    __microlib_freelist                      0x2000009c   Data           4  mvars.o(.data)
    __microlib_freelist_initialised          0x200000a0   Data           4  mvars.o(.data)
    temp_buff                                0x200000a4   Data         100  main.o(.bss)
    temp_buff1                               0x20000108   Data          50  main.o(.bss)
    I2C_OLED_GRAM                            0x2000013a   Data        1024  oled_i2c.o(.bss)
    __heap_base                              0x20000540   Data           0  startup_cw32f030.o(HEAP)
    __heap_limit                             0x20000740   Data           0  startup_cw32f030.o(HEAP)
    __initial_sp                             0x20000940   Data           0  startup_cw32f030.o(STACK)



==============================================================================

Memory Map of the image

  Image Entry point : 0x000000c1

  Load Region LR_IROM1 (Base: 0x00000000, Size: 0x00006510, Max: 0x00010000, ABSOLUTE)

    Execution Region ER_IROM1 (Exec base: 0x00000000, Load base: 0x00000000, Size: 0x0000646c, Max: 0x00010000, ABSOLUTE)

    Exec Addr    Load Addr    Size         Type   Attr      Idx    E Section Name        Object

    0x00000000   0x00000000   0x000000c0   Data   RO          323    RESET               startup_cw32f030.o
    0x000000c0   0x000000c0   0x00000000   Code   RO         3752  * .ARM.Collect$$$$00000000  mc_p.l(entry.o)
    0x000000c0   0x000000c0   0x00000004   Code   RO         4084    .ARM.Collect$$$$00000001  mc_p.l(entry2.o)
    0x000000c4   0x000000c4   0x00000004   Code   RO         4087    .ARM.Collect$$$$00000004  mc_p.l(entry5.o)
    0x000000c8   0x000000c8   0x00000000   Code   RO         4089    .ARM.Collect$$$$00000008  mc_p.l(entry7b.o)
    0x000000c8   0x000000c8   0x00000000   Code   RO         4091    .ARM.Collect$$$$0000000A  mc_p.l(entry8b.o)
    0x000000c8   0x000000c8   0x00000008   Code   RO         4092    .ARM.Collect$$$$0000000B  mc_p.l(entry9a.o)
    0x000000d0   0x000000d0   0x00000000   Code   RO         4094    .ARM.Collect$$$$0000000D  mc_p.l(entry10a.o)
    0x000000d0   0x000000d0   0x00000000   Code   RO         4096    .ARM.Collect$$$$0000000F  mc_p.l(entry11a.o)
    0x000000d0   0x000000d0   0x00000004   Code   RO         4085    .ARM.Collect$$$$00002712  mc_p.l(entry2.o)
    0x000000d4   0x000000d4   0x0000003c   Code   RO          324    .text               startup_cw32f030.o
    0x00000110   0x00000110   0x0000002c   Code   RO         3755    .text               mc_p.l(uidiv.o)
    0x0000013c   0x0000013c   0x00000028   Code   RO         3757    .text               mc_p.l(idiv.o)
    0x00000164   0x00000164   0x00000024   Code   RO         3761    .text               mc_p.l(memcpya.o)
    0x00000188   0x00000188   0x00000164   Code   RO         4060    .text               mf_p.l(dadd.o)
    0x000002ec   0x000002ec   0x000000d0   Code   RO         4062    .text               mf_p.l(dmul.o)
    0x000003bc   0x000003bc   0x0000001c   Code   RO         4068    .text               mf_p.l(dfltui.o)
    0x000003d8   0x000003d8   0x00000028   Code   RO         4072    .text               mf_p.l(ffixui.o)
    0x00000400   0x00000400   0x0000003c   Code   RO         4074    .text               mf_p.l(dfixui.o)
    0x0000043c   0x0000043c   0x00000028   Code   RO         4078    .text               mf_p.l(cdcmple.o)
    0x00000464   0x00000464   0x00000028   Code   RO         4080    .text               mf_p.l(cdrcmple.o)
    0x0000048c   0x0000048c   0x00000038   Code   RO         4082    .text               mf_p.l(d2f.o)
    0x000004c4   0x000004c4   0x00000020   Code   RO         4103    .text               mc_p.l(llshl.o)
    0x000004e4   0x000004e4   0x00000022   Code   RO         4105    .text               mc_p.l(llushr.o)
    0x00000506   0x00000506   0x00000026   Code   RO         4107    .text               mc_p.l(llsshr.o)
    0x0000052c   0x0000052c   0x00000000   Code   RO         4111    .text               mc_p.l(iusefp.o)
    0x0000052c   0x0000052c   0x00000082   Code   RO         4112    .text               mf_p.l(fepilogue.o)
    0x000005ae   0x000005ae   0x000000be   Code   RO         4114    .text               mf_p.l(depilogue.o)
    0x0000066c   0x0000066c   0x00000024   Code   RO         4122    .text               mc_p.l(init.o)
    0x00000690   0x00000690   0x00000000   Code   RO         4124    .text               mc_p.l(semi.o)
    0x00000690   0x00000690   0x00000000   Code   RO         4125    .text               mc_p.l(iusesemip.o)
    0x00000690   0x00000690   0x000000d4   Code   RO          330    i.ADC_Configuration  main.o
    0x00000764   0x00000764   0x00000020   Code   RO          667    i.ADC_Enable        cw32f030_adc.o
    0x00000784   0x00000784   0x00000018   Code   RO          673    i.ADC_GetITStatus   cw32f030_adc.o
    0x0000079c   0x0000079c   0x00000002   Code   RO            3    i.ADC_IRQHandler    interrupts_cw32f030.o
    0x0000079e   0x0000079e   0x00000002   PAD
    0x000007a0   0x000007a0   0x00000060   Code   RO          682    i.ADC_Init          cw32f030_adc.o
    0x00000800   0x00000800   0x00000024   Code   RO          696    i.ADC_SoftwareStartConvCmd  cw32f030_adc.o
    0x00000824   0x00000824   0x0000014c   Code   RO          331    i.ATIIM_init        main.o
    0x00000970   0x00000970   0x0000000c   Code   RO          987    i.ATIM_ClearITPendingBit  cw32f030_atim.o
    0x0000097c   0x0000097c   0x00000018   Code   RO          988    i.ATIM_Cmd          cw32f030_atim.o
    0x00000994   0x00000994   0x00000020   Code   RO          989    i.ATIM_CtrlPWMOutputs  cw32f030_atim.o
    0x000009b4   0x000009b4   0x00000018   Code   RO          998    i.ATIM_GetITStatus  cw32f030_atim.o
    0x000009cc   0x000009cc   0x00000018   Code   RO          332    i.ATIM_IRQHandler   main.o
    0x000009e4   0x000009e4   0x00000068   Code   RO         1006    i.ATIM_Init         cw32f030_atim.o
    0x00000a4c   0x00000a4c   0x00000074   Code   RO         1008    i.ATIM_OC1AInit     cw32f030_atim.o
    0x00000ac0   0x00000ac0   0x00000078   Code   RO         1010    i.ATIM_OC2AInit     cw32f030_atim.o
    0x00000b38   0x00000b38   0x00000078   Code   RO         1012    i.ATIM_OC3AInit     cw32f030_atim.o
    0x00000bb0   0x00000bb0   0x0000004c   Code   RO         1015    i.ATIM_PWMOutputConfig  cw32f030_atim.o
    0x00000bfc   0x00000bfc   0x0000000c   Code   RO         1016    i.ATIM_SetCompare1A  cw32f030_atim.o
    0x00000c08   0x00000c08   0x0000000c   Code   RO         1018    i.ATIM_SetCompare2A  cw32f030_atim.o
    0x00000c14   0x00000c14   0x0000000c   Code   RO         1020    i.ATIM_SetCompare3A  cw32f030_atim.o
    0x00000c20   0x00000c20   0x00000002   Code   RO            4    i.AWT_IRQHandler    interrupts_cw32f030.o
    0x00000c22   0x00000c22   0x00000002   PAD
    0x00000c24   0x00000c24   0x0000006c   Code   RO          333    i.BTIM1_IRQHandler  main.o
    0x00000c90   0x00000c90   0x00000002   Code   RO            5    i.BTIM3_IRQHandler  interrupts_cw32f030.o
    0x00000c92   0x00000c92   0x00000008   Code   RO         1363    i.BTIM_ClearITPendingBit  cw32f030_btim.o
    0x00000c9a   0x00000c9a   0x00000018   Code   RO         1364    i.BTIM_Cmd          cw32f030_btim.o
    0x00000cb2   0x00000cb2   0x00000012   Code   RO         1370    i.BTIM_GetITStatus  cw32f030_btim.o
    0x00000cc4   0x00000cc4   0x00000014   Code   RO         1372    i.BTIM_ITConfig     cw32f030_btim.o
    0x00000cd8   0x00000cd8   0x00000020   Code   RO         1381    i.BTIM_TimeBaseInit  cw32f030_btim.o
    0x00000cf8   0x00000cf8   0x00000054   Code   RO          334    i.BTIM_init         main.o
    0x00000d4c   0x00000d4c   0x00000134   Code   RO          423    i.Commutation       motorcontrol.o
    0x00000e80   0x00000e80   0x00000014   Code   RO            6    i.DMACH1_IRQHandler  interrupts_cw32f030.o
    0x00000e94   0x00000e94   0x00000002   Code   RO            7    i.DMACH23_IRQHandler  interrupts_cw32f030.o
    0x00000e96   0x00000e96   0x00000002   Code   RO            8    i.DMACH45_IRQHandler  interrupts_cw32f030.o
    0x00000e98   0x00000e98   0x00000010   Code   RO         1611    i.DMA_ClearITPendingBit  cw32f030_dma.o
    0x00000ea8   0x00000ea8   0x00000018   Code   RO         1612    i.DMA_Cmd           cw32f030_dma.o
    0x00000ec0   0x00000ec0   0x00000018   Code   RO         1615    i.DMA_GetITStatus   cw32f030_dma.o
    0x00000ed8   0x00000ed8   0x00000014   Code   RO         1616    i.DMA_ITConfig      cw32f030_dma.o
    0x00000eec   0x00000eec   0x0000003c   Code   RO         1617    i.DMA_Init          cw32f030_dma.o
    0x00000f28   0x00000f28   0x00000018   Code   RO         1619    i.DMA_StructInit    cw32f030_dma.o
    0x00000f40   0x00000f40   0x00000002   Code   RO            9    i.FAULT_IRQHandler  interrupts_cw32f030.o
    0x00000f42   0x00000f42   0x00000002   Code   RO           10    i.FLASHRAM_IRQHandler  interrupts_cw32f030.o
    0x00000f44   0x00000f44   0x00000024   Code   RO         1693    i.FLASH_SetLatency  cw32f030_flash.o
    0x00000f68   0x00000f68   0x00000002   Code   RO           11    i.GPIOA_IRQHandler  interrupts_cw32f030.o
    0x00000f6a   0x00000f6a   0x00000002   Code   RO           12    i.GPIOB_IRQHandler  interrupts_cw32f030.o
    0x00000f6c   0x00000f6c   0x00000002   Code   RO           13    i.GPIOC_IRQHandler  interrupts_cw32f030.o
    0x00000f6e   0x00000f6e   0x00000002   Code   RO           14    i.GPIOF_IRQHandler  interrupts_cw32f030.o
    0x00000f70   0x00000f70   0x000000a0   Code   RO          335    i.GPIO_Configuration  main.o
    0x00001010   0x00001010   0x00000100   Code   RO         1817    i.GPIO_Init         cw32f030_gpio.o
    0x00001110   0x00001110   0x0000000c   Code   RO         1823    i.GPIO_WritePin     cw32f030_gpio.o
    0x0000111c   0x0000111c   0x0000001c   Code   RO           15    i.GTIM1_IRQHandler  interrupts_cw32f030.o
    0x00001138   0x00001138   0x00000098   Code   RO          336    i.GTIM2_IRQHandler  main.o
    0x000011d0   0x000011d0   0x00000002   Code   RO           16    i.GTIM3_IRQHandler  interrupts_cw32f030.o
    0x000011d2   0x000011d2   0x00000002   Code   RO           17    i.GTIM4_IRQHandler  interrupts_cw32f030.o
    0x000011d4   0x000011d4   0x0000000c   Code   RO         1901    i.GTIM_ClearITPendingBit  cw32f030_gtim.o
    0x000011e0   0x000011e0   0x0000001c   Code   RO         1902    i.GTIM_Cmd          cw32f030_gtim.o
    0x000011fc   0x000011fc   0x00000018   Code   RO         1910    i.GTIM_GetITStatus  cw32f030_gtim.o
    0x00001214   0x00001214   0x00000048   Code   RO         1912    i.GTIM_ICInit       cw32f030_gtim.o
    0x0000125c   0x0000125c   0x0000002e   Code   RO         1913    i.GTIM_ITConfig     cw32f030_gtim.o
    0x0000128a   0x0000128a   0x00000002   PAD
    0x0000128c   0x0000128c   0x00000040   Code   RO         1922    i.GTIM_TimeBaseInit  cw32f030_gtim.o
    0x000012cc   0x000012cc   0x00000118   Code   RO          337    i.GTIM_init         main.o
    0x000013e4   0x000013e4   0x0000003a   Code   RO          621    i.GetConslonsCode_from_EXFlash  font.o
    0x0000141e   0x0000141e   0x00000002   PAD
    0x00001420   0x00001420   0x00000024   Code   RO          622    i.GetGBKCode_from_EXFlash  font.o
    0x00001444   0x00001444   0x00000070   Code   RO          424    i.HALL_Check        motorcontrol.o
    0x000014b4   0x000014b4   0x00000040   Code   RO          425    i.HALL_MOTOR_START  motorcontrol.o
    0x000014f4   0x000014f4   0x00000004   Code   RO           18    i.HardFault_Handler  interrupts_cw32f030.o
    0x000014f8   0x000014f8   0x0000002c   Code   RO         2087    i.I2C1_DeInit       cw32f030_i2c.o
    0x00001524   0x00001524   0x00000002   Code   RO           19    i.I2C1_IRQHandler   interrupts_cw32f030.o
    0x00001526   0x00001526   0x00000002   Code   RO           20    i.I2C2_IRQHandler   interrupts_cw32f030.o
    0x00001528   0x00001528   0x0000001a   Code   RO         2091    i.I2C_AcknowledgeConfig  cw32f030_i2c.o
    0x00001542   0x00001542   0x0000001a   Code   RO         2092    i.I2C_BaudGeneratorEnable  cw32f030_i2c.o
    0x0000155c   0x0000155c   0x0000000a   Code   RO         2093    i.I2C_ClearIrq      cw32f030_i2c.o
    0x00001566   0x00001566   0x0000001a   Code   RO         2094    i.I2C_Cmd           cw32f030_i2c.o
    0x00001580   0x00001580   0x0000001a   Code   RO         2095    i.I2C_FilterConfig  cw32f030_i2c.o
    0x0000159a   0x0000159a   0x00000034   Code   RO         2097    i.I2C_GenerateSTART  cw32f030_i2c.o
    0x000015ce   0x000015ce   0x0000001a   Code   RO         2098    i.I2C_GenerateSTOP  cw32f030_i2c.o
    0x000015e8   0x000015e8   0x0000000c   Code   RO         2099    i.I2C_GetIrq        cw32f030_i2c.o
    0x000015f4   0x000015f4   0x00000008   Code   RO         2100    i.I2C_GetState      cw32f030_i2c.o
    0x000015fc   0x000015fc   0x000000b2   Code   RO          466    i.I2C_MasterWriteEepromData1  oled_i2c.o
    0x000016ae   0x000016ae   0x00000036   Code   RO         2105    i.I2C_Master_Init   cw32f030_i2c.o
    0x000016e4   0x000016e4   0x00000058   Code   RO          467    i.I2C_OLED_Clear    oled_i2c.o
    0x0000173c   0x0000173c   0x000000cc   Code   RO          468    i.I2C_OLED_ClearPoint  oled_i2c.o
    0x00001808   0x00001808   0x00000020   Code   RO          469    i.I2C_OLED_Clear_Line  oled_i2c.o
    0x00001828   0x00001828   0x00000068   Code   RO          474    i.I2C_OLED_DrawPoint  oled_i2c.o
    0x00001890   0x00001890   0x0000009a   Code   RO          475    i.I2C_OLED_Init     oled_i2c.o
    0x0000192a   0x0000192a   0x00000002   PAD
    0x0000192c   0x0000192c   0x000000d0   Code   RO          476    i.I2C_OLED_Move     oled_i2c.o
    0x000019fc   0x000019fc   0x000000a8   Code   RO          479    i.I2C_OLED_ShowChar  oled_i2c.o
    0x00001aa4   0x00001aa4   0x00000070   Code   RO          480    i.I2C_OLED_ShowChar_CH  oled_i2c.o
    0x00001b14   0x00001b14   0x000000b4   Code   RO          482    i.I2C_OLED_ShowString  oled_i2c.o
    0x00001bc8   0x00001bc8   0x00000068   Code   RO          483    i.I2C_OLED_UPdata   oled_i2c.o
    0x00001c30   0x00001c30   0x00000012   Code   RO         2107    i.I2C_Send7bitAddress  cw32f030_i2c.o
    0x00001c42   0x00001c42   0x00000004   Code   RO         2108    i.I2C_SendData      cw32f030_i2c.o
    0x00001c46   0x00001c46   0x00000004   Code   RO         2109    i.I2C_SetBaud       cw32f030_i2c.o
    0x00001c4a   0x00001c4a   0x00000002   PAD
    0x00001c4c   0x00001c4c   0x00000090   Code   RO          484    i.I2C_init          oled_i2c.o
    0x00001cdc   0x00001cdc   0x00000002   Code   RO           21    i.LVD_IRQHandler    interrupts_cw32f030.o
    0x00001cde   0x00001cde   0x00000002   Code   RO           22    i.NMI_Handler       interrupts_cw32f030.o
    0x00001ce0   0x00001ce0   0x00000278   Code   RO          485    i.OLED_StrEscCharacter  oled_i2c.o
    0x00001f58   0x00001f58   0x00000002   Code   RO           23    i.PendSV_Handler    interrupts_cw32f030.o
    0x00001f5a   0x00001f5a   0x00000002   PAD
    0x00001f5c   0x00001f5c   0x00000020   Code   RO         2544    i.RCC_AHBPeriphClk_Enable  cw32f030_rcc.o
    0x00001f7c   0x00001f7c   0x00000020   Code   RO         2547    i.RCC_APBPeriphClk_Enable2  cw32f030_rcc.o
    0x00001f9c   0x00001f9c   0x0000004c   Code   RO          338    i.RCC_Configuration  main.o
    0x00001fe8   0x00001fe8   0x00000020   Code   RO         2567    i.RCC_HCLKPRS_Config  cw32f030_rcc.o
    0x00002008   0x00002008   0x00000034   Code   RO         2573    i.RCC_HSI_Enable    cw32f030_rcc.o
    0x0000203c   0x0000203c   0x00000002   Code   RO           24    i.RCC_IRQHandler    interrupts_cw32f030.o
    0x0000203e   0x0000203e   0x00000002   PAD
    0x00002040   0x00002040   0x00000020   Code   RO         2585    i.RCC_PCLKPRS_Config  cw32f030_rcc.o
    0x00002060   0x00002060   0x000000b4   Code   RO         2588    i.RCC_PLL_Enable    cw32f030_rcc.o
    0x00002114   0x00002114   0x00000040   Code   RO         2592    i.RCC_SysClk_Switch  cw32f030_rcc.o
    0x00002154   0x00002154   0x000000d8   Code   RO         2593    i.RCC_Sysctrl_GetHClkFreq  cw32f030_rcc.o
    0x0000222c   0x0000222c   0x0000000c   Code   RO         2595    i.RCC_SystemCoreClockUpdate  cw32f030_rcc.o
    0x00002238   0x00002238   0x00000002   Code   RO           25    i.RTC_IRQHandler    interrupts_cw32f030.o
    0x0000223a   0x0000223a   0x00000002   Code   RO           26    i.SPI1_IRQHandler   interrupts_cw32f030.o
    0x0000223c   0x0000223c   0x00000002   Code   RO           27    i.SPI2_IRQHandler   interrupts_cw32f030.o
    0x0000223e   0x0000223e   0x00000002   Code   RO           28    i.SVC_Handler       interrupts_cw32f030.o
    0x00002240   0x00002240   0x00000018   Code   RO         3176    i.SysTick_Handler   cw32f030_systick.o
    0x00002258   0x00002258   0x00000010   Code   RO         3712    i.SystemCoreClockUpdate  system_cw32f030.o
    0x00002268   0x00002268   0x0000003c   Code   RO         3713    i.SystemInit        system_cw32f030.o
    0x000022a4   0x000022a4   0x00000002   Code   RO           29    i.UART1_IRQHandler  interrupts_cw32f030.o
    0x000022a6   0x000022a6   0x00000002   Code   RO           30    i.UART2_IRQHandler  interrupts_cw32f030.o
    0x000022a8   0x000022a8   0x00000002   Code   RO           31    i.UART3_IRQHandler  interrupts_cw32f030.o
    0x000022aa   0x000022aa   0x00000002   Code   RO           32    i.VC1_IRQHandler    interrupts_cw32f030.o
    0x000022ac   0x000022ac   0x00000002   Code   RO           33    i.VC2_IRQHandler    interrupts_cw32f030.o
    0x000022ae   0x000022ae   0x00000002   Code   RO           34    i.WDT_IRQHandler    interrupts_cw32f030.o
    0x000022b0   0x000022b0   0x00000014   Code   RO          486    i.WriteCmd          oled_i2c.o
    0x000022c4   0x000022c4   0x00000014   Code   RO          487    i.WriteDat          oled_i2c.o
    0x000022d8   0x000022d8   0x00000020   Code   RO         3810    i.__0printf$1       mc_p.l(printf1.o)
    0x000022f8   0x000022f8   0x00000028   Code   RO         3812    i.__0sprintf$1      mc_p.l(printf1.o)
    0x00002320   0x00002320   0x0000002e   Code   RO         4116    i.__ARM_clz         mf_p.l(depilogue.o)
    0x0000234e   0x0000234e   0x0000001c   Code   RO         2270    i.__ARM_common_switch8  cw32f030_i2c.o
    0x0000236a   0x0000236a   0x00000002   PAD
    0x0000236c   0x0000236c   0x00000020   Code   RO          339    i.__NVIC_EnableIRQ  main.o
    0x0000238c   0x0000238c   0x0000000e   Code   RO         4128    i.__scatterload_copy  mc_p.l(handlers.o)
    0x0000239a   0x0000239a   0x00000002   Code   RO         4129    i.__scatterload_null  mc_p.l(handlers.o)
    0x0000239c   0x0000239c   0x0000000e   Code   RO         4130    i.__scatterload_zeroinit  mc_p.l(handlers.o)
    0x000023aa   0x000023aa   0x00000002   PAD
    0x000023ac   0x000023ac   0x00000150   Code   RO         3817    i._printf_core      mc_p.l(printf1.o)
    0x000024fc   0x000024fc   0x0000000a   Code   RO         3819    i._sputc            mc_p.l(printf1.o)
    0x00002506   0x00002506   0x00000012   Code   RO         4098    i.fputc             mc_p.l(fputc.o)
    0x00002518   0x00002518   0x00000054   Code   RO         4026    i.free              mc_p.l(malloc.o)
    0x0000256c   0x0000256c   0x00000290   Code   RO          340    i.main              main.o
    0x000027fc   0x000027fc   0x0000006c   Code   RO         4027    i.malloc            mc_p.l(malloc.o)
    0x00002868   0x00002868   0x0000001e   Data   RO          426    .constdata          motorcontrol.o
    0x00002886   0x00002886   0x00003b60   Data   RO          623    .constdata          font.o
    0x000063e6   0x000063e6   0x00000002   PAD
    0x000063e8   0x000063e8   0x00000064   Data   RO         2597    .constdata          cw32f030_rcc.o
    0x0000644c   0x0000644c   0x00000020   Data   RO         4126    Region$$Table       anon$$obj.o


    Execution Region RW_IRAM1 (Exec base: 0x20000000, Load base: 0x0000646c, Size: 0x00000940, Max: 0x00020000, ABSOLUTE)

    Exec Addr    Load Addr    Size         Type   Attr      Idx    E Section Name        Object

    0x20000000   0x0000646c   0x00000020   Data   RW          342    .data               main.o
    0x20000020   0x0000648c   0x00000011   Data   RW          427    .data               motorcontrol.o
    0x20000031   0x0000649d   0x00000003   PAD
    0x20000034   0x000064a0   0x0000000a   Data   RW          490    .data               oled_i2c.o
    0x2000003e   0x000064aa   0x00000002   PAD
    0x20000040   0x000064ac   0x00000048   Data   RW          624    .data               font.o
    0x20000088   0x000064f4   0x00000009   Data   RW         3178    .data               cw32f030_systick.o
    0x20000091   0x000064fd   0x00000003   PAD
    0x20000094   0x00006500   0x00000004   Data   RW         3714    .data               system_cw32f030.o
    0x20000098   0x00006504   0x00000004   Data   RW         4100    .data               mc_p.l(stdout.o)
    0x2000009c   0x00006508   0x00000004   Data   RW         4109    .data               mc_p.l(mvars.o)
    0x200000a0   0x0000650c   0x00000004   Data   RW         4110    .data               mc_p.l(mvars.o)
    0x200000a4        -       0x00000096   Zero   RW          341    .bss                main.o
    0x2000013a        -       0x00000400   Zero   RW          488    .bss                oled_i2c.o
    0x2000053a   0x00006510   0x00000006   PAD
    0x20000540        -       0x00000200   Zero   RW          322    HEAP                startup_cw32f030.o
    0x20000740        -       0x00000200   Zero   RW          321    STACK               startup_cw32f030.o


==============================================================================

Image component sizes


      Code (inc. data)   RO Data    RW Data    ZI Data      Debug   Object Name

       188         22          0          0          0       2733   cw32f030_adc.o
       664         68          0          0          0       7304   cw32f030_atim.o
       102          4          0          0          0       3471   cw32f030_btim.o
       168          8          0          0          0       3907   cw32f030_dma.o
        36          8          0          0          0        583   cw32f030_flash.o
       268          4          0          0          0       1732   cw32f030_gpio.o
       246          4          0          0          0       4097   cw32f030_gtim.o
       364          8          0          0          0       8668   cw32f030_i2c.o
       652         98        100          0          0       6520   cw32f030_rcc.o
        24          8          0          9          0       1961   cw32f030_systick.o
        94         20      15200         72          0       3218   font.o
       110          4          0          0          0     240833   interrupts_cw32f030.o
      2116        296          0         32        150      15858   main.o
       484         42         30         17          0       2944   motorcontrol.o
      2348        114          0         10       1024      12517   oled_i2c.o
        60         22        192          0       1024        660   startup_cw32f030.o
        76         14          0          4          0       1367   system_cw32f030.o

    ----------------------------------------------------------------------
      8018        744      15556        152       2204     318373   Object Totals
         0          0         32          0          0          0   (incl. Generated)
        18          0          2          8          6          0   (incl. Padding)

    ----------------------------------------------------------------------

      Code (inc. data)   RO Data    RW Data    ZI Data      Debug   Library Member Name

         0          0          0          0          0          0   entry.o
         0          0          0          0          0          0   entry10a.o
         0          0          0          0          0          0   entry11a.o
         8          4          0          0          0          0   entry2.o
         4          0          0          0          0          0   entry5.o
         0          0          0          0          0          0   entry7b.o
         0          0          0          0          0          0   entry8b.o
         8          4          0          0          0          0   entry9a.o
        18          0          0          0          0         72   fputc.o
        30          0          0          0          0          0   handlers.o
        40          0          0          0          0         72   idiv.o
        36          8          0          0          0         68   init.o
         0          0          0          0          0          0   iusefp.o
         0          0          0          0          0          0   iusesemip.o
        32          0          0          0          0         68   llshl.o
        38          0          0          0          0         68   llsshr.o
        34          0          0          0          0         68   llushr.o
       192         20          0          0          0        144   malloc.o
        36          0          0          0          0         60   memcpya.o
         0          0          0          8          0          0   mvars.o
       418         16          0          0          0        312   printf1.o
         0          0          0          0          0          0   semi.o
         0          0          0          4          0          0   stdout.o
        44          0          0          0          0         72   uidiv.o
        40          2          0          0          0         68   cdcmple.o
        40          2          0          0          0         68   cdrcmple.o
        56          0          0          0          0         68   d2f.o
       356          4          0          0          0        140   dadd.o
       236          0          0          0          0        216   depilogue.o
        60         10          0          0          0         68   dfixui.o
        28          4          0          0          0         68   dfltui.o
       208          6          0          0          0         88   dmul.o
       130          0          0          0          0        144   fepilogue.o
        40          0          0          0          0         60   ffixui.o

    ----------------------------------------------------------------------
      2134         80          0         12          0       1992   Library Totals
         2          0          0          0          0          0   (incl. Padding)

    ----------------------------------------------------------------------

      Code (inc. data)   RO Data    RW Data    ZI Data      Debug   Library Name

       938         52          0         12          0       1004   mc_p.l
      1194         28          0          0          0        988   mf_p.l

    ----------------------------------------------------------------------
      2134         80          0         12          0       1992   Library Totals

    ----------------------------------------------------------------------

==============================================================================


      Code (inc. data)   RO Data    RW Data    ZI Data      Debug   

     10152        824      15556        164       2204     314121   Grand Totals
     10152        824      15556        164       2204     314121   ELF Image Totals
     10152        824      15556        164          0          0   ROM Totals

==============================================================================

    Total RO  Size (Code + RO Data)                25708 (  25.11kB)
    Total RW  Size (RW Data + ZI Data)              2368 (   2.31kB)
    Total ROM Size (Code + RO Data + RW Data)      25872 (  25.27kB)

==============================================================================

