:020000040800F2
:1000000048250020290200085B1400089D13000801
:10001000591400082F030008A13000080000000058
:10002000000000000000000000000000D9150008DA
:100030007903000800000000D7150008E515000846
:10004000430200084302000843020008430200087C
:10005000430200084302000843020008430200086C
:10006000430200084302000843020008430200085C
:10007000430200084302000843020008430200084C
:10008000430200084302000843020008430200083C
:10009000430200084302000843020008430200082C
:1000A000430200084302000843020008430200081C
:1000B000430200084302000843020008430200080C
:1000C00043020008430200084302000843020008FC
:1000D00043020008430200084302000843020008EC
:1000E00043020008430200084302000843020008DC
:1000F00043020008430200084302000843020008CC
:1001000043020008430200084302000843020008BB
:1001100043020008430200084302000843020008AB
:10012000430200084302000843020008430200089B
:10013000430200084302000843020008430200088B
:100140004302000843020008430200085D1400084F
:10015000430200084302000843020008430200086B
:10016000430200084302000843020008430200085B
:100170004302000843020008430200080000000098
:10018000430200084302000800F002F800F03CF8C7
:100190000AA090E8000C82448344AAF10107DA45E2
:1001A00001D100F031F8AFF2090EBAE80F0013F0F8
:1001B000010F18BFFB1A43F001031847202F00005E
:1001C000402F0000103A24BF78C878C1FAD85207EF
:1001D00024BF30C830C144BF04680C6070470000C1
:1001E0000023002400250026103A28BF78C1FBD840
:1001F000520728BF30C148BF0B6070471FB502F0DF
:1002000068FF1FBD10B510BD00F058F81146FFF78C
:10021000F5FF02F057FF00F076F803B4FFF7F2FFA6
:1002200003BC00F07DF800000948804709480047FA
:10023000FEE7FEE7FEE7FEE7FEE7FEE7FEE7FEE796
:10024000FEE7FEE704480549054A064B70470000F3
:10025000E915000889010008481D002048250020F4
:1002600048210020482100204FF0000200B513462D
:1002700094469646203922BFA0E80C50A0E80C50C6
:10028000B1F12001BFF4F7AF090728BFA0E80C5077
:1002900048BF0CC05DF804EB890028BF40F8042B70
:1002A00008BF704748BF20F8022B11F0804F18BFDD
:1002B00000F8012B7047704770477047754600F093
:1002C0002BF8AE4605006946534620F007008546E8
:1002D00018B020B5FFF7B6FFBDE820404FF000068C
:1002E0004FF000074FF000084FF0000B21F007011E
:1002F000AC46ACE8C009ACE8C009ACE8C009ACE861
:10030000C0098D46704710B50446AFF30080204603
:10031000BDE81040FFF781BF00487047E41C002093
:1003200001491820ABBEFEE7260002007047FEE739
:10033000002070470020704710B50022044905488E
:1003400001F03AFB0449034801F029FB002010BDED
:10035000E00D002004010020E005002010B501465A
:10036000034801F01CFB024801F0F2FA002010BD26
:100370000401002000207047704772B6FEE70000BD
:1003800070B5044600F08CF90546601C02D00448A4
:100390000078044400F084F9401BA042FAD370BDF9
:1003A000000000202DE9F84FDFF888B20D46044622
:1003B00058451BD0A048844218D0A048844215D08C
:1003C0009F48844212D09F4884420FD09E48844266
:1003D0000CD09E48844209D09D48844206D09D4856
:1003E000844203D0AC219CA002F06BFE286801047B
:1003F000090C01D0000C03D0AD2197A002F061FEE2
:100400006868F8B101281DD011281BD0022819D026
:10041000122817D0B0F5881F14D0B0F5041F11D0E2
:10042000B0F5441F0ED0B0F5901F0BD0B0F5081FEB
:1004300008D0B0F5481F05D0032803D0AE2186A010
:1004400002F03FFE00264FF0010A4FF0030900BF03
:100450000AFA06F02F688046074047457ED1287982
:1004600000F00300012801D002281DD1E86848B13E
:10047000012807D0022805D0032803D0C02176A088
:1004800002F01FFEA168720009FA02F08143E868D9
:1004900090400843A0606068297920EA0800C1F311
:1004A0000011B140014361602879C043800712D038
:1004B000A86838B1012805D0022803D0D12166A050
:1004C00002F0FFFDE168720009FA02F08143A868BA
:1004D00090400843E060287900F0030002282ED104
:1004E0002869F8B109281DD001281BD0022819D08D
:1004F000032817D0042815D0052813D0062811D0BA
:1005000007280FD008280DD00A280BD00B2809D0B7
:100510000C2807D00D2805D00F2803D0DE214EA0CF
:1005200002F0CFFDF00804EB8002106A7107CB0ED9
:100530000F2199408843296999400143116220683D
:10054000720009FA02F18843297901F00301914010
:1005500001432160686810F4403F00E063E062D02E
:100560004C48016841F480410160006826F00301B5
:1005700000F48040009048480A18D2F80808B107F3
:100580000B0F0F21994088435C4501D1002123E0E6
:1005900029498C4201D101211EE028498C4201D118
:1005A000022119E026498C4201D1032114E025499A
:1005B0008C4201D104210FE023498C4201D1052155
:1005C0000AE022498C4201D1062105E020498C42F3
:1005D00001D1072100E0082199400143C2F8081821
:1005E0002E4908686A68B843D20200D538430860CB
:1005F0002A49091D08686A68B843920200D5384341
:1006000008602649091F08686A68B843920300D544
:10061000384308602149083908686A68B843D2033A
:1006200000D538430860761C102EFFF411AFBDE8EA
:10063000F88F000000000240000402400008024061
:10064000000C02400010024000140240001802405A
:10065000001C0240002002402E2E2F447269766555
:1006600072732F53544D3332463478785F48414C7F
:100670005F4472697665722F5372632F73746D33A2
:1006800032663478785F68616C5F6770696F2E637B
:10069000000000004438024000300140083C0140A6
:1006A000014880687047000000000020024881680F
:1006B0000278114481607047000000200B4810B59B
:1006C000016841F400710160016841F480610160DA
:1006D000016841F480710160032000F0C3F80F202D
:1006E00000F006F800F024F8002010BD003C0240A5
:1006F00070B50D4D04464FF47A712878B1FBF0F0D7
:100700000A490968B1FBF0F000F034FE48B9102C3A
:1007100007D200222146501E00F054F800206C60E1
:1007200070BD012070BD0000000000200C00002002
:100730000A4808B5016841F480410160006800F48E
:10074000804000900548001F016841F08051016021
:10075000006800F08050009008BD0000443802405E
:1007600010B5040003D5BC2107A002F0AAFC002CA0
:1007700009DB04F01F01012088406109890001F1B3
:10078000E021C1F8000110BD2E2E2F44726976655C
:1007900072732F53544D3332463478785F48414C4E
:1007A0005F4472697665722F5372632F73746D3371
:1007B00032663478785F68616C5F636F72746578F5
:1007C0002E63000070B515460C460646102A03D36A
:1007D000A82114A002F075FC102C03D3A92111A0AC
:1007E00002F06FFC1E480068C0F30223C3F1070249
:1007F0002046042A00D90422191D072901D200230A
:1008000000E0DB1E012404FA02F1491E0140994078
:100810009C40641E2C4021433046BDE8704002F0ED
:1008200040BC00002E2E2F447269766572732F53E0
:10083000544D3332463478785F48414C5F44726996
:100840007665722F5372632F73746D33326634780A
:10085000785F68616C5F636F727465782E63000007
:100860000CED00E010B5044607280BD0062C09D08B
:10087000052C07D0042C05D0032C03D0902108A010
:1008800002F01FFC154904F0070208684FF6FF0349
:10089000184040EA0220124A1043086010BD0000D0
:1008A0002E2E2F447269766572732F53544D333256
:1008B000463478785F48414C5F4472697665722FA0
:1008C0005372632F73746D3332663478785F686166
:1008D0006C5F636F727465782E6300000CED00E04E
:1008E0000000FA0570470068416200207047F0B5CB
:1008F0000368586A39B19C6A4FF4827600EB14445D
:1009000000204D1E0AE040EA024098620FE006EB2C
:100910008007DF59401C04EB1744C0B2A842F6D34D
:1009200044EA02404FF4807202EB810158500020EB
:10093000F0BDD0F8E00401F015BB01EBC10200EB03
:100940008202D0F8E004126A01F06ABA01EBC10237
:1009500000EB8202D0F8E004D2F8602201F0BBBACA
:10096000D0F8E00401F000BB0A0601F00F0101EB32
:10097000C10100EB810101D5143101E001F51571D0
:10098000006802F0DBB970B504460B0601F00F00F9
:1009900000EBC00104EB81014FF001024FF00005B4
:1009A00002D54A75143103E081F8555201F51571ED
:1009B000087094F89404012808D084F894242068DE
:1009C00001F0DAFE84F89454002070BD022070BD5E
:1009D00070B5044601F00F002279904201D9012040
:1009E00070BD0B0601F00F0101EBC10104EB8101A9
:1009F0004FF001024FF0000502D54A75143103E0B3
:100A000081F8555201F515718D70087094F89404B1
:100A1000012808D084F89424206802F01FF884F894
:100A20009454002070BD022070BD01F00F0101EB55
:100A3000C10100EB8100D0F8680270472DE9F04158
:100A400004460F0601F00F0000EBC00104EB81012A
:100A50004FF001064FF0000502D54E75143103E04A
:100A600081F8555201F5157108708A600B714A784A
:100A700002B14883022B00D14D7194F894040128EF
:100A800009D084F89464206801F0C6FD284684F8F3
:100A90009454BDE8F0810220FBE710B501F00F048B
:100AA00004EBC40100EB8101C1E998230023C1F8E4
:100AB000683281F8553281F85442837901F5157115
:100AC000012B00D1CA618279006802F01FF8002072
:100AD00010BD70B504460D4601F00F002179884223
:100AE00001D9012070BD29064FF000064FF0010228
:100AF00006D500EBC00104EB81014A75143107E013
:100B000005EBC50104EB810181F8556201F5157112
:100B10008A70087094F89404012807D084F894240B
:100B2000206801F0C7FF280702D007E0022070BD4F
:100B3000A17904F29C42206801F064FF84F8946477
:100B4000002070BD10B501F00F0404EBC40100EBF0
:100B50008101C1E9082300238B6201234B7501F851
:100B6000144F8379012B00D1CA618279006801F0AA
:100B7000CDFF002010BD00002DE9FC5F0568044694
:100B8000284602F077F900287DD1206802F09EF90E
:100B9000002878D0D5F80808C0F30D20C4F8D40494
:100BA000206802F093F9800704D52068416901F0BC
:100BB00002014161206802F089F9C10604F29C40FB
:100BC000009034D52068816921F0100181612F6A7D
:100BD00007F00F0000EBC00004EB8006C7F34340B2
:100BE00006F51576022802D0062811D01AE047F63D
:100BF000F070074216D0C7F30A1217462846F1686C
:100C000002F068F9F0683844F0607069384408E030
:100C100008222846009902F05DF97069C7F30A11AD
:100C2000084470612068816941F010018161206889
:100C300002F04CF900034FF0080B4FF0000A4FF0A0
:100C400001097CD50026206802F01FF9074674E0F0
:100C5000F80770D0F1B2206802F030F98046C00782
:100C600007D005EB4611C1F8089B3146204600F03D
:100C7000FBFB5FEA087024D505EB4611C1F808BB01
:100C80002068016C00E023E200EB46100191D0F8EF
:100C9000082BFB4B994205D9110403D54FF40041B1
:100CA000C0F8081B204600F01EFBF5490198884259
:100CB00007D9A079012804D120680121009A01F008
:100CC000A1FE5FEAC86004D505EB46111020C1F80B
:100CD000080B5FEA88701DD56869000605D5D5F850
:100CE000040840F48061C5F8041806EBC60004EB64
:100CF000800090F8571200F51570012905D180F891
:100D000003A0F1B2204600F0E9F905EB46110220FC
:100D1000C1F8080B5FEA886004D505EB4610202176
:100D2000C0F8081B5FEA884005D505EB46104FF474
:100D30000051C0F8081B7F08761C002F88D120685E
:100D400002F0C4F840036ED5206802F097F8074619
:100D5000002666E0F80762D0F1B2206802F09CF845
:100D60008046C00723D006F00F01D5F8342809FAD1
:100D700001F18A43C5F8342805EB4611C1F80899FA
:100D8000A07901280FD106EBC60004EB8000D0E962
:100D900007211144016236B9606A20B92068012137
:100DA000009A01F02FFEF1B22046FFF7C6FD5FEA80
:100DB000087003D505EB4611C1F808B95FEAC860B1
:100DC00004D505EB46111020C1F808095FEA486018
:100DD00004D505EB46104021C0F808195FEA887079
:100DE00016D53146284602F01AF806EBC60004EB89
:100DF0008000C17D1430012905D180F803A0F1B233
:100E0000204600F067F905EB46110220C1F80809F9
:100E10005FEA086003D53146204600F08BFB7F086F
:100E2000761C002F96D1206802F050F8002811DAC5
:100E3000D5F8040820F00101C5F8041894F8CC0492
:100E400001282BD0204600F033FA2068416901F0D8
:100E500000414161206802F039F800050BD5D5F852
:100E60000808C00702D0204600F066FA20684169F1
:100E700001F400614161206802F028F8C00467D5E0
:100E8000D5F8040820F00100C5F8040810212068F6
:100E900001F0C5FF00214FF67F3220E084F8CCA49A
:100EA00000212046FFF71EFDCFE700BF05EB4110F4
:100EB000C0F80829D0F8003923F40013C0F800392D
:100EC000C0F8082BD0F8003B23F40013C0F8003B17
:100ED000D0F8003B43F00063C0F8003B491C207988
:100EE0008842E3D8D5F81C0840F00111C5F81C1859
:100EF000E07B002828460DD0D0F8840840F00B0194
:100F0000C5F88418D5F8440840F00B012846C5F808
:100F100044180DE0D0F8140842F22B010843C5F83C
:100F20001408D5F8100840F00B012846C5F8101831
:100F3000D0F8000820F4FE61C5F80018A1792068F7
:100F4000009A01F05FFD2068416901F48051416120
:100F5000206801F0BBFF800415D5206801F09CFBE0
:100F6000206801F07AFFE07100F0FEF90146E279B5
:100F7000206802F00DF8204600F084F920684169ED
:100F800001F400514161206801F0A0FF000707D57E
:100F9000204600F091F92068416901F008014161A3
:100FA000206801F093FF000616D5A86920F08001A3
:100FB000A96101260DE000BF06EBC60004EB80002E
:100FC00090F85702012803D1F1B22046FFF7CCFC7C
:100FD000761C2079B042EFD8206801F077FFC0027C
:100FE0001FD501264F4614E005EB4610D0F8001936
:100FF00006EBC60004EB8002107E012808D1002910
:1010000006DAF0B240F08001D7752046FFF7ACFC5D
:10101000761C2079B042E7D82068416901F480113C
:101020004161206801F052FF800234D501204A4618
:1010300029E000BF05EB4011D1F8001B00EBC00315
:1010400004EB830393F85862012E1BD1002919DAAF
:1010500094F8D46401F4803106F00106B14211D154
:1010600083F85722A96941F08003AB6169690906D9
:1010700008D4D5F8040840F40070C5F8040805E069
:101080000A30544F401C21798142D3D820684169ED
:1010900001F400114161206801F018FF400007D5FC
:1010A0002046FFF746FC2068416901F0804141611C
:1010B000206801F00BFF40070AD5206845686807E3
:1010C00002D52046FFF74CFC206841682943416067
:1010D000BDE8FC9FD0F8E00400F099BFD0F8E00430
:1010E00000F0A9BFF8B5040011D020684FF0A04768
:1010F000B84206D03349884203D0892132A001F09A
:10110000E0FF94F895042668002510B106E0012060
:10111000F8BD84F89454204600F072F8032084F857
:101120009504BE4200D1A571206801F065FC207CC9
:101130008DF8000094E80F0001F0BCFA0226B0BB65
:101140000021206801F0E5FE88BB002001270CE0AB
:1011500000EBC00104EB81014F750875C8850D7661
:10116000CD610D62401CC0B24D6221798142EFD841
:10117000002011E000EBC00104EB810181F8555221
:1011800081F8540281F85852C1F85C52C1F860529B
:10119000401CC0B2C1F8645221798142EAD8207C57
:1011A0008DF8000094E80F0001F068FB10B184F89E
:1011B0009564ACE7657484F89574206801F050FB81
:1011C0000020F8BD000004402E2E2F447269766581
:1011D00072732F53544D3332463478785F48414C04
:1011E0005F4472697665722F5372632F73746D3327
:1011F00032663478785F68616C5F7063642E630078
:1012000010B586B0044614216846FFF72DF8206813
:10121000B0F1A04F2FD119480021026842F001021D
:101220000260006800F0010005904FF4C05000908B
:101230000220CDE90101032003900A2004906946B1
:101240000F48FFF7AFF80D48001D016841F080011D
:1012500001600A481430016841F48041016000686F
:10126000002200F48040059011464320FFF7AAFABF
:101270004320FFF775FA06B010BD00003038024079
:101280000000024070B50446C079012570B1022803
:1012900001D0FFF772F82946D4F8E00400F039FFD6
:1012A000D4F8E004BDE8704000F0EEBE0025F2E79F
:1012B000D0F8E00400F016BFD0F8E00400F01CBF46
:1012C00010B5044690F8940401280AD0012084F84F
:1012D00094046174206801F04AFE002084F89404AC
:1012E00010BD022010BDD0F8E02400F29C41104651
:1012F00000F01BBF10B50446006894F8941401294F
:1013000009D0012184F89414C168490609D5617B8C
:10131000012902D005E0022010BD816B41F480312B
:101320008163206801F059FD206801F08BFA0020EC
:1013300084F8940410BD000010B50446D0F8E00411
:1013400000F035FF2068D0F8001E41F00101C0F820
:10135000001EE07A002804D00248016841F006012E
:10136000016010BD10ED00E001480068704700000A
:101370000C00002010B5401EB0F1807F01D3012089
:1013800010BD4FF0E02460610F21601701F089FE6D
:101390000020A06107202061002010BDFEE70000B2
:1013A000F0B500230A24302537261F4611E000BF80
:1013B000B4EB107F02D905EB107C01E006EB107C4A
:1013C00001F813C001EB430C00015B1C8CF80170A9
:1013D000DBB29342ECD3F0BD094808B5016841F097
:1013E00080010160016801F080010091016841F015
:1013F00001010160006800F00100009008BD0000DC
:101400003038024010B500220F49104800F0E3FCCC
:1014100008B1FEF7B2FF0E490C4800F0F4FE08B127
:10142000FEF7ABFF0B49094800F0AEFA08B1FEF732
:10143000A4FF064800F06AFF002803D0BDE8104072
:10144000FEF79BBF10BD000010000020040100202B
:10145000CC00002060000020FEE7FEE70148FFF717
:101460008BBB0000001800202DE9F04103680D46F9
:1014700004461E6C03EB4511D1F8080B94F806E006
:101480004FF400474FF0200C04F29C42BEF1010FD4
:1014900009D0DFF898E0764539D1020432D500BF93
:1014A000C1F8087B3FE0224B5FEA007E04D59E42F4
:1014B00039D90004F4D436E05FEA806E02D5C1F871
:1014C00008CB30E010F0280F2DD19E4201D9000446
:1014D000E6D405EBC50004EB8000D1F8101BD0F872
:1014E0007432C1F31201591AC0F8681200F5157070
:1014F000ADB903691BB1C2681144C1600FE001219D
:1015000020680AE080060AD5C1F808CB07E035B9A3
:10151000D4F8640218B90021184601F073FAE9B250
:101520002046FFF713FA0020BDE8F0810A31544F3E
:101530000A30544F2DE9F84F0E4601EBC60100EB7F
:10154000810481460568D4E909101434884202D91F
:101550000120BDE8F88F081AA168814200D2084630
:10156000C01C870805EB46181BE000BFA0EB010A72
:10157000A068504500D282460AF10300870899F816
:10158000060000901FFA8AF3F2B22846E16801F0E3
:1015900073FDE16801EB0A00E060616901EB0A009C
:1015A0006061D8F8180980B2B84205D3D4E90401C3
:1015B000814201D20028D9D1D4E90401884208D857
:1015C00006F00F0101208840D5F834188143C5F892
:1015D00034180020BDE7704770470178407841EA31
:1015E00000207047FFF762B80248016841F47001BB
:1015F0000160704788ED00E02DE9F0410C46D0F81D
:10160000D412D0F8C82200EB8101D1F8C01229B35E
:1016100004F00F0606EB860300EB83050027AB6999
:101620004BB106EBC60602EB8602D269B3FBF2F6BB
:1016300002FB1632A2B1C1F81472D0F8D42200EB2A
:101640008200D0F8C40203692BB1D1F80802224607
:1016500001F5047198470020BDE8F0810320FBE705
:1016600000231A462146AF6100F0AEFDF3E770B5E6
:101670000546D0F8D40205EB8000D0F8C04294B102
:10168000284600F080FCC4F80C02D5F8D412D4F837
:10169000040205EB8101D1F8C412CA6804F5037194
:1016A0009047002070BD032070BD000070B5224D32
:1016B0000446297800F0ABFB2878002600F00F00E4
:1016C00000EB800004EB800086846978204600F0FF
:1016D0009EFB687800F00F0000EB800004EB8000B8
:1016E000A0F86461A978204600F091FBA87800F08A
:1016F0000F0000EB800004EB80008684C684D4F8E1
:10170000D40204EB8000D0F8C01299B1D0F8C40222
:1017100040688047D4F8D40204EB8000D0F8C002BF
:1017200000F075FFD4F8D40204EB8000C0F8C0626A
:10173000C4F8BC62002070BD7800002010B5D0F85D
:10174000D41200EB8100D0F8C04284B1D0F8C412AA
:1017500059B194F80002FF2807D08B6894F8012251
:1017600021469847FF2084F80002002010BD032086
:1017700010BD00000A210180004870477C00002055
:1017800070B5064682210C4800F0D1FA05460121C9
:10179000094800F0CCFA04468121074800F0C7FA56
:1017A0000DB11021A971402104B1A18000B1818047
:1017B00043203080004870BD8800002070B5064688
:1017C00082210D4800F0B3FA054601210A4800F0D5
:1017D000AEFA04468121084800F0A9FA0DB11021A3
:1017E000A9714FF4007104B1A18000B18180432040
:1017F0003080014870BD00008800002070B50646AA
:1018000082210C4800F093FA05460121094800F0B6
:101810008EFA04468121074800F089FA0DB11021A3
:10182000A971402104B1A18000B1818043203080A2
:10183000004870BD880000202DE9F04704464FF4B1
:101840000775284600F0E4FE06004FF0000863D05C
:101850002946FEF709FDD4F8D4023C4D04EB800084
:101860004FF01009C0F8C062C4F8BC62207C4FF48D
:10187000007A0127F0B3402302222978204600F0A5
:10188000EEFB2878402300F00F0000EB800004EB13
:101890008000878402226978204600F0E0FB6878A7
:1018A000082300F00F0000EB800004EB800003220F
:1018B000A0F86471A978204601F00F0101EB8101C5
:1018C00004EB8101A1F82690A97800F0C8FBA87864
:1018D00000F00F0000EB800004EB80008784C6F866
:1018E0000482D4F8D402474604EB8000D0F8C40246
:1018F000006800E018E006F50176804737617761FF
:1019000032687AB1207CF8B140236978204600F033
:10191000B2FB0020BDE8F087D4F8D41204EB8101BB
:10192000C1F8C0820220F5E75346022229782046FA
:1019300000F095FB2878534600F00F0000EB800084
:1019400004EB80008784A5E75346DEE7780000209B
:1019500010B5D0F8D41200EB8101D1F8C01259B102
:10196000027C084C002AD1F8042207D04023617879
:1019700000F081FB002010BD032010BD4FF4007368
:10198000F5E700007800002039B1D0F8D42200EB50
:101990008200C0F8C4120020704703207047D0F8BE
:1019A000D42200EB8200D0F8C00218B1C0F80412B3
:1019B0000020704703207047D0F8D43200EB83003A
:1019C000D0F8C00228B1C0F81022C0F808120020D8
:1019D0007047032070472DE9FC410646D0F8D40239
:1019E0000C4606EB80000021D0F8C0728DF8001084
:1019F000ADF804100D4637B1217811F060022FD0F8
:101A0000202A4BD102E00320BDE8FC81E288F2B13C
:101A100009060DD5D0F8C40263783946D0F808C05D
:101A20001846E047E288072A00D9072239462DE008
:101A3000607887F80002E088402800D34020C2B2D6
:101A400087F801223946304600F058F82BE0D0F8EC
:101A5000C40263780022866821461846B04722E017
:101A6000607830B101281ED00A2809D00B2815D182
:101A700010E096F89C02032810D1022201A905E08B
:101A800096F89C02032809D101226946304600F0ED
:101A90004FF808E096F89C02032804D0214630460F
:101AA00000F021F803252846AEE710B5D0F8B8229B
:101AB00000245268904700B10324204610BD002046
:101AC000704700207047134610B50A46002100F009
:101AD000D2FA002010BD134610B50A46002100F0CE
:101AE00073FB002010BD10B50446802100F04DFBB3
:101AF0002046BDE81040002100F047BB10B503238D
:101B0000C0F89432C0F858211346C0F85C210A4648
:101B1000002100F0B0FA002010BD10B50521C0F87A
:101B2000941200231A46194600F0A5FA002010BDB1
:101B300010B50223C0F8943282611346C2610A468E
:101B4000002100F041FB002010BD10B50421C0F8B9
:101B5000941200231A46194600F036FB002010BDEF
:101B600010B50A46024903A000F005F9004810BD6F
:101B7000E003002043444320436F6E666967000022
:101B800012200880004870473000002010B50A4637
:101B9000024903A000F0EFF8004810BDE003002068
:101BA00043444320496E74657266616365000000BA
:101BB00004200880004870472C00002010B50A4619
:101BC000024903A000F0D7F8004810BDE003002050
:101BD00053544D6963726F656C656374726F6E699F
:101BE0006373000010B50A46024903A000F0C3F871
:101BF000004810BDE003002053544D333220566995
:101C0000727475616C20436F6D506F7274000000C8
:101C100010B51A2008800A480168001D0468001DDC
:101C20000068081809D008220649FFF7B9FB0549E2
:101C3000042210312046FFF7B3FB0248801E10BD7E
:101C4000107AFF1F46000020F8B504460020ADF8CA
:101C5000000048880D46010A08295FD2DFE801F03C
:101C60005E0409175E5E3C45D4F8B412207C0A6815
:101C700019E0207C02260028D4F8B80205D0C16AF9
:101C8000684688470146467039E0816AF8E7C0B285
:101C9000062843D2DFE800F0030A1014181CD4F819
:101CA000B402426805E0694690471CE0D4F8B402EB
:101CB000826892B3207CF6E7D4F8B402C268F8E7F1
:101CC000D4F8B4020269F4E7D4F8B4024269F0E748
:101CD000D4F8B4028269ECE7207CF0B9D4F8B802F9
:101CE000416B68468847014609E0207CA8B9D4F8D2
:101CF000B802016B68468847014607204870EA88A9
:101D00008AB1BDF8000040B1824200D90246ADF868
:101D100000202046FFF70CFFF8BDFFE729462046CC
:101D2000FFF7E1FEF8E72046FFF70FFFF4E778B58D
:101D30000E4642880178002504468A4212D9ADF841
:101D400000100AE0694600F00FF84178052904D137
:101D500081780546B14205D000256188BDF8002094
:101D60009142EFD8284678BD0A8803781A440A8041
:101D700001780844704770B5002300281ED0002564
:101D8000044602E06D1CEDB2641C2678002EF9D1E9
:101D9000022404EB450414801278CA545B1C03220D
:101DA000CA5400245B1C06E0CA545B1CDAB28C5493
:101DB000521CD3B2401C0278002AF5D170BD01003C
:101DC0004FF0000004D0012901D0022901D00320E6
:101DD00070470120704778B10023C0F8B832C0F8CE
:101DE000C432C0F8D03209B1C0F8B412012180F871
:101DF0009C12027000F0CCB80320704710B5D0F8E8
:101E0000C802FEF7E5FDBDE81040FFF7D8BF10B5EA
:101E1000D0F8C802FEF7B7FDBDE81040FFF7CFBF0E
:101E20002DE9F04117460446002521B194F89C02A3
:101E3000032842D04CE0D4F8941204F11400022993
:101E400035D1D0E902639E4206D9F21A8260394642
:101E50002046FFF740FE0FE0B34214D1406898429D
:101E600011D3D4F8981288420DD200221146204690
:101E7000FFF731FEC4F8985200231A46194620464F
:101E800000F0F9F813E094F89C02032808D1D4F884
:101E9000B802C16821B1C4F8D452C168204688474D
:101EA0008021204600F071F92046FFF736FE94F8B5
:101EB000A00268B184F8A0520AE0D4F8B8024269DE
:101EC00032B1C4F8D452426920469047002800D16C
:101ED0000020BDE8F08170B513460446002221B110
:101EE00094F89C02032830D03AE0D4F8941204F518
:101EF000AA70032934D1D0E902518D420AD96A1A55
:101F000082600846824200D3024619462046FFF707
:101F1000DAFD25E094F8AA0210F01F0003D0012892
:101F200002D0022800D0002294F89C02032808D195
:101F3000D4F8B802016921B1C4F8D422016920465D
:101F400088472046FFF701FE0AE0D4F8B80283690B
:101F500033B1C4F8D422826920469047002800D1CA
:101F6000002070BD0020704710B50024012180F8CA
:101F70009C12D0F8B82222B152680179904700B182
:101F80000324204610BDD0F8C802FEF74EBD000065
:101F900010B5017841BB15490222C1F8E004C0F830
:101FA000C8124FF0A040086004200871CA710020D8
:101FB00088714A7201228A72C87208738873C87362
:101FC0000846FFF78FF808B1FEF7D7F980210748D8
:101FD000FEF789FC402200210448FEF788FC80229D
:101FE00001210248FEF783FC002010BD00180020EC
:101FF0000A0601F07F01D0F8C80201EBC10100EB35
:10200000810001D5807D704790F85602704710B569
:10201000D0F8D42200EB8202D2F8B82222B190F894
:102020009C32032B02D004E0032010BD126A02B1DF
:102030009047002010BD10B5D0F8D42200EB8202EA
:10204000D2F8B82222B190F89C32032B02D004E0DF
:10205000032010BD526A02B19047002010BD10B598
:102060001C461346D0F8C8022246FEF7E7FCBDE83E
:102070001040FFF7A4BE10B5D0F8C802FEF70DFD62
:10208000BDE81040FFF79BBE2DE9F0410026012579
:10209000044680F89C52C4F894626660C4F8A46256
:1020A00080F8A062D0F8B80230B1426822B10021B5
:1020B0002046904700B103260022402311462046C7
:1020C000FFF7CDFF4027A4F864513B460022802152
:1020D0002046C4F86071FFF7C2FFA584304627622E
:1020E000BDE8F08190F89C12042903D190F89D126C
:1020F00080F89C120020704710B590F89C120329BC
:1021000005D1D0F8B81211B1C96901B188470020D2
:1021100010BD01740020704710B5D0F8C802FFF759
:10212000CFF8BDE81040FFF74ABE70B5044600F294
:10213000AA20054600F051F80120C4F89402B4F832
:10214000B002C4F8980294F8AA0210F01F010AD055
:1021500001290ED0022912D000F080012046BDE8EE
:10216000704000F012B829462046BDE8704000F0EB
:10217000CFB829462046BDE8704000F00FBA294686
:102180002046BDE8704000F059B910B5D0F8C8023B
:10219000FEF79FFCBDE81040FFF711BE10B5D0F868
:1021A000C802FFF7A7F8BDE81040FFF708BE90F897
:1021B0009C12042903D090F89C1280F89D120421EF
:1021C00080F89C120020704710B5D0F8C802FEF7C6
:1021D000B9FCBDE81040FFF7F2BD70B5054611F837
:1021E000010B2870087868704C1C2046FFF7F5F941
:1021F0006880A41C2046FFF7F0F9A880A01CFFF718
:10220000ECF9E88070BD38B504460020ADF8000058
:10221000A1B1C4F8B812D4F8D40204EB8000D0F80D
:10222000B802C16A19B168468847C4F8D002D4F828
:10223000D802401CC4F8D802002038BD032038BDA5
:1022400002460020D2F8B832002B02D01B6810469C
:10225000184770472DE9F04188462B4E89780025B4
:1022600004463170012906D941462046FFF73BFC60
:102270000320BDE8F08194F89C02022702280CD0CC
:1022800003281DD041462046FFF72DFC317820461B
:10229000FFF70BFC03252846EBE789B32046616076
:1022A000FFF7CEFF050004D041462046FFF71BFC98
:1022B0001DE02046FFF749FC032084F89C02EAE772
:1022C000C1B1606888421BD0C1B22046FFF7EDFB68
:1022D000317820466160FFF7B3FF050010D041461A
:1022E0002046FFF700FC21792046FFF7DEFB84F84B
:1022F0009C72D0E784F89C7220466160FFF7D5FBA2
:102300002046FFF722FCC6E774000020FFF746BF17
:102310002DE9F0410A78002512F060020CD0202A45
:1023200001D0402A7DD1D0F8D42200EB8202D2F82D
:10233000B8229268904731E04B78002201260A2BA0
:102340006FD2DFE803F041666E586E08056E2D29E6
:10235000FFF77AFC67E004468888D8B9C888C8B90E
:102360004888802816D200F07F0794F89C02032842
:1023700010D084F89E7239462046FFF7CDFE2046E5
:10238000FFF7E3FB1FB1022084F89C024BE084F8C6
:102390009C6248E0204644E0FFF75CFF054642E0CF
:1023A000CB88012B3DD190F89C32012B04D0022B1D
:1023B00002D0032B35D104E08260012200F1080134
:1023C00016E00122011D13E090F89C22012A03D09F
:1023D000022A01D0032A24D1CA88022A21D1C66048
:1023E000D0F8A41209B10321C160022200F10C014E
:1023F000FFF79EFB17E04A88012A02D0022A03D089
:102400000FE0C0F8A46216E08988090A80F8A012DB
:1024100011E090F89C32012B08D0022B06D0032B40
:1024200004D0FFF760FB2846BDE8F0814988012908
:10243000F9D1C0F8A422FFF788FBF4E72DE9F041B9
:10244000054608780C790E464FF0000810F0600041
:102450000BD0202801D040286AD121462846FFF71A
:102460002EFBFF2800D0D8B395E07078C8B30128C0
:1024700024D003285CD195F89C02022802D00328BE
:1024800056D10CE0002C53D0802C51D02146284648
:10249000FFF77BFE80212846FFF777FE7BE0708800
:1024A00040B93CB1802C05D0C88818B921462846CF
:1024B000FFF76BFE2846FFF748FB6CE095F89C029F
:1024C0000228DFD0032863D1708880BB600603D068
:1024D00021462846FFF792FC2846FFF736FBBCE76B
:1024E00000E00AE0C5F8D402D5F8B8028268F2B17B
:1024F00031462846904780464DE095F89C020027DB
:10250000022802D0032843D113E00CB1802C3FD124
:10251000200604F07F0000EB800005EB800101D570
:10252000143101E001F5AA7102220F602CE032E0C3
:102530002EE0200604F00F0000EB800005EB800089
:1025400009D5808C20B304F07F0000EB800005EB00
:10255000800614360AE0B0F86401C8B104F07F00C8
:1025600000EB800005EB800606F5AA764CB1802CC6
:1025700007D021462846FFF73BFD10B1012030600F
:1025800000E03760022231462846FFF7D1FA02E028
:102590002846FFF7A8FA4046BDE8F08170B5054629
:1025A000087800240E4610F0600003D0202801D0E7
:1025B000402827D195F89C02012803D0022801D099
:1025C00003281FD1B088C1B201291AD8C1B2284648
:1025D000FFF777FAFF280CD058B9D5F8B8128A68F7
:1025E0003AB1C5F8D4028A68314628469047044675
:1025F00000E00324F088204307D12846FFF7A5FA1E
:1026000003E031462846FFF76EFA204670BD70475A
:1026100000487047E015002070B50A78012302F0E9
:102620000F054E78AB401B4CD0F81C58012E17D02C
:1026300045EA0343C0F81C3800EB4210D0F8002BE9
:1026400012040BD4D0F8002B0B890979C3F30A03C9
:102650001A4344EA81410A43C0F8002B002070BDB0
:102660009BB21D43C0F81C5800EB4210D0F8003953
:102670001B04F3D4D0F800390D890979C5F30A0594
:1026800089042B4341EA82510B432343C0F80039AC
:10269000E4E7000000800010D0F800196FF30A0191
:1026A000C0F80019D0F8041841F48071C0F804187B
:1026B0000020704770B50D460446C2F30721049808
:1026C0001E4601291BD0E06840F04000E060204633
:1026D00000F032F8C6F307210029A16B26D021F4BF
:1026E0008031A163C5F30741012907D1A16841F0F9
:1026F0000601A160A16841F02001A16070BDA16B3D
:1027000021F48031A163E1680A4A1140E160E16887
:1027100021F44011E160C0B2012803D1E06840F427
:102720008010E060204600F007F8DBE741F48031DC
:10273000D7E70000BFFFBDFF08B500214FF0706272
:102740000091009B5B1C009393420DD80369002B02
:10275000F7DA0091016941F0010101610099491C1A
:10276000009100BF914201D9032008BD0169C9074A
:10277000F4D1002008BD000030B54C780A78012360
:1027800000EB4212012C2CD0D2F8004B002C0BDABB
:10279000D2F8004B44F00064C2F8004BD2F8004B72
:1027A00044F08044C2F8004BD0F83C580C7804F058
:1027B0000F0403FA04F425EA0444C0F83C48D0F8B6
:1027C0001C48097801F00F018B4024EA0341C0F84E
:1027D0001C18D2F8000B19490840C2F8000B002061
:1027E00030BDD2F80049002C0BDAD2F8004944F091
:1027F0000064C2F80049D2F8004944F08044C2F8AD
:102800000049D0F83C480D7805F00F0503FA05F5AE
:10281000ADB2AC43C0F83C48D0F81C48097801F090
:102820000F018B4099B28C43C0F81C48D2F80009C4
:1028300003490840C2F80009D1E700000078F3EF2F
:10284000007833ECD0F8001E21F00301C0F8001E20
:10285000D0F8041821F00201C0F8041800207047D5
:10286000D0F8001E21F00301C0F8001ED0F80418B3
:1028700041F00201C0F80418002070472DE9F04F24
:1028800000250E46044617462846294604EB8002DA
:10289000C2F80411401C0F28F8D3C3F307405FEAC5
:1028A0000009204616D0806B20F40012A263A06BB2
:1028B00040F40022A263084688462146C4F8000E70
:1028C000C7F30720012817D00846D1F8001841F0B7
:1028D000030118E0D0F8040840F00202C4F804280C
:1028E000A06B40F40012A263A06B20F40022A2634C
:1028F000A06B20F48022DDE7300E0846D1F80018E6
:1029000001D041F00101C0F80018102100F087FA51
:1029100000B10125204600F066FA00B101254046CD
:10292000C4F81088C4F81488C4F81C8800214FF03B
:10293000006B4FF0904E4FF67F3AF2B215E000BFB9
:1029400004EB4113D3F800C9BCF1000F06DA11B152
:10295000C3F800E904E0C4F800B901E0C3F80009D5
:10296000C3F81009C3F808A9491C8A42E8D8002115
:1029700015E000BF04EB4113D3F800CBBCF1000F0E
:1029800006DA11B1C3F800EB04E0C4F800BB01E0C3
:10299000C3F8000BC3F8100BC3F808AB491C8A42FC
:1029A000E8D8D4F8101821F48072C4F81028A06177
:1029B0006FF080406061C6F3074018B9A06940F02D
:1029C0001000A061A0690A490843A061C7F307404D
:1029D00018B1A06940F00800A061B9F1010F03D15E
:1029E000A06904490843A0612846BDE8F08F0000B3
:1029F00000383C8004000040816821F001018160C2
:102A00000020704710B5036C134CA34203D9D0F8D3
:102A1000003B002B1EDB0023C0F8103BD0F8103B1E
:102A200043F40023C0F8103BD0F8103B43F01803E8
:102A3000C0F8103BD0F8103B43F0C043C0F8103B47
:102A4000012907D1C0F8142BD0F8001B41F08021D8
:102A5000C0F8001B002010BD0A30544F4A780B7894
:102A6000012A00EB43100BD0D0F8002B22F4001207
:102A7000C0F8002B0979032914D0022912D017E0DD
:102A8000D0F8002922F40012C0F80029097903299E
:102A900001D002290CD1D0F8001941F08051C0F8C2
:102AA000001905E0D0F8001B41F08051C0F8001B70
:102AB000002070470A784B78D1B200EB4110012B0F
:102AC00012D0D0F8001B002906DB2AB1D0F8001B79
:102AD00021F08041C0F8001BD0F8001B41F4001128
:102AE000C0F8001B00207047D0F80019002906DB51
:102AF0002AB1D0F8001921F08041C0F80019D0F8AF
:102B0000001941F40011C0F80019EBE7F8B50C7892
:102B10004F78894DE3B26FF0604600EB4313012F0D
:102B200029D0D3F8107B6FF31207C3F8107BD3F8CA
:102B3000107B2F40C3F8107B002C0C697DD0002C3B
:102B40007CD08D682C44641EB4FBF5F4A4B26543BC
:102B50000D62D3F8105B06EAC4442543C3F8105B4A
:102B6000D3F8104B0D6AC5F312052C43C3F8104B74
:102B7000012A7DD0C7E00F6927B3D3F810796FF32E
:102B80001207C3F81079D3F810792F40C3F81079E1
:102B900044B30F698D682F447F1EB7FBF5F506EA35
:102BA000C545D3F810693543C3F81059D3F8105907
:102BB0000E69C6F312063543C3F810590D79012D7D
:102BC0001CD027E0D3F810692E40C3F81069D3F861
:102BD000105945F40025C3F81059D3F810596FF374
:102BE000120515E00E698D68AE4200D90D61D0F86E
:102BF000105945F40026C0F81069D7E7D3F81059EA
:102C000025F0C045C3F81059D3F8105945F00055C8
:102C1000C3F81059012A1AD000EB4413D3F8004925
:102C200044F00444C3F800490C79012C32D00A69FD
:102C30007AB3D0F83428097801E040E052E001F09E
:102C40000F03012199400A43C0F8342871E0CA6992
:102C50001AB100EB4413C3F814290979012910D1E2
:102C6000D0F80818C90500EB4411D1F8002900E09C
:102C700045E002D442F0005201E042F08052C1F837
:102C8000002900EB4410D0F8001941F00441C0F8CD
:102C900000194EE0D0F80848E405D3F8004902D402
:102CA00044F0005401E044F08054C3F8004900921D
:102CB0000A8A93B20A78C96800F0DEF939E00CB1EB
:102CC0008C680C618C680C62D0F8105BC4F3120441
:102CD0002543C0F8105BD0F8104B44F40024C0F832
:102CE000104B45E7D3F8104B8D68C5F312052C4304
:102CF000C3F8104BD3F8104B44F4002436E7CA68ED
:102D00000AB1C3F8142B097901290CD1D0F80808AD
:102D1000C005D3F8000B02D440F0005001E040F0B1
:102D20008050C3F8000BD3F8000B40F00440C3F808
:102D3000000B0020F8BD0000FFFF07E038B50022BF
:102D4000009213464D780A7842F2107400EB42125A
:102D5000012D19D0D2F8005B002D3CDAD2F8005BCF
:102D600045F00065C2F8005B0A7800EB4212D2F829
:102D7000005B45F08045C2F8005B009A521C00924F
:102D8000A24221D9012326E0D2F80059002D22DAEF
:102D9000D2F8005945F00065C2F800590A7800EBF6
:102DA0004212D2F8005945F08045C2F80059009A05
:102DB000521C0092A242E5D80A7800EB4212D2F8E7
:102DC0000029002AF3DB06E00A7800EB4212D2F871
:102DD000002B002AD1DB184638BD816841F0010183
:102DE00081600020704708B500214FF070620091AB
:102DF000009B5B1C009393420AD80369002BF7DA0F
:102E00000091102101610099491C0091914201D962
:102E1000032008BD0169C906F5D4002008BD18B516
:102E200000224FF070630092009C641C00949C424E
:102E30000CD80469002CF7DA0092202242EA8111B2
:102E400001610099491C0091994201D9032018BDE4
:102E500001698906F5D4002018BDD0F8080810F0E3
:102E6000060004D0022803D0062801D00F207047A6
:102E700002207047406900F001007047D0F8181830
:102E8000D0F81C08084080B27047D0F81818D0F865
:102E90001C080840000C704710B5D0F81038D0F866
:102EA000342801F00F0400EB4110E24002F001026F
:102EB000D0F8080943EAC212104010BD00EB4111DE
:102EC000D1F8081BD0F814080840704741698069A0
:102ED0000840704730B503460846940802F00301E5
:102EE000002203F5805303E01D6840F8045B521C88
:102EF000A242F9D300290BD01C680022D50024FA85
:102F000005F3491E521C090400F8013B090CF5D1D8
:102F100030BD70B50446C068002520F0C040E060B8
:102F2000012901D079B120E0E06840F00050E06074
:102F30000A20FDF725FA60690A3510F0010F10D15B
:102F4000C82DF5D30DE0E06840F08040E0600A2035
:102F5000FDF716FA60690A3510F0010F01D0C82D8F
:102F6000F5D3C82D01D0002070BD012070BDD0F870
:102F7000002822F4FE62C0F80028D0F800284FF4A0
:102F8000FE6303EA01110A43C0F8002800207047DD
:102F9000022A3ED1264A274B0A449A4201D20F21E7
:102FA00038E0254A254B0A449A4201D20E2131E0ED
:102FB000234A244B0A449A4201D20D212AE0224A94
:102FC000224B0A449A4201D20C2123E0204A214B91
:102FD0000A449A4201D20B211CE01F4A1F4B0A44AB
:102FE0009A4201D20A2115E01D4A1E4B0A449A4218
:102FF0000FD31D4A1D4B0A449A4201D2082109E011
:103000001B4A11441B4A914201D2072102E00621CA
:1030100000E00921C26822F47052C260C2684FF415
:10302000705303EA81210A43C26000207047000008
:10303000405327FF00350C00401E1BFF40420F008D
:1030400000DC0BFF804F1200808CF9FE20D61300AD
:1030500060B6E5FE60E3160000D3CEFE40771B00AD
:10306000C05BB3FEC091210000CA91FE20753800FC
:10307000E05459FEE09C410010B5029C74B9DB1C81
:103080009C0800EB0230002300F5805004E000BFF4
:1030900051F8042B02605B1CA342F9D3002010BD41
:1030A000FEE70907090E002804DB00F1E02080F8A4
:1030B0000014704700F00F0000F1E02080F8141DAC
:1030C00070477047FDF7FAFAFEF786F9FEF79AF9AE
:1030D000FEE74FF04070E1EE100A7047FC30000848
:1030E0000000002004010000C401000800320008B4
:1030F0000401002044240000E00100080100000059
:1031000010000000000000000024F400811B0008F3
:10311000B11B0008BD1B0008E51B0008111C0008BE
:10312000611B00088D1B0008040309041201000242
:103130000202004083044057000201020301000024
:103140001A03000000000000000000000000000062
:10315000000000000000000000000000390300082B
:1031600035030008310300085D03000875030008FB
:1031700000000000810182000A06000200000040F9
:103180000100000009024300020100C032090400EE
:1031900000010202010005240010010524010001C4
:1031A000042402020524060001070582030800101A
:1031B00009040100020A00000007050102400000A6
:1031C000070581024000000039180008AD1600080C
:1031D000D7190008000000003D170008F915000885
:1031E0006F16000800000000000000000000000052
:1031F000BD17000881170008FD17000875170008A3
:040000050800018965
:00000001FF
