:020000040800F2
:10000000A806002089900008290800082B0800088D
:100010002F08000833080008370800080000000017
:100020000000000000000000000000003B08000885
:100030003D080008000000003F08000841080008D3
:10004000A3900008A3900008A3900008A3900008C4
:10005000A3900008A3900008A3900008A3900008B4
:10006000A3900008A3900008A3900008A3900008A4
:10007000A3900008A3900008A3900008A390000894
:10008000A3900008A3900008A3900008A390000884
:10009000A3900008A3900008A3900008A390000874
:1000A000A3900008A3900008A3900008A390000864
:1000B000A3900008A3900008B1B70008A39000081F
:1000C000A3900008A3900008A3900008A390000844
:1000D000A3900008FF8F0008A3900008A3900008D9
:1000E000A3900008A3900008A3900008A390000824
:1000F000A3900008A3900008A3900008A390000814
:10010000A3900008A3900008A3900008A390000803
:10011000A3900008A3900008A3900008A3900008F3
:10012000A3900008A3900008A3900008A3900008E3
:10013000A3900008A3900008A3900008A3900008D3
:10014000A3900008A3900008A3900008A3900008C3
:10015000A3900008A3900008A3900008A3900008B3
:10016000A3900008A3900008A3900008A3900008A3
:10017000A3900008A3900008A3900008A390000893
:10018000A3900008A3900008DFF80CD00CF0B8FB97
:100190000048004703030008A806002010B50446E5
:1001A00000BF4021F8480AF017F90028F9D021468D
:1001B000F5480AF061F810BDF0B589B006460F4663
:1001C00014461C2C01DD09B0F0BD002101AA201D40
:1001D0001154601D1154AA208DF80400FF208DF8E1
:1001E00005008DF806608DF80740002505E0795D73
:1001F000281D01AA1154681CC5B2A542F7DB0025D1
:1002000013E001A9201D085C495D0844C1B201AAA0
:10021000201D115401A9601D095C201D105C0844BB
:10022000C1B2601D1154681CC5B2201D8542E8DBB7
:10023000002505E001A9485DFFF7B0FF681CC5B2C5
:10024000A01D8542F6DB00BFBDE72DE9FE43044655
:100250000D4617461E46DDE90A89200A8DF8000082
:10026000E0B28DF80100280A8DF80200E8B28DF89E
:100270000300380A8DF80400F8B28DF80500300A42
:100280008DF80600F0B28DF807004FEA18208DF8BF
:10029000080008F0FF008DF809004FEA19208DF8DA
:1002A0000A0009F0FF008DF80B000C226946F120CE
:1002B000FFF782FFBDE8FE832DE9FC5F81468A4699
:1002C0009346DDE90C780EAC70CCE0B28DF80000FE
:1002D000200A8DF80100E8B28DF80200280A8DF896
:1002E0000300F0B28DF80400300A8DF805000020FC
:1002F0008DF80600072269460320FFF75DFFBDE881
:10030000FC9F8EB0002701254FF4A06008F0CEFEC0
:10031000A82008F093FD9D4808F01FFE00F09AFB0E
:1003200000F0B8FB01F0F8FA05F02BFC4FF4784030
:100330009749088097A010210B46C822CDE90010EC
:1003400032211E2005F035FA97A010210B46C82255
:10035000CDE9001046211E2005F02BFA96A01021B1
:100360000B46C822CDE900105A211E2005F021FAC3
:1003700095A010210B46C822CDE900106E211E2049
:1003800005F017FA07F039FD80461FE007F035FD4C
:10039000804641468FA00CF041FB93A010210B46F4
:1003A000C822CDE9001082211E2005F002FAC820E3
:1003B00008F0A6FD4FF6FF709223EF2282210090F5
:1003C0001E2004F05DFFC82008F09AFDB8F1000F70
:1003D000DCD189A010210B46C822CDE90010822172
:1003E0001E2005F0E6F987A010210B46C822CDE9B2
:1003F000001096211E2005F0DCF91F2064490880BA
:1004000085A010210B46C822CDE90010AA211E208C
:1004100005F0CFF983A010210B46C822CDE90010CA
:1004200011461E2005F0C5F982A010210B46C822F6
:10043000CDE90010DC211E2005F0BBF981A01021C0
:100440000B46C822CDE90010F0211E2005F0B1F9BD
:1004500080A010210B46C822CDE900104FF4827114
:100460001E2005F0A6F9DCE1002000F031FB064675
:10047000012E19D105B900E00020054655B166A04E
:1004800010210B46C822CDE90010AA211E2005F03C
:1004900090F909E073A010210B46C822CDE90010A5
:1004A000AA211E2005F085F90BAA0CA90DA807F0BA
:1004B000F0FC002865D105F0DBFB044608AA09A979
:1004C0000AA805F034FC05AA06A907A805F007FC50
:1004D0007DB1BDF91400BDF91810CDE90010BDF9CA
:1004E0001C30BDF92020BDF92410BDF92800FFF70C
:1004F000ACFE9DB39DED0B0AF2EE040A20EE200A3D
:10050000BDEEC00A10EE100A00B29DED0D0ADFED3F
:10051000580A20EE200ABDEEC00A10EE101A09B2E9
:100520009DED0C0ADFED520A20EE200ABDEEC00A56
:1005300010EE102A12B2BDF91430CDE90132CDE926
:100540000310BDF918000090BDF91C30BDF9202042
:10055000BDF92410BDF92800FFF7AEFE0A2097FB75
:10056000F0F100FB11700028A4D1002C0ADA10234E
:100570002D22C82100904E2004F0D0FF604204B22A
:1005800080E04CE176E000000010014020A107006F
:10059000160000204578706C6F7265722053544DC0
:1005A00033324634000000004D505536303530208F
:1005B000544553540000000041544F4D40414C49B4
:1005C000454E54454B000000323031342F352F3921
:1005D00000000000696E69742072657420697320E0
:1005E00025640D0A000000004D505536303530208E
:1005F0004572726F720000004D5055363035302014
:100600004F4B00004B4559303A55504C4F41442018
:100610004F4E2F4F4646000055504C4F4144204FFF
:100620004E2000002054656D703A202020202E209E
:100630004300000050697463683A202020202E2077
:100640004300000020526F6C6C3A202020202E20A6
:100650004300000020596177203A202020202E20DE
:100660004300000055504C4F4144204F4646000087
:100670000000C842002010232022C82100904E20F4
:1006800004F04CFF642094FBF0F9102003234A4649
:10069000C8210090562004F0D4FF0A2094FBF0F10A
:1006A00000FB1149102001234A46C8210090762002
:1006B00004F0C7FF9DED0D0AF2EE040A20EE200AB9
:1006C000BDEEC00A10EE100A04B2002C0ADA0020B7
:1006D00010232D22DC2100904E2004F01FFF6042E9
:1006E00004B207E0002010232022DC2100904E20DD
:1006F00004F014FF0A2094FBF0F9102003234A466B
:10070000DC210090562004F09CFF0A2094FBF0F1BD
:1007100000FB1149102001234A46DC21009076207D
:1007200004F08FFF9DED0C0AF2EE040A20EE200A81
:10073000BDEEC00A10EE100A04B2002C0ADA002046
:1007400010232D22F02100904E2004F0E7FE60429D
:1007500004B207E0002010232022F02100904E2058
:1007600004F0DCFE0A2094FBF0F9102003234A4633
:10077000F0210090562004F064FF0A2094FBF0F171
:1007800000FB1149102001234A46F02100907620F9
:1007900004F057FF9DED0B0AF2EE040A20EE200A4A
:1007A000BDEEC00A10EE100A04B2002C0BDA0020D5
:1007B00010232D224FF4827100904E2004F0AEFEE3
:1007C000604204B208E00020102320224FF482711E
:1007D00000904E2004F0A2FE0A2094FBF0F91020B5
:1007E00003234A464FF482710090562004F029FFFB
:1007F0000A2094FBF0F100FB1149102001234A4626
:100800004FF482710090762004F01BFF002705480A
:10081000006808B9012000E0002002490860781C47
:10082000C7B221E6A4824242704700BFFEE700BF84
:10083000FEE700BFFEE700BFFEE770477047704766
:10084000704700000CB500200190009076480068C9
:1008500040F480307449086000BF7348006800F4B9
:10086000003000900198401C0190009818B9019840
:10087000B0F5A04FF1D16C48006800F4003010B121
:100880000120009001E0002000900098012846D14E
:1008900065484030006840F080506349403108604E
:1008A0006248006840F44040604908605E48083093
:1008B00000685D49083108600846006840F400405F
:1008C00008600846006840F4A05008605848091FB6
:1008D0000860081F006840F08070091F086000BFB2
:1008E0005148006800F000700028F9D040F205700F
:1008F000504908604C480830006820F003004A491D
:10090000083108600846006840F00200086000BF37
:1009100045480830006800F00C000828F8D10CBDEC
:1009200010B54548006840F47000434908603E48EF
:10093000006840F001003C49086000203A49083155
:100940000860394800683D490840374908603C481C
:10095000091D0860081F006820F48020091F086036
:10096000002031490C310860FFF76CFF4FF0006048
:1009700031498039086010BD70B500200022022383
:1009800000240221284D08352D6805F00C0020B107
:10099000042806D0082834D107E02A4D2A4E3560B5
:1009A00033E02A4D284E35602FE01F4D2D1D2D6858
:1009B000C5F380541C4D2D1D2D6805F03F0154B129
:1009C000224DB5FBF1F5184E361D3668C6F3881674
:1009D00005FB06F209E01B4DB5FBF1F5124E361D85
:1009E0003668C6F3881605FB06F20F4D2D1D2D68DF
:1009F000C5F301456D1C6B00B2FBF3F5124E35607B
:100A000003E0104D104E356000BF00BF064D0835A5
:100A10002D68C5F303150E4E705D0B4D2D68C54056
:100A2000094E356070BD0000003802400070004083
:100A300008544007003C024088ED00E0FFFFF6FE4E
:100A4000103000240024F4000000002000127A007E
:100A5000040000201CB50121202009F09FF94FF46B
:100A6000C060009001208DF8040000208DF8060081
:100A700003208DF8050001208DF807006946044821
:100A800008F0EEFE4FF4C061014808F065FF1CBDA0
:100A9000001402401CB50121112009F07FF91C202F
:100AA000009000208DF8040003208DF8050001203F
:100AB0008DF807006946354808F0D2FE0120009005
:100AC00002208DF807006946314808F0C9FE1CBDB8
:100AD00010B5044614B101202E4908702D48007845
:100AE000002837D01021294808F01CFF78B10821D0
:100AF000264808F017FF50B10421244808F012FFDF
:100B000028B10121224808F00DFF012822D10A2036
:100B100008F0F6F900201F49087010211B4808F062
:100B200001FF08B9012010BD0821184808F0FAFE9D
:100B300008B90220F7E70421144808F0F3FE08B9C9
:100B40000320F0E70121124808F0ECFE01281BD138
:100B50000420E8E710210D4808F0E4FE012813D135
:100B600008210A4808F0DEFE01280DD104210748BB
:100B700008F0D8FE012807D10121054808F0D2FE6F
:100B800010B90120034908700020CCE70010024092
:100B9000000002401400002001B5BDF800000090E4
:100BA000BDF80000F849088008BD01B5BDF8000097
:100BB0000090BDF80000F449891C088008BD08B504
:100BC000F148801C00880090BDF8000008BDEE4A86
:100BD00010804FF0D842A2F88010704710B504463C
:100BE0002046FFF7D9FF052008F042F9FFF7E7FF9D
:100BF00010BDE6480089E44908807047E249891C35
:100C00000880704730B5014601F01F04C1F3451359
:100C1000CA0AE50205EB43151544A8B230BD00BF72
:100C2000011EA0F10102D0B2FAD1704730B50446DE
:100C30000D46D648808849F24131884205D0D348D4
:100C4000808845F21031884214D1D0494889FFF795
:100C5000A3FF2012FFF7A9FFE0B2FFF7A6FFCB49E1
:100C60008889FFF799FF2812FFF79FFFE8B2FFF787
:100C70009CFFABE0C548808846F6040188421DD140
:100C8000C2488079012804D1C0480088401E001B5A
:100C900084B2BE494889FFF77FFF2012FFF785FF26
:100CA000E0B2FFF782FFB9498889FFF775FF281284
:100CB000FFF77BFFE8B2FFF778FF87E0B348808853
:100CC00041F66311884247D1B0488079A8B9AF484E
:100CD0000088401E001B84B2AC494889FFF75CFFC6
:100CE0000020FFF762FF0020FFF75FFF2012FFF7F1
:100CF0005CFFE0B2FFF759FF16E0A4494889FFF70F
:100D00004BFF2012FFF751FFE0B2FFF74EFF9F4964
:100D10000988491EC1F30F20FFF747FF9B49097857
:100D2000491EC8B2FFF741FF98498889FFF734FF91
:100D30002812FFF73AFFE8B2FFF737FF93494988D7
:100D4000491EC1F30F20FFF730FF90498978491EF3
:100D5000C8B2FFF72AFF39E08C48808845F210516D
:100D6000884220D189494889FFF716FF2012FFF7F2
:100D70001CFF86494989491C88B2FFF70DFFE0B284
:100D8000FFF713FF81498889FFF706FF2812FFF755
:100D90000CFF7E498989491C88B2FFF7FDFEE8B245
:100DA000FFF703FF12E079488079012804D17748E2
:100DB0000088401E001B84B2744948892146FFF711
:100DC00006FF724988892946FFF701FF30BD2DE9EA
:100DD000F04105460E4600240027A0466B480088D7
:100DE000A84203DD69484088B04202DC0020BDE82B
:100DF000F08131462846FFF719FF6448808849F2A0
:100E00004131884211D06148808846F60401884209
:100E10000BD05E48808845F21031884205D05B488F
:100E2000808841F66311884203D12E20FFF7B4FE7B
:100E30000DE05648808845F21051884204D14FF4A5
:100E40003850FFF7A9FE02E02220FFF7A5FE4F4829
:100E5000808849F22031884202D10220FFF7DFFE6C
:100E6000FFF7ADFE04464948808841F66311884289
:100E700001D12046BBE70220FFF7D1FEFFF79FFE1E
:100E800004464248808849F2413188420BD03F48AD
:100E9000808845F21031884205D03C48808845F270
:100EA000105188420AD10220FFF7B9FEFFF787FEF2
:100EB0008046E7B24FF6FF7000EA07273348808884
:100EC00049F22531884216D03048808844F23551A5
:100ED000884210D02D488088091F88420BD02B48AB
:100EE00080884BF20551884205D0284880884CF212
:100EF0000551884201D1204679E72448808849F28B
:100F0000413188420BD02148808845F21031884217
:100F100005D01E48808845F21051884207D1E01262
:100F2000C002B91240EA411040EAE8205FE72046DB
:100F3000FFF768FE5BE700B51448808849F241314D
:100F4000884211D01148808846F6040188420BD0AF
:100F50000E48808845F21031884205D00B488088C1
:100F600041F66311884203D12920FFF715FE14E0F2
:100F70000648808845F21051884209D14FF4245028
:100F8000FFF70AFE09E000007E00006CBC010020B3
:100F900040F273110720FFF71AFE00BD00B5FD48AF
:100FA000808849F24131884211D0FA48808846F65B
:100FB000040188420BD0F748808845F210318842FE
:100FC00005D0F448808841F66311884203D1282077
:100FD000FFF7E2FD0EE0EF48808845F210518842AD
:100FE00004D14FF42050FFF7D7FD03E00021072084
:100FF000FFF7EDFD00BDF0B5054600240027E548EC
:10100000807901280BD1E348808846F604018842A4
:1010100005D0E048808841F66311884208D1DD4858
:101020008079F0B9DB48808841F66311884218D195
:10103000082D15D2DFE805F00406080A0C0E101280
:1010400006250DE007250BE0042509E0052507E04E
:10105000012505E0002503E0032501E0022500BF8E
:1010600000BFCC48808849F24131884217D0C94836
:10107000808846F60401884211D0C648808845F22F
:10108000103188420BD0C348808845F21051884205
:1010900005D0C048808841F6631188427ED1082D72
:1010A0001CD2DFE805F00406090C0F12151800BF6A
:1010B00014E044F0800411E044F040040EE044F0F9
:1010C000C0040BE044F0200408E044F0600405E0B4
:1010D00044F0A00402E044F0E00400BF00BFAD48CB
:1010E000808845F21051884202D14FF4585700E0F1
:1010F0003627A848808845F2103188420DD0A5488F
:10110000808845F21051884207D0A248808841F675
:101110006311884201D044F008049E48808846F656
:101120000401884201D144F0020421463846FFF709
:101130004EFD9848808841F6631188421DD004F026
:10114000200068B19348008892494988884214DA9F
:101150009048068840888F490880084646800CE001
:101160008C4800888B494988884206DD8948068872
:10117000408888490880084646808648808845F22D
:101180001051884254D183494889FFF705FD00205A
:10119000FFF70BFD7F494989491C00E077E088B2E1
:1011A000FFF7FAFC0020FFF700FD7A494989891C06
:1011B00088B2FFF7F1FC77490988491EC1F30F2077
:1011C000FFF7F3FC73494989C91C88B2FFF7E4FCB7
:1011D00070490978491EC8B2FFF7E7FC6D49888954
:1011E000FFF7DAFC0020FFF7E0FC6A498989491C17
:1011F00088B2FFF7D1FC0020FFF7D7FC6549898949
:10120000891C88B2FFF7C8FC62494988491EC1F3AE
:101210000F20FFF7CAFC5F498989C91C88B2FFF714
:10122000BBFC5C498978491EC8B2FFF7BEFC55E09B
:1012300058494889FFF7B0FC0020FFF7B6FC0020B2
:10124000FFF7B3FC53490988491EC1F30F20FFF78C
:10125000ACFC50490978491EC8B2FFF7A6FC4D49BD
:101260008889FFF799FC0020FFF79FFC0020FFF71B
:101270009CFC48494988491EC1F30F20FFF795FCA3
:1012800044498978491EC8B2FFF78FFC26E0082D33
:101290001CD2DFE805F004070A0D0F12151844F000
:1012A000300413E044F0100410E044F020040DE09A
:1012B00000BF0BE044F0380408E044F0280405E0E7
:1012C00044F0180402E044F0080400BF00BF032704
:1012D00044F4805421463846FFF779FCF0BD30B520
:1012E00004460D4629462046FFF7A0FCFFF781FC87
:1012F000294800882949088030BD70B504460D464C
:1013000016462448808849F24131884205D0214858
:10131000808845F21031884214D11E494889FFF770
:101320003BFC2012FFF741FCE0B2FFF73EFC1949FD
:101330008889FFF731FC2812FFF737FCE8B2FFF786
:1013400034FC93E01348808845F21051884227D13D
:1013500010494889FFF720FC2012FFF726FC0D49B1
:101360004989491C88B2FFF717FCE0B2FFF71DFC62
:1013700008498889FFF710FC2812FFF716FC054979
:101380008989491C88B2FFF707FCE8B2FFF70DFC1A
:101390006CE00000BC010020160000208000006C02
:1013A000FE48808841F66311884228D1FB48807945
:1013B00020B9FA480088401E001B84B2F7494889CA
:1013C000FFF7EAFB2012FFF7F0FBE0B2FFF7EDFBBF
:1013D0002012FFF7EAFBE0B2FFF7E7FBEF4988894D
:1013E000FFF7DAFB2812FFF7E0FBE8B2FFF7DDFBBF
:1013F0002812FFF7DAFBE8B2FFF7D7FB36E0E74841
:10140000808846F6040188421DD1E448807901288D
:1014100004D1E2480088401E001B84B2DF4948899D
:10142000FFF7BAFB2012FFF7C0FBE0B2FFF7BDFBEE
:10143000DA498889FFF7B0FB2812FFF7B6FBE8B25C
:10144000FFF7B3FB12E0D5488079012804D1D348D7
:101450000088401E001B84B2D04948892146FFF70E
:10146000B6FBCE4988892946FFF7B1FBCB480089F6
:10147000CB4908804FF0D840A0F8806070BD70B5AF
:101480002DED048B0446BE20FFF786FB0520FFF7F9
:101490008CFB20460BF0E9F841EC190B9FEDC10BDA
:1014A00053EC102B0AF0EFFF41EC180B0BF0EAF8AD
:1014B00085B22846FFF779FB0120FFF776FBFF2076
:1014C000FFF773FB0020FFF770FB0020FFF76DFBB9
:1014D000BDEC048B70BD10B50446002C66D1AF493D
:1014E0008871F02008804FF4A070488008468088FA
:1014F00049F2413188420BD0A848808846F6040161
:10150000884205D0A548808845F2103188421AD11A
:101510002C20A24908812A2048812B208881084656
:10152000808846F60401884205D09C48808845F2B0
:101530001031884206D14FF4A070984908804FF4CA
:10154000F0704880A1E09548808845F210518842AB
:1015500010D14FF43050914908814FF42850488100
:101560004FF42C5088814FF4F07008804FF448708D
:1015700048808AE08948808841F6631188420DD10D
:101580002C20864908812B2048812A2088814FF40D
:10159000F07008804FF44870488076E022207F4940
:1015A000088120204881212088816EE001207B492C
:1015B00088714FF4A0700880F02048800846808829
:1015C00049F24131884205D07448808845F2103193
:1015D000884207D12C20714908812A2048812B207C
:1015E00088813FE06D48808846F60401884207D133
:1015F0002C206A4908812B2048812A20888131E0EB
:101600006648808845F21051884210D14FF430501E
:10161000624908814FF4285048814FF42C5088814A
:101620004FF4487008804FF4F07048801AE05B482F
:10163000808841F6631188420DD12C2057490881DA
:101640002A2048812B2088814FF4487008804FF46D
:10165000F070488006E0222050490881212048810E
:10166000202088814D48808846F60401884205D0B4
:101670004A48808845F21031884206D14FF4F07014
:10168000464908804FF4A07048800020FFF7B3FC63
:1016900010BD2DE9F04F86B004460D4690469946A0
:1016A00004EB0800401E86B205EB0900401E87B21D
:1016B0003A48808849F24131884215D037488088BD
:1016C00045F2103188420FD03448808846F6040134
:1016D000884209D031488079012826D12F48808856
:1016E00041F66311884220D12C494889FFF754FA0A
:1016F0002012FFF75AFAE0B2FFF757FA3012FFF75D
:1017000054FAF0B2FFF751FA24498889FFF744FAF6
:101710002812FFF74AFAE8B2FFF747FA3812FFF744
:1017200044FAF8B2FFF741FAC1E01C48808841F65C
:10173000631188423DD119480088A0EB0800001BC6
:1017400084B205EB0900401E1FFA80F9134948894D
:10175000FFF722FA2012FFF728FAE0B2FFF725FA86
:1017600004EB0801491EC1F30F20FFF71EFA04EB3A
:101770000801491EC8B2FFF718FA08498889FFF71F
:101780000BFA2812FFF711FAE8B2FFF70EFA4FEA48
:101790002920FFF70AFA09F0FF0007E0BC0100204A
:1017A0007E00006C6666666666660440FFF7FDF9BB
:1017B0007DE0FE48808845F21051884244D1FB49C3
:1017C0004889FFF7E9F92012FFF7EFF9F74949894E
:1017D000491C88B2FFF7E0F9E0B2FFF7E6F9F349F8
:1017E0004989891C88B2FFF7D7F93012FFF7DDF974
:1017F000EE494989C91C88B2FFF7CEF9F0B2FFF76C
:10180000D4F9EA498889FFF7C7F92812FFF7CDF91B
:10181000E6498989491C88B2FFF7BEF9E8B2FFF7AB
:10182000C4F9E2498989891C88B2FFF7B5F93812F1
:10183000FFF7BBF9DD498989C91C88B2FFF7ACF90C
:10184000F8B2FFF7B2F932E0D848807901280ED11A
:10185000AA46BB46D5480088801B401E80B2019036
:10186000D2480088001B401E80B2009003E0A246D0
:10187000B3460195009750200590512004905220C6
:1018800003905320029051460598FFF7A0F959465E
:101890000498FFF79CF901990398FFF798F90099CC
:1018A0000298FFF794F929462046FFF7BFF906B0E2
:1018B000BDE8F08F70B504460026BC480588408816
:1018C0004543BA48808846F60401884216D1B74895
:1018D0008079012812D10020B44988712A204881DA
:1018E0002B20888100210846FFF7A0F90120AF498D
:1018F00088712B2048812A20888103E00021084636
:10190000FFF794F9FFF775F9002602E0A848048074
:10191000761CAE42FAD370BD00B5A1B00020209075
:1019200001217A2008F03AFA0121084608F06EFAFF
:101930004FF400401E9001208DF87C0000208DF8AF
:101940007E0002208DF87D0001208DF87F001EA909
:10195000984807F085FF4CF233701E9002208DF8F6
:101960007C0000208DF87E0003208DF87D00012092
:101970008DF87F001EA9904807F072FF4FF6807027
:101980001E9002208DF87C0000208DF87E00032040
:101990008DF87D0001208DF87F001EA9874807F093
:1019A0005FFF4FF480501E9002208DF87C000020D5
:1019B0008DF87E0003208DF87D0001208DF87F00DA
:1019C0001EA97F4807F04CFF4FF480501E90022064
:1019D0008DF87C0000208DF87E0003208DF87D00BE
:1019E00001208DF87F001EA9764807F039FF0C22F0
:1019F0000021714807F0BFFF0C2201216E4807F05B
:101A0000BAFF0C2204216C4807F0B5FF0C22052117
:101A1000694807F0B0FF0C220821674807F0ABFFC8
:101A20000C220921644807F0A6FF0C220A21624813
:101A300007F0A1FF0C220E215F4807F09CFF0C224B
:101A40000F215D4807F097FF0C2207215B4807F044
:101A500092FF0C220821594807F08DFF0C22092122
:101A6000564807F088FF0C220A21544807F083FFEC
:101A70000C220B21514807F07EFF0C2211464F48E3
:101A800007F079FF0C220D214C4807F074FF0C225F
:101A90000E214A4807F06FFF0C220F21474807F03C
:101AA0006AFF0C221146464807F065FF0C221146DA
:101AB000444807F060FF0F200890002009903C2068
:101AC0000A9000200B900C900D900E900920019030
:101AD00000200290082003900020049005900690BA
:101AE000079006200F900020109011901020129067
:101AF0000020139015901490169017904FF480507A
:101B00001890002019904FF480401A9000201B90EC
:101B100008A81C9001A81D900FA807F052FB0121F6
:101B2000062007F0D9FB322007F0EAF90121002056
:101B3000FFF74DF8322007F0E3F90020FFF74EF8E9
:101B40001A49888008468088FF280ADB0846808872
:101B50004FF6FF71884204D014488088B0F5134FC7
:101B60007ED1D320FFF718F8FFF729F80F498880B6
:101B7000FFF725F80D498880FFF721F80B49888089
:101B8000084680884FF6FF7101EA002007498880E7
:101B9000FFF715F8054989880843044988800846F5
:101BA000808849F2413188425AD00DE0BC010020C2
:101BB0008000006C00040240000C02400010024053
:101BC0000014024000180240BF20FEF7E5FFFEF7B8
:101BD000F6FFFE498880FEF7F2FFFC498880FEF799
:101BE000EEFFFA498880FEF7EAFFF8498880084648
:101BF00080884FF6FF7101EA0020F4498880FEF7E3
:101C0000DEFFF24989880843F049888008468088C9
:101C100046F6040188427AD0D420FEF7BDFFFEF7D5
:101C2000CEFFEA498880FEF7CAFFE8498880FEF7C0
:101C3000C6FFE6498880084680884FF6FF7101EAB2
:101C40000020E2498880FEF7BAFFE049898808430E
:101C5000DE4988800846808845F21031884200E0DD
:101C600055E054D04FF45A40FEF796FFFEF7A7FF19
:101C7000D64988804FF45B40FEF78EFFFEF79FFF4A
:101C8000D2498880084680884FF6FF7101EA00201B
:101C9000CE4988804FF45C40FEF77EFFFEF78FFF51
:101CA000CA4989880843C949888008468088B0F5B0
:101CB000004F02D145F210508880C448808845F218
:101CC0001051884223D0A120FEF766FFFEF777FF70
:101CD000BE498880FEF773FFBC498880084680882B
:101CE0004FF6FF7101EA0020B8498880FEF767FFD0
:101CF000B64989880843B54988800846808845F2F6
:101D00006171884203D141F66310B0498880AF48C1
:101D1000808849F24131884211D0AC48808845F230
:101D2000103188420BD0A948808845F21051884272
:101D300005D0A648808841F6631188421DD1A44889
:101D4000006820F00F004FF02041C1F81C01084648
:101D5000D0F81C0120F47060C1F81C010846D0F8CE
:101D60001C0140F00300C1F81C010846D0F81C011A
:101D700040F40070C1F81C0128E09448808846F6C1
:101D80000401884205D0914880884CF20551884270
:101D90001CD18F48006820F00F004FF02041C1F89F
:101DA0001C010846D0F81C0120F47060C1F81C0129
:101DB0000846D0F81C0140F00A00C1F81C01084692
:101DC000D0F81C0140F44060C1F81C017F488188B4
:101DD00080A00AF023FE7D48808849F24131884284
:101DE0007ED1CF20FEF7D8FE0020FEF7DEFEC12018
:101DF000FEF7DBFE3020FEF7D8FEED20FEF7CCFE2E
:101E00006420FEF7D2FE0320FEF7CFFE1220FEF77D
:101E1000CCFE8120FEF7C9FEE820FEF7BDFE85203E
:101E2000FEF7C3FE1020FEF7C0FE7A20FEF7BDFECF
:101E3000CB20FEF7B1FE3920FEF7B7FE2C20FEF7CF
:101E4000B4FE0020FEF7B1FE3420FEF7AEFE022005
:101E5000FEF7ABFEF720FEF79FFE2020FEF7A5FE63
:101E6000EA20FEF799FE0020FEF79FFE0020FEF715
:101E70009CFEC020FEF790FE1B20FEF796FEC120C0
:101E8000FEF78AFE0120FEF790FEC520FEF784FED5
:101E90003020FEF78AFE3020FEF787FEC720FEF7CF
:101EA0007BFEB720FEF781FE3620FEF775FE482048
:101EB000FEF77BFE3A20FEF76FFE5520FEF775FE1B
:101EC000B120FEF769FE0020FEF76FFE1A20FEF734
:101ED0006CFEB620FEF760FE0A20FEF766FE00E00C
:101EE000A5E0A220FEF761FEF220FEF755FE0020DD
:101EF000FEF75BFE2620FEF74FFE0120FEF755FEA3
:101F0000E020FEF749FE0F20FEF74FFE2A20FEF7E5
:101F10004CFE2820FEF749FE0820FEF746FE0E2064
:101F2000FEF743FE0820FEF740FE5420FEF73DFE7C
:101F3000A920FEF73AFE4320FEF737FE0A20FEF7FF
:101F400034FE0F20FEF731FE0020FEF72EFE0020AB
:101F5000FEF72BFE0020FEF728FE0020FEF725FEF0
:101F6000E120FEF719FE0020FEF71FFE1520FEF708
:101F70001CFE1720FEF719FE0720FEF716FE1120A3
:101F8000FEF713FE0620FEF710FE2B20FEF70DFED7
:101F90005620FEF70AFE3C20FEF707FE0520FEF75E
:101FA00004FE1020FEF701FE0F20FEF7FEFD3F208D
:101FB000FEF7FBFD3F20FEF7F8FD0F20FEF7F5FDD5
:101FC0002B20FEF7E9FD00200CE00000BC01002002
:101FD0001C0100A0204C43442049443A25780D0AB6
:101FE00000000000FEF7E1FD0020FEF7DEFD01200D
:101FF000FEF7DBFD3F20FEF7D8FD2A20FEF7CCFDE3
:102000000020FEF7D2FD0020FEF7CFFD0020FEF7F6
:10201000CCFDEF20FEF7C9FD1120FEF7BDFD7820B5
:1020200006F06EFF2920FEF7B7FD03F01DB9FE484C
:10203000808846F6040188427ED11120FEF7ACFD6F
:10204000142006F05DFFD020FEF7A6FD0720FEF766
:10205000ACFD4220FEF7A9FD1D20FEF7A6FDD12014
:10206000FEF79AFD0020FEF7A0FD1A20FEF79DFD69
:102070000920FEF79AFDD220FEF78EFD0120FEF723
:1020800094FD2220FEF791FDC020FEF785FD102073
:10209000FEF78BFD3B20FEF788FD0020FEF785FD57
:1020A0000220FEF782FD1120FEF77FFDC520FEF71E
:1020B00073FD0320FEF779FDC820FEF76DFD0020BB
:1020C000FEF773FD2520FEF770FD2120FEF76DFD64
:1020D0000520FEF76AFD0020FEF767FD0A20FEF7E7
:1020E00064FD6520FEF761FD2520FEF75EFD77208B
:1020F000FEF75BFD5020FEF758FD0F20FEF755FD63
:102100000020FEF752FDF820FEF746FD0120FEF705
:102110004CFDFE20FEF740FD0020FEF746FD0220AC
:10212000FEF743FD2020FEF737FD3620FEF734FD95
:102130000820FEF73AFD00E02AE03A20FEF72CFDE9
:102140005520FEF732FD2B20FEF726FD0020FEF77E
:102150002CFD0020FEF729FD0120FEF726FD3F2083
:10216000FEF723FD2A20FEF717FD0020FEF71DFDD8
:102170000020FEF71AFD0120FEF717FDDF20FEF715
:1021800014FD782006F0BCFE2920FEF705FD4CE783
:10219000A548808845F21031884240F07C87ED20C8
:1021A000FEF7FAFC0120FEF700FDFE20FEF7FDFC25
:1021B000EE20FEF7F1FCDE20FEF7F7FC2120FEF713
:1021C000F4FCF120FEF7E8FC0120FEF7EEFCDF2036
:1021D000FEF7E2FC1020FEF7E8FCC420FEF7DCFC72
:1021E0008F20FEF7E2FCC620FEF7D6FC0020FEF7AB
:1021F000DCFCE220FEF7D9FCE220FEF7D6FCE22070
:10220000FEF7D3FCBF20FEF7C7FCAA20FEF7CDFCEB
:10221000B020FEF7C1FC0D20FEF7C7FC0020FEF742
:10222000C4FC0D20FEF7C1FC0020FEF7BEFC11200F
:10223000FEF7BBFC0020FEF7B8FC1920FEF7B5FC4A
:102240000020FEF7B2FC2120FEF7AFFC0020FEF7D5
:10225000ACFC2D20FEF7A9FC0020FEF7A6FC3D20DB
:10226000FEF7A3FC0020FEF7A0FC5D20FEF79DFC1E
:102270000020FEF79AFC5D20FEF797FC0020FEF799
:1022800094FCB120FEF788FC8020FEF78EFC002035
:10229000FEF78BFC8B20FEF788FC0020FEF785FC08
:1022A0009620FEF782FC0020FEF77FFCB220FEF7AE
:1022B00073FC0020FEF779FC0020FEF776FC02207C
:1022C000FEF773FC0020FEF770FC0320FEF76DFCA8
:1022D0000020FEF76AFCB320FEF75EFC0020FEF74C
:1022E00064FC0020FEF761FC0020FEF75EFC00208D
:1022F000FEF75BFC0020FEF758FC0020FEF755FCC3
:102300000020FEF752FC0020FEF74FFC0020FEF7F5
:102310004CFC0020FEF749FC0020FEF746FC0020A4
:10232000FEF743FC0020FEF740FC0020FEF73DFCDA
:102330000020FEF73AFC0020FEF737FC0020FEF7F5
:1023400034FC0020FEF731FC0020FEF72EFC0020BC
:10235000FEF72BFC0020FEF728FC0020FEF725FCF2
:102360000020FEF722FC0020FEF71FFCB420FEF741
:1023700013FC8B20FEF719FC0020FEF716FC9620BC
:10238000FEF713FC0020FEF710FCA120FEF70DFC69
:102390000020FEF70AFCB520FEF7FEFB0220FEF748
:1023A00004FC0020FEF701FC0320FEF7FEFB0020EA
:1023B000FEF7FBFB0420FEF7F8FB0020FEF7F5FB21
:1023C000B620FEF7E9FB0020FEF7EFFB0020FEF74A
:1023D000ECFBB720FEF7E0FB0020FEF7E6FB002059
:1023E000FEF7E3FB3F20FEF7E0FB0020FEF7DDFBFE
:1023F0005E20FEF7DAFB0020FEF7D7FB6420FEF735
:10240000D4FB0020FEF7D1FB8C20FEF7CEFB002092
:10241000FEF7CBFBAC20FEF7C8FB0020FEF7C5FBA8
:10242000DC20FEF7C2FB01E0BC0100200020FEF72B
:10243000BCFB7020FEF7B9FB0020FEF7B6FB902036
:10244000FEF7B3FB0020FEF7B0FBEB20FEF7ADFB81
:102450000020FEF7AAFBDC20FEF7A7FB0020FEF71A
:10246000A4FBB820FEF798FB0020FEF79EFB00209F
:10247000FEF79BFB0020FEF798FB0020FEF795FB84
:102480000020FEF792FB0020FEF78FFB0020FEF7F6
:102490008CFB0020FEF789FBBA20FEF77DFB242091
:1024A000FEF783FB0020FEF780FB0020FEF77DFB9C
:1024B0000020FEF77AFBC120FEF76EFB2020FEF71E
:1024C00074FB0020FEF771FB5420FEF76EFB00202A
:1024D000FEF76BFBFF20FEF768FB0020FEF765FBB5
:1024E000C220FEF759FB0A20FEF75FFB0020FEF733
:1024F0005CFB0420FEF759FB0020FEF756FBC320CF
:10250000FEF74AFB3C20FEF750FB0020FEF74DFB98
:102510003A20FEF74AFB0020FEF747FB3920FEF782
:1025200044FB0020FEF741FB3720FEF73EFB002076
:10253000FEF73BFB3C20FEF738FB0020FEF735FBA7
:102540003620FEF732FB0020FEF72FFB3220FEF78D
:102550002CFB0020FEF729FB2F20FEF726FB002096
:10256000FEF723FB2C20FEF720FB0020FEF71DFBCF
:102570002920FEF71AFB0020FEF717FB2620FEF7A6
:1025800014FB0020FEF711FB2420FEF70EFB0020B9
:10259000FEF70BFB2420FEF708FB0020FEF705FBEF
:1025A0002320FEF702FB0020FEF7FFFA3C20FEF797
:1025B000FCFA0020FEF7F9FA3620FEF7F6FA0020C2
:1025C000FEF7F3FA3220FEF7F0FA0020FEF7EDFAFC
:1025D0002F20FEF7EAFA0020FEF7E7FA2C20FEF79C
:1025E000E4FA0020FEF7E1FA2920FEF7DEFA0020E7
:1025F000FEF7DBFA2620FEF7D8FA0020FEF7D5FA20
:102600002420FEF7D2FA0020FEF7CFFA2420FEF7AE
:10261000CCFA0020FEF7C9FA2320FEF7C6FA002004
:10262000FEF7C3FAC420FEF7B7FA6220FEF7BDFA40
:102630000020FEF7BAFA0520FEF7B7FA0020FEF7F1
:10264000B4FA8420FEF7B1FA0020FEF7AEFAF020CB
:10265000FEF7ABFA0020FEF7A8FA1820FEF7A5FA5D
:102660000020FEF7A2FAA420FEF79FFA0020FEF752
:102670009CFA1820FEF799FA0020FEF796FA5020EF
:10268000FEF793FA0020FEF790FA0C20FEF78DFA81
:102690000020FEF78AFA1720FEF787FA0020FEF7DF
:1026A00084FA9520FEF781FA0020FEF77EFAF320E7
:1026B000FEF77BFA0020FEF778FAE620FEF775FABF
:1026C0000020FEF772FAC520FEF766FA3220FEF708
:1026D0006CFA0020FEF769FA4420FEF766FA002043
:1026E000FEF763FA6520FEF760FA0020FEF75DFA58
:1026F0007620FEF75AFA0020FEF757FA8820FEF7F8
:1027000054FA0020FEF751FAC620FEF745FA2020C1
:10271000FEF74BFA0020FEF748FA1720FEF745FABD
:102720000020FEF742FA0120FEF73FFA0020FEF7F4
:102730003CFAC720FEF730FA0020FEF736FA0020F8
:10274000FEF733FA0020FEF730FA0020FEF72DFAEC
:10275000C820FEF721FA0020FEF727FA0020FEF736
:1027600024FA0020FEF721FA0020FEF71EFAC92005
:10277000FEF712FA0020FEF718FA0020FEF715FA0D
:102780000020FEF712FA0020FEF70FFA0020FEF7F5
:102790000CFA0020FEF709FA0020FEF706FA0020E6
:1027A000FEF703FA0020FEF700FA0020FEF7FDF91D
:1027B0000020FEF7FAF90020FEF7F7F90020FEF7F7
:1027C000F4F90020FEF7F1F90020FEF7EEF9002001
:1027D000FEF7EBF9E020FEF7DFF91620FEF7E5F94A
:1027E0000020FEF7E2F91C20FEF7DFF90020FEF7DB
:1027F000DCF92120FEF7D9F90020FEF7D6F93620C2
:10280000FEF7D3F90020FEF7D0F94620FEF7CDF908
:102810000020FEF7CAF95220FEF7C7F90020FEF7A4
:10282000C4F96420FEF7C1F90020FEF7BEF97A2052
:10283000FEF7BBF90020FEF7B8F98B20FEF7B5F9DB
:102840000020FEF7B2F99920FEF7AFF90020FEF75D
:10285000ACF9A820FEF7A9F90020FEF7A6F9B920E7
:10286000FEF7A3F90020FEF7A0F9C420FEF79DF9BA
:102870000020FEF79AF9CA20FEF797F90020FEF72C
:1028800094F9D220FEF791F90020FEF78EF9D920B5
:10289000FEF78BF90020FEF788F9E020FEF785F9B6
:1028A0000020FEF782F9F320FEF77FF90020FEF703
:1028B0007CF9E120FEF770F91620FEF776F900208A
:1028C000FEF773F91C20FEF770F90020FEF76DF992
:1028D0002220FEF76AF90020FEF767F93620FEF79E
:1028E00064F90020FEF761F94520FEF75EF900204B
:1028F000FEF75BF95220FEF758F90020FEF755F974
:102900006420FEF752F90020FEF74FF97A20FEF717
:102910004CF90020FEF749F98B20FEF746F900201C
:10292000FEF743F99920FEF740F90020FEF73DF944
:10293000A820FEF73AF90020FEF737F9B920FEF794
:1029400034F90020FEF731F9C420FEF72EF90020FB
:10295000FEF72BF9CA20FEF728F90020FEF725F92B
:10296000D220FEF722F90020FEF71FF9D820FEF74B
:102970001CF90020FEF719F9E020FEF716F90020F7
:10298000FEF713F9F320FEF710F90020FEF70DF91A
:10299000E220FEF701F90520FEF707F90020FEF717
:1029A00004F90B20FEF701F90020FEF7FEF81B20CA
:1029B000FEF7FBF80020FEF7F8F83420FEF7F5F8F4
:1029C0000020FEF7F2F84420FEF7EFF80020FEF7B3
:1029D000ECF84F20FEF7E9F80020FEF7E6F861205A
:1029E000FEF7E3F80020FEF7E0F87920FEF7DDF8C7
:1029F0000020FEF7DAF88820FEF7D7F80020FEF76F
:102A0000D4F89720FEF7D1F80020FEF7CEF8A620E4
:102A1000FEF7CBF80020FEF7C8F8B720FEF7C5F8A0
:102A20000020FEF7C2F8C220FEF7BFF80020FEF734
:102A3000BCF8C720FEF7B9F80020FEF7B6F8D120A1
:102A4000FEF7B3F80020FEF7B0F8D620FEF7ADF899
:102A50000020FEF7AAF8DD20FEF7A7F80020FEF719
:102A6000A4F8F320FEF7A1F80020FEF79EF8E3207B
:102A7000FEF792F80520FEF798F80020FEF795F88B
:102A80000A20FEF792F80020FEF78FF81C20FEF7D0
:102A90008CF80020FEF789F83320FEF786F8002036
:102AA000FEF783F84420FEF780F80020FEF77DF85B
:102AB0005020FEF77AF80020FEF777F86220FEF744
:102AC00074F80020FEF771F87820FEF76EF8002009
:102AD000FEF76BF88820FEF768F80020FEF765F82F
:102AE0009720FEF762F80020FEF75FF8A620FEF7B9
:102AF0005CF80020FEF759F8B720FEF756F80020E2
:102B0000FEF753F8C220FEF750F80020FEF74DF80C
:102B1000C720FEF74AF80020FEF747F8D120FEF75D
:102B200044F80020FEF741F8D520FEF73EF80020DB
:102B3000FEF73BF8DD20FEF738F80020FEF735F809
:102B4000F320FEF732F80020FEF72FF8E420FEF71E
:102B500023F80120FEF729F80020FEF726F80120CF
:102B6000FEF723F80020FEF720F80220FEF71DF8FC
:102B70000020FEF71AF82A20FEF717F80020FEF7CB
:102B800014F83C20FEF711F80020FEF70EF84B2059
:102B9000FEF70BF80020FEF708F85D20FEF705F8B9
:102BA0000020FEF702F87420FDF7FFFF0020FDF77C
:102BB000FCFF8420FDF7F9FF0020FDF7F6FF9320CE
:102BC000FDF7F3FF0020FDF7F0FFA220FDF7EDFF7A
:102BD0000020FDF7EAFFB320FDF7E7FF0020FDF737
:102BE000E4FFBE20FDF7E1FF0020FDF7DEFFC4207B
:102BF000FDF7DBFF0020FDF7D8FFCD20FDF7D5FF67
:102C00000020FDF7D2FFD320FDF7CFFF0020FDF716
:102C1000CCFFDD20FDF7C9FF0020FDF7C6FFF32044
:102C2000FDF7C3FF0020FDF7C0FFE520FDF7B4FF6F
:102C30000020FDF7BAFF0020FDF7B7FF0020FDF7E9
:102C4000B4FF0020FDF7B1FF0220FDF7AEFF00202A
:102C5000FDF7ABFF2920FDF7A8FF0020FDF7A5FF3A
:102C60003C20FDF7A2FF0020FDF79FFF4B20FDF762
:102C70009CFF0020FDF799FF5D20FDF796FF0020E7
:102C8000FDF793FF7420FDF790FF0020FDF78DFF07
:102C90008420FDF78AFF0020FDF787FF9320FDF7D2
:102CA00084FF0020FDF781FFA220FDF77EFF0020BA
:102CB000FDF77BFFB320FDF778FF0020FDF775FFE0
:102CC000BE20FDF772FF0020FDF76FFFC420FDF767
:102CD0006CFF0020FDF769FFCD20FDF766FF0020A7
:102CE000FDF763FFD320FDF760FF0020FDF75DFFD8
:102CF000DC20FDF75AFF0020FDF757FFF320FDF71A
:102D000054FF0020FDF751FFE620FDF745FF11209D
:102D1000FDF74BFF0020FDF748FF3420FDF745FF8E
:102D20000020FDF742FF5620FDF73FFF0020FDF792
:102D30003CFF7620FDF739FF0020FDF736FF7720B6
:102D4000FDF733FF0020FDF730FF6620FDF72DFF74
:102D50000020FDF72AFF8820FDF727FF0020FDF760
:102D600024FF9920FDF721FF0020FDF71EFFBB2067
:102D7000FDF71BFF0020FDF718FF9920FDF715FF59
:102D80000020FDF712FF6620FDF70FFF0020FDF782
:102D90000CFF5520FDF709FF0020FDF706FF552029
:102DA000FDF703FF0020FDF700FF4520FDF7FDFEC6
:102DB0000020FDF7FAFE4320FDF7F7FE0020FDF7A7
:102DC000F4FE4420FDF7F1FE0020FDF7EEFEE720C3
:102DD000FDF7E2FE3220FDF7E8FE0020FDF7E5FEFC
:102DE0005520FDF7E2FE0020FDF7DFFE7620FDF71F
:102DF000DCFE0020FDF7D9FE6620FDF7D6FE0020A0
:102E0000FDF7D3FE6720FDF7D0FE0020FDF7CDFED5
:102E10006720FDF7CAFE0020FDF7C7FE8720FDF7FB
:102E2000C4FE0020FDF7C1FE9920FDF7BEFE002084
:102E3000FDF7BBFEBB20FDF7B8FE0020FDF7B5FE99
:102E40009920FDF7B2FE0020FDF7AFFE7720FDF7D9
:102E5000ACFE0020FDF7A9FE4420FDF7A6FE0020F1
:102E6000FDF7A3FE5620FDF7A0FE0020FDF79DFE16
:102E70002320FDF79AFE0020FDF797FE3320FDF793
:102E800094FE0020FDF791FE4520FDF78EFE002008
:102E9000FDF78BFEE820FDF77FFE0020FDF785FEA5
:102EA0000020FDF782FE9920FDF77FFE0020FDF750
:102EB0007CFE8720FDF779FE0020FDF776FE882056
:102EC000FDF773FE0020FDF770FE7720FDF76DFE25
:102ED0000020FDF76AFE6620FDF767FE0020FDF783
:102EE00064FE8820FDF761FE0020FDF75EFEAA204B
:102EF000FDF75BFE0020FDF758FEBB20FDF755FEF9
:102F00000020FDF752FE9920FDF74FFE0020FDF74F
:102F10004CFE6620FDF749FE0020FDF746FE5520D9
:102F2000FDF743FE0020FDF740FE5520FDF73DFE76
:102F30000020FDF73AFE4420FDF737FE0020FDF7A4
:102F400034FE4420FDF731FE0020FDF72EFE552013
:102F5000FDF72BFE0020FDF728FEE920FDF71CFE03
:102F6000AA20FDF722FE0020FDF71FFE0020FDF73E
:102F70001CFE0020FDF719FE0020FDF70DFEAA2023
:102F8000FDF713FECF20FDF707FE0020FDF70DFE35
:102F90000020FDF70AFE0020FDF707FE0020FDF7E8
:102FA00004FE0020FDF701FE0020FDF7FEFD0020DD
:102FB000FDF7FBFD0020FDF7F8FD0020FDF7F5FD16
:102FC0000020FDF7F2FD0020FDF7EFFD0020FDF7EA
:102FD000ECFD0020FDF7E9FD0020FDF7E6FD0020F7
:102FE000FDF7E3FD0020FDF7E0FD0020FDF7DDFD2E
:102FF000F020FDF7D1FD0020FDF7D7FD5020FDF7B3
:10300000D4FD0020FDF7D1FD0020FDF7CEFD00200E
:10301000FDF7CBFDF320FDF7BFFD0020FDF7C5FD5B
:10302000F920FDF7B9FD0620FDF7BFFD1020FDF7E3
:10303000BCFD2920FDF7B9FD0020FDF7B6FD3A20C3
:10304000FDF7AAFD5520FDF7B0FD1120FDF7A4FD09
:10305000642005F055FF2920FDF79EFD3520FDF782
:103060009BFD0020FDF7A1FD5120FDF795FDFF2000
:10307000FDF79BFD5320FDF78FFD2C20FDF795FDFF
:103080005520FDF789FD8220FDF78FFD2C20FDF7EF
:1030900083FD02F0E9B8FE48808845F2105188426D
:1030A0007ED155214FF47040FDF791FDAA214FF2DA
:1030B0000100FDF78CFD52214FF20200FDF787FD64
:1030C00008214FF20300FDF782FD01214FF20400B9
:1030D000FDF77DFD0D214FF43040FDF778FD0D210A
:1030E0004BF20100FDF773FD0D214BF20200FDF7DD
:1030F0006EFD34214FF43640FDF769FD34214BF26B
:103100000160FDF764FD34214BF20260FDF75FFDC5
:103110000D214FF43140FDF75AFD0D214BF2011006
:10312000FDF755FD0D214BF20210FDF750FD342146
:103130004FF43740FDF74BFD34214BF20170FDF7A2
:1031400046FD34214BF20270FDF741FD00214FF4A2
:103150003240FDF73CFD00214BF20120FDF737FD29
:1031600000214BF20220FDF732FD24214FF43840BC
:10317000FDF72DFD24214BF60100FDF728FD24214C
:103180004BF60200FDF723FD01214FF43F40FDF710
:103190001EFD0F214FF43340FDF719FD0F2100E014
:1031A000FEE34BF20130FDF712FD0F214BF202302E
:1031B000FDF70DFD34214FF43940FDF708FD3421B2
:1031C0004BF60110FDF703FD34214BF60210FDF71D
:1031D000FEFC08214FF43540FDF7F9FC08214BF2C5
:1031E0000150FDF7F4FC08214BF20250FDF7EFFC13
:1031F00003214FF44240FDF7EAFC24214FF43A400A
:10320000FDF7E5FC24214BF60120FDF7E0FC24212D
:103210004BF60220FDF7DBFC00214FF43C40FDF7AC
:10322000D6FC78214BF60140FDF7D1FC00214BF68E
:103230000240FDF7CCFC00214FF43D40FDF7C7FCF8
:1032400078214BF60150FDF7C2FC00214BF60250ED
:10325000FDF7BDFC00214FF43E40FDF7B8FC6421B2
:103260004BF60160FDF7B3FC00214FF45140FDF730
:10327000AEFC33214DF20110FDF7A9FC00214DF207
:103280000210FDF7A4FC34214DF20310FDF79FFC62
:1032900000214DF20410FDF79AFC3A214DF2051081
:1032A000FDF795FC00214DF20610FDF790FC4A2138
:1032B0004DF20710FDF78BFC00214DF20810FDF7D1
:1032C00086FC5C214DF20910FDF781FC00214DF2D6
:1032D0000A10FDF77CFC81214DF20B10FDF777FC05
:1032E00000214DF20C10FDF772FCA6214DF20D10DD
:1032F000FDF76DFC00214DF20E10FDF768FCE52195
:103300004DF20F10FDF763FC01214DF21010FDF797
:103310005EFC13214DF21110FDF759FC01214DF215
:103320001210FDF754FC54214DF21310FDF74FFC21
:1033300001214DF21410FDF74AFC82214DF21510C7
:10334000FDF745FC01214DF21610FDF740FCCA21A6
:103350004DF21710FDF73BFC02214DF21810FDF75E
:1033600036FC00214DF21910FDF731FC02214DF21F
:103370001A10FDF72CFC01214DF21B10FDF727FC64
:1033800002214DF21C10FDF722FC34214DF21D10DC
:10339000FDF71DFC02214DF21E10FDF718FC672100
:1033A0004DF21F10FDF713FC02214DF22010FDF726
:1033B0000EFC84214DF22110FDF709FC02214DF293
:1033C0002210FDF704FCA4214DF22310FDF7FFFBB2
:1033D00002214DF22410FDF7FAFBB7214DF2251022
:1033E000FDF7F5FB02214DF22610FDF7F0FBCF2192
:1033F0004DF22710FDF7EBFB02214DF22810FDF7EF
:10340000E6FBDE214DF22910FDF7E1FB02214DF232
:103410002A10FDF7DCFBF2214DF22B10FDF7D7FB54
:1034200002214DF22C10FDF7D2FBFE214DF22D10A2
:10343000FDF7CDFB03214DF22E10FDF7C8FB102147
:103440004DF22F10FDF7C3FB03214DF23010FDF7B5
:10345000BEFB33214DF23110FDF7B9FB03214DF2D4
:103460003210FDF7B4FB6D214DF23310FDF7AFFBC9
:1034700000214FF45240FDF7AAFB33214DF2012009
:10348000FDF7A5FB00214DF20220FDF7A0FB01E0B6
:10349000BC01002034214DF20320FDF798FB0021F0
:1034A0004DF20420FDF793FB3A214DF20520FDF784
:1034B0008EFB00214DF20620FDF789FB4A214DF2DB
:1034C0000720FDF784FB00214DF20820FDF77FFB6C
:1034D0005C214DF20920FDF77AFB00214DF20A2014
:1034E000FDF775FB81214DF20B20FDF770FB0021EC
:1034F0004DF20C20FDF76BFBA6214DF20D20FDF7E0
:1035000066FB00214DF20E20FDF761FBE5214DF237
:103510000F20FDF75CFB01214DF21020FDF757FB5A
:1035200013214DF21120FDF752FB01214DF2122023
:10353000FDF74DFB54214DF21320FDF748FB01210F
:103540004DF21420FDF743FB82214DF21520FDF7CB
:103550003EFB01214DF21620FDF739FBCA214DF249
:103560001720FDF734FB02214DF21820FDF72FFB49
:1035700000214DF21920FDF72AFB02214DF21A20FD
:10358000FDF725FB01214DF21B20FDF720FB022159
:103590004DF21C20FDF71BFB34214DF21D20FDF7E1
:1035A00016FB02214DF21E20FDF711FB67214DF2A3
:1035B0001F20FDF70CFB02214DF22020FDF707FB39
:1035C00084214DF22120FDF702FB02214DF2222041
:1035D000FDF7FDFAA4214DF22320FDF7F8FA0221B0
:1035E0004DF22420FDF7F3FAB7214DF22520FDF727
:1035F000EEFA02214DF22620FDF7E9FACF214DF235
:103600002720FDF7E4FA02214DF22820FDF7DFFA2A
:10361000DE214DF22920FDF7DAFA02214DF22A20AF
:10362000FDF7D5FAF2214DF22B20FDF7D0FA022159
:103630004DF22C20FDF7CBFAFE214DF22D20FDF7A7
:10364000C6FA03214DF22E20FDF7C1FA10214DF2EA
:103650002F20FDF7BCFA03214DF23020FDF7B7FA19
:1036600033214DF23120FDF7B2FA03214DF2322021
:10367000FDF7ADFA6D214DF23320FDF7A8FA0021D8
:103680004FF45340FDF7A3FA33214DF20130FDF71B
:103690009EFA00214DF20230FDF799FA34214DF2E5
:1036A0000330FDF794FA00214DF20430FDF78FFA54
:1036B0003A214DF20530FDF78AFA00214DF206302D
:1036C000FDF785FA4A214DF20730FDF780FA002117
:1036D0004DF20830FDF77BFA5C214DF20930FDF721
:1036E00076FA00214DF20A30FDF771FA81214DF290
:1036F0000B30FDF76CFA00214DF20C30FDF767FA44
:10370000A6214DF20D30FDF762FA00214DF20E3088
:10371000FDF75DFAE5214DF20F30FDF758FA012172
:103720004DF21030FDF753FA13214DF21130FDF731
:103730004EFA01214DF21230FDF749FA54214DF2B3
:103740001330FDF744FA01214DF21430FDF73FFA32
:1037500082214DF21530FDF73AFA01214DF2163073
:10376000FDF735FACA214DF21730FDF730FA022184
:103770004DF21830FDF72BFA00214DF21930FDF70C
:1037800026FA02214DF21A30FDF721FA01214DF2FD
:103790001B30FDF71CFA02214DF21C30FDF717FA21
:1037A00034214DF21D30FDF712FA02214DF21E3088
:1037B000FDF70DFA67214DF21F30FDF708FA0221DF
:1037C0004DF22030FDF703FA84214DF22130FDF750
:1037D000FEF902214DF22230FDF7F9F9A4214DF254
:1037E0002330FDF7F4F902214DF22430FDF7EFF913
:1037F000B7214DF22530FDF7EAF902214DF22630CE
:10380000FDF7E5F9CF214DF22730FDF7E0F9022170
:103810004DF22830FDF7DBF9DE214DF22930FDF7BE
:10382000D6F902214DF22A30FDF7D1F9F2214DF2FD
:103830002B30FDF7CCF902214DF22C30FDF7C7F902
:10384000FE214DF22D30FDF7C2F903214DF22E304D
:10385000FDF7BDF910214DF22F30FDF7B8F9032126
:103860004DF23030FDF7B3F933214DF23130FDF731
:10387000AEF903214DF23230FDF7A9F96D214DF279
:103880003330FDF7A4F900214FF45440FDF79FF9C0
:1038900033214DF20140FDF79AF900214DF202402B
:1038A000FDF795F934214DF20340FDF790F9002121
:1038B0004DF20440FDF78BF93A214DF20540FDF73A
:1038C00086F900214DF20640FDF781F94A214DF2BB
:1038D0000740FDF77CF900214DF20840FDF777F92C
:1038E0005C214DF20940FDF772F900214DF20A40CA
:1038F000FDF76DF981214DF20B40FDF768F90021CC
:103900004DF20C40FDF763F9A6214DF20D40FDF795
:103910005EF900214DF20E40FDF759F9E5214DF217
:103920000F40FDF754F901214DF21040FDF74FF91A
:1039300013214DF21140FDF74AF901214DF21240D9
:10394000FDF745F954214DF21340FDF740F90121EF
:103950004DF21440FDF73BF982214DF21540FDF781
:1039600036F901214DF21640FDF731F9CA214DF229
:103970001740FDF72CF902214DF21840FDF727F909
:1039800000214DF21940FDF722F902214DF21A40B3
:10399000FDF71DF901214DF21B40FDF718F900E07C
:1039A00004E302214DF21C40FDF711F934214DF2E0
:1039B0001D40FDF70CF902214DF21E40FDF707F9FD
:1039C00067214DF21F40FDF702F902214DF2204020
:1039D000FDF7FDF884214DF22140FDF7F8F80221B2
:1039E0004DF22240FDF7F3F8A4214DF22340FDF7FC
:1039F000EEF802214DF22440FDF7E9F8B7214DF22F
:103A00002540FDF7E4F802214DF22640FDF7DFF8EE
:103A1000CF214DF22740FDF7DAF802214DF2284080
:103A2000FDF7D5F8DE214DF22940FDF7D0F802214F
:103A30004DF22A40FDF7CBF8F2214DF22B40FDF775
:103A4000C6F802214DF22C40FDF7C1F8FE214DF2DF
:103A50002D40FDF7BCF803214DF22E40FDF7B7F8DD
:103A600010214DF22F40FDF7B2F803214DF2304006
:103A7000FDF7ADF833214DF23140FDF7A8F80321F1
:103A80004DF23240FDF7A3F86D214DF23340FDF7C2
:103A90009EF800214FF45540FDF799F833214DF27F
:103AA0000150FDF794F800214DF20250FDF78FF818
:103AB00034214DF20350FDF78AF800214DF20450F5
:103AC000FDF785F83A214DF20550FDF780F8002109
:103AD0004DF20650FDF77BF84A214DF20750FDF7F5
:103AE00076F800214DF20850FDF771F85C214DF297
:103AF0000950FDF76CF800214DF20A50FDF767F808
:103B000081214DF20B50FDF762F800214DF20C506F
:103B1000FDF75DF8A6214DF20D50FDF758F8002194
:103B20004DF20E50FDF753F8E5214DF20F50FDF721
:103B30004EF801214DF21050FDF749F813214DF2D6
:103B40001150FDF744F801214DF21250FDF73FF8F6
:103B500054214DF21350FDF73AF801214DF2145063
:103B6000FDF735F882214DF21550FDF730F80121AF
:103B70004DF21650FDF72BF8CA214DF21750FDF704
:103B800026F802214DF21850FDF721F800214DF2E0
:103B90001950FDF71CF802214DF21A50FDF717F8E5
:103BA00001214DF21B50FDF712F802214DF21C507D
:103BB000FDF70DF834214DF21D50FDF708F80221F4
:103BC0004DF21E50FDF703F867214DF21F50FCF730
:103BD000FEFF02214DF22050FCF7F9FF84214DF247
:103BE0002150FCF7F4FF02214DF22250FCF7EFFFC9
:103BF000A4214DF22350FCF7EAFF02214DF224509C
:103C0000FCF7E5FFB7214DF22550FCF7E0FF02215C
:103C10004DF22650FCF7DBFFCF214DF22750FCF789
:103C2000D6FF02214DF22850FCF7D1FFDE214DF2E4
:103C30002950FCF7CCFF02214DF22A50FCF7C7FFB8
:103C4000F2214DF22B50FCF7C2FF02214DF22C5015
:103C5000FCF7BDFFFE214DF22D50FCF7B8FF03210C
:103C60004DF22E50FCF7B3FF10214DF22F50FCF710
:103C7000AEFF03214DF23050FCF7A9FF33214DF286
:103C80003150FCF7A4FF03214DF23250FCF79FFFA7
:103C90006D214DF23350FCF79AFF00214FF456404E
:103CA000FCF795FF33214DF20160FCF790FF0021F6
:103CB0004DF20260FCF78BFF34214DF20360FCF7FC
:103CC00086FF00214DF20460FCF781FF3A214DF29E
:103CD0000560FCF77CFF00214DF20660FCF777FFE2
:103CE0004A214DF20760FCF772FF00214DF2086097
:103CF000FCF76DFF5C214DF20960FCF768FF0021C5
:103D00004DF20A60FCF763FF81214DF20B60FCF776
:103D10005EFF00214DF20C60FCF759FFA6214DF229
:103D20000D60FCF754FF00214DF20E60FCF74FFFD1
:103D3000E5214DF20F60FCF74AFF01214DF21060C2
:103D4000FCF745FF13214DF21160FCF740FF012104
:103D50004DF21260FCF73BFF54214DF21360FCF76B
:103D600036FF01214DF21460FCF731FF82214DF244
:103D70001560FCF72CFF01214DF21660FCF727FFC0
:103D8000CA214DF21760FCF722FF02214DF21860A4
:103D9000FCF71DFF00214DF21960FCF718FF02210E
:103DA0004DF21A60FCF713FF01214DF21B60FCF786
:103DB0000EFF02214DF21C60FCF709FF34214DF289
:103DC0001D60FCF704FF02214DF21E60FCF7FFFEB0
:103DD00067214DF21F60FCF7FAFE02214DF22060D0
:103DE000FCF7F5FE84214DF22160FCF7F0FE022184
:103DF0004DF22260FCF7EBFEA4214DF22360FCF7AC
:103E0000E6FE02214DF22460FCF7E1FEB7214DF2FF
:103E10002560FCF7DCFE02214DF22660FCF7D7FEA0
:103E2000CF214DF22760FCF7D2FE02214DF228602F
:103E3000FCF7CDFEDE214DF22960FCF7C8FE022121
:103E40004DF22A60FCF7C3FEF2214DF22B60FCF725
:103E5000BEFE02214DF22C60FCF7B9FEFE214DF2B0
:103E60002D60FCF7B4FE03214DF22E60FCF7AFFE8F
:103E700010214DF22F60FCF7AAFE03214DF23060B5
:103E8000FCF7A5FE33214DF23160FCF7A0FE0321C3
:103E90004DF23260FCF79BFE6D214DF23360FCF772
:103EA00096FE55214FF47040FCF791FEAA214FF287
:103EB0000100FCF78CFE52214FF20200FCF787FE56
:103EC00008214FF20300FCF782FE00214FF20400AC
:103ED000FCF77DFECC214FF43140FCF778FE002149
:103EE0004BF20110FCF773FE05214FF43640FCF74E
:103EF0006EFE70214FF43740FCF769FE70214BF2E3
:103F00000170FCF764FE01214FF43840FCF75FFEBE
:103F100003214BF60100FCF75AFE03214BF6020089
:103F2000FCF755FE03214BF60300FCF750FE02217F
:103F30004FF43C40FCF74BFE00214BF60140FCF7F0
:103F400046FE00214BF60240FCF741FED0214FF423
:103F50004940FCF73CFE02214CF60110FCF737FE0D
:103F600050214CF60210FCF732FE50214CF60310A3
:103F7000FCF72DFE50214CF60410FCF728FE002122
:103F80004FF45450FCF723FE55214FF46850FCF7D2
:103F90001EFE4FF48850FCF7FFFD782004F068FF08
:103FA0004FF42450FCF7F8FD01F05EB9FE4880881C
:103FB00049F2253188427DD147F6F001E520FCF732
:103FC00006FE4FF480710120FCF701FE4FF4E06122
:103FD0000220FCF7FCFD41F230010320FCF7F7FD65
:103FE00000210420FCF7F3FD40F202210820FCF739
:103FF000EEFD00210920FCF7EAFD00210A20FCF774
:10400000E6FD00210C20FCF7E2FD00210D20FCF76D
:10401000DEFD00210F20FCF7DAFD00211020FCF767
:10402000D6FD07211120FCF7D2FD00211220FCF75C
:10403000CEFD00211320FCF7CAFD00210720FCF76C
:10404000C6FD41F290611020FCF7C1FD40F227212E
:104050001120FCF7BCFD9D211220FCF7B8FD4FF4A8
:10406000C8511320FCF7B3FD25212920FCF7AFFD33
:104070000D212B20FCF7ABFD07213020FCF7A7FD1D
:1040800040F203313120FCF7A2FD03213220FCF77E
:104090009EFD40F206213520FCF799FD08213620CF
:1040A000FCF795FD40F206413720FCF790FD4FF4F8
:1040B000417100E058E03820FCF789FD07213920E4
:1040C000FCF785FD40F202613C20FCF780FD0821F1
:1040D0003D20FCF77CFD00215020FCF778FDEF210E
:1040E0005120FCF774FD00215220FCF770FD40F2D6
:1040F0003F115320FCF76BFD4FF427416020FCF784
:1041000066FD01216120FCF762FD00216A20FCF7B9
:104110005EFD00218020FCF75AFD00218120FCF784
:1041200056FD00218220FCF752FD00218320FCF780
:104130004EFD00218420FCF74AFD00218520FCF77C
:1041400046FD10219020FCF742FD4FF4C061922003
:10415000FCF73DFD40F233110720FCF738FD22212A
:104160000020FCF734FD1FE78F48808849F2283192
:1041700088427DD141F28F01EC20FCF728FD41F20D
:104180003421EF20FCF723FD4FF480710120FCF770
:104190001EFD4FF4E0610220FCF719FD41F23001F1
:1041A0000320FCF714FD00210420FCF710FD40F271
:1041B00002210820FCF70BFD00210920FCF707FD78
:1041C00000210A20FCF703FD01210C20FCF7FFFC75
:1041D00000210D20FCF7FBFC00210F20FCF7F7FC71
:1041E00000211020FCF7F3FC07211120FCF7EFFC65
:1041F00000211220FCF7EBFC00211320FCF7E7FC68
:1042000001210720FCF7E3FC322004F079FE41F2A3
:1042100090411020FCF7DBFC40F227211120FCF735
:10422000D6FC322004F06CFE8A211220FCF7CFFC71
:10423000322004F065FE4FF4D0511320FCF7C7FC88
:1042400006212920FCF7C3FC0D212B20FCF7BFFC25
:10425000322004F055FE00212020FCF7B8FC00219C
:104260002120FCF7B4FC322004F04AFE002100E0DB
:1042700075E03020FCF7ABFC40F204613120FCF724
:10428000A6FC40F205313220FCF7A1FC00213520CC
:10429000FCF79DFC40F609413620FCF798FC4FF4F2
:1042A00001713720FCF793FC40F201313820FCF714
:1042B0008EFC40F207713920FCF789FC00213C207C
:1042C000FCF785FC40F60A213D20FCF780FC3220FB
:1042D00004F016FE00215020FCF779FCEF2151205C
:1042E000FCF775FC00215220FCF771FC40F23F11F5
:1042F0005320FCF76CFC4FF427416020FCF767FC6F
:1043000001216120FCF763FC00216A20FCF75FFCBF
:1043100000218020FCF75BFC00218120FCF757FC8A
:1043200000218220FCF753FC00218320FCF74FFC86
:1043300000218420FCF74BFC00218520FCF747FC82
:1043400010219020FCF743FC4FF4C0619220FCF751
:104350003EFC40F233110720FCF739FC24E61248FA
:10436000808849F2203188427ED100210846FCF73E
:104370002EFC4FF480710120FCF729FC4FF4E06122
:104380000220FCF724FC41F230010320FCF71FFC63
:1043900000210420FCF71BFC40F202210820FCF75E
:1043A00016FC0021092001E0BC010020FCF70FFCF5
:1043B00000210A20FCF70BFC01210C20FCF707FC74
:1043C00000210D20FCF703FC00210F20FCF7FFFB70
:1043D000322004F095FD40F201110720FCF7F7FBB5
:1043E000322004F08DFD4FF486511020FCF7EFFBD6
:1043F00007211120FCF7EBFB4FF488711220FCF72A
:10440000E6FB4FF430611320FCF7E1FB002129208B
:10441000FCF7DDFB44F210012B20FCF7D8FB002158
:104420005020FCF7D4FBEF215120FCF7D0FB0021FA
:104430005220FCF7CCFB40F23F115320FCF7C7FBA6
:104440004FF41C516020FCF7C2FB01216120FCF7F6
:10445000BEFB00216A20FCF7BAFB00218020FCF79C
:10446000B6FB0021812000E030E0FCF7B0FB00212A
:104470008220FCF7ACFB00218320FCF7A8FB002185
:104480008420FCF7A4FB00218520FCF7A0FB102171
:104490009020FCF79CFB00219220FCF798FB012167
:1044A0009320FCF794FB4FF488719520FCF78FFB69
:1044B00000219720FCF78BFB00219820FCF787FB5D
:1044C00040F273110720FCF782FB6DE5FE488088FF
:1044D00049F2313188427DD141F21401E720FCF7E5
:1044E00076FB4FF480710120FCF771FB4FF40071F3
:1044F0000220FCF76CFB41F238010320FCF767FB5C
:1045000040F202210820FCF762FB00210920FCF7A1
:104510005EFB00210A20FCF75AFB00210C20FCF76F
:1045200056FB00210D20FCF752FB00210F20FCF769
:104530004EFB00211020FCF74AFB07211120FCF75D
:1045400046FB00211220FCF742FB00211320FCF760
:104550003EFBC82004F0D4FC41F290611020FCF72F
:1045600036FB40F227211120FCF731FB322004F00A
:10457000C7FC0C211220FCF72AFB322004F0C0FCFF
:104580004FF400611320FCF722FB11212920FCF7D6
:104590001EFB0B212B20FCF71AFB322004F0B0FC91
:1045A00000212020FCF713FB40F23F112120FCF7F3
:1045B0000EFB00213020FCF70AFB4FF48371312001
:1045C000FCF705FB00213220FCF701FB4FF40171E1
:1045D000352000E064E0FCF7FAFA41F20A61362087
:1045E000FCF7F5FA40F207713720FCF7F0FA4FF4C8
:1045F00083713820FCF7EBFA40F207713920FCF7A1
:10460000E6FA40F202413C20FCF7E1FA40F60F41A5
:104610003D20FCF7DCFA00215020FCF7D8FAEF210E
:104620005120FCF7D4FA00215220FCF7D0FA40F2D6
:104630003F115320FCF7CBFA4FF41C516020FCF7DC
:10464000C6FA01216120FCF7C2FA00216A20FCF7BA
:10465000BEFA00218020FCF7BAFA00218120FCF785
:10466000B6FA00218220FCF7B2FA00218320FCF781
:10467000AEFA00218420FCF7AAFA00218520FCF77D
:10468000A6FA10219020FCF7A2FA4FF4C061922004
:10469000FCF79DFA40F233110720FCF798FA83E407
:1046A0008948808845F2084188427DD14FF4807165
:1046B0000120FCF78CFA4FF4E0610220FCF787FA46
:1046C00041F230010320FCF782FA00210420FCF7BC
:1046D0007EFA40F207210820FCF779FA0021092030
:1046E000FCF775FA00210A20FCF771FA00210C2072
:1046F000FCF76DFA00210D20FCF769FA00210F206C
:10470000FCF765FA142004F0FBFB41F2B0611020C5
:10471000FCF75DFA01211120FCF759FA012117205D
:10472000FCF755FA4FF49C711220FCF750FA4FF445
:1047300000611320FCF74BFA09212920FCF747FA06
:1047400009212A20FCF743FA0021A420FCF73FFAB4
:1047500000215020FCF73BFAEF215120FCF737FAFB
:1047600000215220FCF733FA40F23F115320FCF7AE
:104770002EFA4FF41C516020FCF729FA0121612028
:10478000FCF725FA00216A20FCF721FA002180209D
:10479000FCF71DFA00218120FCF719FA0021822084
:1047A000FCF715FA002100E024E08320FCF70FFA63
:1047B00000218420FCF70BFA00218520FCF707FA82
:1047C00013219020FCF703FA00219220FCF7FFF957
:1047D00003219320FCF7FBF94FF488719520FCF737
:1047E000F6F940F273110720FCF7F1F9322004F0DA
:1047F00087FBB8E43448808841F2055188427DD176
:1048000000210720FCF7E3F9322004F079FB4FF494
:104810008E711220FCF7DBF90121A420FCF7D7F9F7
:104820000F210820FCF7D3F908210A20FCF7CFF963
:1048300008210D20FCF7CBF940F207713020FCF77E
:10484000C6F907213120FCF7C2F940F2036132209A
:10485000FCF7BDF94FF4E0613320FCF7B8F940F202
:1048600002213420FCF7B3F902213520FCF7AFF91F
:1048700041F60F713620FCF7AAF940F20771372094
:10488000FCF7A5F900213820FCF7A1F90021392017
:10489000FCF79DF940F207713A20FCF798F90021E6
:1048A0003B20FCF794F907213C20FCF790F900210C
:1048B0003D20FCF78CF9322004F022FB0121072077
:1048C000FCF785F9012101E0BC0100201720FCF76D
:1048D0007EF9322004F014FB4FF4BD511020FCF798
:1048E00076F940F217211120FCF771F94FF48F711E
:1048F0001220FCF76CF94FF4706100E098E013208F
:10490000FCF765F900212A20FCF761F90A2129202A
:10491000FCF75DF94FF49F711220FCF758F9002164
:104920005020FCF754F9EF215120FCF750F90021F9
:104930005220FCF74CF940F23F115320FCF747F9A5
:104940004FF41C516020FCF742F901216120FCF773
:104950003EF900216A20FCF73AF900218020FCF79B
:1049600036F900218120FCF732F900218220FCF782
:104970002EF900218320FCF72AF900218420FCF77E
:1049800026F900218520FCF722F913219020FCF75D
:104990001EF94FF440719220FCF719F9052193207C
:1049A000FCF715F900219520FCF711F9002197205B
:1049B000FCF70DF900219820FCF709F94FF48071FC
:1049C0000120FCF704F94FF4E0610220FCF7FFF846
:1049D00041F238010320FCF7FAF800210420FCF72B
:1049E000F6F800210C20FCF7F2F800210F20FCF76C
:1049F000EEF800212020FCF7EAF800212120FCF746
:104A0000E6F821210720FCF7E2F8142004F078FAF8
:104A100061210720FCF7DBF8142004F071FA40F262
:104A200073110720FCF7D3F8142004F069FA95E419
:104A3000FE4880884BF2055188427CD1002108460F
:104A4000FCF7C5F800210846FCF7C1F8002108462C
:104A5000FCF7BDF800210846FCF7B9F80121A420B5
:104A6000FCF7B5F8142004F04BFA4FF41C51602009
:104A7000FCF7ADF840F202210820FCF7A8F84FF44B
:104A800005713020FCF7A3F843F215713120FCF7D3
:104A90009EF840F204613220FCF799F840F6166166
:104AA0003320FCF794F842F211213420FCF78FF800
:104AB0004FF4A8513520FCF78AF848F20751362008
:104AC000FCF785F841F207413720FCF780F841F206
:104AD00003413820FCF77BF820213920FCF777F8D8
:104AE0001A219020FCF773F800211020FCF76FF8D2
:104AF00007211120FCF76BF800211220FCF767F862
:104B000000211320FCF763F8142004F0F9F94FF4A6
:104B1000E6611020FCF75BF840F237111120FCF73A
:104B200056F8142004F0ECF94FF4DC711220FCF775
:104B30004EF8142000E085E004F0E2F94FF47061D3
:104B40001320FCF744F880212A20FCF740F8482184
:104B50002920FCF73CF8142004F0D2F94FF48071BE
:104B60000120FCF734F84FF4E0610220FCF72FF845
:104B700041F238010320FCF72AF840F20221082014
:104B8000FCF725F800210A20FCF721F800210C2071
:104B9000FCF71DF800210D20FCF719F830210E203C
:104BA000FCF715F800215020FCF711F8EF215120F7
:104BB000FCF70DF800215220FCF709F840F23F11F4
:104BC0005320FCF704F84FF41C516020FBF7FFFF63
:104BD00001216120FBF7FBFF00216A20FBF7F7FFB3
:104BE00011219020FBF7F3FF4FF4C0619220FBF7F7
:104BF000EEFF40F202419320FBF7E9FF02219420EF
:104C0000FBF7E5FF142004F07BF901210720FBF7F7
:104C1000DEFF142004F074F961210720FBF7D7FFB1
:104C200040F273110720FBF7D2FF00212020FBF791
:104C3000CEFF00212120FBF7CAFF22210020FBF735
:104C4000C6FF11E3794880884CF2055188427CD137
:104C500000210846FBF7BBFF00210846FBF7B7FF22
:104C6000142004F04DF900210846FBF7B0FF0021A5
:104C70000846FBF7ACFF00210846FBF7A8FF002120
:104C80000846FBF7A4FF0121A420FBF7A0FF142096
:104C900004F036F94FF41C516020FBF798FF40F602
:104CA00006010820FBF793FF40F203713020FBF769
:104CB0008EFF01213120FBF78AFF04213220FBF710
:104CC00086FF4FF481713320FBF781FF4FF4407171
:104CD0003420FBF77CFF40F203113520FBF777FF10
:104CE0001F213620FBF773FF40F203713720FBF7DB
:104CF0006EFF01213820FBF76AFF04213920FBF702
:104D000066FF15219020FBF762FF4FF482611020AF
:104D1000FBF75DFF40F247211120FBF758FF4FF4EE
:104D2000DE711220FBF753FF4FF460611320FBF795
:104D30004EFF782004F0E4F84FF480710120FBF777
:104D400046FF4FF40071022000E052E0FBF73FFF06
:104D500041F230010320FBF73AFF08210A20FBF75C
:104D600036FF00210C20FBF732FF20210E20FBF73D
:104D70002EFF00210F20FBF72AFF00212020FBF748
:104D800026FF00212120FBF722FF3D212A20FBF7EF
:104D90001EFF142004F0B4F82D212920FBF717FF83
:104DA00000215020FBF713FF4DF2EF015120FBF7DC
:104DB0000EFF00215220FBF70AFF40F23F11532063
:104DC000FBF705FF00216120FBF701FF00216A20AE
:104DD000FBF7FDFE4FF440719220FBF7F8FE052132
:104DE0009320FBF7F4FE4FF480710720FBF7EFFEF2
:104DF0003AE20E48808844F2315188427ED1012146
:104E00000020FBF7E4FE0A2004F07AF841F2286162
:104E10001020FBF7DCFE0E211220FBF7D8FE40F637
:104E200039211320FBF7D3FE0A2001E0BC0100204A
:104E300004F066F840211120FBF7C9FE502115202F
:104E4000FBF7C5FE0A2004F05BF81E211220FBF7D9
:104E5000BEFE0A2004F054F84FF4B1511020FBF7C5
:104E6000B6FE42F639211320FBF7B1FE0A2004F00A
:104E700047F84FF480710120FBF7A9FE4FF4407111
:104E80000220FBF7A4FE41F238010320FBF79FFE4E
:104E900040F202210820FBF79AFE08210A20FBF7C6
:104EA00096FE00213020FBF792FE40F202413120B5
:104EB000FBF78DFE4FF483713220FBF788FE40F242
:104EC00003513320FBF783FE4FF482713420FBF74C
:104ED0007EFE40F201313520FBF779FE40F207718A
:104EE0003620FBF774FE40F205313720FBF76FFEEA
:104EF0004FF402713820FBF76AFE00E03EE040F616
:104F00000B713920FBF763FE02214120FBF75FFEA6
:104F10004FF41C516020FBF75AFE01216120FBF782
:104F200056FE4FF404719020FBF751FE4FF485714B
:104F30009220FBF74CFE04219320FBF748FE4FF430
:104F40008071A020FBF743FE01210720FBF73FFE05
:104F500021210720FBF73BFE23210720FBF737FE2B
:104F600033210720FBF733FE40F233110720FBF714
:104F70002EFE0021A020FBF72AFE75E1F74880886D
:104F800044F2355188427CD130211520FBF71FFEB9
:104F900010219A20FBF71BFE20211120FBF717FEA2
:104FA00043F228411020FBF712FE02211220FBF7EA
:104FB0000EFE41F238011320FBF709FE282003F012
:104FC0009FFF12210846FBF702FE282003F098FFFE
:104FD00043F220411020FBF7FAFD43F23801132081
:104FE000FBF7F5FD462003F08BFF00213020FBF797
:104FF000EEFD40F202413120FBF7E9FD40F20731BE
:105000003220FBF7E4FD4FF441713320FBF7DFFD65
:1050100004213420FBF7DBFD40F201413520FBF792
:10502000D6FD40F207713620FBF7D1FD40F2053185
:105030003720FBF7CCFD4FF4C2613820FBF7C7FDEA
:105040004FF4C2613920FBF7C2FD4FF4807101209B
:10505000FBF7BDFD4FF440710220FBF7B8FD41F2B4
:1050600030010320FBF7B3FD40F608010820FBF7F1
:10507000AEFD08210A20FBF7AAFD4FF41C51602069
:1050800000E033E0FBF7A3FD01216120FBF79FFD6A
:105090004FF49F719020FBF79AFD4FF4807192209E
:1050A000FBF795FD4FF480719320FBF790FD4FF4D3
:1050B0004051A020FBF78BFD1021A320FBF787FDBB
:1050C00001210720FBF783FD21210720FBF77FFD4E
:1050D00023210720FBF77BFD33210720FBF777FD1A
:1050E00040F233110720FBF772FDBDE09B4880883A
:1050F00041F663118842F8D1E220FBF74DFD1D20F7
:10510000FBF753FD0220FBF750FD0420FBF74DFD9C
:10511000642003F0ADFEE020FBF73EFD0120FBF72D
:1051200044FD0A2003F0ECFEE020FBF735FD0320F0
:10513000FBF73BFD0C2003F0E3FE0120FBF72CFD09
:105140000A2003F0DDFEE620FBF726FD2F20FBF70B
:105150002CFDFF20FBF729FDFF20FBF726FDB020EB
:10516000FBF71AFD2020FBF720FD0020FBF71DFDBB
:105170000320FBF71AFD40F21F30FBF716FD01205C
:10518000FBF713FD40F2DF10FBF70FFD0020FBF7EC
:105190000CFDB420FBF700FD0420FBF706FD40F2F8
:1051A0001F40FBF702FD0020FBF7FFFC2E20FBF762
:1051B000FCFC0020FBF7F9FC0020FBF7F6FC0020CC
:1051C000FBF7F3FC0020FBF7F0FCB620FBF7E4FC58
:1051D0000220FBF7EAFC4FF40370FBF7E6FC00202B
:1051E000FBF7E3FC1720FBF7E0FC1520FBF7DDFCE9
:1051F0000020FBF7DAFC0020FBF7D7FCF020FBF7E0
:10520000CBFC0320FBF7D1FC2920FBF7C5FCD02009
:10521000FBF7C2FC0020FBF7C8FCBE20FBF7BCFC80
:105220000520FBF7C2FCFE20FBF7BFFC0120FBF7CB
:10523000BCFC0020FBF7B9FC0020FBF7B6FC00200B
:10524000FBF7B3FCB820FBF7A7FC0320FBF7ADFC92
:105250000120FBF7AAFCBA20FBF79EFC0120FBF71C
:10526000A4FC6420FCF70BF90020FCF734F90120C2
:105270003B4908604FF6FF70FCF71CFB21B000BDF6
:105280002DE9FC4F05460E4617469846DDF82C9052
:10529000002001903148808846F60401884229D1D7
:1052A0002E488079012825D1AB4635462B48008809
:1052B000C01B401E86B2474628480088A0EB0B0062
:1052C000401E1FFA80F80020244988712A20488156
:1052D0002B20888143463A4631462846CDF8009037
:1052E000FFF7CEFF01201D4988712B2048812A201D
:1052F00088811DE0781B401C80B20190344615E087
:1053000021462846FBF792FCFBF773FC4FF0000A9E
:1053100007E04FF0D840A0F880900AF101001FFA92
:1053200080FA01988245F4DB601C84B24445E7DDD5
:10533000BDE8FC8F2DE9F84F07460D46904699468B
:10534000DDF828B0A8EB0700401C1FFA80FAA9EB93
:105350000500401C80B20090002418E0BC01002031
:10536000BC824042281981B23846FBF75FFCFBF74C
:1053700040FC002607E004FB0A603BF81000F849F7
:105380000880701C86B25645F5DB601C84B200981C
:105390008442E7DBBDE8F88F2DE9FF4F84B08146FA
:1053A0008A460020039002900698A0EB0905079812
:1053B000A0EB0A06CDF80490CDF800A0002D01DD89
:1053C000012705E00DB9002702E04FF0FF376D42DD
:1053D000002E02DD4FF0010806E016B94FF000087C
:1053E00002E04FF0FF387642B54201DD2C4600E086
:1053F00034464FF0000B21E0009A91B2019A90B22E
:10540000FBF76DFF03982844039002983044029004
:105410000398A04205DD0398001B039001983844CF
:1054200001900298A04205DD0298001B02900098AE
:10543000404400900BF101001FFA80FB601C834583
:10544000DADD08B0BDE8F08FF0B504460D4616462B
:105450001F462B46324629462046FFF79DFF3B4616
:10546000224629462046FFF797FF3B4632463946FB
:105470002046FFF791FF3B46324629463046FFF76C
:105480008BFFF0BD2DE9F04306460F469046002401
:1054900045460320A0EB48093CE07A1B91B2321943
:1054A00090B2FBF71CFF3A1B91B2721990B2FBF756
:1054B00016FF3A1991B2721990B2FBF710FF7A19E0
:1054C00091B2321990B2FBF70AFF7A1991B2321BEE
:1054D00090B2FBF704FF3A1991B2721B90B2FBF73E
:1054E000FEFE7A1B91B2321B90B2FBF7F8FE3A1B1C
:1054F00091B2721B90B2FBF7F2FE641CB9F1000F7F
:1055000003DAA000801D814404E0601B80000A30A3
:1055100081446D1EAC42C0DDBDE8F0832DE9F84F3B
:1055200080460E4617461C46B3462046E31704EB5A
:105530005373DB1021464FEAE47C04EB5C7C4FEABA
:10554000EC0CA4EBCC0CBCF1000F02D04FF0010C22
:1055500001E04FF0000C6344224604EBD27C4FEA9A
:105560006C0C03FB0CF3DBB20093A7F12000C7B275
:10557000002556E00C2C07D107EB4700794901EBD9
:10558000800010F8059013E0102C05D1764800EB50
:10559000071010F805900BE0182C07D107EBC70097
:1055A000724901EB800010F8059001E0BDE8F88F2A
:1055B0004FF0000A2FE009F0800030B16C480288FB
:1055C00031464046FBF799FE07E00A9828B969483A
:1055D000028831464046FBF790FE4FEA49604FEAA9
:1055E0001069701C86B264484088B04200DCDDE778
:1055F000A6EB0B00A0420AD15E4608F101001FFA9B
:1056000080F85D480088404500DCCFE706E00AF1FD
:10561000010000F0FF0ABAF1080FCCDB00BF681CE4
:10562000C5B200988542A5DB00BFBFE710B50246B2
:10563000012000E050430B1EA1F10104E1B2F9D1B9
:1056400010BD2DE9FF4F81B0074691461E460E9DC5
:105650004FF0000A002439E0301B401EC1B20A207E
:10566000FFF7E4FFB9FBF0F00A21B0FBF1F201FB18
:105670001208BAF1000F16D1701EA04213DDB8F166
:10568000000F0ED10020AB4605EBDB71491001FB8A
:105690000471009088B22B4620220299FFF73EFF4A
:1056A00012E04FF0010A0020AB4605EBDB71491018
:1056B00001FB0471009088B208F13001CAB22B4698
:1056C0000299FFF72BFF00BF601CC4B2B442C3DBDA
:1056D00005B0BDE8F08F2DE9FF4F82B00646924637
:1056E0001F46DDE90F480020019000255CE0781B93
:1056F000401EC1B20A20FFF799FFBAFBF0F00A2161
:10570000B0FBF1F201FB1209019840BB781EA842E0
:1057100036DDB9F1000F31D108F0800078B108F022
:105720000100A34604EBDB71491001FB0561009009
:1057300088B2234630220399FFF7F0FE0EE008F00E
:105740000100A34604EBDB71491001FB05610090E9
:1057500088B2234620220399FFF7E0FE22E00FE003
:105760008000006C1CD9000890DD000880E3000870
:105770001600002018000020BC010020012001902C
:1057800008F00100A34604EBDB71491001FB056141
:10579000009088B209F13001CAB223460399FFF79D
:1057A000BDFE00BF681CC5B2BD42A0DB06B0BDE8AF
:1057B000F08F2DE9F84704460D4690469946DDE9FD
:1057C000096704F0FF0A08EB04001FFA80F809EBF0
:1057D00005001FFA80F916E0444502DB5446A8197B
:1057E00085B24D4500DB14E0002000903A78334646
:1057F00029462046FFF792FE304606EBD07104EBB7
:1058000061018CB27F1C38787E2802DC3878202831
:10581000E2DA00BFBDE8F8871CB50121022004F0E0
:10582000BDFA4FF44070009001208DF804008DF80F
:10583000060003208DF8050000208DF8070069465A
:10584000884804F00DF80120874908608749C1F8AD
:10585000A4021CBD10B58348006820F44020814993
:1058600008600846006840F48020086001207E49F6
:10587000091D08607D49C1F8A002042003F0F8FA70
:1058800000207949091D0860042003F0F1FA002086
:105890007649C1F8A00210BD10B57248006820F426
:1058A0004020704908600846006840F48020086085
:1058B00000206D4908606D49C1F8A402042003F07E
:1058C000D7FA0120684908606849C1F8A402042099
:1058D00003F0CEFA10BD10B500246248006820F431
:1058E00040206049086008460068086001205E4961
:1058F000091D086003F0BCFA01205C49C1F8A00250
:1059000003F0B6FA07E0601CC4B2FA2C03DDFFF71F
:10591000C3FF012010BD54487C3800680028F2D134
:105920005149086000BFF5E710B500204E490860F6
:105930004C48006820F440204A4908600846006846
:1059400040F48020086000204849C1F8A4020220E9
:1059500003F08EFA012044490860022003F088FA1F
:1059600000204249C1F8A00210BD10B500203E49F8
:1059700008603C48006820F440203A490860084626
:10598000006840F48020086001203849C1F8A40272
:10599000022003F06DFA012033490860022003F071
:1059A00067FA00203149C1F8A00210BD70B5044665
:1059B0002C48006820F440202A4908600846006806
:1059C00040F480200860002027490860002517E087
:1059D000E0092549091D08606006040E022003F055
:1059E00047FA01202149C1F8A002022003F040FA41
:1059F00000201D490860022003F03AFA681CC5B275
:105A0000082DE5DB70BD70B505460024154800681B
:105A100020F440201349086008460068086000260A
:105A200016E0002010490860022003F021FA01204E
:105A30000E49C1F8A0026006040E0B487C380068CD
:105A400008B1601CC4B2012003F012FA701CC6B287
:105A5000082EE6DB15B9FFF788FF01E0FFF764FFCA
:105A6000204670BD00040240A082404200804042B7
:105A700070B505460C46FFF7EDFED020FFF796FF08
:105A8000FFF729FF18B1FFF707FF012070BD284677
:105A9000FFF78CFFFFF71FFF2046FFF787FFFFF799
:105AA0001AFF18B1FFF7F8FE0120EFE7FFF7F4FE49
:105AB0000020EBE770B504460025BC2C01DB012576
:105AC00010E0622C01DB02250CE02A2C01DB03250F
:105AD00008E0142C01DB042504E00A2C01DB052579
:105AE00000E0062529461A20FFF7C2FF70BD70B5F9
:105AF0000446B4F57A7F01DD4FF47A74042C00DAA1
:105B000004244FF47A7090FBF4F0401EC5B229468D
:105B10001920FFF7ADFF0546264604EBD671C1F309
:105B20004F00FFF7C7FF70BD70B50446FFF792FE48
:105B3000D020FFF73BFFFFF7CEFE2046FFF736FFF2
:105B4000FFF7C9FEFFF786FED120FFF72FFFFFF713
:105B5000C2FE0020FFF757FF0546FFF79DFE2846CF
:105B600070BD10B50446E006010E1C20FFF780FF53
:105B700010BD10B50446E006010E1B20FFF778FFAC
:105B800010BD10B5FFF748FE80216B20FFF770FFB6
:105B9000642003F0B5F900216B20FFF769FF0320B3
:105BA000FFF7E7FF0020FFF7DCFF3220FFF79FFF42
:105BB00000213820FFF75CFF00216A20FFF758FF23
:105BC00000212320FFF754FF80213720FFF750FFEB
:105BD0007520FFF7A9FF0446682C0BD101216B202B
:105BE000FFF746FF00216C20FFF742FF3220FFF74E
:105BF0007EFF01E0012010BD0020FCE72DE9F0410F
:105C000006460F4614461D46FFF724FE002141EAD2
:105C10004601C8B2FFF7CAFEFFF75DFE20B1FFF7ED
:105C20003BFE0120BDE8F0813846FFF7BFFEFFF7DD
:105C300052FEFFF70FFE012101EB4601C8B2FFF74C
:105C4000B5FEFFF748FE0DE0012C04D10020FFF760
:105C5000DAFE287003E00120FFF7D5FE2870601EF1
:105C6000C4B26D1C002CEFD1FFF716FE0020D9E75F
:105C700010B52DED088B82B001AB022241216820C6
:105C8000FFF7BCFF9DF805009DF8041040EA0120D5
:105C900004B2204606F0D8FC41EC1B0B9FED500BE4
:105CA00053EC102B06F061FC41EC1A0B9FED4E0BF0
:105CB00053EC102B06F040FB41EC190B06F00EFDE7
:105CC00008EE100A9FED4A0A28EE000ABDEEC00A4F
:105CD00010EE100A00B202B0BDEC088B10BD2DE929
:105CE000FC4104460D4616466B46062243216820B9
:105CF000FFF784FF0746BFB99DF801009DF800102B
:105D000040EA012000B220809DF803009DF80210B7
:105D100040EA012000B228809DF805009DF804109B
:105D200040EA012000B230803846BDE8FC812DE910
:105D3000FC4104460D4616466B4606223B21682070
:105D4000FFF75CFF0746BFB99DF801009DF8001002
:105D500040EA012000B220809DF803009DF8021067
:105D600040EA012000B228809DF805009DF804104B
:105D700040EA012000B230803846BDE8FC812DE9C0
:105D8000F04105460E4617469846FFF763FD002191
:105D900041EA4501C8B2FFF709FEFFF79CFD20B1BB
:105DA000FFF77AFD0120BDE8F0813046FFF7FEFDE8
:105DB000FFF791FD00240CE018F80400FFF7F6FD52
:105DC000FFF789FD18B1FFF767FD0120EBE7601CC5
:105DD000C4B2BC42F0DBFFF75FFD0020E3E7000048
:105DE0000000000000407540A4703D0AD7434240C7
:105DF0000000C84238B50446F74890F82400C0B106
:105E000014B10220009001E000200090F24A1268D4
:105E1000D17BF14A526810786B460122FFF7AFFF41
:105E200010B14FF0FF3038BD9DF80010EA484174C2
:105E300023E0E948807A10B94FF0FF30F3E724B14E
:105E4000E548407C08B10020EDE714B10120009046
:105E500001E000200090E04A1268D17BDE4A5268DF
:105E600010786B460122FFF78AFF10B14FF0FF3028
:105E7000D9E79DF80010D84841740020D3E738B521
:105E800000241FE0D4480068C07AA04204D0D24861
:105E90000068407DA04200D112E0CF4949680878EF
:105EA0006B4601222146FFF7A9FE10B14FF0FF30EB
:105EB00038BD9DF800202146C8A006F0AFFD00BF08
:105EC000601CC4B2C44840680079A042DADC0020FB
:105ED000EEE770B504460D46BF480068C07AA042A0
:105EE00004D0BD480068407DA04202D14FF0FF3091
:105EF00070BDB94840680079A04202DC4FF0FF3025
:105F0000F6E7B549496808782B4601222146FFF794
:105F100075FEEDE738B50446AF4890F82300A0427F
:105F200001D1002038BD14B13020009001E00020E4
:105F30000090A948807C20B19DF8000040F002004C
:105F40000090A54890F8220020B19DF8000040F094
:105F500080000090A04A1268117D9F4A5268107814
:105F60006B460122FFF70BFF10B14FF0FF30D9E76E
:105F7000994880F823400020D4E738B5044604F05F
:105F8000700010B10120009005E014B100200090D5
:105F900001E040200090904A1268917C8E4A52683D
:105FA00010786B460122FFF7EAFE20B100218A48F3
:105FB0008172481E38BD9DF8000020F040018648DF
:105FC00001730020009004F0400020B99DF800000B
:105FD00040F00400009004F0200020B99DF800007B
:105FE00040F00200009004F0100020B99DF800007D
:105FF00040F00100009004F0080020B99DF8000076
:1060000040F038000090744A1268D17C724A52689D
:1060100010786B460122FFF7B2FE20B100216E48D6
:106020008172481EC6E724B1082C02D00020FFF779
:1060300071FF6948847200210175322002F060FF0F
:106040000020B7E738B504466348807CA04201D100
:10605000002038BD002C46D05F4A126811795E4A94
:10606000526810786B460122FFF7C8FD10B14FF05F
:10607000FF30EEE79DF8000020F020000090564A27
:1060800012681179544A526810786B460122FFF762
:1060900076FE10B14FF0FF30DBE7032002F030FF57
:1060A000022000904C4890F8220020B19DF800009A
:1060B00040F080000090484890F8230020B19DF8FF
:1060C000000040F030000090434A1268117D424ABF
:1060D000526810786B460122FFF751FE002851D01C
:1060E0004FF0FF30B5E73C4A126811793A4A5268DE
:1060F00010786B460122FFF781FD10B14FF0FF30A1
:10610000A7E73548807A00F0010028B19DF800002B
:1061100040F02000009004E09DF8000020F02000F6
:1061200000902D4A126811792B4A526810786B46FC
:106130000122FFF724FE10B14FF0FF3089E7032062
:1061400002F0DEFE244890F8220010B1802000907A
:1061500001E000200090204890F8230020B19DF835
:10616000000040F0300000901B4A1268117D1A4A6E
:10617000526810786B460122FFF701FE10B14FF014
:10618000FF3066E714488474002062E708B51248BF
:10619000807A10B94FF0FF3008BD002000900E4A01
:1061A0001268D17B0C4A526810786B460122FFF7C7
:1061B000E6FD10B14FF0FF30EEE7074A1268517963
:1061C000054A526810786B460122FFF7D8FD68B186
:1061D0004FF0FF30E0E700001C0000202523357859
:1061E0003A20252335780D0A00000000F84A12688D
:1061F0001179F74A526810786B460122FFF7BFFD0C
:1062000010B14FF0FF30C7E7F14890F824000028A4
:1062100053D00C200090EE4A12681179EC4A526873
:1062200010786B460122FFF7AAFD10B14FF0FF3046
:10623000B2E7322002F064FEC0200090E448807A89
:1062400000F0010020B19DF8000040F02000009017
:10625000DF4A12681179DE4A526810786B460122D3
:10626000FFF78DFD10B14FF0FF3095E7D848407C27
:1062700010B10220009001E000200090D44A126882
:10628000D17BD34A526810786B460122FFF777FD25
:1062900010B14FF0FF307FE700200090CC4A126829
:1062A0005179CB4A526810786B460122FFF767FD9F
:1062B000002855D04FF0FF306EE704200090C44A0C
:1062C00012681179C24A526810786B460122FFF7B2
:1062D00056FD10B14FF0FF305EE7BD48807C20B91D
:1062E000BB48807A00F0010010B94020009001E026
:1062F00060200090B64A12681179B54A5268107849
:106300006B460122FFF73BFD10B14FF0FF3043E732
:10631000322002F0F5FDAE48407C10B10120009023
:1063200001E000200090AA4A1268D17BA84A526876
:1063300010786B460122FFF722FD10B14FF0FF30BD
:106340002AE7A34A12685179A14A52681078A04BF3
:1063500010330122FFF713FD10B14FF0FF301BE7A0
:10636000002019E770B50446002624F0010498487F
:1063700090F8240008B1002070BD9548807A10B9CB
:106380004FF0FF30F8E79248057C807A2040904932
:1063900008740846007CA04202D04FF0FF3600E0AF
:1063A000002614B98A48007D18B10120FFF722FDAC
:1063B00002E00020FFF71EFD3CB1FFF7E7FE20B131
:1063C000834805744FF0FF30D6E73046D4E738B540
:1063D00004467F48807A10B94FF0FF3038BDBC2C9E
:1063E00002DB0120009015E0622C02DB022000900D
:1063F00010E02A2C02DB032000900BE0142C02DBBF
:106400000420009006E00A2C02DB0520009001E049
:10641000062000906E48C07A9DF80010884201D195
:106420000020DBE76A4A12689178694A526810785E
:106430006B460122FFF7A3FC10B14FF0FF30CDE710
:106440009DF800106248C1720020C7E738B50446C5
:10645000282C02DD4FF0FF3038BDDCB90020FFF7FB
:1064600059FD00208DF8000007208DF80100584AE2
:106470001268917C564A526810786B460222FFF7E8
:106480007EFC10B14FF0FF30E6E700215048017567
:106490000020E1E70120FFF73DFD20208DF80000FE
:1064A000012C06D100208DF801000520FFF78FFF99
:1064B00017E0052C06DC01208DF801000520FFF710
:1064C00086FF0EE0142C06DC02208DF801000A2065
:1064D000FFF77DFF05E003208DF801001420FFF792
:1064E00076FF9DF80100072101EB8010C0B28DF806
:1064F0000100374A1268917C354A526810786B4621
:106500000222FFF73CFC10B14FF0FF30A4E7082156
:106510002F48817200210173012101750020FFF7CE
:1065200021FF002098E738B504462948807A10B941
:106530004FF0FF3038BD264890F8240010B14FF0DE
:10654000FF30F7E72248007D50B134B1282C04DC3D
:10655000E0B2FFF77BFF0020ECE70020FFF776FFBB
:10656000042C01DA042404E0B4F57A7F01DD4FF451
:106570007A744FF47A7090FBF4F0401EC0B2009031
:10658000134A12685178124A526810786B460122F9
:10659000FFF7F5FB10B14FF0FF30CBE79DF800009F
:1065A000401C4FF47A7191FBF0F081B20848C18130
:1065B0000146C9894810FFF70AFF0020BAE738B53D
:1065C00004460348807A28B94FF0FF3038BD0000F8
:1065D0001C000020022C06D0042C07D0082C08D068
:1065E000102C0CD108E0002000900BE00820009057
:1065F00008E01020009005E01820009002E04FF025
:10660000FF30E3E700BFF748407A9DF80010B0EB99
:10661000E10F01D10020D9E7F24A1268D179F14A9D
:10662000526810786B460122FFF7A9FB10B14FF0BA
:10663000FF30CBE79DF80000C110EA48417200200E
:10664000C4E738B50446E748807A10B94FF0FF3008
:1066500038BDFA2C09D0B4F5FA7F09D0B4F57A7FA9
:1066600009D0B4F5FA6F0CD108E0002000900BE0DF
:106670000820009008E01020009005E0182000900D
:1066800002E04FF0FF30E3E700BFD648007A9DF804
:106690000010B0EBE10F01D10020D9E7D14A126818
:1066A0009179D04A526810786B460122FFF767FB58
:1066B00010B14FF0FF30CBE79DF80000C010C94982
:1066C00008720020C4E71CB580208DF80000C54A80
:1066D0001268917CC34A526810786B460122FFF71A
:1066E0004EFB10B14FF0FF301CBD642002F008FCDF
:1066F00000208DF80000BB4A1268917CB94A5268AC
:1067000010786B460122FFF73AFB10B14FF0FF30D3
:10671000EAE7B44A1268917DB24A526810786B4633
:106720000622FFF76BFA10B14FF0FF30DCE79DF85F
:106730000500C007400F9DF8031001F0010140EA79
:1067400041009DF8011001F0010140EA010494B1FB
:10675000012C03D10121A348C17431E0022C03D1E3
:106760000021A048C1742BE021469FA006F056F9F5
:106770004FF0FF30B8E79B4A1268D178994A5268C7
:1067800010786B460122FFF739FA10B14FF0FF3055
:10679000AAE79DF8000000F00F042CB99C4806F011
:1067A0003DF94FF0FF309FE7042C06D199A006F089
:1067B00035F901218B48C17402E000218948C17478
:1067C000FF2188488172FF2086490872FF21854891
:1067D0004172C1724FF6FF71C181FF210174817452
:1067E0000121017380F82210002180F823104175E7
:1067F00001751630016041608160163880F8241000
:1068000080F82510C1844FF4FA60FFF71AFF10B129
:106810004FF0FF3068E70220FFF7D1FE10B14FF0D4
:10682000FF3061E72A20FFF7D2FD10B14FF0FF30B3
:106830005AE73220FFF777FE10B14FF0FF3053E7F1
:106840000020FFF78FFD10B14FF0FF304CE7002024
:10685000FFF7F8FB10B14FF0FF3045E70020FFF7DE
:106860008CFB002040E770477CB504460D465D4830
:10687000807A00F0700010B94FF0FF307CBD594AAB
:106880001268117B574A526810786B460622FFF750
:10689000B5F910B14FF0FF30F0E79DF801009DF819
:1068A000001040EA012000B220809DF803009DF80E
:1068B000021040EA012000B260809DF805009DF8BA
:1068C000041040EA012000B2A08015B12846FFF76D
:1068D000CAFF0020D2E77CB504460D464148807AC5
:1068E00000F0080010B94FF0FF307CBD3D4A12683F
:1068F000517B3C4A526810786B460622FFF77EF9BE
:1069000010B14FF0FF30F0E79DF801009DF8001046
:1069100040EA012000B220809DF803009DF802109B
:1069200040EA012000B260809DF805009DF8041047
:1069300040EA012000B2A08015B12846FFF793FF7E
:106940000020D2E7F8B506460C462648807A10B9F2
:106950004FF0FF30F8BD234A1268917B214A5268FC
:1069600010786B460222FFF749F910B14FF0FF3063
:10697000F0E79DF801009DF8001040EA012005B203
:1069800014B12046FFF76FFF16484068B0F90800C1
:1069900000EE100AF8EEC00A00EE105AB8EEC00A77
:1069A00070EE600A0F484068C08800EE100AB8EE2A
:1069B000400A80EE801A9FED1F0A31EE000ADFEDDB
:1069C0001E0A20EE200ABDEEC00A86ED000A002055
:1069D000C0E710B588B004461CB94FF0FF3008B0CE
:1069E00010BD2BE01C000020556E737570706F7227
:1069F00074656420736F6674776172652070726F5E
:106A000064756374207265762025642E0A00000088
:106A100030FE000848616C662073656E73697469A6
:106A200076697479207061727420666F756E642E59
:106A30000A00000000000C4200008047206830B9C6
:106A4000606820B9A06810B9002008B010BDF949ED
:106A50004968087806AB03221146FFF7CFF810B15A
:106A60004FF0FF30F1E79DF81800082101EB2010EE
:106A700000F00F00ADF800009DF8190001EB2010A8
:106A800000F00F00ADF802009DF81A0001EB201095
:106A900000F00F00ADF8040020684100BDF90000CF
:106AA000403091FBF0F000B2ADF81000606841009A
:106AB000BDF90200403091FBF0F000B2ADF81200D9
:106AC000A0684100BDF90400403091FBF0F000B235
:106AD000ADF81400D7494968087806AB062211467C
:106AE000FFF78CF810B14FF0FF30AEE79DF81900BA
:106AF0009DF8181040EA012000B2ADF808009DF89A
:106B00001B009DF81A1040EA012000B2ADF80A00FF
:106B10009DF81D009DF81C1040EA012000B2ADF860
:106B20000C00BDF81000BDF80810084400B2ADF824
:106B30001000BDF81200BDF80A10084400B2ADF80C
:106B40001200BDF81400BDF80C10084400B2ADF8F6
:106B50001400BDF81000000A8DF81800BDF81000F0
:106B6000C0B28DF81900BDF81200000A8DF81A00A5
:106B7000BDF81200C0B28DF81B00BDF81400000A69
:106B80008DF81C00BDF81400C0B28DF81D00A94995
:106B90004968087806AB06221146FFF7F0F810B1F5
:106BA0004FF0FF3051E700204FE70146A148007A3F
:106BB00030B1012807D0022809D003280FD10AE0FC
:106BC000FA2008800EE04FF4FA7008800AE04FF4D3
:106BD0007A70088006E04FF4FA60088002E0002036
:106BE000088000BF00BF0020704701469148407AEE
:106BF00030B1012807D0022808D003280CD108E0C2
:106C0000022008700BE00420087008E008200870DB
:106C100005E01020087002E04FF0FF30704700BF21
:106C20008448C07C18B108784006000E0870002027
:106C3000F4E701467F48C07A082817D2DFE800F061
:106C40001704070A0D101318BC20088013E06220F7
:106C5000088010E02A2008800DE0142008800AE057
:106C60000A20088007E00520088004E000BF00BF7C
:106C70000020088000BF00BF0020704701466D481B
:106C800090F8240010B14FF0FF3070476948C08978
:106C900008800020F9E7014600200880401E704768
:106CA00001464FF0FF30704701466248007A30B12C
:106CB000012809D002280CD0032814D10EE09FED42
:106CC0005E0A81ED000A11E09FED5C0A81ED000A89
:106CD0000CE09FED5B0A81ED000A07E09FED590A89
:106CE00081ED000A02E04FF0FF30704700BF002046
:106CF000FBE701464F48407A30B1012808D002280E
:106D00000AD0032810D10BE04FF4804008800EE039
:106D100041F69C7008800AE04FF48050088006E03D
:106D20004FF40060088002E04FF0FF30704700BF72
:106D30004048C07C10B10888401008800020F5E76A
:106D400001463C48007C08700020704701463948E5
:106D5000807A10B10120087001E000200870002046
:106D6000704738B504463348807A10B94FF0FF3089
:106D700038BD304A1268117C2E4A526810786B4632
:106D80000222FEF73BFF10B14FF0FF30F0E79DF815
:106D900001009DF8001040EA012000B22080002090
:106DA000E6E72DE9FE4F0746884692461D46DDF888
:106DB00030B0002600241F4890F8240010B1601E57
:106DC000BDE8FE8F002028701A48807A10B94FF075
:106DD000FF30F5E71748007C10B94FF0FF30EFE7C0
:106DE0001448007C00F0400008B1B01CC6B2114845
:106DF000007C00F0200008B1B01CC6B20D48007C39
:106E000000F0100008B1B01CC6B20A48007C00F0C7
:106E1000080008B1B01DC6B2064A1268917A054A48
:106E2000526810786B460222FEF7E8FE60B14FF020
:106E3000FF30C5E71C000020000003430000834230
:106E400033330342333383419DF801009DF8001032
:106E500040EA0129B14501DA0020B1E7FA4840686B
:106E60004088B9EB600F17DDF74A1268517CF64A8B
:106E7000526810786B460122FEF7C0FE10B14FF049
:106E8000FF309DE79DF8000000F0100020B1FFF7F3
:106E90007DF96FF0010093E75046FFF7E4FCEA4A02
:106EA0001268D17AE84A526810786B463246FEF78B
:106EB000A5FE10B14FF0FF3082E799FBF6F0401EBF
:106EC0008BF8000000202870B4422AD0DE48007CF5
:106ED00000F0080028B3601C1DF800001DF8041025
:106EE00040EA012000B2A8F80000E01C1DF80010E4
:106EF000A01C1DF8000041EA002000B2A8F8020022
:106F0000601D1DF80010201D1DF8000041EA002042
:106F100000B2A8F80400287840F008002870A01DEE
:106F200084B2B44213D0C848007C00F0400070B175
:106F3000601C1DF800001DF8041040EA012000B29A
:106F40003880287840F040002870A01C84B2B442F9
:106F500013D0BD48007C00F0200070B1601C1DF80B
:106F600000001DF8041040EA012000B27880287863
:106F700040F020002870A01C84B2B44213D0B24864
:106F8000007C00F0100070B1601C1DF800001DF8BE
:106F9000041040EA012000B2B880287840F01000C8
:106FA0002870A01C84B200200AE7F8B504460F46FA
:106FB0001646A54890F8240010B94FF0FF30F8BDF0
:106FC000A148807A10B94FF0FF30F8E79E4A126866
:106FD000917A9D4A526810786B460222FEF70EFEA7
:106FE00010B14FF0FF30EAE79DF801009DF8001066
:106FF00040EA0125A54203DA00203070401EDEE79A
:10700000914840684088B5EB600F17DD8E4A1268E2
:10701000517C8D4A526810786B460122FEF7EEFDD6
:1070200010B14FF0FF30CAE79DF8000000F01000EB
:1070300020B1FFF7ABF86FF00100C0E7E2B2824B7E
:107040001B68D97A804B5B6818783B46FEF7D6FD03
:1070500010B14FF0FF30B2E795FBF4F0401E3070F6
:107060000020ACE70146784880F8221000207047E5
:107070007CB5054674494968087801AB04220D21A6
:10708000FEF7BCFD08B107207CBD9DF80700C0F3EA
:1070900001109DF8041001F0E00140EAE1008DF8D4
:1070A00000009DF80700C0F381009DF8051001F075
:1070B000E00140EAE1008DF801009DF8070000F0D2
:1070C00003009DF8061001F0E00140EAE1008DF8B0
:1070D0000200002427E01DF8040030B99FED5B0A90
:1070E00005EB840080ED000A1BE09FED590A05EBDB
:1070F000840080ED000A0BE005EB840090ED000AAF
:10710000DFED540A20EE200A05EB840080ED000A32
:107110001DF80400401EC0B20DF804000028EBD199
:1071200000BF601CC4B2032CD5DB0020ACE7F0B577
:107130002DED028B83B006460F4600256846FFF70B
:1071400097FF002447E056F8241057F82420881AA7
:10715000002801DB014600E0414200EE101AB8EEC3
:10716000C00ADFED3D0A80EE208A684600EB84000D
:1071700090ED000AB5EEC00AF1EE10FA18D068469C
:1071800000EB8400D0ED000A88EE200AF7EE000A3A
:1071900070EE608AB0EEE80A3048D0ED090AB4EE2D
:1071A000E00AF1EE10FA15DD0120A040054311E0E0
:1071B0002A4890ED070AB4EEC80AF1EE10FA06DC90
:1071C00090ED080AB4EEC80AF1EE10FA02D20120DE
:1071D000A0400543641C032CB5DB284603B0BDEC7E
:1071E000028BF0BDF0B52DED048B81B006460F4645
:1071F00000251549496808786B4603220D21FEF7E2
:10720000FDFC20B1072001B0BDEC048BF0BD9DF862
:10721000000000F01F008DF800009DF8010000F054
:107220001F008DF801009DF8020000F01F008DF88E
:107230000200002461E056F8241057F82420881A30
:1072400000280DDB01460CE01C00002000000000BF
:107250007B14AE3E1D5A843F0000804704F10008B5
:10726000414200EE101AB8EEC00A5FED050A80EE4A
:10727000208A1DF8040068B3FE4890ED000AB8EEBD
:10728000400ADFEDFD0A80EE801AF0EE418A05E04B
:107290009FEDFA0A28EE800AF0EE408A1DF80400FD
:1072A000401EC0B20DF804000028F1D188EE280A73
:1072B000F7EE000A30EE609AB0EEC90AED48D0ED64
:1072C000060AB4EEE00AF1EE10FA15DD0120A04046
:1072D000054311E0E74890ED040AB4EEC80AF1EE68
:1072E00010FA06DC90ED050AB4EEC80AF1EE10FAC9
:1072F00002D20120A0400543641C032C9BDB2846DE
:1073000081E72DE9F04F87B005460C4691460120F4
:107310008DF8100000208DF81100D94A1268917C78
:10732000D74A5268107804AB0222FEF728FD20B13C
:107330004FF0FF3007B0BDE8F08FC82001F0E0FD4E
:1073400000208DF81000CE4A1268D17BCC4A5268DA
:10735000107804AB0122FEF712FD10B14FF0FF30A0
:10736000E8E7C74A12685179C54A5268107804ABF9
:107370000122FEF704FD10B14FF0FF30DAE7C04AFA
:107380001268917CBE4A5268107804AB0122FEF765
:10739000F6FC10B14FF0FF30CCE7B94A1268D17D4E
:1073A000B74A5268107804AB0122FEF7E8FC10B12E
:1073B0004FF0FF30BEE7B24A12681179B04A526806
:1073C000107804AB0122FEF7DAFC10B14FF0FF3069
:1073D000B0E70C208DF81000A94A12681179A84A6C
:1073E0005268107804AB0122FEF7C9FC10B14FF0CF
:1073F000FF309FE70F2001F083FDA148806A407AAB
:107400008DF810009E4A126891789D4A5268107853
:1074100004AB0122FEF7B3FC10B14FF0FF3089E757
:107420009748806A007A8DF81000954A1268517862
:10743000934A5268107804AB0122FEF7A0FC10B109
:107440004FF0FF3076E7B9F1000F07D08C48806A23
:10745000807A40F0E0008DF8100004E08848806AEF
:10746000807A8DF81000864A12689179844A5268B1
:10747000107804AB0122FEF782FC10B14FF0FF3010
:1074800058E7B9F1000F07D07D48806AC07A40F014
:10749000E0008DF8100003E07648C07A8DF8100007
:1074A000774A1268D179764A5268107804AB012283
:1074B000FEF765FC10B14FF0FF303BE7B9F1000F6C
:1074C00002D0C82001F01CFD40208DF810006C4A4D
:1074D000126811796A4A5268107804AB0122FEF7EB
:1074E0004EFC10B14FF0FF3024E778208DF81000EB
:1074F000634A12685179624A5268107804AB0122DB
:10750000FEF73DFC10B14FF0FF3013E75949888971
:1075100001F0F6FC00208DF81000594A12685179EC
:10752000574A5268107804AB0122FEF728FC10B1CC
:107530004FF0FF30FEE6524A1268917A504A526884
:10754000107804AB0222FEF759FB10B14FF0FF3068
:10755000F0E69DF811009DF8101040EA012B0C2078
:107560009BFBF0F0C6B20020A86068602860A060B5
:1075700060602060824665E0414A1268D17A404AE4
:107580005268107804AB0C22FEF738FB10B14FF0B4
:10759000FF30CFE69DF811009DF8101040EA012061
:1075A00000B2ADF808009DF813009DF8121040EAF3
:1075B000012000B2ADF80A009DF815009DF81410E6
:1075C00040EA012000B2ADF80C00BDF908102068B7
:1075D00008442060BDF90A10606808446060BDF985
:1075E0000C10A0680844A0609DF817009DF81610C4
:1075F00040EA012000B2ADF800009DF819009DF8A6
:10760000181040EA012000B2ADF802009DF81B00FE
:107610009DF81A1040EA012000B2ADF80400BDF94F
:107620000010286808442860BDF902106868084402
:107630006860BDF90410A8680844A8600AF1010058
:1076400000F0FF0AB24597DB0A48D0F800C028686E
:10765000C117090441EA1041070462460023384675
:1076600004F01AFE32460023CDE9020104F014FEB4
:10767000286007E004F1000800B04C4554E3853F62
:107680001C000020F848D0F800C06868C117090441
:1076900041EA1041070462460023384604F0FCFD2D
:1076A00032460023CDE9020104F0F6FD6860EE48A1
:1076B000D0F800C0A868C117090441EA10410704C6
:1076C00062460023384604F0E7FD32460023CDE948
:1076D000020104F0E1FDA860E348D0F804C021688D
:1076E000C817000440EA11480F04624600233846D8
:1076F000414604F0D1FD32460023CDE9020104F0F9
:10770000CBFD2060D848D0F804C06068C1170904D8
:1077100041EA1041070462460023384604F0BCFDEC
:1077200032460023CDE9020104F0B6FD6060CE4888
:10773000D0F804C0A068C117090441EA1041070449
:1077400062460023384604F0A7FD32460023CDE907
:10775000020104F0A1FDA060A068002804DDA0687B
:10776000A0F58030A06003E0A06800F58030A06044
:107770000020DFE538B50446BC4890F82400A0425C
:1077800001D1002038BD24B3B84890F8250010B9C5
:107790004FF0FF30F6E70020FEF72CFB0020FEF74D
:1077A00051FCB249C88CFEF7BEFE00200090AF49E4
:1077B000496808786B4601222321FEF7E0FA01218F
:1077C000AA4880F824100120FEF714FBFEF7DEFC27
:1077D00013E00020FEF70EFBA448007C0090A349B4
:1077E000496808786B4601222321FEF7C8FA002178
:1077F0009E4880F82410FEF7C9FC0020C2E72DE95E
:10780000F04F8DB083460F4602200C90974890F8B9
:10781000240020B10020FFF7ADFF012600E0002684
:1078200003A8FFF7C2F905A8FFF7DFF901A8FFF7E2
:1078300000FA02A8FFF722FA8C4890F80AA004A8E0
:10784000FFF77EFA002407E0002239465846FFF78A
:1078500058FD00B902E0641C022CF5DB00BF022CCD
:1078600001D1002528E0002407E0012206A909A88B
:10787000FFF747FD00B902E0641C022CF5DB00BFF6
:10788000022C01D1002517E006A93846FFF74FFC6E
:1078900000F0FF0809A95846FFF7A4FC00F0FF0913
:1078A0000025B9F1000F01D145F00105B8F1000F35
:1078B00001D145F0020500BFFF206C490872FF218D
:1078C0006A484172C1724FF6FF71C181FF21817216
:1078D000017401210173BDF80C00FEF7B2FE9DF8A2
:1078E0001400FEF76CFEBDF80400FEF770FDBDF855
:1078F0000800FEF718FE5046FEF73FFB9DF810000B
:10790000FEF730FD16B10120FFF734FF28460DB019
:10791000BDE8F08FF8B504460D46164616B94FF08F
:10792000FF30F8BD5148807A10B94FF0FF30F8E7CA
:1079300020128DF80000E0B28DF801009DF80100E2
:1079400028444A4949684989884202DD4FF0FF309E
:10795000E7E7464A1268117E444A526810786B463F
:107960000222FEF70CFA10B14FF0FF30D9E7EAB26D
:107970003E4B1B68597D3D4B5B6818783346FEF7DC
:10798000FEF910B14FF0FF30CBE70020C9E7F8B5A2
:1079900004460D46164616B94FF0FF30F8BD334881
:1079A000807A10B94FF0FF30F8E720128DF8000010
:1079B000E0B28DF801009DF8010028442B49496888
:1079C0004989884202DD4FF0FF30E7E7274A126815
:1079D000117E264A526810786B460222FEF7CFF9D4
:1079E00010B14FF0FF30D9E7EAB2204B1B68597D48
:1079F0001E4B5B6818783346FEF700F910B14FF064
:107A0000FF30CBE70020C9E72DE9F04385B00546FC
:107A10000E4690469946154890F8250020B14FF043
:107A2000FF3005B0BDE8F08316B94FF0FF30F8E73E
:107A3000002428E0281B102801DD102000E0281B6E
:107A400087B2321939462046FFF764FF10B14FF074
:107A5000FF30E6E701AA39462046FFF798FF38B124
:107A60004FF0FF30DDE7000004F100081C000020AB
:107A700030193A4601A904F052FC10B16FF0010030
:107A8000CFE7E01984B2AC42D4DB4FEA28208DF86E
:107A9000000008F0FF008DF80100F74A1268917E9F
:107AA000F54A526810786B460222FEF768F910B169
:107AB0004FF0FF30B5E70121EF4880F82510A0F81E
:107AC00026900020ADE70146EB4890F824000870AE
:107AD000002070474FF0FF30704702464FF0FF30F4
:107AE000704701464FF0FF307047F8B505460F4626
:107AF0001446002C70D0B5F5FF5F01DDFF2605E0D0
:107B0000202D01DA012601E0C5F3471607B9012748
:107B1000282C02DD4FF0FF30F8BDD748407D28BB50
:107B2000D54890F8240038B10020FFF723FE01214A
:107B3000D14880F8201003E00021CF4880F82010C1
:107B4000CD481630FFF731F8CB481830FFF74DF825
:107B5000C9481A30FFF76DF8C7481C30FFF78EF898
:107B6000C548817A81771F30FFF7EAF80020FEF7D9
:107B700041F90020FEF76AFC00208DF80000BE4AA3
:107B800012689178BC4A526810786B460122FEF761
:107B9000F6F810B14FF0FF30BEE740208DF800003E
:107BA000B54A1268D17BB44A526810786B460122FC
:107BB000FEF7E5F800B165E08DF800608DF8017022
:107BC000AD4A1268117AAC4A526810786B460222AC
:107BD000FEF7D5F808B155E047E0052001F090F92F
:107BE000A548407A072101EBC000C0B28DF8000023
:107BF000A14A1268D179A04A526810786B460122D6
:107C0000FEF7BDF800B13DE020208DF80000012C0A
:107C100003D100208DF801000EE0052C03DC0120CB
:107C20008DF8010008E0142C03DC02208DF801001F
:107C300002E003208DF801009DF80100072101EB0F
:107C40008010C0B28DF801008B4A1268917C8A4A7C
:107C5000526810786B460222FEF791F800B111E0ED
:107C6000012185484175002056E7834A16320021DC
:107C700003E0505C00B105E0491C0C29F9D34FF03A
:107C8000FF3049E7FF207C490872FF217A484172A2
:107C9000C1724FF6FF71C181FF2181720174012110
:107CA00001730146887FFEF768F97349C88AFEF7B9
:107CB000C8FC7149087EFEF782FC6F49488BFEF7CD
:107CC00086FB6D49888BFEF72EFC6B49C87FFEF75B
:107CD00049FB694890F8200010B10120FFF74AFDE8
:107CE000002165484175002016E710B588B002A94B
:107CF00005A8FFF784FD0446032C41D101A8FEF737
:107D0000D3FF9DED050AB8EEC00ADDED010A20EEB5
:107D1000200ABDEEC00A8DED050A9DED060AB8EEFB
:107D2000C00ADDED010A20EE200ABDEEC00A8DED8D
:107D3000060A9DED070AB8EEC00ADDED010A20EE45
:107D4000200ABDEEC00A8DED070A05A800F049FA29
:107D50006846FEF7CEFFBDF8001002984843029037
:107D6000BDF80010039848430390BDF80010049834
:107D70004843049002A800F0C7FA002008B010BDE4
:107D80000120FBE7014691F90020002A01DD0020D7
:107D90001EE091F90020002A01DA042018E091F990
:107DA0000120002A01DD012012E091F90120002AC2
:107DB00001DA05200CE091F90220002A01DD022001
:107DC00006E091F90220002A01DA062000E00720EF
:107DD000704710B504462046FFF7D4FF0346E01C69
:107DE000FFF7D0FF43EAC00083B2A01DFFF7CAFF30
:107DF00043EA801083B2184610BD70B50024FDF729
:107E00000BFDFEF760FC002841D17820FEF7B5F8A5
:107E1000C4B20CB1012070BD7820FEF7A3FAC4B241
:107E20000CB10220F7E76420FEF77DFBC4B20CB171
:107E30000320F0E700F03AF9C4B20CB10420EAE7FD
:107E40000E48FFF7C6FF054600F03AF9C4B20CB180
:107E50000520E0E740F2731000F083FDC4B20CB1DE
:107E60000620D8E7642000F0E5FAC4B20CB1072080
:107E7000D1E72CB10820CEE71C00002048000020EC
:107E80000120FFF777FCC4B20CB10920C3E7002042
:107E9000C1E770B52DED0C8B8EB004460D4616462D
:107EA000B7EE000AF0EE409A9FED7C0AB0EE408AF1
:107EB0009FED7A0AF0EE408A9FED780AB0EE409A84
:107EC00007A808A90DAB03AACDE9001009A90BA8C2
:107ED00000F0A6FE20B101200EB0BDEC0C8B70BDF1
:107EE000BDF8200000F4807000287CD09DED030ACE
:107EF000B8EEC00ADFED6A0A80EE201AF0EE419A71
:107F00009DED040AB8EEC00ADFED650A80EE201A86
:107F1000B0EE418A9DED050AB8EEC00ADFED600AB9
:107F200080EE201AF0EE418A9DED060AB8EEC00AF6
:107F3000DFED5B0A80EE201AB0EE419AB8EE000A3F
:107F400028EE000A20EE090AF0EE000A69EEA00A07
:107F500000EEA80A10EE101A084604F0ACFB41EC43
:107F60001C0BB0EE4C0AF0EE6C0A04F081FDB0EE92
:107F700040BAF0EE60BA9FED4B0B53EC102B51EC76
:107F80001B0B04F080FA41EC1A0B04F0A7FB2060F5
:107F9000B8EE000A28EE000A20EE080AF0EE000A09
:107FA00068EEA00A00EEE80AF7EE000A30EE200ABA
:107FB00010EE101A084604F07EFB41EC1C0BB0EEEC
:107FC000000A28EE800A20EE090AF0EE000A69EEA7
:107FD000A00A00EE880A10EE101A084604F06BFBA7
:107FE00041EC1D0B00E054E0B0EE4C1AF0EE6C1AC0
:107FF000B0EE4D0AF0EE6D0A05F056F8B0EE40BA5C
:10800000F0EE60BA9FED270B53EC102B51EC1B0BDD
:1080100004F039FA41EC1A0B04F060FB286029EEF9
:10802000A90A08EE080A08EEE80A09EE490A10EE65
:10803000101A084604F03FFB41EC1C0B28EE280AFE
:1080400009EE890AF0EE000A20EE200A10EE101A5E
:10805000084604F030FB41EC1D0BB0EE4C1AF0EE7C
:108060006C1AB0EE4D0AF0EE6D0A05F01DF8B0EE98
:1080700040BAF0EE60BA9FED0B0B53EC102B51ECB5
:108080001B0B04F000FA41EC1A0B04F027FB3060E4
:1080900001E0022020E700201EE7000000000000B1
:1080A0000000804E6666666666A64C4010B5C82322
:1080B0004FF48062F74940F6F630FFF7A5FC10BD9B
:1080C00010B586B00446F4A000680390F3A00068E1
:1080D0000290F3A000680190F2A00068009004F004
:1080E000030003A9085C8DF8140003A8C4F3C101C0
:1080F000405C8DF8150003A8C4F38111405C8DF835
:10810000160004F0030002A9085C8DF8100002A814
:10811000C4F3C101405C8DF8110002A8C4F38111C1
:10812000405C8DF8120005AA032140F22640FFF7BB
:10813000F1FB18B14FF0FF3006B010BD04AA0321C7
:1081400040F22A40FFF7E6FB10B14FF0FF30F3E7B3
:10815000019805900098049004F0040058B19DF82F
:10816000140040F001008DF814009DF8100040F05C
:1081700001008DF8100004F0200058B19DF81500A2
:1081800040F001008DF815009DF8110040F001004D
:108190008DF8110004F4807058B19DF8160040F07D
:1081A00001008DF816009DF8120040F001008DF8D6
:1081B000120005AA03214FF48860FFF7ABFB10B152
:1081C0004FF0FF30B8E704AA032140F23140FFF737
:1081D000A1FB10B14FF0FF30AEE7B348048100209F
:1081E000AAE71FB50446B048007A00F0030054F82F
:1081F00020000190AC48007A00F0040010B1019812
:1082000040420190A848007AC0F3C10054F8200011
:108210000290A548007A00F0200010B10298404278
:108220000290A148007AC0F3811054F82000039016
:108230009D48008900F4807010B10398404203907B
:108240009A49019880FB0101800F40EA810001906A
:108250009649029880FB0110820042EA91700290D8
:108260009249039880FB0110820042EA91700390CA
:108270000198000E8DF800000198000C8DF80100A7
:108280000198000A8DF802000198C0B28DF8030031
:108290006A4604214FF47470FFF73CFB18B14FF0AD
:1082A000FF3004B010BD0298000E8DF80000029857
:1082B000000C8DF801000298000A8DF80200029867
:1082C000C0B28DF803006A4604214FF47570FFF7C1
:1082D00021FB10B14FF0FF30E3E70398000E8DF85B
:1082E00000000398000C8DF801000398000A8DF837
:1082F00002000398C0B28DF803006A4604214FF4CF
:108300007670FFF707FBCCE770B588B0064601A88A
:10831000FEF7EFFCBDF804000021C90341EA504517
:10832000C4036148007A00F0030056F8200005906D
:108330005D48007A00F0040010B1059840420590B5
:108340005948007AC0F3C10056F8200006905648FC
:10835000007A00F0200010B1069840420690524882
:10836000007AC0F3811056F8200007904E4800892B
:1083700000F4807010B10798404207900598C1172B
:10838000A0FB042301FB043100FB0510810041EA3E
:10839000927005900698C117A0FB042301FB0431DD
:1083A00000FB0510810041EA927006900798C11702
:1083B000A0FB042301FB043100FB0510810041EA0E
:1083C000927007900598000E8DF808000598000C33
:1083D0008DF809000598000A8DF80A000598C0B2CA
:1083E0008DF80B000698000E8DF80C000698000C16
:1083F0008DF80D000698000A8DF80E000698C0B2A0
:108400008DF80F000798000E8DF810000798000CEB
:108410008DF811000798000A8DF812000798C0B275
:108420008DF8130002AA0C214FF42570FFF772FAA1
:1084300008B070BD30B585B004461DA207CA02ABB6
:1084400007C3C82C03DD4FF0FF3005B030BDC82096
:1084500090FBF4F0401E85B2280A8DF80000E8B2C7
:108460008DF801006A46022140F21620FFF752FA09
:1084700010B14FF0FF30E8E702AA0C2140F6C1200E
:10848000FFF748FA10B14FF0FF30DEE7064884816D
:108490000020DAE72CF100084CCD6C000CC92C0050
:1084A0003656760026466600CC01002009E3CA0253
:1084B000FEF2ABC4AAF1DFDFBBAFDFDF0146F94854
:1084C0008089088000207047F0B52DED028B83B0C5
:1084D00006460F4606F0070010B1B7F5C86F05DD78
:1084E0004FF0FF3003B0BDEC028BF0BD00EE107A10
:1084F000B8EE400ADFEDEC0A80EE208A01A8FEF714
:1085000074FB9DF80400022806D0042817D0082820
:1085100028D010284CD138E09FEDE40A28EE000A5C
:10852000BCEEC00A10EE100A84B29FEDE10A28EEFC
:10853000000ABCEEC00A10EE100A85B23BE09FEDC7
:10854000DD0A28EE000ABCEEC00A10EE100A84B262
:108550009FEDD90A28EE000ABCEEC00A10EE100A00
:1085600085B228E09FEDD50A28EE000ABCEEC00ACD
:1085700010EE100A84B29FEDD20A28EE000ABCEE7B
:10858000C00A10EE100A85B215E09FEDCE0A28EE63
:10859000000ABCEEC00A10EE100A84B29FEDCA0AAF
:1085A00028EE000ABCEEC00A10EE100A85B202E006
:1085B0004FF0FF3096E700BF20128DF80800E0B2C0
:1085C0008DF8090028128DF80A00E8B28DF80B002A
:1085D00006F00100A0B102AA02214FF4EA70FFF7F1
:1085E00099F910B14FF0FF307CE70DF10A0202213A
:1085F0004FF49270FFF78EF910B14FF0FF3071E732
:1086000006F00200A0B102AA02214FF4EC70FFF7BD
:1086100081F910B14FF0FF3064E70DF10A02022139
:108620004FF49470FFF776F910B14FF0FF3059E72F
:1086300006F00400A0B102AA02214FF4EE70FFF789
:1086400069F910B14FF0FF304CE70DF10A02022139
:108650004FF49670FFF75EF910B14FF0FF3041E72D
:1086600000203FE738B504460020009004F00100E8
:1086700020B19DF8000040F03000009004F00200AE
:1086800020B19DF8000040F00C00009004F00400C0
:1086900020B19DF8000040F0030000906A460121DF
:1086A0004FF4A470FFF736F938BD38B50446012CF5
:1086B00001DA012402E0042C00DD0424601EC0B2B3
:1086C00000906A46012140F24F10FFF723F938BDB0
:1086D00038B50446052094FBF0F085B228128DF8D9
:1086E0000000E8B28DF801006A4602214FF4EF70F5
:1086F000FFF710F938BD38B50446052094FBF0F0BB
:1087000085B228128DF80000E8B28DF801006A46A3
:1087100002214FF4ED70FFF7FDF838BDF8B50546BE
:108720000E464FF47A7095FBF0F000FB06F4200E35
:108730008DF80000200C8DF80100200A8DF8020051
:10874000E0B28DF803006A4604214FF4AE70FFF7E3
:10875000E1F8F8BD38B50446052094FBF0F084B28A
:1087600020128DF80000E0B28DF801006A46022167
:108770004FF4AD70FFF7CEF838BD38B5044605208C
:1087800094FBF0F084B220128DF80000E0B28DF876
:1087900001006A4602214FF4AC70FFF7BBF838BD08
:1087A00038B5044614B94FF0FF3038BD6A4604218D
:1087B0004FF45870FFF7EBF810B14FF0FF30F4E7CB
:1087C0009DF8000000069DF8011040EA01409DF868
:1087D000021040EA01209DF80310084320600020A9
:1087E000E3E738B50446200E8DF80000200C8DF824
:1087F0000100200A8DF80200E0B28DF803006A46FD
:1088000004214FF45870FFF785F838BD38B5044699
:1088100014B94FF0FF3038BD6A4604214FF471702F
:10882000FFF7B5F810B14FF0FF30F4E79DF8000006
:1088300000069DF8011040EA01409DF8021040EA50
:1088400001209DF80310084300EB800080002060A9
:108850000020E0E738B504461420B4FBF0F4200E05
:108860008DF80000200C8DF80100200A8DF8020020
:10887000E0B28DF803006A4604214FF47170FFF7EF
:1088800049F838BD38B5044604B320208DF80000FF
:1088900028208DF8010030208DF8020038208DF856
:1088A000030018E0CC01002000004843000080468F
:1088B00000004046000000460000C0450000804522
:1088C00000004045000000450000C044A3220421F0
:1088D000684603F012FD6A46042140F69E20FFF729
:1088E00019F8FDF753FC38BD38B5044664B1C02013
:1088F0008DF80000C2208DF80100C4208DF8020020
:10890000C6208DF8030004E08B220421684603F0A2
:10891000F4FC6A46042140F69820FEF7FBFFFDF7C1
:1089200035FC38BD3EB504466CB1FDA1D1E900204F
:108930008968CDE9002002916A4609214FF49760C9
:10894000FEF7E8FF3EBDF9A2D2E900109268CDE93A
:10895000010200916A4609214FF49760FEF7DAFFA1
:10896000F0E73EB5044602208DF80000CA208DF8DD
:108970000100E3208DF8020009208DF803006A460B
:1089800004216820FEF7C6FFA3208DF8000004F044
:10899000400048B1C0208DF80100C8208DF80200C9
:1089A000C2208DF8030006E0A3208DF801008DF8A9
:1089B00002008DF8030004F4C07048B1C4208DF8A3
:1089C0000400CC208DF80500C6208DF8060006E0D6
:1089D000A3208DF804008DF805008DF80600A32073
:1089E0008DF807008DF808008DF809006A460A2105
:1089F00040F6A720FEF78EFF04F0030018B12020F8
:108A00008DF8000002E0D8208DF800006A460121B0
:108A100040F6B620FEF77EFF04F0200018B10120DA
:108A2000FFF780FF02E00020FFF77CFF04F4C07036
:108A300008B304F4807060B1B2208DF800008B2080
:108A40008DF80100B6208DF802009B208DF8030000
:108A50000BE0B0208DF8000080208DF80100B420DC
:108A60008DF8020090208DF803006A46042140F63C
:108A7000A220FEF74FFF04F0010020B3F8208DF88C
:108A800000006A4601214FF40B60FEF743FFFA2114
:108A90000720FFF719FD0720FFF7E4FD0120FFF78E
:108AA00004FE6420FFF714FE4FF4FA70FFF723FE74
:108AB000C821A148FFF732FE2820FFF74BFE0A200D
:108AC000FFF75BFE08E0D8208DF800006A46012120
:108AD0004FF40B60FEF71EFF04F0020018B1D9201E
:108AE0008DF8000002E0D8208DF800006A460121D0
:108AF00040F23D70FEF70EFF04F0040018B10120B3
:108B0000FFF7F2FE02E00020FFF7EEFE04F0100097
:108B100018B10120FFF7B6FE02E00020FFF7B2FE19
:108B200044F0080085494881FDF730FB0020834967
:108B3000887304F0400018B10846807B801D88735C
:108B400004F4C07020B17D48807B801D7B49887310
:108B500004F0140020B17948807B10307749887385
:108B600004F0030020B17548807B001D73498873B1
:108B700000203EBD014671484089088000207047B2
:108B80002DE9F0410446E07800F0C006E07800F0FE
:108B90003F05607800F0010098B1EF102846E91712
:108BA00005EB5171C910A5EBC101491C01F0FF088B
:108BB0006248006820B161484146026838469047E3
:108BC00000BF607800F0080030B15C48406818B120
:108BD000B0115A4A516888470020BDE8F08110B5AD
:108BE00086B0044656A207CA03AB07C357A207CAFA
:108BF0008DE80700012C09D0022C0ED103AA0B210D
:108C000040F68220FEF786FE06B010BD6A460B21B4
:108C100040F68220FEF77EFEF6E74FF0FF30F3E7E6
:108C20002DE9F04F8DB00746884615469946DDE997
:108C3000166B0024002030804049887B5A4605A9E5
:108C4000FEF7B3F918B1601E0DB0BDE8F08F3B48D8
:108C5000807A00F01400002861D09DF8140000060E
:108C60009DF8151040EA01409DF8161040EA0120D9
:108C70009DF81710084328609DF8180000069DF81D
:108C8000191040EA01409DF81A1040EA01209DF8B1
:108C90001B10084368609DF81C0000069DF81D101D
:108CA00040EA01409DF81E1040EA01209DF81F1087
:108CB0000843A8609DF8200000069DF8211040EAB6
:108CC00001409DF8221040EA01209DF8231008433E
:108CD000E86004F11000C4B22868001401906868CC
:108CE00000140290A86800140390E868001404902F
:108CF00001984043029901FB0100039901FB010027
:108D0000049901FB010ABAF1706F02DBBAF1885FC6
:108D100022DDFDF73BFA00203080401E94E721E081
:108D2000B8AAB38DB4980D355D000000B8AAAAAA00
:108D3000B088C3C5C700000009E3CA02CC01002007
:108D4000D8B1B9F38BA391B609B4D900DAB1B9F3AC
:108D50008BA391B6DAB4DA00B6F9000040F4807063
:108D6000308000BF3448807A00F0400020B305A96D
:108D7000601C085C095D40EA012000B2A8F8000010
:108D800005A9E01C095C05AAA01C105C41EA0020B2
:108D900000B2A8F8020005A9601D095C201D105C46
:108DA00041EA002000B2A8F80400A01DC4B2B6F940
:108DB000000040F0080030801F48408900F4C07077
:108DC00008B305A9601C085C095D40EA012000B2F7
:108DD000388005A9E01C095C05AAA01C105C41EACA
:108DE000002000B2788005A9601D095C201D105C80
:108DF00041EA002000B2B880A01DC4B2B6F900005C
:108E000040F0700030800C48807A00F0030018B108
:108E100005A90819FFF7B4FE4846FDF724FD002018
:108E200012E70146044801600020704701460248ED
:108E30004160002070470000CC01002010B50446BE
:108E40006FF0040000F084F9E11704EB5171C1F3F5
:108E5000C701394A11701046007800EB4001C1EBA0
:108E6000C0104FF6FF7101EAC0003449088010BD00
:108E70000146314A12784A434FF0E0235A610022FA
:108E80009A611A46126942F001021A6100BF4FF05E
:108E9000E022106900F001021AB100F48032002AC9
:108EA000F5D04FF0E022126922F001024FF0E023EA
:108EB0001A6100229A6170470146204A12884A438B
:108EC0004FF0E0235A6100229A611A46126942F07B
:108ED00001021A6100BF4FF0E022106900F00102A8
:108EE0001AB100F48032002AF5D04FF0E022126966
:108EF00022F001024FF0E0231A6100229A617047CC
:108F000070B504464FF4077094FBF0F0C6B24FF40E
:108F1000077094FBF0F100FB114085B205E04FF4BF
:108F20000770FFF7C9FF701EC6B2002EF7D115B14A
:108F30002846FFF7C1FF70BD5200002054000020FA
:108F400000BF704700BF4C4A128802F04002002A5E
:108F5000F9D0C2B2484B9A80704710B588B0044629
:108F60000121084600F01AFF0121102000F070FFD7
:108F700007220921414800F0FEFC07220A213F4850
:108F800000F0F9FC4FF4C060069002208DF81C0040
:108F90008DF81D0000208DF81E0001208DF81F00A7
:108FA00006A9364800F05CFC02940020ADF80C00E5
:108FB000ADF80E00ADF81000ADF814000C20ADF8BF
:108FC000120002A92C4801F0A4F801212A4801F05E
:108FD00028F9012240F22551274801F0D8F925202F
:108FE0008DF8040003208DF805008DF8060001209F
:108FF0008DF8070001A800F05EF808B010BD10B5AC
:1090000040F225511C4801F0FDF910B31A4801F057
:1090100037F9C4B21A48008800F40040C8B91848AB
:10902000008800F4804060B10A2C03D0002014496D
:10903000088020E01248008840F400401049088071
:1090400019E00D2C06D10E48008840F480400C49F0
:10905000088010E00A480088C0F30D0009490C544C
:1090600007480088401C0649088008460088C72831
:1090700001DD0020088010BD00100140000002400A
:109080005C000020DC0100200648804706480047BD
:10909000FEE7FEE7FEE7FEE7FEE7FEE7FEE7FEE7A8
:1090A000FEE7FEE721090008890100083249014373
:1090B000324A1160704770B5002100230F22C47836
:1090C0001CB32E4C246804F4E064C4F5E064C4F3DB
:1090D0000721C1F10404E3B20A4144789C40E1B2A3
:1090E0008478144021430C07210E254C05786155E6
:1090F000047804F01F050124AC4005786D11AD0023
:1091000005F1E025C5F8004109E0047804F01F05E9
:109110000124AC401B4D0678761145F8264070BD01
:10912000194A0A400243154B1B1F1A60704739B198
:10913000124A121D12680243104B1B1D1A6006E0F2
:109140000E4A121D126882430C4B1B1D1A60704799
:10915000042808D14FF0E021096941F004014FF0E3
:10916000E022116107E04FF0E021096921F00401DC
:109170004FF0E022116170470000FA050CED00E0AD
:1091800000E400E080E100E080FFFF1F30B943F21F
:10919000DB028100A1F1C0410A6005E043F2D20286
:1091A0008100A1F1C0410A606FF07042411C89004A
:1091B000A1F1C0410A608100A1F1C041C1F80421C0
:1091C0007047D0E901121143C2681143026911438B
:1091D0004269114382691143C2691143026A114312
:1091E000426A1143826A1143C26A1143026B1143FE
:1091F00002689200A2F1C0421160816808290BD177
:1092000001688900A1F1C041096841F0400201688C
:109210008900A1F1C0410A60416B0968426B526844
:1092200041EA0211426B926841EA0221426B928943
:1092300041EA0241426B128A41EA0251426B127DBD
:1092400041EA0261426B926911430268521C92002A
:10925000A2F1C0421160C16AB1F5804F1BD1816B90
:109260000968826B526841EA0211826B926841EA96
:109270000221826B128A41EA0251826B127D41EA1D
:109280000261826B9269114302689200A2F1C042AE
:10929000C2F8041107E06FF0704201688900A1F183
:1092A000C041C1F8042170470021016002214160E2
:1092B00000218160C160016141618161C161016220
:1092C0004FF480514162490081620021C162016313
:1092D000F84941638163704751B18200A2F1C042F5
:1092E000126842F001038200A2F1C042136009E05B
:1092F0008200A2F1C0421268EF4B1A408300A3F132
:10930000C0431A60704710280AD118214FF020423C
:109310001166402151664FF0FC319166D16610E034
:109320001821E64A116040214FF02042C2F8841013
:109330004FF0FC31E14A083211604FF02042C2F890
:109340008C10704730B5002100220023446844F09F
:10935000080485682C43C5682C4305692C4345697E
:1093600044EA4524856944EA4531C4692468C569ED
:109370006D6844EA0524C5692D8944EA0544C56938
:109380002D7B44EA0562046A2468056A6D6844EA34
:109390000524056A2D8944EA0544056A2D7B44EAC3
:1093A00005630468102C05D14FF020442166A266A5
:1093B000E36608E0C14C21604FF02044C4F88820E7
:1093C000BE4C0C34236030BD10210160002141608F
:1093D0008160C160016141618161FC21C2691160EC
:1093E000C2695160C2699160C269D160026A11604C
:1093F000026A5160026A9160026AD160704799B155
:10940000102808D14FF02042126E42F004024FF0B3
:1094100020431A661DE0A94A126842F004024FF088
:109420002043C3F8802014E0102809D14FF02042D7
:10943000126EA14BDB1E1A404FF020431A6608E063
:109440009E4A12689C4BDB1E1A404FF02043C3F823
:109450008020704799B1102808D14FF02042126E39
:1094600042F040024FF020431A661DE0934A126812
:1094700042F040024FF02043C3F8802014E010284F
:1094800009D14FF02042126E8B4B3F3B1A404FF0F8
:1094900020431A6608E0894A1268874B3F3B1A400E
:1094A0004FF02043C3F88020704701460020102968
:1094B00003D14FF02042506F02E0804A143210680E
:1094C000704718207D492031086000200906C1F846
:1094D000A4004FF0FC30794928310860091D08606C
:1094E000091D08607047016841F01001426841EAB7
:1094F0004221826841EA4231704A20321160C168DB
:109500000968C268526841EA0221C268128941EAC8
:109510000241C268127B41EA0261684A2832116046
:10952000016909680269526841EA022102691289E7
:1095300041EA02410269127B41EA02615F4A2C3230
:109540001160416909684269526841EA0221426931
:10955000128941EA02414269127B41EA02614FF0FD
:109560002042C2F8B0107047002101604160816064
:10957000FC21C2681160C2685160C2689160C26813
:10958000D1600269116002695160026991600269EB
:10959000D1604269116042695160426991604269DB
:1095A000D160704748B145492031096841F0040154
:1095B0004FF02042C2F8A01009E04049203109686C
:1095C0003D4AD21E11404FF02042C2F8A010704711
:1095D00010B5F2B1102807D14FF020435B6E0B435A
:1095E0004FF02044636632E0B0F5807F08D1334B02
:1095F0001B1D1B680B434FF02044C4F8843026E049
:109600002E4B24331B680B434FF02044C4F8A43086
:109610001DE0102807D14FF020435B6E8B434FF0C5
:109620002044636613E0B0F5807F08D1234B1B1DF7
:109630001B688B434FF02044C4F8843007E01F4B75
:1096400024331B688B434FF02044C4F8A43010BD72
:1096500010B5024600200023102A03D14FF0204409
:10966000636E09E0B2F5807F03D1144C241D23689A
:1096700002E0124C2434236803EA01040CB10120F7
:1096800000E0002010BD102807D14FF02042526E9C
:109690008A434FF020435A6619E0B0F5807F0FD11E
:1096A000064A121D12688A434FF02043C3F88420F3
:1096B0000DE0000024FD0008FEFF0F00800000A068
:1096C000234A12688A434FF02043C3F8A42070470E
:1096D00070B502460020002300240025102A03D183
:1096E0004FF02046736E08E0B2F5807F03D1184E2C
:1096F000203E336801E0164E336803EA010403EAB2
:10970000D10514B10DB1012000E0002070BD10287A
:1097100008D14FF02042526E22EAD1024FF020438E
:109720005A6614E0B0F5807F09D1094A203A1268E0
:1097300022EAD1024FF02043C3F8842007E0044A14
:10974000126822EAD1024FF02043C3F8A4207047E8
:10975000A40000A010B504469848844208D1012115
:10976000084600F086FB0021012000F082FB76E035
:109770009348844208D10121022000F07AFB0021A5
:10978000022000F076FB6AE08E48844208D1012175
:10979000042000F06EFB0021042000F06AFB5EE074
:1097A0008948844208D10121082000F062FB002191
:1097B000082000F05EFB52E08448844208D1012179
:1097C000102000F056FB0021102000F052FB46E074
:1097D0007F48844208D10121202000F04AFB00216B
:1097E000202000F046FB3AE07A48844208D101216B
:1097F000402000F03EFB0021402000F03AFB2EE02C
:109800007548844208D10121802000F032FB0021FC
:10981000802000F02EFB22E07048844208D1012114
:10982000801500F026FB0021A01500F022FB16E0B9
:109830006B48844208D10121401500F01AFB002139
:10984000601500F016FB0AE06648844207D101214A
:10985000001500F00EFB0021201500F00AFB10BDE2
:10986000F0B50A4600210023002400BF3DE0012599
:1098700005FA01F3156805EA03049C4234D1056832
:109880004F000326BE40B543056015794E00B54034
:109890000668354305601579012D02D01579022D32
:1098A00016D185684F000326BE40B54385605579C3
:1098B0004E00B540866835438560456801268E4078
:1098C000B5434560456896798E40B6B235434560EC
:1098D000C5684F000326BE40B543C560D5794E002C
:1098E000B540C6683543C560491C1029BFD3F0BDDB
:1098F0004FF6FF7101600021017141718171C171E9
:10990000704708B54FF480320092009A0A430092E3
:10991000009AC261C161009AC261C2690092C269C3
:10992000009208BD0246002013690B400BB10120D4
:1099300000E0002070470146086980B27047024687
:10994000002053690B400BB1012000E0002070475C
:109950000146486980B27047018370474183704770
:109960000AB1018300E04183704741617047426959
:109970004A4042617047F0B5002300244D07ED0EC8
:1099800002FA05F3CE1000F1200555F826504E07D7
:10999000F70E0F26BE40B543CF1000F1200646F863
:1099A0002750CE1000F1200555F8265045EA030453
:1099B000CE1000F1200545F82640F0BD0000024021
:1099C0000004024000080240000C02400010024067
:1099D0000014024000180240001C02400020024017
:1099E0000024024000280240F948006840F00100CD
:1099F000F74908600020F64908310860F44800681B
:109A0000F4490840F2490860F348091D0860F3482A
:109A1000EF4984310860F0481038091D0860EC48AF
:109A2000006820F48020EA4908600020E8490C31F1
:109A30000860E7498C31086070470021E44A921CB5
:109A4000117011460870704710B5014600220023BE
:109A500000204A11012A02D1DD4C236808E0022AC5
:109A600003D1DB4C7034236802E0D94C7434236892
:109A700001F01F02012494401C400CB1012000E0C1
:109A8000002010BD38B5002000900024002500BF44
:109A90003120FFF7D9FF05460098401C0090009840
:109AA000B0F5A04F01D0002DF2D03120FFF7CCFF50
:109AB00008B1012400E00024204638BD0146002002
:109AC000C34A106820F0F80040EAC10010607047F7
:109AD000C349086070470021BD4A7032117011708F
:109AE000012802D004280AD104E00121B84A7032CA
:109AF000117005E00521B64A7032117000E000BF18
:109B000000BF7047B7490860704770B5049C41EAD0
:109B100082150126C6EB530645EA0645054345EA8C
:109B20000465AB4E361D356070BDAD4908667047A3
:109B3000820142EA0172A64B84331A607047A84939
:109B40008866704710B5830143EA016343EA0273F4
:109B50009F4C8834236010BDA14908677047A04915
:109B6000C864704702460020994B0833186820F0FB
:109B7000EC6042EA01031843954B083318607047C4
:109B800002460020924B0833186820F0784042EAE1
:109B9000010318438E4B08331860704701460020BC
:109BA0008B4A0832106820F00300084310607047A9
:109BB00087480830006800F00C007047014600201C
:109BC000834A0832106820F0F000084310607047A4
:109BD000014600207E4A0832106820F4E050084315
:109BE0001060704701460020794A0832106820F45E
:109BF000604040EAC10010607047F0B500210022CB
:109C00000024022500260223714F08373F6807F021
:109C10000C0121B1042905D0082937D105E0724F84
:109C2000076036E0714F076033E0694F3F1D3F68C2
:109C3000C7F38056664F3F1D3F6807F03F036EB184
:109C40006A4FB7FBF3F7DFF888C10CF1040CDCF8BE
:109C500000C0CCF3881C07FB0CF40CE0624FB7FB90
:109C6000F3F7DFF86CC10CF1040CDCF800C0CCF3A6
:109C7000881C07FB0CF4564F3F1D3F68C7F3014794
:109C80007F1C7D00B4FBF5F7076002E0564F0760CC
:109C900000BF00BF4E4F08373F6807F0F0010909C9
:109CA000534F7A5C0768D7404760494F08373F6891
:109CB00007F4E051890A4E4F7A5C4768D7408760C5
:109CC000434F08373F6807F46041490B484F7A5CBF
:109CD0004768D740C760F0BD002100F44072B2F57C
:109CE000407F0AD13A4A0832116821F4F811414AFA
:109CF00002401143364A08321160354A7032126808
:109D0000C0F30B031A43324B70331A607047354966
:109D10004439086070473349403908607047364914
:109D20000860704701460020294A8C32106820F0F4
:109D30001F004A1E1043264A8C32106070470146AD
:109D40000020234A8C32106820F4F8504A1E40EA62
:109D500002201F4A8C3210607047014600201C4AC6
:109D60008C32106820F440100843106070470146A0
:109D70000020174A8C32106820F44000084310601D
:109D8000704701460020124A8C32106820F440309F
:109D900008431060704719490860704739B10C4A90
:109DA0003032126802430A4B30331A6006E0084A28
:109DB000303212688243064B30331A607047F9B173
:109DC000034A343212680243014B34331A601CE0F8
:109DD00000380240FFFFF6EA103000240030002077
:109DE00000004742800E47420024F40000127A002F
:109DF0005E000020FFFCFF0F5C014742E01147427C
:109E00008F4A126882438E4B1A60704739B18C4A70
:109E1000121D126802438A4B1B1D1A6006E0884A15
:109E2000121D12688243864B1B1D1A60704739B1A0
:109E3000834A0C3212680243814B0C331A6006E0ED
:109E40007F4A0C32126882437D4B0C331A60704794
:109E500039B17B4A103212680243794B10331A60D1
:109E600006E0774A103212688243754B10331A604D
:109E7000704739B1724A243A12680243704B243B4E
:109E80001A6006E06E4A243A126882436C4B243B07
:109E90001A60704739B16A4A203A12680243684B27
:109EA000203B1A6006E0664A203A12688243644BFF
:109EB000203B1A60704739B1614A1C3A126802436C
:109EC0005F4B1C3B1A6006E05D4A1C3A12688243F5
:109ED0005B4B1C3B1A60704739B1594A143A1268FF
:109EE0000243574B143B1A6006E0554A143A126875
:109EF0008243534B143B1A60704739B1504A103AB1
:109F0000126802434E4B103B1A6006E04C4A103A6E
:109F1000126882434A4B103B1A60704739B1484A75
:109F20001C3212680243464B1C331A6006E0444A56
:109F30001C3212688243424B1C331A60704739B19D
:109F40003F4A2032126802433D4B20331A6006E03C
:109F50003B4A203212688243394B20331A607047E3
:109F600039B1374A243212680243354B24331A6020
:109F700006E0334A243212688243314B24331A609C
:109F8000704739B12E4A2C32126802432C4B2C33C5
:109F90001A6006E02A4A2C3212688243284B2C337E
:109FA0001A60704739B1264A303212680243244B96
:109FB00030331A6006E0224A303212688243204B66
:109FC00030331A607047012808D11D493C310968B7
:109FD00041F008011A4A3C32116007E018493C314F
:109FE000096821F00801164A3C321160704739B106
:109FF000134A273A12780243114B273B1A7006E0A6
:10A000000F4A273A127882430D4B273B1A7070474C
:10A010000B484030006840F08070094940310860CA
:10A02000704701460020064A283A12680A400AB1E1
:10A03000012000E000207047014926390870704770
:10A040003438024010B50446FA48844208D1012150
:10A050001020FFF752FF00211020FFF74EFF57E0BE
:10A06000F548844209D101214804FFF735FF00215A
:10A070004FF40030FFF730FF4AE0F048844209D146
:10A0800001218804FFF728FF00214FF48020FFF70B
:10A0900023FF3DE0EA48844209D10121C804FFF7CB
:10A0A0001BFF00214FF40020FFF716FF30E0E548CA
:10A0B000844209D101210805FFF70EFF00214FF46A
:10A0C0008010FFF709FF23E0DF48844208D1012117
:10A0D0002020FFF712FF00212020FFF70EFF17E0DE
:10A0E000DA48844209D101218807FFF7F5FE0021F3
:10A0F0004FF08040FFF7F0FE0AE0D548844207D1D8
:10A1000001214005FFF7E8FE00216005FFF7E4FEAE
:10A1100010BD2DE9FF4705460E460024A14600BFAD
:10A12000A046B08900B100BF2C8A24F44054F088C6
:10A1300004432C82AC8941F20C608443B08831899D
:10A140000843718908430443AC81AC8A24F4407409
:10A15000B0890443AC826846FFF74FFDB54885429D
:10A1600002D0B948854202D1DDF80C9001E0DDF85B
:10A170000890A88900F4004040B109EBC90000EB49
:10A18000091031684900B0FBF1F707E009EBC9009D
:10A1900000EB091031688900B0FBF1F76420B7FBD0
:10A1A000F0F004012009642101FB1078A88900F473
:10A1B000004040B1322000EBC800B0FBF1F000F0ED
:10A1C0000700044308E0322000EB08106421B0FBD4
:10A1D000F1F000F00F0004432C81BDE8FF874FF43D
:10A1E0001651016000218180C18001810C214181D3
:10A1F00000218181704710B502460020108A20F4AA
:10A2000070600B884C8823438C882343CC8823437D
:10A210001843108210BD0021018041808180C180DF
:10A22000704721B1828942F40052828104E0828920
:10A230004DF6FF731A4082817047028B02F47F4211
:10A240000283028B0A430283704721B1828942F460
:10A250000042828103E08289C2F30E02828170474C
:10A2600021B1828A42F40062828204E0828A4FF243
:10A27000FF731A4082827047C1F3080282807047E0
:10A2800001468888C0F308007047028A4FF6F073D1
:10A290001A400282028A0A430282704721B18289EF
:10A2A00042F00202828104E082894FF6FD731A4077
:10A2B0008281704782894FF2FF731A4082818289BE
:10A2C0000A4382817047028A4FF6DF731A40028286
:10A2D000028A0A430282704721B1028A42F4804214
:10A2E000028204E0028A4BF6FF731A400282704732
:10A2F000818941F001018181704721B1828A42F058
:10A300000802828204E0828A4FF6F7731A40828242
:10A310007047028BD2B20283028B42EA012202838F
:10A32000704721B1828A42F02002828204E0828A50
:10A330004FF6DF731A408282704721B1828A42F061
:10A340001002828204E0828A4FF6EF731A40828202
:10A350007047828A4FF6FB731A408282828A0A43D0
:10A360008282704721B1828A42F00202828204E036
:10A37000828A4FF6FD731A40828270471AB1838A2F
:10A380000B43838202E0838A8B4383827047F0B55C
:10A390000346002400260025002040F66A17B94233
:10A3A00000D100BF1846C1F3421401F01F06012777
:10A3B00007FA06F5012C01D10C3004E0022C01D182
:10A3C000103000E014301AB107682F43076002E034
:10A3D0000768AF430760F0BD02460020B1F5007F7B
:10A3E00000D100BF13880B400BB1012000E000201A
:10A3F000704701F40072B2F5007F00D100BFCA437C
:10A400000280704770B5024600240023002500201A
:10A4100040F66A16B14200D100BFC1F3421501F007
:10A420001F03012606FA03F3012D13D19689334049
:10A4300017E00000001001400044004000480040C8
:10A44000004C0040005000400014014000780040E3
:10A45000007C0040022D02D1168A334001E0968A2A
:10A4600033400C12012606FA04F41688344013B166
:10A470000CB1012000E0002070BD10B500220023C7
:10A4800040F66A14A14200D100BF0A120124944090
:10A49000A3B2DC43048010BD10B50446FE488442DC
:10A4A00008D101210846FFF728FD00210120FFF710
:10A4B00024FD9DE0B4F1804F08D101210846FFF74B
:10A4C0000BFD00210120FFF707FD91E0F3488442D6
:10A4D00008D101210220FFF7FFFC00210220FFF735
:10A4E000FBFC85E0EE48844208D101210420FFF7FF
:10A4F000F3FC00210420FFF7EFFC79E0E9488442F7
:10A5000008D101210820FFF7E7FC00210820FFF710
:10A51000E3FC6DE0E448844208D101211020FFF7FC
:10A52000DBFC00211020FFF7D7FC61E0DF4884420C
:10A5300008D101212020FFF7CFFC00212020FFF7C8
:10A54000CBFC55E0DA48844208D101210220FFF714
:10A55000D4FC00210220FFF7D0FC49E0D54884421A
:10A5600009D101210804FFF7C8FC00214FF4803015
:10A57000FFF7C3FC3CE0D048844209D101214804E4
:10A58000FFF7BBFC00214FF40030FFF7B6FC2FE0D3
:10A59000CA48844209D101218804FFF7AEFC00219A
:10A5A0004FF48020FFF7A9FC22E0C548844208D17F
:10A5B00001214020FFF790FC00214020FFF78CFC98
:10A5C00016E0C048844208D101218020FFF784FCB6
:10A5D00000218020FFF780FC0AE0BB48844207D1BD
:10A5E00001218015FFF778FC0021A015FFF774FC0E
:10A5F00010BD00220288A84B98420ED0AC4B984266
:10A600000BD0B0F1804F08D0A44B984205D0A44B9A
:10A61000984202D0A34B984204D14FF68F731A4050
:10A620004B881A43A04B984207D0A04B984204D0C5
:10A630004FF6FF431A400B891A4302804B68C362EE
:10A640000B880385944B984202D0994B984201D1D4
:10A650008B7A03860123838270474FF0FF3141607C
:10A6600000210180018141808172704701858282D1
:10A6700070470A46002101884FF68F731940114335
:10A680000180704741627047C16270470146486A65
:10A6900070470146088D704721B1028842F00202DE
:10A6A000028004E002884FF6FD731A400280704772
:10A6B00021B1028842F00402028004E002884FF6D1
:10A6C000FB731A400280704721B1028842F0800279
:10A6D000028004E002884FF67F731A4002807047C0
:10A6E00002884FF6F7731A40028002880A430280FC
:10A6F000704702884FF6FF431A40028002880A43DF
:10A700000280704721B1028842F00102028004E019
:10A7100002884FF6FE731A400280704770B500241D
:10A7200000220023058C4FF6FE7635400584028C0E
:10A730008388048B4FF68F752C40B51E2C400D88F6
:10A740002C43751E2A408D892A434D882A43524D39
:10A75000A84202D0564DA84213D14FF6F7752A40B1
:10A76000CD892A434FF6FB752A408D882A434FF640
:10A77000FF652B404FF6FF552B400D8A2B434D8A2A
:10A780002B43838004838D684563028470BD70B55C
:10A79000002400220023058C4FF6EF763540058417
:10A7A000028C8388048B48F6FF752C404FF6FF45DA
:10A7B0002C400D884FF6FF7606EA05252C434FF610
:10A7C000DF752A408D8906EA05152A434D8806EA79
:10A7D00005152A43304DA84202D0354DA8421DD15F
:10A7E0004FF67F752A40CD894FF6FF7606EA0515AC
:10A7F0002A434FF6BF752A408D8806EA05152A437D
:10A800004FF6FF352B404FF2FF752B400D8A06EABD
:10A8100085052B434D8A06EA85052B4383800483F7
:10A820008D688563028470BD70B50024002200230A
:10A83000058C4FF6FF6635400584028C8388848B37
:10A840004FF68F752C404FF6FC752C400D882C432D
:10A850004FF6FF552A408D894FF6FF7606EA05250B
:10A860002A434D8806EA05252A430B4DA84202D00B
:10A870000F4DA84238D14FF2FF752A40CD894FF6CF
:10A88000FF7606EA05252A434FF6FF352A408D88D4
:10A8900006EA05252A4319E00000014000040040B3
:10A8A00000080040000C0040001000400014004070
:10A8B00000040140004001400044014000480140C4
:10A8C00000180040001C0040002000404EF6FF75BC
:10A8D0002B404DF6FF752B400D8A06EA05152B43DC
:10A8E0004D8A06EA05152B43838084838D68C563F2
:10A8F000028470BD70B5002200230024058C4EF642
:10A90000FF7635400584038C8488828B48F6FF757A
:10A910002A404FF6FF452A400D884FF6FF7606EA9B
:10A9200005252A434DF6FF752B408D8906EA05352E
:10A930002B434D8806EA05352B43FE4DA84202D035
:10A94000FD4DA84208D14BF6FF752C400D8A4FF6FD
:10A95000FF7606EA85152C43848082838D68056422
:10A96000038470BD002101804180818081608181EC
:10A97000C18101824182704770B5034600200024E6
:10A980001846183001258D40ACB21D8CA5431D849E
:10A9900009B108290AD100EB610005684FF68F76EE
:10A9A000354005600568154305600FE00D1FC5F3D0
:10A9B0004E052844056848F6FF7635400560056871
:10A9C0004FF6FF7606EA02263543056070BD416307
:10A9D000704781637047C1637047016470470A46DE
:10A9E0000021018B4FF68F7319401143018370478B
:10A9F0000A460021018B48F6FF7319404FF6FF739A
:10AA000003EA02231943018370470A460021818B20
:10AA10004FF68F7319401143818370470A46002116
:10AA2000818B48F6FF7319404FF6FF7303EA022348
:10AA30001943818370470A460021018B4FF6F77353
:10AA400019401143018370470A460021018B4FF2E0
:10AA5000FF7319404FF6FF7303EA02231943018382
:10AA600070470A460021818B4FF6F7731940114356
:10AA7000818370470A460021818B4FF2FF73194092
:10AA80004FF6FF7303EA02231943818370470A4696
:10AA90000021018B4FF6FB7319401143018370476E
:10AAA0000A460021018B4FF6FF3319404FF6FF7322
:10AAB00003EA02231943018370470A460021818B70
:10AAC0004FF6FB7319401143818370470A460021FA
:10AAD000818B4FF6FF3319404FF6FF7303EA0223D1
:10AAE0001943818370470A460021018B4FF67F731B
:10AAF00019401143018370470A460021018BC1F3BD
:10AB00000E014FF6FF7303EA0223194301837047D6
:10AB10000A460021818B4FF67F73194011438183D0
:10AB200070470A460021818BC1F30E014FF6FF7377
:10AB300003EA02231943818370470A460021018CEE
:10AB40004FF6FD7319401143018470470A460021F6
:10AB5000018C4FF6F77319401143018470470A4680
:10AB60000021018C4FF6DF7319404FF6FF7303EAA3
:10AB700002131943018470470A460021018C4FF6E5
:10AB80007F7319404FF6FF7303EA021319430184E0
:10AB900070470A460021018C4FF6FF5319404FF6CB
:10ABA000FF7303EA02231943018470470A46002118
:10ABB000018C4FF2FF7319404FF6FF7303EA022333
:10ABC0001943018470470A460021018C4DF6FF733A
:10ABD00019404FF6FF7303EA0233194301847047AB
:10ABE00030B5002301248C40A3B2048C9C43048420
:10ABF000048C02FA01F5ADB22C43048430BD30B5AB
:10AC0000002304248C40A3B2048C9C430484048C51
:10AC100002FA01F5ADB22C43048430BD828B4FF2B1
:10AC2000FF331A408283828B4FF6FF7303EA0123BE
:10AC30001A4382837047F0B50C4615460021002266
:10AC40000026078C4EF6FF7C07EA0C070784818BF1
:10AC5000028C4FF6FF7707EA043640F6FF4739408B
:10AC60004FF6FF7707EA052739434FF6FF7707EAE4
:10AC70000337394345F6FF773A4046F480573A4365
:10AC800081830284F0BD828B4FF6F3731A40828376
:10AC9000828B0A4382837047F0B50C46154600212B
:10ACA00000220026078C4FF6FF6C07EA0C0707848A
:10ACB000818B028C4FF6FF7707EA04264FF60C775C
:10ACC00039404FF6FF7707EA03172F4339434FF216
:10ACD000FF573A4046F480773A4381830284F0BDBF
:10ACE000028B4FF2FF331A400283028B4FF6FF7341
:10ACF00003EA01231A4302837047F0B50C46154658
:10AD0000002100220026078C4FF6EF7C07EA0C0793
:10AD10000784018B028C4FF6FF7707EA041640F692
:10AD2000FF4739404FF6FF7707EA033739434FF6BD
:10AD3000FF7703E0000001400004014007EA052717
:10AD400039434FF65F773A4046F010073A430183A4
:10AD50000284F0BD028B4FF6F3731A400283028B1C
:10AD60000A4302837047F0B50C46154600210022C5
:10AD7000068C4FF6FE773E400684018B028C4FF620
:10AD80000C7631407E1C06EA03162E4331434FF603
:10AD9000F576324044F00106324301830284F0BD6F
:10ADA00070B505460C46208850B92389A288618871
:10ADB0002846FFF7D8FFE1882846FFF7CBFF25E0BC
:10ADC000208804280AD12389A28861882846FFF7B1
:10ADD00094FFE1882846FFF783FF17E020880828C2
:10ADE0000AD12389A28861882846FFF755FFE188A8
:10ADF0002846FFF748FF09E02389A2886188284692
:10AE0000FFF719FFE1882846FFF708FF70BD002112
:10AE100001804180012181800021C1800181704732
:10AE20002DE9F04105460C4600260127608808B947
:10AE3000022600E00026A088012801D1022700E0B8
:10AE400001272088A0B92389A28861882846FFF7B6
:10AE50008AFFE1882846FFF77DFF23893A4631467D
:10AE60002846FFF74AFFE1882846FFF739FF13E03D
:10AE70002389A28861882846FFF73FFFE18828469A
:10AE8000FFF72EFF23893A4631462846FFF76BFF2E
:10AE9000E1882846FFF75EFFBDE8F0810146486B78
:10AEA00070470146886B70470146C86B7047014682
:10AEB000086C70470A884B881A438B881A43CB88E2
:10AEC0001A430B891A434B891A438B891A43A0F8FA
:10AED000442070470021018041808180C180018130
:10AEE00041818181704731B1B0F8442042F4004281
:10AEF000A0F8442005E0B0F84420C2F30E02A0F808
:10AF00004420704721B1828842F00402828004E02C
:10AF100082884FF6FB731A408280704721B1828885
:10AF200042F00102828004E082884FF6FE731A40EC
:10AF3000828070471AB183890B43838102E0838941
:10AF40008B43838170478182704702460020138AB9
:10AF50000B400BB1012000E000207047CA43028281
:10AF6000704730B50246002000230024158A05EA08
:10AF70000103958905EA010413B10CB1012000E039
:10AF8000002030BDCA430282704741EA0203A0F8A4
:10AF9000483070471AB183890B43838102E083896B
:10AFA0008B438381704721B1828842F008028280FE
:10AFB00004E082884FF6F7731A4082807047018957
:10AFC0004FF6F8721140018170470A46002101894D
:10AFD0004FF68F73194011430181704730B5044615
:10AFE0000D4629462046FFF7F0FF208940F0070074
:10AFF000208130BD2DE9F04104460D4616461F461E
:10B00000602D06D13B46012231462046FFF775FEF2
:10B0100005E03B46012231462046FFF7A4FE2946C3
:10B020002046FFF7D2FF208940F007002081BDE8CD
:10B03000F08130B50C4600210189C9B24FF6FF7589
:10B0400005EA0325154325432943018130BD2DE938
:10B05000F04105460E4617469846002443463A46B8
:10B0600031462846FFF7E5FF2C894FF6F87004407B
:10B0700044F007044FF68F70044044F070042C81B4
:10B08000BDE8F081F0B504460D4616461F463B4626
:10B09000324629462046FFF7CCFF208940F4804005
:10B0A0002081F0BD82884FF68F731A40828082889B
:10B0B0000A438280704702894FF6F8731A40028172
:10B0C00002890A430281704702894FF67F731A4052
:10B0D000028102890A4302817047F0B50C46154689
:10B0E0001E460021002200230189028B038C4FF6AB
:10B0F000F877394021434FF6FC473A4040F20117B8
:10B100003A434FF6DD773B404FF6FF7707EA0617E5
:10B110002F433B43018102830384F0BD21B1828828
:10B1200042F08002828004E082884FF67F731A40EA
:10B1300082807047A0F850107047000010B58CB0A6
:10B1400004461E230BAA03A9204600F0A9FE009086
:10B15000009810B101200CB010BD9DF82C000444E3
:10B1600000200B900EE040489DF82C2050F8221053
:10B1700003A800F0FDFD00B908E09DF82C00401C7C
:10B18000C0B20B909DF82C000728ECD300BF9DF8AF
:10B190002C00072863D2DFE800F004053C5E6564FC
:10B1A000630000BF31A001F039FC31A001F036FC92
:10B1B0003FA001F033FC4EA001F030FC5CA001F098
:10B1C0002DFC6BA001F02AFC79A001F027FC86A0E1
:10B1D00001F024FC8BA001F021FC90A001F01EFCEA
:10B1E00094A001F01BFC99A001F018FC9EA001F0B6
:10B1F00015FCA4A001F012FCB0A001F00FFCBDA052
:10B2000001F00CFCC8A001F009FCD4A001F006FC80
:10B210009AE216A001F002FCE0A001F0FFFB002082
:10B220000B900EE0ED4800689DF82C2000EBC2006A
:10B230004168EBA001F0F2FB9DF82C00401CC0B26D
:10B240000B90E648007D9DF82C108842EADC07A0B0
:10B2500001F0E4FB78E205A001F0E0FBC4E171E25B
:10B2600045E219E2ECE10000700000200D0A000048
:10B270002D2D2D2D2D2D2D2D2D2D2D2D2D2D2D2DFE
:10B280002D2D2D2D2D2D2D2D55534D415254205604
:10B29000332E312D2D2D2D2D2D2D2D2D2D2D2D2DD3
:10B2A0002D2D2D2D2D2D2D2D2D2D2D200D0A000078
:10B2B0002020202055534D415254CAC7D3C9414C78
:10B2C00049454E54454BBFAAB7A2B5C4D2BBB8F648
:10B2D000C1E9C7C9B5C4B4AEBFDAB5F7CAD4BBA516
:10B2E000BDBBD7E9BCFE2CCDA8B9FD200D0A0000DE
:10B2F000CBFC2CC4E3BFC9D2D4CDA8B9FDB4AEBF3A
:10B30000DAD6FACAD6B5F7D3C3B3CCD0F2C0EFC3FE
:10B31000E6B5C4C8CEBACEBAAFCAFD2CB2A2D6B476
:10B32000D0D02ED2F2B4CB2CC4E3BFC90D0A00009A
:10B33000D2D4CBE6D2E2B8FCB8C4BAAFCAFDB5C429
:10B34000CAE4C8EBB2CECAFD28D6A7B3D6CAFDD789
:10B35000D62831302F3136BDF8D6C629A1A2D7D68E
:10B36000B7FBB4AEA1A2BAAFCAFDC8EB0D0A00008C
:10B37000BFDAB5D8D6B7B5C8D7F7CEAAB2CECAFD10
:10B38000292CB5A5B8F6BAAFCAFDD7EEB6E0D6A758
:10B39000B3D63130B8F6CAE4C8EBB2CECAFD2CB28F
:10B3A000A2D6A7B3D6BAAFCAFDB7B5200D0A000022
:10B3B000BBD8D6B5CFD4CABE2ED0C2D4F6B2CECA70
:10B3C000FDCFD4CABEBDF8D6C6C9E8D6C3B9A6C497
:10B3D000DC2CD0C2D4F6BDF8D6C6D7AABBBBB9A662
:10B3E000C4DC2E0D0A000000BCBCCAF5D6A7B3D63B
:10B3F0003A7777772E6F70656E6564762E636F6D22
:10B400000D0A000055534D415254D3D037B8F6CFF2
:10B41000B5CDB3C3FCC1EE3A0D0A00003F3A20207F
:10B4200020202020BBF1C8A1B0EFD6FAD0C5CFA212
:10B430000D0A000068656C703A202020BBF1C8A19D
:10B44000B0EFD6FAD0C5CFA20D0A00006C697374B4
:10B450003A202020BFC9D3C3B5C4BAAFCAFDC1D0FA
:10B46000B1ED0D0A0A00000069643A202020202076
:10B47000BFC9D3C3BAAFCAFDB5C44944C1D0B1ED49
:10B480000D0A0A006865783A20202020B2CECAFD55
:10B490003136BDF8D6C6CFD4CABE2CBAF3B8FABF7F
:10B4A000D5B8F12BCAFDD7D6BCB4D6B4D0D0BDF830
:10B4B000D6C6D7AABBBB0D0A0A0000006465633A72
:10B4C00020202020B2CECAFD3130BDF8D6C6CFD460
:10B4D000CABE2CBAF3B8FABFD5B8F12BCAFDD7D67D
:10B4E000BCB4D6B4D0D0BDF8D6C6D7AABBBB0D0A63
:10B4F0000A00000072756E74696D653A312CBFAA3E
:10B50000C6F4BAAFCAFDD4CBD0D0BCC6CAB13B30AA
:10B510002CB9D8B1D5BAAFCAFDD4CBD0D0BCC6CA2D
:10B52000B13B0D0A0A000000C7EBB0B4D5D5B3CCCF
:10B53000D0F2B1E0D0B4B8F1CABDCAE4C8EBBAAF3A
:10B54000CAFDC3FBBCB0B2CECAFDB2A2D2D4BBD836
:10B55000B3B5BCFCBDE1CAF82E0D0A002D2D2D2D72
:10B560002D2D2D2D2D2D2D2D2D2D2D2D2D2D2D2D0B
:10B570002D2D2D2D2D2D414C49454E54454B2D2D16
:10B580002D2D2D2D2D2D2D2D2D2D2D2D2D2D2D2DEB
:10B590002D2D2D2D2D2D2D200D0A00002D2D2D2D85
:10B5A0002D2D2D2D2D2D2D2D2D2D2D2D2D2D2D2DCB
:10B5B0002D2D2D2D2DBAAFCAFDC7E5B5A52D2D2DED
:10B5C0002D2D2D2D2D2D2D2D2D2D2D2D2D2D2D2DAB
:10B5D0002D2D2D2D2D2D2D2D200D0A00C4000020E8
:10B5E00025730D0A00000000EEA001F017FA0020FC
:10B5F0000B901AE0FB4909689DF82C2001EBC20171
:10B6000001AB02AA486803A900F070FCF548006885
:10B610009DF82C1050F8312003A9F3A001F0FEF999
:10B620009DF82C00401CC0B20B90EE48007D9DF8A8
:10B630002C108842DEDCAFF2CC3001F0EFF983E071
:10B64000AFF2D83001F0EAF90BAA03A9204600F0C6
:10B6500029FD9DF82C00C8B9694603A800F0BBFB82
:10B660000B909DF82C0020B9E4A0009901F0D6F9C8
:10B670000EE09DF82C00042801D002206BE5E2A02A
:10B6800001F0CCF90120D749C87501E0022062E53C
:10B69000DCA001F0C3F957E0DAA001F0BFF90BAA72
:10B6A00003A9204600F0FEFC9DF82C00C8B96946AD
:10B6B00003A800F090FB0B909DF82C0020B9D7A0B8
:10B6C000009901F0ABF90EE09DF82C00042801D0A0
:10B6D000022040E5D4A001F0A1F90020C149C875BD
:10B6E00001E0022037E5C7A001F098F92CE0C5A0E1
:10B6F00001F094F90BAA03A9204600F0D3FC9DF8B1
:10B700002C00C8B9694603A800F065FB0B909DF8B2
:10B710002C0078B9B349009881F8EC00084690F8FD
:10B72000EC0018B1C5A001F079F907E0CAA001F05A
:10B7300075F903E002200EE502200CE5B1A001F04E
:10B740006DF901E0012006E500BF002003E510B51A
:10B750000121C848FFF702FC4FF6FF71C548FEF70C
:10B7600093FF0021C348FEF78DFF00209D49C1F8DB
:10B77000F00010BD10B50121BE48FFF7E6FB01281F
:10B7800008D19848D0F8F0004FF6FF710844954969
:10B79000C1F8F000B748FEF779FF9249D1F8F010F0
:10B7A00008449049C1F8F0000846D0F8F00010BDF8
:10B7B00010B50121AF48FFF7D4FB01280AD1894910
:10B7C000086980470021AB48FEF75CFF6421A94867
:10B7D000FEF75AFF0121A748FFF7D4FB10BD7FB544
:10B7E00004460D4601210420FEF721FBADF8005070
:10B7F0000020ADF802000194ADF8080069469D48AC
:10B80000FEF7F7FE012211469A48FFF793FB01214C
:10B810009848FEF777FF1E208DF80C0003208DF866
:10B820000D008DF80E0001208DF80F0003A8FDF724
:10B8300042FC7FBD10B5044604EBC40000EB0410CD
:10B840000122C2EB800081B24FF47A70FFF7C7FF8C
:10B8500001206449C87510BD30B595B0054613ABDD
:10B8600012AA09A9284600F041FB044614B120465B
:10B8700015B030BD0020149026E05A4909689DF8A3
:10B88000502001EBC20113AB11AA486801A900F0D6
:10B890002DFB04460CB12046EAE709A901A800F0F7
:10B8A00067FA60B99DF844009DF84810884201DDB0
:10B8B0000220DDE79DF850004A4988750AE09DF8AE
:10B8C0005000401CC0B214904648007D9DF85010B6
:10B8D0008842D2DC00BF4348007D9DF8501088426A
:10B8E00001D10420C4E714A9284600F04CFC04460A
:10B8F0000CB12046BCE79DF850003A49487500203D
:10B90000B6E72DE9F0419AB03648847D007DA0422B
:10B9100002DC1AB0BDE8F0813249096801EBC401CC
:10B9200006AB07AA486808A900F0E0FA08A952A0E7
:10B9300001F074F80026B9E02A48008B0121B140DB
:10B940000840D8B122214EA001F068F8304600F03E
:10B950000DFC24492431471839464AA001F05EF80D
:10B96000222147A001F05AF8304600F0FFFB1D49A4
:10B970002431084410A941F826008DE0304600F03B
:10B98000F5FB18492431085810A941F8260015483C
:10B99000C07D30B910A850F826103BA001F03EF849
:10B9A0007AE073E02D2D2D2D2D2D2D2D2D2D2D2DCE
:10B9B0002D2D2D2D2D2D2D2D2D2D2D2D2DBAAFCA0B
:10B9C000FD204944202D2D2D2D2D2D2D2D2D2D2DBE
:10B9D0002D2D2D2D2D2D2D2D2D2D2D2D2D2D2D2D97
:10B9E000200D0A00C40000202573206964206973BB
:10B9F0003A0D0A3058253038580D0A004845583A53
:10BA0000305825580D0A00003136BDF8D6C6B2CEE2
:10BA1000CAFDCFD4CABE210D0A0000004445433AF6
:10BA2000256C750D0A0000003130BDF8D6C6B2CEC7
:10BA3000CAFDCFD4CABE210D0A00000052756E2087
:10BA400054696D652043616C63756C6174696F6ED8
:10BA5000204F4E0D0A00000052756E2054696D652E
:10BA60002043616C63756C6174696F6E204F46464C
:10BA70000D0A0000000800400D0A25732800000090
:10BA80002563000025730000256C750010A850F890
:10BA9000261095A000F0C2FF9DF81C00401EB04289
:10BAA00002D093A000F0BAFF701CC6B29DF81C0033
:10BAB0008642FFF641AF8FA000F0B0FFFFF747FED0
:10BAC0008D48407D0B280DD2DFE800F0060D151ED5
:10BAD00027323F4E5F7287008749096851F834006A
:10BAE0008047054690E0844A126852F83410109856
:10BAF0008847054688E0804B1B6853F83420DDE911
:10BB00001001904705467FE07B4F3F6857F834307F
:10BB100010A807C89847054676E0DFF8DCC1DCF8D6
:10BB200000C05CF8347010A80FC8B84705466BE039
:10BB30001498DFF8C4C10090DCF800C05CF83470E1
:10BB400010A80FC8B84705465EE0DDE91401DFF82C
:10BB5000A8C1CDE90001DCF800C05CF8347010A881
:10BB60000FC8B84705464FE0DDE914121698DFF814
:10BB700088C1CDE900120290DCF800C05CF8347096
:10BB800010A80FC8B84705463EE0DDE91423DDE9FB
:10BB90001610DFF864C1CDE90023CDE90210DCF80E
:10BBA00000C05CF8347010A80FC8B84705462BE0F9
:10BBB000DDE91523DDE91710CDE90123CDE90310F7
:10BBC0001498DFF834C10090DCF800C05CF83470E1
:10BBD00010A80FC8B847054616E0DDE91623DDE9D1
:10BBE0001810CDE90223CDE90410DDE91401DFF8D6
:10BBF00008C1CDE90001DCF800C05CF8347010A881
:10BC00000FC8B847054600BF00BFFFF7B3FD9DF85A
:10BC1000180001280CD13848C07D20B9294637A02A
:10BC200000F0FCFE07E0294636A000F0F7FE02E037
:10BC300033A000F0F3FE304890F8EC0088B12E48B5
:10BC4000D0F8F0000A21B0FBF1F201FB12072A48FC
:10BC5000D0F8F000B0FBF1F83A4641462CA000F0D5
:10BC6000DDFE00BF55E670B53148008800F40040A5
:10BC7000002833D02E48057800202E4948551E480C
:10BC800081682C48884704461CB91B49C86880470E
:10BC900021E02848FFF752FA0546012D00D02C4636
:10BCA000CCB1012C06D0022C08D0032C0AD0042CD5
:10BCB00010D10BE020A000F0B1FE0BE021A000F0BD
:10BCC000ADFE07E022A000F0A9FE03E023A000F0F3
:10BCD000A5FE00BF00BF00201549088070BD0146C9
:10BCE0000868704701607047305825580000000010
:10BCF0002C00000029000000C40000203D256C75C8
:10BD00003B0D0A003D305825583B0D0A000000004D
:10BD100046756E6374696F6E2052756E2054696D3E
:10BD2000653A25642E2531646D730D0A000000000C
:10BD30005C000020DC010020BAAFCAFDB4EDCEF3F8
:10BD4000210D0A00B2CECAFDB4EDCEF3210D0A00DA
:10BD5000B2CECAFDCCABB6E0210D0A00CEB4D5D22E
:10BD6000B5BDC6A5C5E4B5C4BAAFCAFD210D0A006C
:10BD700002460AE010780B78984201D00120704703
:10BD8000107800B902E0521C491CF3E700BF002004
:10BD9000F5E706E002780A70027802B902E0401C7A
:10BDA000491CF7E700BF70470146002005E00A780C
:10BDB00002B903E0421CD0B2491CF8E700BF70474B
:10BDC00010B50246012000E050430B1EA1F1010412
:10BDD000E1B2F9D110BD2DE9F04307460E4600252A
:10BDE0004FF00A083C46002030601FE020783928D8
:10BDF00002DC207830280ADA2078462802DC207815
:10BE0000412804DA2078582809D1012D07D120785B
:10BE1000412801DB4FF01008681CC5B205E020780E
:10BE200000B904E00120BDE8F083641CDEE700BF38
:10BE30003C46B8F1100F0FD1032D01DA0220F2E7D2
:10BE40002078302806D16078582803D1A41CA81E79
:10BE5000C5B204E00320E6E70DB90420E3E71BE0E8
:10BE60000DB1681EC5B22078392806DC207830284C
:10BE700003DB2078A0F1300902E02078A0F1370937
:10BE800029464046FFF79CFF316809FB00103060EF
:10BE9000641C207800B900E0E2E700BF0020C2E7A0
:10BEA00010B50446002010700BE020780870641C68
:10BEB000491C1078401C10701078984201DB01205A
:10BEC00010BD2078202802D020780028EDD1002055
:10BED000087000BFF4E70146491C00E0491C0878DF
:10BEE000202801D10029F9D1087870472DE9FF4FAA
:10BEF00085B08046894600270020049003900120E9
:10BF000002904FF0000B002544461DE020782028C9
:10BF100016D005F07F00052812DA0DB945F080052E
:10BF200005F07F00042803D120782A2800D00EE0F5
:10BF3000207805F07F010DF80100681CC5B202E011
:10BF4000852D00D103E0641C20780028DED100BFDD
:10BF50008DB1002005F07F010DF80100CBA16846EE
:10BF6000FFF706FF18B900210898017002E00121CF
:10BF70000898017000254FF0000A444614E0641C44
:10BF80000AF1010000F0FF0A2078202802D0207872
:10BF90002A2809D12046FFF79EFF0646282E03D007
:10BFA0002A2E01D0CDF810A02078282802D02078A1
:10BFB0000028E4D14446049810B10498401C04447D
:10BFC0004FF0000A002654E0207810B94FF0010A23
:10BFD00050E02078282803D116B9781CC7B213E0A6
:10BFE0002078292808D13EB917B1781EC7B201E0E0
:10BFF0004FF0010A47B93DE02078222804D10EB95C
:10C00000012000E00020064647B9207820282FD0E4
:10C01000207889F8000009F1010929E020782C280E
:10C0200004D101200290681CC5B214E020782028B9
:10C0300011D0207828280ED04DB9BBF1050F06DAB3
:10C0400020780DF80B000BF1010000F0FF0B0298B7
:10C05000401CC0B20290012F0AD10298022807D1D9
:10C060000298401CC0B202900398401CC0B20390DA
:10C07000641CA9E700BF0398012809D100200DF82E
:10C080000B0082A16846FFF773FE08B900200390F9
:10C09000079903980870002089F80000504609B0FD
:10C0A000BDE8F08FF0B503461546002000220026BB
:10C0B000002455E01F782C2F01D104B901221F78EC
:10C0C000292F01D01F780FB904B94AE0002E34D1CE
:10C0D0001F78302F02DB1F78392F11DD1F78612F79
:10C0E00002DB1F78662F0BDD1F78412F02DB1F78E4
:10C0F000462F05DD1F78582F02D01F78782F0CD1DE
:10C1000002B12EE01F78612F03DB1F78203F0F70F4
:10C1100001E01F780F70491C1FE01F78222F04D107
:10C1200002B11EE00126012417E01F78202F14D051
:10C130001F782C2F11D0FF2613E01F78222F00D15B
:10C14000002402B10DE044B11F785C2F02D15B1CCA
:10C15000471CF8B21F780F70491C471CF8B25B1CD3
:10C16000A8E700BF00270F702E70F0BD0246002028
:10C17000002105E0474B5B5C0344D8B24B1CD9B2AD
:10C180009142F7DB70472DE9F043B5B005460F4605
:10C190000024002604E000213E488155701CC6B2F0
:10C1A0000A2EF8DB06E06D1C287818B9012035B09E
:10C1B000BDE8F08328782828F5D16D1C61E034AA09
:10C1C00069462846FFF76EFF064635449DF8D000C5
:10C1D00020B1012827D0FF284CD149E09DF800006C
:10C1E00000B333A96846FFF7F6FD06460EB10220FC
:10C1F000DDE72046FFF7BAFF26490A31339A0A5095
:10C20000A1F12400008B0121A140884321491A3962
:10C21000088304211F480155601CC4B20A2C01DDAB
:10C220000320C4E726E06846FFF7BEFD401C00F08F
:10C23000FF082046FFF79AFF16490A3100EB010973
:10C2400049466846FFF7A5FD12481A38018B0120C0
:10C25000A040014388B20F491A3908830D4800F8FD
:10C260000480601CC4B20A2C01DD03209FE701E0BA
:10C2700002209CE700BF2878292801D0287800B93F
:10C2800000E09CE700BF3C70002090E7766F696497
:10C2900000000000DE0000202DE9F0410024061B14
:10C2A000254671F1000605DA01240027D0EB0700CE
:10C2B00067EB0101161E73F1000605DA0027D2EBC9
:10C2C0000702012567EB030300F024FA86460E46B9
:10C2D00017469C46AC4204D00025D0EB050E65EB1A
:10C2E000010624B10020D2EB000760EB030C70467E
:10C2F00031463A466346BDE8F081D2B201E000F82B
:10C30000012B491EFBD270470022F6E710B51346F9
:10C310000A4604461946FFF7F0FF204610BD30B527
:10C3200004460020034600E05B1C934203D2E05C1D
:10C33000CD5C401BF8D030BD2DE9FE4F804681EA30
:10C340000300C00F0C46009021F0004123F000458F
:10C35000B8EB0200A94105D24046214690461C4652
:10C360000B46024623F00040104347D0270DC7F389
:10C370000A00C3F30A510290401A019040286BDA78
:10C38000C3F3130040F4801B0098924620B10023B1
:10C39000D2EB030A63EB0B0B01985946C0F1400244
:10C3A000504600F0E8F906460D4650465946019AB7
:10C3B00000F000FA10EB08006141002487EA1152F6
:10C3C00084EAE7731A4340D0009A62B3019A012AC3
:10C3D0004FEA075215DC001B61EB02014FF00042EF
:10C3E00002EA0752CDE90042001C41F580113246B5
:10C3F0002B4600F037FA03B0BDE8F08F40462146E7
:10C40000F9E7001B61EB0201001C41F580130018E5
:10C410005B412018A2F5001747EB030140EAD570F5
:10C42000B6196D4111E06D084FEA360645EAC07550
:10C430004FEA0752001B61EB0201001C41F580111D
:10C4400049084FEA30000019514132462B4603B0EB
:10C45000BDE8F04F00F0F7B900980122400000233A
:10C46000D0EB020263EBE073009821464FEAE074E0
:10C47000B8EB000061EB0401E9E783F000435BE700
:10C4800081F0004158E72DE9FE4F81EA030404F0F2
:10C49000004421F0004100944FF0000B23F00043D2
:10C4A00050EA01045ED052EA03045BD0C3F30A549D
:10C4B000C1F30A552C44A4F2F3340194A0FB0254B6
:10C4C000C1F3130141F48011C3F3130343F4801348
:10C4D00001FB024400FB034E840A970A44EA81549C
:10C4E00047EA8357A4FB076802958D0A05FB078579
:10C4F0004FEA932C04FB0C542705029D4FEA065883
:10C5000047EA1637B5EB08056EEB070C870E920E5F
:10C5100047EA811742EA8312A7FB0201B6EB0B013F
:10C5200064EB00042B0D43EA0C335E1844EB1C5003
:10C53000DA465146E7FB0201C5F313044FEA0B3319
:10C5400043EA14534FEA0432019C43EA0603A4F180
:10C550000C040294009CCDE900B400F083F903B010
:10C56000BDE8F08F00200146F9E72DE9F04D81EAA2
:10C57000030404F0004B21F0004514464FF0000A7C
:10C5800023F0004150EA050220D054EA01021DD0F8
:10C59000C5F30A570246C5F31303C1F31300C1F3F1
:10C5A0000A5640F4801543F48013A7EB0608101BCD
:10C5B000D64608F2FD3873EB050002D308F10108F6
:10C5C00001E092185B41B8F1000F03DA0020014648
:10C5D000BDE8F08D00204FF48011064684460EE041
:10C5E000171B73EB050705D3121B63EB050306430B
:10C5F0004CEA010C49084FEA300092185B4150EABE
:10C600000107EDD152EA030012D082EA040083EA66
:10C610000501084305D0101BAB4106D201220023BF
:10C6200006E000224FF0004302E06FF001025310D9
:10C630001AEB06004CEB085110EB0A0041EB0B0122
:10C64000BDE8F04D00F0FFB80EB5C10F80EAE07014
:10C650000844CA07002140F233438DE80E000A4621
:10C660000B4600F0FFF803B000BD0EB540F23341B9
:10C6700002910021CDE900110A460B4600F0F2F8C4
:10C6800003B000BDC1F30A5210B5C1F3130140F26B
:10C69000FF3341F480119A4201DA002010BD40F2CC
:10C6A00033439A42A2F2334203DC524200F072F862
:10C6B00010BD904010BD00F0004230F000400AD0A4
:10C6C000C10D01F56071C0F3160042EA0151C208C4
:10C6D00040071143704700200146704701F00043B6
:10C6E00030B421F0004150EA010206D00A0DA2F553
:10C6F0006072C1F31301002A02DC30BC00207047D5
:10C70000440F44EAC104C100E01830BC00EBC25041
:10C7100000F062B82DE9F05F0546002092469B4686
:10C7200088460646814640241BE028464146474647
:10C73000224600F02FF853465A46C01A914110D3B2
:10C7400011461846224600F016F82D1A67EB01082C
:10C750004F4622460120002100F00DF817EB00099A
:10C760004E41201EA4F10104DFDC484631462A4632
:10C770004346BDE8F09F202A04DB203A00FA02F18C
:10C78000002070479140C2F1200320FA03F31943BF
:10C7900090407047202A04DB203A21FA02F0002161
:10C7A000704721FA02F3D040C2F1200291400843C1
:10C7B00019467047202A06DBCB17203A41FA02F0CF
:10C7C00043EAE07306E041FA02F3D040C2F12002EE
:10C7D00091400843194670470029A8BF7047401C84
:10C7E000490008BF20F00100704710B4B0FA80FC87
:10C7F00000FA0CF050EA010404BF10BC704749B1C4
:10C80000CCF1200421FA04F411FA0CF118BF012133
:10C8100021430843A3EB0C01CB1D4FEA00614FEA13
:10C82000102042BF002010BC704700EBC3501044E2
:10C830000029A4BF10BC7047401C490008BF20F06D
:10C84000010010BC704710B5141E73F1000408DA23
:10C85000401C41F1000192185B411A4301D120F0C4
:10C86000010010BD2DE9F04D92469B4611B1B1FA81
:10C8700081F202E0B0FA80F220329046FFF77BFFAF
:10C8800004460F4640EA0A0041EA0B0153465A4665
:10C89000084313D0114653EA010019D0C8F14002F1
:10C8A0005046FFF777FF05460E465046594642462A
:10C8B000FFF761FF084305D0012004E02046394618
:10C8C000BDE8F08D0020054346EAE0762C4337436F
:10C8D0000A986305E40AA0EB08000022FD0A44EA76
:10C8E00047540A3002D500200146E9E70105101936
:10C8F0006941DDE9084500196941BDE8F04DA2E74D
:10C90000064C074D06E0E06840F0010394E807009C
:10C9100098471034AC42F6D3F3F73AFC74FF0008A2
:10C9200094FF00082DE9F04D00231A461B1A8A4196
:10C9300003DB00200146BDE8F08DC1F30A52C1F3CC
:10C94000130141F480154FF0000BD10702D10018FC
:10C950006D41521E0027044640F2FF11384601EB9C
:10C96000620A3E468046024600204FF48011FFF7DF
:10C9700011FFC2197141BB1846EB0100B4EB030C67
:10C9800075EB000C04D3E41A65EB000517460E4660
:10C99000241908F101006D4180463428E3DDF919BE
:10C9A00046EB0600091BA84103D24FF0FF321346A5
:10C9B00001E0002213461BEB070046EB0A51BDE8DD
:10C9C000F04DFFF740BF70B58C1810F8015B15F003
:10C9D000070301D110F8013B2A1106D110F8012BF1
:10C9E00003E010F8016B01F8016B5B1EF9D12B0716
:10C9F00005D40023521E0DD401F8013BFAE710F8CC
:10CA0000013BCB1A921C03E013F8015B01F8015BB8
:10CA1000521EF9D5A142D8D3002070BD0FB4054BEA
:10CA200010B503A9044A029800F0FCFC10BC5DF8A4
:10CA300014FB0000458F00085800002003B4019843
:10CA40004100009850EAC12018BF04204A0D18BFC9
:10CA500040F0010040F2FF72B2EB515F08BF40F0BE
:10CA60000200012808BF052002B070470000000046
:10CA700070B5C1482DED020B2DED0E8B82B0119DCE
:10CA800025F000449FEDBEDB9FEDBFEB84423EDB13
:10CA9000A4F140511098A1F17F6108430FD0BC4828
:10CAA000844202DC28D1109830B39DED100B02B007
:10CAB000BDEC0E8B02B0BDE8704000F069BC9DED8E
:10CAC000100B53EC1D2B51EC100BFFF7DCFC9DED14
:10CAD000100B41EC180B53EC1E2B51EC100BFFF715
:10CAE000D2FC53EC182BFFF727FC41EC100B02B0E3
:10CAF000BDEC0E8B02B070BD012000F08DFC02B0C9
:10CB0000BDEC0E8B02B0BDE8704000F055BCA148F2
:10CB10009FEDA18B844256DA9DED100BB4F1795F45
:10CB20000ADA51EC100BFFF789FF042808BF00F068
:10CB300053FC9DED100BDAE753EC102B51EC100B6E
:10CB4000FFF7A1FC41EC190B95480621B0EE490A0C
:10CB5000F0EE690A784400F09FFB53EC192B51EC7E
:10CB6000100BFFF790FC41EC1A0B8E48B0EE490A0F
:10CB7000F0EE690A0421784400F08EFB53EC192B87
:10CB800051EC100BFFF77FFC53EC182BFFF7D4FB95
:10CB900041EC100B51EC1A0B53EC102BFFF7E5FC9A
:10CBA000CDE900019DED000B53EC102B9DED100B1A
:10CBB00051EC100BFFF767FC9DED101B53EC112B94
:10CBC000FFF7BAFBD2E09DED100B51EC100B00F01B
:10CBD00062FE53EC182BFFF753FC9FED730BCDE96E
:10CBE000000153EC102B9DED000B51EC100BFFF7E7
:10CBF0004AFC41EC190B6E480621B0EE490AF0EEF2
:10CC0000690A784400F048FB53EC192B51EC100BE7
:10CC1000FFF739FC41EC1B0B6648B0EE490AF0EE19
:10CC2000690A0421784400F037FB53EC192B51ECCE
:10CC3000100BFFF728FC53EC182BFFF77DFB41ECA2
:10CC40001C0B51EC190B00F032FE41EC180B5A484A
:10CC50009FED5BABA04222DC53EC1C2B51EC1B0B79
:10CC6000FFF783FCCDE900019DED000B51EC180BA3
:10CC700053EC102BFFF707FC53EC182BFFF75CFB72
:10CC800053EC1A2BFFF7FFFB53EC1D2BFFF7F5FBC3
:10CC900053EC1E2BFFF7F4FB41EC100B5FE08DED26
:10CCA000008B002000909DED000B51EC180B53EC15
:10CCB000102BFFF741FB9DED000B41EC1E0B53ECDD
:10CCC000102B51EC100BFFF7DEFB53EC192BFFF789
:10CCD000D7FB53EC1E2BFFF748FC41EC190B53EC30
:10CCE0001C2B51EC1B0BFFF740FC41EC1B0B53ECD6
:10CCF0001A2B51EC190BFFF7C6FB53EC1D2BFFF75A
:10CD0000BFFB41EC190B53EC1A2B51EC180BFFF73E
:10CD1000BAFB53EC1B2BFFF7B6FB53EC192BFFF7B9
:10CD2000ACFB9DED000B41EC180B53EC1A2B51ECB6
:10CD3000100BFFF7A8FB9FED249B53EC192BFFF77B
:10CD40009FFB41EC100B51EC180B53EC102BFFF731
:10CD500094FB53EC192BFFF793FB41EC100B002DC8
:10CD60003FF7C5AE51EC100B81F0004141EC100BC8
:10CD7000BDE60000000000000000F03F00000000E1
:10CD8000075C143326A6913C182D4454FB21F93F2F
:10CD90000000F07F0000E03F000000000000F03FD6
:10CDA000E8310000F6310000000000000000E03F24
:10CDB0003A310000483100003333EF3F00000000FB
:10CDC0000000000000000040182D4454FB21E93F02
:10CDD00070B59B482DED020B2DED068B079D25F0C0
:10CDE0000044A04218DC9748844202DC0AD106982D
:10CDF00040B19DED060BBDEC068B02B0BDE8704066
:10CE000000F0C6BA002DCCBF9FED8F0B9FED900BAD
:10CE1000BDEC068B02B070BD8F48A04215DD8F4877
:10CE2000A042D8BF4FF0FF3458DD9DED060B51EC0A
:10CE3000100BFFF703FE042808BF00F0CDFA9DEDAC
:10CE4000060BBDEC068B02B070BD9DED060B51ECE0
:10CE5000100B00F020FDCDE9060181489FED828B8B
:10CE6000A0423CDD8248A0421FDD00249FED82AB42
:10CE70009DED060B53EC1A2B51EC100BFFF75CFAEF
:10CE80009DED060B41EC190B53EC1A2B51EC100BDA
:10CE9000FFF7F9FA53EC182BFFF7EFFA53EC192BC5
:10CEA000FFF763FBCDE9060149E09DED060B012488
:10CEB00053EC182B51EC100BFFF73EFA9DED060BCF
:10CEC00041EC190B53EC182B51EC100BFFF7D5FA72
:10CED00053EC192BFFF749FBCDE906012FE0684819
:10CEE000A0421FDD02249FED689B9DED060B53ECD5
:10CEF000192B51EC100BFFF7C6FA53EC182BFFF768
:10CF00001BFA9DED060B41EC180B53EC192B51EC61
:10CF1000100BFFF7B2FA53EC182BFFF726FBCDE905
:10CF200006010CE09DED060B032453EC102B9FED46
:10CF3000580B51EC100BFFF718FBCDE906019DEDE6
:10CF4000060B53EC102B51EC100BFFF79CFA41EC45
:10CF5000180B53EC182BFFF796FA41EC190B4E48BF
:10CF60000621B0EE490AF0EE690A784400F094F91F
:10CF700053EC182B51EC100BFFF785FA41EC180B12
:10CF80004648B0EE490AF0EE690A0521784400F0FF
:10CF900083F953EC192B51EC100BFFF774FA41ECA9
:10CFA000100B51EC180B53EC102B002C0EDAFFF782
:10CFB000C3F99DED061B53EC112BFFF764FA9DEDB1
:10CFC000061B53EC112BFFF75BFA35E0FFF7B4F9C2
:10CFD0009DED061B53EC112BFFF755FA41EC100B9E
:10CFE0002F48784400EBC40090ED001B51EC100B6F
:10CFF00053EC112BFFF741FA9DED061B53EC112B5F
:10D00000FFF73BFA41EC100B2648784400EBC400D4
:10D0100090ED001B51EC100B53EC112BFFF730FA85
:10D0200041EC100B002DA2BFBDEC068B02B070BD11
:10D0300051EC100B81F0004141EC100B01E70000B6
:10D04000000010440000F07F182D4454FB21F93FEC
:10D05000182D4454FB21F9BF0000DC3F0000203EA6
:10D060000000F33F00000000000000000000F03F5F
:10D070000000E63F0000000000000000000000404B
:10D080000080034000000000000000000000F83FA6
:10D09000000000000000F0BF8A2E0000402E0000BB
:10D0A000CA2D0000822D000070B56B4E2DED040BD3
:10D0B0002DED028B82B0DDF81CC0DDE905235C425A
:10D0C0002CF000411C4341EAD474049D22F000403E
:10D0D000B44205D86C422C4340EAD474B4420BD914
:10D0E0009DED061B9DED040B02B0BDEC028B04B060
:10D0F000BDE8704000F056B9ACF14054A4F17F6433
:10D100001C430BD0022404EAAC7444EAD2740543F5
:10D110009FED538B9FED542B07D015E09DED040B35
:10D1200051EC100B00F0AFFB42E0002C11BF012CC2
:10D130009DED040B02B0BDEC028B04BF04B070BDCA
:10D14000022C38D0032C3BD00B439FED491B9FEDA5
:10D150004A0B0AD0B14218D1B04209D121F0804126
:10D1600020F08040079105900FE0002A15DA10E0CA
:10D17000434B7B44002C08BF93ED000B0DD0012CDA
:10D1800010D0022C17D0032C1AD0B0421DD1002A87
:10D1900003DAB0EE410AF0EE610A02B0BDEC028B98
:10D1A00004B070BD93ED000B51EC100B81F0004109
:10D1B00041EC100BF1E7B0EE480AF0EE680AECE73C
:10D1C000B0EE420AF0EE620AE7E7401A00153C288A
:10D1D000C8BF8DED000B19DCBCF1000FBEBF10F114
:10D1E0003C0F9FED290B8DED000B0FDB9DED060B2A
:10D1F00053EC102B9DED040B51EC100BFFF7B5F920
:10D2000000F049FB00F03FFBCDE90001002C08BF16
:10D210009DED000BC1D0012C10D0022C9FED1C0BFA
:10D2200053EC102B9DED000B51EC100B0DD0FFF7C4
:10D2300024F953EC182BFFF720F9B9E7019880F097
:10D24000004001909DED000BA7E7FFF716F953ECA6
:10D25000182BFFF715F9ABE70000F07F0000000086
:10D26000182D4454FB210940182D4454FB2109C0BA
:10D27000182D4454FB21F9BF182D4454FB21F93FCC
:10D28000B22C0000000000000000000000000000C0
:10D29000075C143326A6A13C70B504462DED028B25
:10D2A0004D1E00EBC500B0EE408AF0EE608A90EDB6
:10D2B000000B35F0060017D053EC182B51EC100B77
:10D2C000FFF7E1F841EC100B6D1E04EBC50090ED8B
:10D2D000001B51EC100B53EC112BFFF72DF841EC18
:10D2E000100B35F00600E7D1022D36D0042D1CD0EE
:10D2F000062D1CBFBDEC028B70BD53EC182B51ECFE
:10D30000100BFFF7C0F894ED0A1B53EC112BFFF73D
:10D3100013F853EC182BFFF7B6F894ED081B53ECF9
:10D32000112BFFF709F841EC100B53EC182B51ECC3
:10D33000100BFFF7A8F894ED061B53EC112BFEF72A
:10D34000FBFF53EC182BFFF79EF894ED040B53EC06
:10D35000102BFEF7F1FF41EC100B53EC182B51ECA6
:10D36000100BFFF790F894ED021B53EC112BFEF716
:10D37000E3FF53EC182BFFF786F894ED001B53ECFA
:10D38000112BFEF7D9FFBDEC028B41EC100B70BDE9
:10D3900010B553EC102B51EC100BFEF7CDFF41EC08
:10D3A000100B10BD10B553EC112B51EC100BFEF708
:10D3B000C3FF41EC100B10BD9FED050B10B553ECF6
:10D3C000102B51EC100BFFF7D0F841EC100B10BDF7
:10D3D00000000000000000009FED050B10B553ECAD
:10D3E000102B51EC100BFFF74EF841EC100B10BD59
:10D3F000000000000000001002E008C8121F08C171
:10D40000002AFAD170477047002001E001C1121FC5
:10D41000002AFBD1704700000149086070470000F6
:10D42000B80100202DE9FF4F8DB00F4605460026BC
:10D4300006E025280BD0DDE90F1290476D1C761C05
:10D4400028780028F5D111B03046BDE8F08F0024CF
:10D45000A246A1460122EC4900E0044315F8013F31
:10D46000203B02FA03F00842F7D128782A2810D08E
:10D470006FF02F022878A0F13001092914D80AEBA7
:10D480008A0102EB410144F0020400EB010A6D1C29
:10D49000F0E701CF5FEA000A03D544F40054CAF173
:10D4A000000A44F002046D1C28782E2817D115F8C4
:10D4B000010F44F004042A280ED06FF02F022878C0
:10D4C000A0F1300109290AD809EB890102EB4101D9
:10D4D00000EB01096D1CF2E757F8049B6D1C2878DE
:10D4E0006C280FD006DC4C2817D068280DD06A288D
:10D4F00014D104E0742810D07A280FD10DE044F440
:10D5000000140AE044F4801401E044F44014697803
:10D51000814202D104F580146D1C6D1C2A786E2A9C
:10D520001FD00CDC632A31D004DC002A8BD0582AAF
:10D5300011D1A3E0642A68D0692A0CD165E0732A6E
:10D540002ED004DC6F2A73D0702A04D19BE0752A98
:10D550006FD0782A6ED01046DDE90F129047761C06
:10D5600050E1C4F30250022806D0032809D0042851
:10D5700001CF09D0066045E101CFF117C0E9006194
:10D5800040E101CF06803DE106703BE117F8040B56
:10D590008DF8000000208DF80100EB46012003E02B
:10D5A00057F804BB4FF0FF3061074FF0000102D481
:10D5B0000DE008F10101884649450FDA8045F8DBA6
:10D5C0001BF808100029F4D108E008F10101884691
:10D5D0008142FADB1BF808100029F6D1DDE90F23A0
:10D5E000AAEB08008146214600F036F9304400EBF2
:10D5F000080604E0DDE90F121BF8010B9047B8F1B3
:10D600000108F7D221464846F7E00A21C4F3025345
:10D610004FF0000B0891022B04D001CFC117032B50
:10D6200009D00AE0FF1D27F00707F7E8020108E02C
:10D6300032E01FE020E000B2C117042B01D140B25C
:10D64000C117031E71F1000307DA4FF0000CD0EB95
:10D650000C006CEB01012D2302E0230504D52B23E4
:10D660008DF82430012303E0E30701D02023F7E7FE
:10D67000984658E00A2110E010210EE010204FF0EB
:10D68000000B08900CE010214FF0000B44F0040454
:10D690004FF00809089103E008214FF0000B0891B2
:10D6A000C4F30253022B04D001CF0021032B06D078
:10D6B00006E0FF1D27F00707F7E8020103E080B24C
:10D6C000042B00D1C0B24FF0000823072BD5702ADD
:10D6D00007D0DDF820C08CF0100C5CEA0B0C05D0F4
:10D6E0000EE040238DF82430012308E050EA0103C6
:10D6F00006D030238DF824308DF82520022398465B
:10D70000DDF820C08CF0080C5CEA0B0C0BD150EA61
:10D71000010301D1630706D530238DF824304FF083
:10D720000108A9F10109582A04D038A20B9208AACD
:10D730000A920BE03AA2F9E75B46089AFEF7EAFF85
:10D740000B9B9B5C0A9A521E0A92137050EA0102CC
:10D75000F2D10A98ADEB000000F1200B600702D572
:10D7600024F4803401E04FF00109D94502DDA9EB32
:10D770000B0000E0002000EB0B0141440890AAEBF5
:10D78000010AE00306D4DDE90F232146504600F0EC
:10D7900063F806444FF0000908E009A911F80900F0
:10D7A000DDE90F12904709F10109761CC145F4DB50
:10D7B000E0030CD5DDE90F232146504600F04CF87C
:10D7C000064404E0DDE90F1230209047761C0899EA
:10D7D000481E08900029F5DC08E00A980A990078AC
:10D7E000491C0A91DDE90F129047761CBBF100013C
:10D7F000ABF1010BF1DC21465046DDE90F2300F0CF
:10D8000019F806446D1C1BE609280100303132333B
:10D81000343536373839616263646566000000006C
:10D820003031323334353637383941424344454656
:10D83000000000002DE9F041044600251E46174671
:10D84000880404D405E039462020B0476D1C641ECE
:10D85000F9D52846BDE8F0812DE9F04104460025C0
:10D860001E469046C80301D5302700E020278804D3
:10D8700004D505E041463846B0476D1C641EF9D515
:10D880002846BDE8F08110B541EC100BFFF7A0FA77
:10D8900051EC100B10BD82B0CDE9000121F0004029
:10D8A00001909DED000B02B051EC100B704700B5DC
:10D8B0002DED048B83B041EC190BFFF733F841ECED
:10D8C000180B18EE100A18EE901A8DED008B002838
:10D8D00018BF0120084320F00040C0F17F6000F134
:10D8E000E040C00F14D019EE101A19EE900A8DED19
:10D8F000009B002918BF0121084320F00040C0F11F
:10D900007F6000F1E040C00F04BF0120FFF784FDFD
:10D9100051EC180B03B0BDEC048B00BD00000000FF
:10D920000000000000000000000000003F40000078
:10D930000000000000003000400030004000000007
:10D9400009000BC03D000BC03D00090018C0244079
:10D950007FE0224031800000180024C01B000D80B1
:10D960003240018003801C4027401C80074000405B
:10D970001000600000000000000000000000000037
:10D9800000001F80204040200000402020401F80D9
:10D9900000000000090006001F80060009000000CA
:10D9A000040004003F800400040000000010006038
:10D9B0000000000000000000040004000400040057
:10D9C0000400000000000040000000000000000013
:10D9D000002001C006003800400000001F802040E9
:10D9E000204020401F800000000010403FC0004049
:10D9F0000000000018C021402240244018400000D0
:10DA000010802040244024401B80000002000D00B4
:10DA100011003FC0014000003C80244024402440CD
:10DA2000238000001F8024402440344003800000F5
:10DA30003000200027C03800200000001B80244058
:10DA4000244024401B8000001C0022C022402240B1
:10DA50001F800000000000000840000000000000DF
:10DA6000000000000460000000000000000004004E
:10DA70000A00110020804040090009000900090047
:10DA80000900000000004040208011000A0004004E
:10DA90001800200023402400180000001F802040B0
:10DAA000274029401F400000004007C039000F00F8
:10DAB00001C0004020403FC0244024401B800000A3
:10DAC0001F802040204020403080000020403FC088
:10DAD000204020401F80000020403FC024402E40B6
:10DAE00030C0000020403FC024402E003000000025
:10DAF0000F001080204022403380020020403FC0B1
:10DB0000040004003FC02040204020403FC020408F
:10DB1000204000000060202020203FC02000200086
:10DB200020403FC024400B0030C0204020403FC078
:10DB300020400040004000C03FC03C0003C03C000B
:10DB40003FC0000020403FC00C4023003FC02000E9
:10DB50001F802040204020401F80000020403FC008
:10DB600024402400180000001F802140214020E0B4
:10DB70001FA0000020403FC02440260019C00040E4
:10DB800018C0244024402240318000003000204052
:10DB90003FC020403000000020003F800040004097
:10DBA0003F80200020003E0001C007003800200018
:10DBB000380007C03C0007C038000000204039C0D2
:10DBC000060039C0204000002000384007C038401F
:10DBD00020000000304021C02640384020C0000016
:10DBE000000000007FE040204020000000007000A6
:10DBF0000C000380004000000000402040207FE037
:10DC00000000000000002000400020000000000094
:10DC100000100010001000100010001000000000A4
:10DC200040000000000000000000028005400540A8
:10DC300003C0004020003FC00440044003800000B7
:10DC40000000038004400440064000000000038000
:10DC5000044024403FC000400000038005400540D0
:10DC600003400000000004401FC024402440200066
:10DC7000000002E0055005500650042020403FC03F
:10DC80000440040003C000400000044027C00040DE
:10DC90000000000000100010041027E00000000049
:10DCA00020403FC00140070004C004402040204005
:10DCB0003FC000400040000007C0040007C004004F
:10DCC00003C00000044007C00440040003C000403B
:10DCD000000003800440044003800000041007F0AB
:10DCE00004500440038000000000038004400450FE
:10DCF00007F00010044007C00240040004000000C8
:10DD0000000006400540054004C00000000004007B
:10DD10001F800440004000000400078000400440D1
:10DD200007C000400400070004C001800600040092
:10DD3000060001C0070001C006000000044006C044
:10DD4000010006C0044000000410071004E0018038
:10DD5000060004000000044005C006400440000026
:10DD60000000000004007BE04020000000000000F4
:10DD70000000FFF000000000000040207BE00400F5
:10DD80000000000040008000400020002000400013
:10DD90000000000000000000000000000000000083
:10DDA0000000000000001FCC000C0000000000007C
:10DDB0000000080030006000080030006000000033
:10DDC000022003FC1E20022003FC1E200220000073
:10DDD00000000E1811043FFF10840C7800000000B2
:10DDE0000F0010840F3800C00778188400780000F6
:10DDF00000780F8410C411240E9800E400840008F9
:10DE00000800680070000000000000000000000032
:10DE100000000000000007E0181820044002000085
:10DE2000000040022004181807E000000000000075
:10DE30000240024001800FF00180024002400000D9
:10DE40000080008000800FF80080008000800000CB
:10DE50000001000D000E00000000000000000000A6
:10DE60000000008000800080008000800080008032
:10DE70000000000C000C000000000000000000008A
:10DE80000000000600180060018006001800200055
:10DE9000000007F0080810041004080807F000004C
:10DEA0000000080408041FFC000400040000000037
:10DEB00000000E0C10141024104411840E0C0000ED
:10DEC00000000C1810041104110412880C700000DA
:10DED000000000E00320042408241FFC00240000AC
:10DEE00000001F98108411041104108810700000A5
:10DEF000000007F008881104110418880070000061
:10DF000000001C00100010FC13001C00100000009A
:10DF100000000E3811441084108411440E380000A3
:10DF200000000700088C10441044088807F0000027
:10DF3000000000000000030C030C000000000000C3
:10DF400000000000000101060000000000000000C9
:10DF500000000080014002200410080810040000A6
:10DF600002200220022002200220022002200000C3
:10DF70000000100408080410022001400080000086
:10DF800000000E001200100C106C10800F0000003A
:10DF900003E00C1813E4142417C4082807D0000069
:10DFA0000004003C03C41C40074000E4001C0004C3
:10DFB00010041FFC1104110411040E8800700000ED
:10DFC00003E00C1810041004100410081C100000CA
:10DFD00010041FFC100410041004080807F00000CF
:10DFE00010041FFC1104110417C4100408180000C9
:10DFF00010041FFC1104110017C0100008000000DD
:10E0000003E00C181004100410441C7800400000B9
:10E0100010041FFC10840080008010841FFC10047A
:10E020000000100410041FFC100410040000000085
:10E0300000030001100110011FFE1000100000007D
:10E0400010041FFC110403801464181C1004000049
:10E0500010041FFC1004000400040004000C000065
:10E0600010041FFC1F0000FC1F001FFC1004000018
:10E0700010041FFC0C04030000E010181FFC10002B
:10E0800007F00808100410041004080807F0000046
:10E0900010041FFC10841080108010800F000000FE
:10E0A00007F0081810241024101C080A07F20000BA
:10E0B00010041FFC1104110011C011300E0C0004DB
:10E0C00000000E1C11041084108410441C38000041
:10E0D0001800100010041FFC1004100018000000AD
:10E0E00010001FF810040004000410041FF81000B2
:10E0F00010001E0011E0001C007013801C001000B6
:10E100001FC0103C00E01F0000E0103C1FC00000DA
:10E110001004180C163401C001C01634180C100479
:10E1200010001C00130400FC13041C00100000006D
:10E130000804101C1064108413041C041018000040
:10E140000000000000007FFE40024002400200008C
:10E15000000030000C0003800060001C0003000081
:10E1600000004002400240027FFE0000000000006C
:10E17000000000002000400040004000200000009F
:10E180000001000100010001000100010001000187
:10E1900000004000400020000000000000000000DF
:10E1A00000000098012401440144014400FC0004E3
:10E1B00010001FFC008801040104008800700000AA
:10E1C00000000070008801040104010400880000C0
:10E1D0000000007000880104010411081FFC000405
:10E1E000000000F8014401440144014400C800005B
:10E1F0000000010401040FFC1104110411001800B7
:10E20000000000D601290129012901C901060000E9
:10E2100010041FFC008401000100010400FC000444
:10E2200000000104190419FC0004000400000000AF
:10E230000000000300010101190119FE00000000A7
:10E2400010041FFC0024004001B4010C0104000074
:10E250000000100410041FFC000400040000000073
:10E26000010401FC0104010001FC0104010000FCA7
:10E27000010401FC008401000100010400FC000411
:10E28000000000F8010401040104010400F800008A
:10E29000010101FF008501040104008800700000F5
:10E2A00000000070008801040104010501FF000165
:10E2B0000104010401FC008401040100018000004C
:10E2C000000000CC01240124012401240198000055
:10E2D00000000100010007F8010401040000000033
:10E2E000010001F8000400040004010801FC00041E
:10E2F000010001800170000C00100160018001002C
:10E3000001F0010C003001C00030010C01F00100EF
:10E3100000000104018C00740170018C01040000F4
:10E32000010101810171000E0018016001800100EE
:10E3300000000184010C013401440184010C00003F
:10E34000000000000000000001003EFC400240020E
:10E350000000000000000000FFFF000000000000BF
:10E360000000400240023EFC0100000000000000EE
:10E37000000060008000800040004000200020007D
:10E38000000000000000000000000000000000008D
:10E39000000000000000000000000000000000007D
:10E3A000000000000000000000000000000000006D
:10E3B0000000000F80380FFE380F8038000000008A
:10E3C000000000000000000000000000000001004C
:10E3D000000600000C0000380000310000060000BC
:10E3E0000C000038000030000000000000000000B9
:10E3F00061800067F807F98000618000618000613A
:10E40000800061800067F807F980006180000000EB
:10E4100000000000000001C0E003E0F00630080446
:10E4200018081FFFFE040E080787F00381E00000B4
:10E430000000000001F000060C00040408060C7047
:10E4400001F9C0000E00003BE000EC1807080804CA
:10E450000C180003E00000000001E00007F003F8E2
:10E4600018041C0804170807E1D003C0E00023B01B
:10E47000003C08002008000010000000000000011F
:10E4800000003100003200001C000000000000000D
:10E49000000000000000000000000000000000007C
:10E4A000000000000000000000000000000000006C
:10E4B0007F0001FFC00780F00C001810000420004E
:10E4C000020000000000002000021000040C0018F0
:10E4D0000780F001FFC0007F000000000000000086
:10E4E0000000000000000000000000004200006684
:10E4F00000006600003C0000180003FFC000180088
:10E50000003C0000660000660000420000000000C1
:10E51000080000080000080000080000080001FFD3
:10E52000C000080000080000080000080000080003
:10E5300000000000000100003100003200001C005B
:10E5400000000000000000000000000000000000CB
:10E5500000000000000000000800000800000800A3
:10E560000008000008000008000008000008000083
:10E57000080000080000000000000000000000008B
:10E5800038000038000038000000000000000000E3
:10E59000000000000000000000000000000000007B
:10E5A000000600001C000070000180000E00003812
:10E5B0000000C0000700001C000030000000000048
:10E5C000000000007F8001FFE00380700600180457
:10E5D000000804000806001803807001FFE0007FB7
:10E5E0008000000000000000000001000801000899
:10E5F00001000803FFF807FFF8000008000008000A
:10E60000000800000000000000000001C03802C047
:10E6100058040098040118040218040418061C1871
:10E6200003F81801E0F800000000000000000001FD
:10E63000C0E003C0F0040008040808040808061835
:10E640000803F41801E7F00001E0000000000000FA
:10E65000000000000300000D000011000061000038
:10E66000810803010807FFF80FFFF8000108000107
:10E67000080000000000000000E007FCD0060808C9
:10E68000061008061008061008061838060FF006CF
:10E6900007C0000000000000000000003F8001FFF4
:10E6A000E00384300208180410080410080410085D
:10E6B000071810030FF00007C00000000000000062
:10E6C000000003C0000700000600000600F806076F
:10E6D000F806180006E00007000006000000000031
:10E6E00000000001E1E003F7F0063410041808040C
:10E6F0001808040C08040C0806161803F3F001C1EE
:10E70000E000000000000000F80003FC30030638C1
:10E710000402080402080402080404100308F001BB
:10E72000FFC0007F000000000000000000000000AB
:10E7300000000000000000007038007038007038E1
:10E7400000000000000000000000000000000000C9
:10E75000000000000000000000000000301A00303F
:10E760001C0000000000000000000000000000008D
:10E77000000000000000000800001400002200005B
:10E7800041000080800100400200200400100800C9
:10E79000080000000000000021000021000021000E
:10E7A00000210000210000210000210000210000C4
:10E7B000210000210000000000000000000008000F
:10E7C0000804001002002001004000808000410089
:10E7D00000220000140000080000000000000003F8
:10E7E000C00004C000040000080038080F38080802
:10E7F000380810000C300007E00003C000000000E3
:10E80000000000003F8000FFE0038070020F100650
:10E81000708804C088048308047F8802C0900301C4
:10E820002000FE400000080000180001F8003E082B
:10E8300001C20007020007E20000FE00001FC8003E
:10E8400001F800003800000804000807FFF807FF7F
:10E85000F80408080408080408080408080618084A
:10E8600003F41801E7F00001E000000000000000E0
:10E870003F8001FFE00380700200180400080400DC
:10E88000080400080400100600200780C0000000F3
:10E8900004000807FFF807FFF80400080400080454
:10E8A000000804001802001003807001FFE0007FE0
:10E8B0008000000004000807FFF807FFF8040808BC
:10E8C000040808040808040808043E0804000806B0
:10E8D000001801006000000004000807FFF807FFAF
:10E8E000F8040808040800040800040800043E00B6
:10E8F000060000060000018000000000000000008B
:10E900003F8001FFE0038070060018040008040245
:10E91000080402080203F00783F00002000002006E
:10E9200004000807FFF807FFF804080800080000C3
:10E93000080000080000080004080807FFF807FFA7
:10E94000F8040008000000000000040008040008AB
:10E9500004000807FFF807FFF80400080400080493
:10E960000008000000000000000000000006000099
:10E970000700000104000104000104000307FFFE7A
:10E9800007FFFC0400000400000400000400080766
:10E99000FFF807FFF8040C08001800003E0004C749
:10E9A000800503C80600F8040038040018000008B9
:10E9B00004000807FFF807FFF8040008000008003B
:10E9C000000800000800000800000800001800000F
:10E9D0006000000004000807FFF807800807FC003B
:10E9E000007FC00003F80007C00078000780080718
:10E9F000FFF807FFF804000804000807FFF8070005
:10EA00000803C00000E000003800001E00000700FE
:10EA10000001C00400F007FFF8040000000000003F
:10EA20007F8001FFE00380700600180400080400E6
:10EA30000806001803003001FFE0007F800000009E
:10EA400004000807FFF807FFF804040804040004A2
:10EA50000400040400040400060C0003F80001F0A4
:10EA600000000000000000007F8001FFE0038070D4
:10EA70000600880400880400C806003C03003E012C
:10EA8000FFE6007F8400000004000807FFF807FF8E
:10EA9000F8040808040800040C00040F00040BC06C
:10EAA0000610F003F03801E0080000080000000143
:10EAB000E0F803F030063010041808041808040CBD
:10EAC00008040C080206180207F00781E0000000A5
:10EAD0000180000600000400000400000400080794
:10EAE000FFF807FFF8040008040000040000060017
:10EAF0000001800004000007FFE007FFF004001899
:10EB000000000800000800000800000800000804D9
:10EB1000001007FFE004000004000006000007E00A
:10EB20000007FE00041FE00001F80000380001E0CB
:10EB3000043E0007C00006000004000004000007B7
:10EB4000E00007FFC0041FF80007C007F80007FF38
:10EB500080043FF80007C004F8000700000400002C
:10EB600000000004000806001807C07805F1C8007E
:10EB70003E00001F800463E80780F80600180400C8
:10EB80000800000004000006000007800007E008FD
:10EB9000047C08001FF80007F800180804E00807C4
:10EBA000000006000004000000000001000806004C
:10EBB000380400F80403E8040F08047C0805F00892
:10EBC00007C00807001804006000000000000000F3
:10EBD00000000000000000000000003FFFFE2000D9
:10EBE000022000022000022000022000020000009B
:10EBF00000000000000008000007000000C0000046
:10EC000038000006000001C000003000000E0000C7
:10EC100001000000000000000000200002200002AF
:10EC20002000022000022000023FFFFE0000000042
:10EC300000000000000000000000000000000000D4
:10EC4000000800001000003000002000003000002C
:10EC5000100000080000000000000000000001009B
:10EC6000000100000100000100000100000100009F
:10EC7000010000010000010000010000010000018E
:10EC80000000000000000000002000002000001034
:10EC90000000100000000000000000000000000064
:10ECA000000000000000000000F00019F8001B1830
:10ECB000002208002608002408002410003FF80065
:10ECC0001FF800000800001800000004000007FF03
:10ECD000F80FFFF0001818001008002008002008A6
:10ECE000003018001FF0000FC000000000000000FE
:10ECF00007C0001FF0001830002008002008002086
:10ED000008003C08001C100000600000000000002B
:10ED10000000000007C0001FF000381800200800A5
:10ED2000200800200804101007FFF80FFFF0000073
:10ED3000100000000000000000000007C0001FF0ED
:10ED400000123000221800220800220800320800B9
:10ED50001E10000E20000000000000002000002017
:10ED60000800200801FFF803FFF806200804200827
:10ED7000042008072000030000000000000000003D
:10ED8000000E000E6E001FF30031B10020B1002014
:10ED9000B1003191001F13002E1E00200E00300024
:10EDA00000000004000807FFF80FFFF8001008003B
:10EDB0002000002000002008003FF8001FF800009D
:10EDC00008000000000000000000002008002008EB
:10EDD000002008063FF8063FF80000080000080081
:10EDE000000800000000000000000000000000001B
:10EDF00003000003002001002001002003063FFE65
:10EE0000063FFC00000000000000000000000004BD
:10EE1000000807FFF80FFFF8000188000300002F2B
:10EE2000C00038F80020380020080000080000006A
:10EE300000000000000004000804000804000807A7
:10EE4000FFF80FFFF80000080000080000080000AD
:10EE500000000000002008003FF8003FF800100804
:10EE6000002000003FF8003FF800100800200000DC
:10EE70003FF8003FF8000008000000002008003FB5
:10EE8000F8003FF8001008001000002000002008E3
:10EE9000003FF8001FF8000008000000000000001C
:10EEA00007C0000FF00018300030080020080020D4
:10EEB00008003008001830000FF00007C000000004
:10EEC000000000002001003FFF003FFF0010110084
:10EED0002009002008002008003038001FF0000F33
:10EEE000C00000000000000007C0001FF00038183C
:10EEF000002008002008002009001011001FFF005A
:10EF00003FFF000001000000002008002008002052
:10EF100008003FF8003FF80008080010080020082B
:10EF20000020000030000030000000000000000061
:10EF30000000000C78001E18003308002308002190
:10EF4000080021880021980030F00038600000009F
:10EF500000000000200000200000200000FFF0035F
:10EF6000FFF8002008002008002008000030000002
:10EF700000000000000000002000003FF0007FF8CB
:10EF8000000018000008000008002010003FF800F2
:10EF90007FF00000100000000000000020000030A2
:10EFA00000003C00003F800023F00000780000706B
:10EFB000002380003C000030000020000020000002
:10EFC0003C00003FE00023F80000E0002700003E86
:10EFD00000003FE00021F80001E0003E00002000BA
:10EFE000000000002008002008003838003E6800BB
:10EFF00027800003C8002CF80038380020180020B3
:10F0000008000000000000002000003003003C0168
:10F01000003F830023EC000070002380003C0000D0
:10F020002000002000000000000000000000003868
:10F03000080020380020F80023E8002F88003E0850
:10F0400000380800201800007000000000000000D8
:10F050000000000000000000000000000800001494
:10F06000001FF7FC30000620000200000000000036
:10F070000000000000000000000000000000000090
:10F080000000FFFFFF000000000000000000000083
:10F090000000000000000000000020000230000618
:10F0A0001FF7FC0014000008000000000000000032
:10F0B00000000000000000000000001800006000D8
:10F0C0000040000040000020000010000008000088
:10F0D0000400000400000C000010000075191A0C58
:10F0E0006A231B1C1F207274433B4138393A6B6CF6
:10F0F000376F06246D6E70006800000476005401BE
:10F10000F7FD000183000000000800000001001866
:10F1100032000500000020410000D242295C0F3E71
:10F120009A99993E3333733F295C0F3E000070007B
:10F1300000000024000000020003000000650054ED
:10F14000FFEF0000FA80000B12820001030C30C3B5
:10F150000E8C8CE914D5400213710F8E3883F8831E
:10F160003000F883258EF8833000F883FFFFFFFF1F
:10F170000FFEA9D6240004001A8279A10000003CE9
:10F18000FFFF00000010000038836FA2003E033034
:10F190004000000002CAE3093E8000002000000099
:10F1A000000000004000000060000000000C0000B3
:10F1B000000C186E000006920A16C0DFFFFF025610
:10F1C000FD8CD377FFE1C496E0C5BEAA0000000025
:10F1D000FFFF0B2B000016570000035940000000F2
:10F1E00000001DFA00026C1D000000003FFFDFEB75
:10F1F000003EB3B6000D227800002F3C0000000056
:10F20000001942B5000039A20000B365D90E9FC9AC
:10F210001DCF4C3430000000500000003BB67AE8AF
:10F220000064000000C800000000000010000000A2
:10F230001000FA921000225E000D229F00010000D3
:10F2400000320000FF46000063D400001000000000
:10F2500004D6000004CC000004CC000000001072B2
:10F260000000004000000000000000000006000256
:10F27000000500070000000000640000000000001E
:10F2800000000005000500640020000000000000F0
:10F2900000000000000040000000030000000032F9
:10F2A000F8980000FF650000830F0000FF9BFC0042
:10F2B000000000000000000000000000000000004E
:10F2C000000000000000000000000000000000003E
:10F2D00000000000000000000000100040000000DE
:10F2E000000000060000B26A000200000001FB837B
:10F2F0000068000000D9FC007CF1FF8300000000E2
:10F3000000650000006403E8006400280000002598
:10F310000000000016A00000000010000000100017
:10F32000002F0000000001F4000010000028000081
:10F33000FFFF4581FFFFFA7200000000000000009F
:10F34000004400050005BAC6004778A2000000018D
:10F350000000000000000600000000140000254D21
:10F36000002F706D000005AE000C02D00000000000
:10F37000000000000000000000000000001B000072
:10F380000000000000000000000000000064000019
:10F390000008000000000000000000000000000065
:10F3A000000000000000000000000000000000005D
:10F3B000000000000000000000000000000000004D
:10F3C000000000000000000000000000000000003D
:10F3D000000000000000000000000000000000002D
:10F3E000000000000000000000000000001B000002
:10F3F0000000000000000000000E000E00000AC720
:10F400000004000000000032FFFFFF9C00000B2BF7
:10F41000000000020000000100000064FFE50000A1
:10F4200000000000000000000000000000000001DB
:10F43000000000000001000000000000000180004A
:10F440000001800000018000002426D3000000009D
:10F4500000000000000600100096003C00000000C4
:10F460000000000000000000000000000C0A4E68D0
:10F47000CDCF770950166759C619CE82000000001B
:10F48000000000000000000000000000000000007C
:10F490000000000017D784000300000000000000F7
:10F4A00000000000C7938F9D1E1B1C190000000068
:10F4B000000000000000000000000000000000004C
:10F4C0000000000002031885000040000000000357
:10F4D00000000003000000000000000040000000E9
:10F4E000000000000000000000000000000000001C
:10F4F000000000000000000000000000000000000C
:10F5000000000000000000000000000000000000FB
:10F51000677DDF7E72902E554CF6E6880000000075
:10F52000000000000000000000000000D8DCB4B8BB
:10F53000B0D8B9ABF3F8FAB3B7BB8E9EAEF132F5E3
:10F540001BF1B4B8B08097F1A9DFDFDFAADFDFDFFE
:10F55000F2AAC5CDC7A90CC92C97F1A98926466680
:10F56000B28999A92D557DB0B08AA896365676F104
:10F57000BAA3B4B280C0B8A89711B28398BAA3F066
:10F58000240844106418B2B9B49883F1A329557DB6
:10F59000BAB5B1A38393F0002850F5B2B6AA83930D
:10F5A00028547CF1B9A3829361BAA2DADEDFDB8151
:10F5B0009AB9AEF5606870F1DABAA2DFD9BAA2FAE8
:10F5C000B9A38292DB31BAA2D9BAA2F8DF85A4D05E
:10F5D000C1BBAD83C2C5C7B8A2DFDFDFBAA0DFDF22
:10F5E000DFD8D8F1B8AAB38DB4980D355DB2B6BAEC
:10F5F000AF8C96198F9FA70E161EB49AB8AA872CA7
:10F60000547CBAA4B08AB691325676B28494A4C817
:10F6100008CDD8B8B4B0F19982A82D557D98A80E20
:10F62000161EA22C547C92A4F02C5078F184A89839
:10F63000C4CDFCD80DDBA8FC2DF3D9BAA6F8DABAF4
:10F64000A6DED8BAB2B68696A6D0F3C841DAA6C866
:10F65000F8D8B0B4B882A892F52C548898F135D96E
:10F66000F418D8F1A2D0F8F9A884D9C7DFF8F88344
:10F67000C5DADF69DF83C1D8F40114F1A8824EA88E
:10F6800084F311D182F5D992289788F109F41C1CD2
:10F69000D884A8F3C0F9D1D99782F129F40DD8F311
:10F6A000F9F9D1D982F4C203D8DEDF1AD8F1A2FA6F
:10F6B000F9A88498D9C7DFF8F8F883C7DADF69DFDB
:10F6C000F883C3D8F40114F198A8822EA884F3110A
:10F6D000D182F5D992509788F109F41CD884A8F307
:10F6E000C0F8F9D1D99782F149F40DD8F3F9F9D1DD
:10F6F000D982F4C403D8DEDFD8F1AD8898CCA8094C
:10F70000F9D98292A8F57CF1883ACF944A6E98DBB9
:10F710006931DAADF2DEF9D88795A8F221D1DAA500
:10F72000F9F417D9F1AE8ED0C0C3AE82C684C3A897
:10F730008595C8A588F2C0F1F4010EF18E9EA8C689
:10F740003E56F554F18872F40115F19845856EF531
:10F750008E9E0488F142985A8E9E068869F4011C98
:10F76000F1981E1108D0F504F11E97020298362573
:10F77000DBF9D985A5F3C1DA85A5F3DFD88595A88E
:10F78000F309DAA5FAD88292A8F578F1881A849F4D
:10F7900026889821DAF41DF3D8879F39D1AFD9DFB5
:10F7A000DFFBF9F40CF3D8FAD0F8DAF9F9D0DFD9A5
:10F7B000F9D8F40BD8F3879F39D1AFD9DFDFF41D27
:10F7C000F3D8FAFCA869F9F9AFD0DADEFAD9F88FE4
:10F7D0009FA8F1CCF398DB45D9AFDFD0F8D8F18FF3
:10F7E0009FA8CAF38809DAAF8FCBF8D8F2AD978D0E
:10F7F0000CD9A5DFF9BAA6F3FAF412F2D8950DD117
:10F80000D9BAA6F3FADAA5F2C1BAA6F3DFD8F1BAEB
:10F81000B2B68696A6D0CAF349DAA6CBF8D8B0B469
:10F82000B8D8AD84F2C0DFF18FCBC3A8B2B686964C
:10F83000C8C1CBC3F3B0B48898A821DB718D9D718A
:10F84000859521D9ADF2FAD88597A828D9F408D89A
:10F85000F28D29DAF405D9F285A4C2F2D8A88D94E4
:10F8600001D1D9F411F2D88721D8F40AD8F28498BA
:10F87000A8C801D1D9F411D8F3A4C8BBAFD0F2DE27
:10F88000F8F8F8F8F8F8F8F8D8F1B8F6B5B9B08A99
:10F8900095A3DE3CA3D9F8D85CA3D9F8D87CA3D92A
:10F8A000F8D8F8F9D1A5D9DFDAFAD8B18530F7D987
:10F8B000DED8F830ADDADED8F2B48C99A32D557DC0
:10F8C000A083DFDFDFB591A0F629D9FBD8A0FC2902
:10F8D000D9FAD8A0D051D9F8D8FC51D9F9D879D9CA
:10F8E000FBD8A0D0FC79D9FAD8A1F9F9F9F9F9A097
:10F8F000DADFDFDFD8A1F8F8F8F8F8ACDEF8ADDE33
:10F900008393AC2C547CF1A8DFDFDFF69D2CDAA0CA
:10F91000DFD9FADB2DF8D8A850DAA0D0DED9D0F89C
:10F92000F8F8DB55F8D8A878DAA0D0DFD9D0FAF803
:10F93000F8F8F8DB7DF8D89CA88CF530DB38D9D006
:10F94000DEDFA0D0DEDFD8A848DB58D9DFD0DEA0CC
:10F95000DFD0DED8A868DB70D9DFDFA0DFDFD8F129
:10F96000A888902C547C98A8D05C38D1DAF2AE8C60
:10F97000DFF9D8B087A8C1C1B188A8C6F9F9DA36CD
:10F98000D8A8F9DA36D8A8F9DA36D8A8F9DA36D804
:10F99000A8F9DA36D8F78D9DADF818DAF2AEDFD8CF
:10F9A000F7ADFA30D9A4DEF9D8F2AEDEFAF983A7C2
:10F9B000D9C3C5C7F1889BA77AADF7DEDFA4F88469
:10F9C0009408A797F300AEF29819A488C6A3948868
:10F9D000F632DFF28393DB09D9F2AADFD8D8AEF88A
:10F9E000F9D1DAF3A4DEA7F1889B7AD8F38494AE38
:10F9F00019F9DAAAF1DFD8A881C0C3C5C7A39283D9
:10FA0000F628ADDED9F8D8A350ADD9F8D8A378AD93
:10FA1000D9F8D8F8F9D1A1DADEC3C5C7D8A1819445
:10FA2000F818F2B089ACC3C5C7F1D8B8B4B097869E
:10FA3000A8319B069907AB9728889BF00C201440AF
:10FA4000B0B4B8F0A88A9A285078B79BA829517901
:10FA5000247059446938644831F1BBAB88002C5498
:10FA60007CF0B38BB8A804285078F1B088B49726FE
:10FA7000A85998BBABB38B02264666B0B8F08A9CF7
:10FA8000A82951798B2951798A2470598B20587172
:10FA90008A4469388B3940688A6448318B304960C0
:10FAA00088F1AC002C547CF08CA804285078F188A4
:10FAB0009726A85998AC8C02264666F0899CA829FE
:10FAC0005179247059446938644831A9880920590A
:10FAD00070AB11384069A8193148608CA83C415C72
:10FAE000207C00F187981986A86E767EA999882DCA
:10FAF000557DD8B1B5B9A3DFDFDFAED0DFAAD0DE48
:10FB0000F2ABF8F9D9B087C4AAF1DFDFBBAFDFDF12
:10FB1000B9D8B1F1A3978E60DFB084F2C8F8F9D9F3
:10FB2000DED89385F14AB183A308B5839A0810B74C
:10FB30009F10D8F1B0BAAEB08AC2B2B68E9EF1FBB9
:10FB4000D9F41DD8F9D90CF1D8F8F8AD61D9AEFBCC
:10FB5000D8F40CF1D8F8F8AD19D9AEFBDFD8F4160B
:10FB6000F1D8F8AD8D61D9F4F4ACF59C9C8DDF2B08
:10FB7000BAB6AEFAF8F40BD8F1AED0F8AD51DAAEB1
:10FB8000FAF8F1D8B9B1B6A3839C08B9B1839AB594
:10FB9000AAC0FD3083B79F10B58B93F20202D1ABA0
:10FBA000DADED8F1B080BAABC0C3B284C1C3D8B179
:10FBB000B9F38BA391B609B4D9ABDEB0879CB9A3D6
:10FBC000DDF1B38B8B8B8B8BB087A3A3A3A3B28BFD
:10FBD000B69BF2A3A3A3A3A3A3A3A3A3A3F1B0875C
:10FBE000B59AA3F39BA3A3DCBAACDFB9A3A3A3A3E9
:10FBF000A3A3A3A3A3A3A3A3A3A3A3A3D8D8D8BB1E
:10FC0000B3B7F1AAF9DAFFD9809AAA28B48098A7E5
:10FC100020B79787A86688F07951F1902C870CA7B8
:10FC200081976293F071716085940129517990A553
:10FC3000F1284C6C870C95188578A38390284C6C20
:10FC4000886CD8F3A28200F210A8921980A2F2D98F
:10FC500026D8F188A84DD948D896A83980D93CD85B
:10FC60009580A839A68698D92CDA87A72CD8A88998
:10FC70009519A980D938D8A88939A980DA3CD8A89B
:10FC80002EA83990D90CD8A8953198D90CD8A809A4
:10FC9000D9FFD801DAFFD89539A9DA26FFD890A87C
:10FCA0000D8999A810809821DA2ED88999A83180D9
:10FCB000DA2ED8A886963180DA2ED8A8873180DA55
:10FCC0002ED8A88292F34180F1D92ED8A882F319B8
:10FCD00080F1D92ED882ACF3C0A28022F1A62EA743
:10FCE0002EA92298A829DAACDEFFD8A2F22AF1A91F
:10FCF0002E8292A8F23180A696F1D900AC8C9C0C91
:10FD000030ACDED0DEFFD88C9CACD010ACDE809264
:10FD1000A2F24C82A8F1CAF235F19688A6D900D891
:10FD2000F1FF00000F0000000F000000FF000000C6
:10FD30000F0000000F0000000F0000000000000096
:10FD4000555555555555C53F7D6FEB0312D6D4BF5C
:10FD50005544880E55C1C93F3B8F68B52882A4BF62
:10FD600088B20175E0EF493F09F7FD0DE13D023F23
:10FD70004B2D8A1C273A03C0C88A599CE52A0040AB
:10FD800059018D1B6C06E6BF82922EB1C5B8B33FF8
:10FD90004FBB610567ACDD3F182D4454FB21E93FA3
:10FDA0009BF681D20B73EF3F182D4454FB21F93F92
:10FDB000E2652F227F2B7A3C075C143326A6813C18
:10FDC000BDCBF07A8807703C075C143326A6913CC3
:10FDD000C4EB98999999C9BF711623FEC671BCBF2F
:10FDE0006D9A74AFF2B0B3BF9AFDDE522DDEADBF97
:10FDF0002F6C6A2C44B4A2BF0D5555555555D53FAF
:10FE0000FF8300922449C23F6E204CC5CD45B73FC9
:10FE1000513DD0A0660DB13FEB0D76244B7BA93F41
:10FE200011DA22E33AAD903F00000000000000002C
:10FE300050726F6475637420494420726561642058
:10FE40006173203020696E64696361746573206436
:10FE500065766963652069732065697468657220D9
:10FE6000696E636F6D70617469626C65206F72207A
:10FE7000616E204D5055333035302E0A00000000A1
:10FE80003F000000646563006964000072756E7471
:10FE9000696D650068656C70000000006C697374C2
:10FEA00000000000686578007538204D50555F5798
:10FEB000726974655F427974652875382072656768
:10FEC0002C753820646174612900000073686F72BA
:10FED00074204D50555F4765745F54656D70657251
:10FEE000617475726528766F696429007538204DD4
:10FEF00050555F526561645F42797465287538209A
:10FF00007265672900000000766F69642077726966
:10FF100074655F6164647228753332206164647251
:10FF20002C7533322076616C290000007533322045
:10FF3000726561645F616464722875333220616444
:10FF400064722900766F69642064656C61795F6D05
:10FF50007328753136206E6D73290000766F6964E1
:10FF60002064656C61795F757328753332206E7516
:10FF70007329000094FF000800000020BC0100006D
:10FF8000C6C900081C000108BC010020EC040000E8
:10FF900008D4000811847A030A300A010203040617
:10FFA0000708090123FFFF13DCF01B08F8040120F8
:10FFB0001304F12A08346904E12956695A2113808F
:10FFC000FE1B0894041A9C041A88041AA4041A84B8
:10FFD000041A8C0413DFBC14082CFF1B08E5081A54
:10FFE000080813018F1B08440813718E2B085C0846
:10FFF000125A1B08A82813295B1B08EC0813715C14
:020000040801F1
:100000002B08CC3C21142035B81B0859041303B924
:0C0010001B0867400A12078B01CF00009C
:040000050800018965
:00000001FF
