Component: ARM Compiler 5.06 update 6 (build 750) Tool: armlink [4d35ed]

==============================================================================

Section Cross References

    main.o(.text) refers to stm32f4xx_usart.o(.text) for USART_GetFlagStatus
    main.o(.text) refers to misc.o(.text) for NVIC_PriorityGroupConfig
    main.o(.text) refers to delay.o(.text) for delay_init
    main.o(.text) refers to usart.o(.text) for uart_init
    main.o(.text) refers to led.o(.text) for LED_Init
    main.o(.text) refers to key.o(.text) for KEY_Init
    main.o(.text) refers to lcd.o(.text) for LCD_Init
    main.o(.text) refers to mpu6050.o(.text) for MPU_Init
    main.o(.text) refers to inv_mpu.o(.text) for mpu_dmp_init
    main.o(.text) refers to printf8.o(i.__0printf$8) for __2printf
    main.o(.text) refers to lcd.o(.data) for POINT_COLOR
    system_stm32f4xx.o(.text) refers to system_stm32f4xx.o(.data) for SystemCoreClock
    led.o(.text) refers to stm32f4xx_rcc.o(.text) for RCC_AHB1PeriphClockCmd
    led.o(.text) refers to stm32f4xx_gpio.o(.text) for GPIO_Init
    key.o(.text) refers to stm32f4xx_rcc.o(.text) for RCC_AHB1PeriphClockCmd
    key.o(.text) refers to stm32f4xx_gpio.o(.text) for GPIO_Init
    key.o(.text) refers to delay.o(.text) for delay_ms
    key.o(.text) refers to key.o(.data) for key_up
==============================================================================

Removing Unused input sections from the image.

    Removing main.o(.rev16_text), (4 bytes).
    Removing main.o(.revsh_text), (4 bytes).
    Removing stm32f4xx_it.o(.rev16_text), (4 bytes).
    Removing stm32f4xx_it.o(.revsh_text), (4 bytes).
    Removing system_stm32f4xx.o(.rev16_text), (4 bytes).
    Removing system_stm32f4xx.o(.revsh_text), (4 bytes).
    Removing led.o(.rev16_text), (4 bytes).
    Removing led.o(.revsh_text), (4 bytes).
    Removing key.o(.rev16_text), (4 bytes).
    Removing key.o(.revsh_text), (4 bytes).
    Removing lcd.o(.rev16_text), (4 bytes).
    Removing lcd.o(.revsh_text), (4 bytes).
    Removing myiic.o(.rev16_text), (4 bytes).
    Removing myiic.o(.revsh_text), (4 bytes).
    Removing mpu6050.o(.rev16_text), (4 bytes).
    Removing mpu6050.o(.revsh_text), (4 bytes).
    Removing inv_mpu.o(.rev16_text), (4 bytes).
    Removing inv_mpu.o(.revsh_text), (4 bytes).
==============================================================================

Image Symbol Table

    Local Symbols

    Symbol Name                              Value     Ov Type        Size  Object(Section)

    ../clib/../cmprslib/zerorunl2.c          0x00000000   Number         0  __dczerorl2.o ABSOLUTE
    ../clib/microlib/division.c              0x00000000   Number         0  ldiv.o ABSOLUTE
    ../clib/microlib/division.c              0x00000000   Number         0  uldiv.o ABSOLUTE
    ../clib/microlib/division.c              0x00000000   Number         0  uidiv.o ABSOLUTE
    ../clib/microlib/errno.c                 0x00000000   Number         0  errno.o ABSOLUTE
    ../clib/microlib/init/entry.s            0x00000000   Number         0  entry.o ABSOLUTE
    ../clib/microlib/init/entry.s            0x00000000   Number         0  entry8a.o ABSOLUTE
    ../clib/microlib/init/entry.s            0x00000000   Number         0  entry11b.o ABSOLUTE
    ../clib/microlib/init/entry.s            0x00000000   Number         0  entry2.o ABSOLUTE
    ../clib/microlib/init/entry.s            0x00000000   Number         0  entry5.o ABSOLUTE
    ../clib/microlib/init/entry.s            0x00000000   Number         0  entry11a.o ABSOLUTE
    ../clib/microlib/init/entry.s            0x00000000   Number         0  entry10b.o ABSOLUTE
    ../clib/microlib/init/entry.s            0x00000000   Number         0  entry10a.o ABSOLUTE
    ../clib/microlib/init/entry.s            0x00000000   Number         0  entry9b.o ABSOLUTE
    ../clib/microlib/init/entry.s            0x00000000   Number         0  entry9a.o ABSOLUTE
    ../clib/microlib/init/entry.s            0x00000000   Number         0  entry8b.o ABSOLUTE
    ../clib/microlib/init/entry.s            0x00000000   Number         0  entry7a.o ABSOLUTE
    ../clib/microlib/init/entry.s            0x00000000   Number         0  entry7b.o ABSOLUTE
    ../clib/microlib/longlong.c              0x00000000   Number         0  llsshr.o ABSOLUTE
    ../clib/microlib/longlong.c              0x00000000   Number         0  llushr.o ABSOLUTE
    ../clib/microlib/longlong.c              0x00000000   Number         0  llshl.o ABSOLUTE
    ../clib/microlib/printf/printf.c         0x00000000   Number         0  printf7.o ABSOLUTE
    ../clib/microlib/printf/printf.c         0x00000000   Number         0  printf8.o ABSOLUTE
    ../clib/microlib/printf/printf.c         0x00000000   Number         0  printf2.o ABSOLUTE
    ../clib/microlib/printf/printf.c         0x00000000   Number         0  printf1.o ABSOLUTE
    ../clib/microlib/printf/printf.c         0x00000000   Number         0  printf0.o ABSOLUTE
    ../clib/microlib/printf/printf.c         0x00000000   Number         0  printfb.o ABSOLUTE
    ../clib/microlib/printf/printf.c         0x00000000   Number         0  printfa.o ABSOLUTE
    ../clib/microlib/printf/printf.c         0x00000000   Number         0  printf3.o ABSOLUTE
    ../clib/microlib/printf/printf.c         0x00000000   Number         0  printf4.o ABSOLUTE
    ../clib/microlib/printf/printf.c         0x00000000   Number         0  printf5.o ABSOLUTE
    ../clib/microlib/printf/printf.c         0x00000000   Number         0  printf6.o ABSOLUTE
    ../clib/microlib/printf/stubs.s          0x00000000   Number         0  stubs.o ABSOLUTE
    ../clib/microlib/string/memcmp.c         0x00000000   Number         0  memcmp.o ABSOLUTE
    ../clib/microlib/string/memset.c         0x00000000   Number         0  memseta.o ABSOLUTE
    ../clib/microlib/stubs.s                 0x00000000   Number         0  useno.o ABSOLUTE
    ../clib/microlib/stubs.s                 0x00000000   Number         0  iusefp.o ABSOLUTE
    ../fplib/microlib/d2f.c                  0x00000000   Number         0  d2f.o ABSOLUTE
    ../fplib/microlib/f2d.c                  0x00000000   Number         0  f2d.o ABSOLUTE
    ../fplib/microlib/fpadd.c                0x00000000   Number         0  dadd.o ABSOLUTE
    ../fplib/microlib/fpdiv.c                0x00000000   Number         0  ddiv.o ABSOLUTE
    ../fplib/microlib/fpepilogue.c           0x00000000   Number         0  depilogue.o ABSOLUTE
    ../fplib/microlib/fpepilogue.c           0x00000000   Number         0  fepilogue.o ABSOLUTE
    ../fplib/microlib/fpfix.c                0x00000000   Number         0  dfixul.o ABSOLUTE
    ../fplib/microlib/fpfix.c                0x00000000   Number         0  dfixui.o ABSOLUTE
    ../fplib/microlib/fpflt.c                0x00000000   Number         0  dflti.o ABSOLUTE
    ../fplib/microlib/fpflt.c                0x00000000   Number         0  dfltui.o ABSOLUTE
    ../fplib/microlib/fpmul.c                0x00000000   Number         0  dmul.o ABSOLUTE
    ../fplib/microlib/fpneg.c                0x00000000   Number         0  dneg.o ABSOLUTE
    ../fplib/microlib/fpsqrt.c               0x00000000   Number         0  dsqrt.o ABSOLUTE
    ../mathlib/asin.c                        0x00000000   Number         0  asin.o ABSOLUTE
    ../mathlib/asin.c                        0x00000000   Number         0  asin_x.o ABSOLUTE
    ../mathlib/atan.c                        0x00000000   Number         0  atan_x.o ABSOLUTE
    ../mathlib/atan.c                        0x00000000   Number         0  atan.o ABSOLUTE
    ../mathlib/atan2.c                       0x00000000   Number         0  atan2.o ABSOLUTE
    ../mathlib/atan2.c                       0x00000000   Number         0  atan2_x.o ABSOLUTE
    ../mathlib/dunder.c                      0x00000000   Number         0  dunder.o ABSOLUTE
    ../mathlib/fabs.c                        0x00000000   Number         0  fabs.o ABSOLUTE
    ../mathlib/fpclassify.c                  0x00000000   Number         0  fpclassify.o ABSOLUTE
    ../mathlib/poly.c                        0x00000000   Number         0  poly.o ABSOLUTE
    ../mathlib/qnan.c                        0x00000000   Number         0  qnan.o ABSOLUTE
    ../mathlib/sqrt.c                        0x00000000   Number         0  sqrt_x.o ABSOLUTE
    ../mathlib/sqrt.c                        0x00000000   Number         0  sqrt.o ABSOLUTE
    ..\CORE\startup_stm32f40_41xxx.s         0x00000000   Number         0  startup_stm32f40_41xxx.o ABSOLUTE
    ..\FWLIB\src\misc.c                      0x00000000   Number         0  misc.o ABSOLUTE
    ..\FWLIB\src\stm32f4xx_fsmc.c            0x00000000   Number         0  stm32f4xx_fsmc.o ABSOLUTE
    ..\FWLIB\src\stm32f4xx_gpio.c            0x00000000   Number         0  stm32f4xx_gpio.o ABSOLUTE
    ..\FWLIB\src\stm32f4xx_rcc.c             0x00000000   Number         0  stm32f4xx_rcc.o ABSOLUTE
    ..\FWLIB\src\stm32f4xx_syscfg.c          0x00000000   Number         0  stm32f4xx_syscfg.o ABSOLUTE
    ..\FWLIB\src\stm32f4xx_tim.c             0x00000000   Number         0  stm32f4xx_tim.o ABSOLUTE
    ..\FWLIB\src\stm32f4xx_usart.c           0x00000000   Number         0  stm32f4xx_usart.o ABSOLUTE
    ..\HARDWARE\IIC\myiic.c                  0x00000000   Number         0  myiic.o ABSOLUTE
    ..\HARDWARE\KEY\key.c                    0x00000000   Number         0  key.o ABSOLUTE
    ..\HARDWARE\LCD\lcd.c                    0x00000000   Number         0  lcd.o ABSOLUTE
    ..\HARDWARE\LED\led.c                    0x00000000   Number         0  led.o ABSOLUTE
    ..\HARDWARE\MPU6050\eMPL\inv_mpu.c       0x00000000   Number         0  inv_mpu.o ABSOLUTE
    ..\HARDWARE\MPU6050\eMPL\inv_mpu_dmp_motion_driver.c 0x00000000   Number         0  inv_mpu_dmp_motion_driver.o ABSOLUTE
    ..\HARDWARE\MPU6050\mpu6050.c            0x00000000   Number         0  mpu6050.o ABSOLUTE
    ..\SYSTEM\delay\delay.c                  0x00000000   Number         0  delay.o ABSOLUTE
    ..\SYSTEM\sys\sys.c                      0x00000000   Number         0  sys.o ABSOLUTE
    ..\SYSTEM\usart\usart.c                  0x00000000   Number         0  usart.o ABSOLUTE
    ..\USMART\usmart.c                       0x00000000   Number         0  usmart.o ABSOLUTE
    ..\USMART\usmart_config.c                0x00000000   Number         0  usmart_config.o ABSOLUTE
    ..\USMART\usmart_str.c                   0x00000000   Number         0  usmart_str.o ABSOLUTE
    ..\\FWLIB\\src\\misc.c                   0x00000000   Number         0  misc.o ABSOLUTE
    ..\\FWLIB\\src\\stm32f4xx_fsmc.c         0x00000000   Number         0  stm32f4xx_fsmc.o ABSOLUTE
    ..\\FWLIB\\src\\stm32f4xx_gpio.c         0x00000000   Number         0  stm32f4xx_gpio.o ABSOLUTE
    ..\\FWLIB\\src\\stm32f4xx_rcc.c          0x00000000   Number         0  stm32f4xx_rcc.o ABSOLUTE
    ..\\FWLIB\\src\\stm32f4xx_syscfg.c       0x00000000   Number         0  stm32f4xx_syscfg.o ABSOLUTE
    ..\\FWLIB\\src\\stm32f4xx_tim.c          0x00000000   Number         0  stm32f4xx_tim.o ABSOLUTE
    ..\\FWLIB\\src\\stm32f4xx_usart.c        0x00000000   Number         0  stm32f4xx_usart.o ABSOLUTE
    ..\\HARDWARE\\IIC\\myiic.c               0x00000000   Number         0  myiic.o ABSOLUTE
    ..\\HARDWARE\\KEY\\key.c                 0x00000000   Number         0  key.o ABSOLUTE
    ..\\HARDWARE\\LCD\\lcd.c                 0x00000000   Number         0  lcd.o ABSOLUTE
    ..\\HARDWARE\\LED\\led.c                 0x00000000   Number         0  led.o ABSOLUTE
    ..\\HARDWARE\\MPU6050\\eMPL\\inv_mpu.c   0x00000000   Number         0  inv_mpu.o ABSOLUTE
    ..\\HARDWARE\\MPU6050\\eMPL\\inv_mpu_dmp_motion_driver.c 0x00000000   Number         0  inv_mpu_dmp_motion_driver.o ABSOLUTE
    ..\\HARDWARE\\MPU6050\\mpu6050.c         0x00000000   Number         0  mpu6050.o ABSOLUTE
    ..\\SYSTEM\\delay\\delay.c               0x00000000   Number         0  delay.o ABSOLUTE
    ..\\SYSTEM\\sys\\sys.c                   0x00000000   Number         0  sys.o ABSOLUTE
    ..\\SYSTEM\\usart\\usart.c               0x00000000   Number         0  usart.o ABSOLUTE
    ..\\USMART\\usmart.c                     0x00000000   Number         0  usmart.o ABSOLUTE
    ..\\USMART\\usmart_config.c              0x00000000   Number         0  usmart_config.o ABSOLUTE
    ..\\USMART\\usmart_str.c                 0x00000000   Number         0  usmart_str.o ABSOLUTE
    cdcmple.s                                0x00000000   Number         0  cdcmple.o ABSOLUTE
    cdrcmple.s                               0x00000000   Number         0  cdrcmple.o ABSOLUTE
    dc.s                                     0x00000000   Number         0  dc.o ABSOLUTE
    handlers.s                               0x00000000   Number         0  handlers.o ABSOLUTE
    init.s                                   0x00000000   Number         0  init.o ABSOLUTE
    main.c                                   0x00000000   Number         0  main.o ABSOLUTE
    main.c                                   0x00000000   Number         0  main.o ABSOLUTE
    stm32f4xx_it.c                           0x00000000   Number         0  stm32f4xx_it.o ABSOLUTE
    stm32f4xx_it.c                           0x00000000   Number         0  stm32f4xx_it.o ABSOLUTE
    system_stm32f4xx.c                       0x00000000   Number         0  system_stm32f4xx.o ABSOLUTE
    system_stm32f4xx.c                       0x00000000   Number         0  system_stm32f4xx.o ABSOLUTE
    RESET                                    0x08000000   Section      392  startup_stm32f40_41xxx.o(RESET)
    .ARM.Collect$$$$00000000                 0x08000188   Section        0  entry.o(.ARM.Collect$$$$00000000)
    .ARM.Collect$$$$00000001                 0x08000188   Section        4  entry2.o(.ARM.Collect$$$$00000001)
    .ARM.Collect$$$$00000004                 0x0800018c   Section        4  entry5.o(.ARM.Collect$$$$00000004)
    .ARM.Collect$$$$00000008                 0x08000190   Section        0  entry7b.o(.ARM.Collect$$$$00000008)
    .ARM.Collect$$$$0000000A                 0x08000190   Section        0  entry8b.o(.ARM.Collect$$$$0000000A)
    .ARM.Collect$$$$0000000B                 0x08000190   Section        8  entry9a.o(.ARM.Collect$$$$0000000B)
    .ARM.Collect$$$$0000000D                 0x08000198   Section        0  entry10a.o(.ARM.Collect$$$$0000000D)
    .ARM.Collect$$$$0000000F                 0x08000198   Section        0  entry11a.o(.ARM.Collect$$$$0000000F)
    .ARM.Collect$$$$00002712                 0x08000198   Section        4  entry2.o(.ARM.Collect$$$$00002712)
    __lit__00000000                          0x08000198   Data           4  entry2.o(.ARM.Collect$$$$00002712)
    .text                                    0x0800019c   Section        0  main.o(.text)
    .text                                    0x08000828   Section        0  stm32f4xx_it.o(.text)
    .text                                    0x08000844   Section        0  system_stm32f4xx.o(.text)
    SetSysClock                              0x08000845   Thumb Code   220  system_stm32f4xx.o(.text)
    .text                                    0x08000a54   Section        0  led.o(.text)
    .text                                    0x08000a94   Section        0  key.o(.text)
    .text                                    0x08000b98   Section        0  lcd.o(.text)
    .text                                    0x08005818   Section        0  myiic.o(.text)
    .text                                    0x08005a70   Section        0  mpu6050.o(.text)
    .text                                    0x08005df4   Section        0  inv_mpu.o(.text)
    set_int_enable                           0x08005df5   Thumb Code   138  inv_mpu.o(.text)
    get_accel_prod_shift                     0x08007071   Thumb Code   190  inv_mpu.o(.text)
    accel_self_test                          0x0800712f   Thumb Code   182  inv_mpu.o(.text)
    gyro_self_test                           0x080071e5   Thumb Code   286  inv_mpu.o(.text)
    get_st_biases                            0x08007303   Thumb Code  1138  inv_mpu.o(.text)
    .text                                    0x080080ac   Section        0  inv_mpu_dmp_motion_driver.o(.text)
    decode_gesture                           0x08008b81   Thumb Code    94  inv_mpu_dmp_motion_driver.o(.text)
    .text                                    0x08008e3c   Section        0  delay.o(.text)
    .text                                    0x08008f40   Section        0  usart.o(.text)
    .text                                    0x08009088   Section       36  startup_stm32f40_41xxx.o(.text)
    $v0                                      0x08009088   Number         0  startup_stm32f40_41xxx.o(.text)
    .text                                    0x080090ac   Section        0  misc.o(.text)
    .text                                    0x0800918c   Section        0  stm32f4xx_fsmc.o(.text)
    .text                                    0x08009754   Section        0  stm32f4xx_gpio.o(.text)
    .text                                    0x080099e8   Section        0  stm32f4xx_rcc.o(.text)
    .text                                    0x0800a044   Section        0  stm32f4xx_usart.o(.text)
    .text                                    0x0800a498   Section        0  stm32f4xx_tim.o(.text)
    TI4_Config                               0x0800ac37   Thumb Code    80  stm32f4xx_tim.o(.text)
    TI3_Config                               0x0800ac99   Thumb Code    72  stm32f4xx_tim.o(.text)
    TI2_Config                               0x0800acfb   Thumb Code    90  stm32f4xx_tim.o(.text)
    TI1_Config                               0x0800ad67   Thumb Code    58  stm32f4xx_tim.o(.text)
    .text                                    0x0800b13c   Section        0  usmart.o(.text)
    .text                                    0x0800bd70   Section        0  usmart_str.o(.text)
    .text                                    0x0800c298   Section        0  ldiv.o(.text)
    .text                                    0x0800c2fa   Section        0  memseta.o(.text)
    .text                                    0x0800c31e   Section        0  memcmp.o(.text)
    .text                                    0x0800c338   Section        0  dadd.o(.text)
    .text                                    0x0800c486   Section        0  dmul.o(.text)
    .text                                    0x0800c56a   Section        0  ddiv.o(.text)
    .text                                    0x0800c648   Section        0  dflti.o(.text)
    .text                                    0x0800c66a   Section        0  dfltui.o(.text)
    .text                                    0x0800c684   Section        0  dfixui.o(.text)
    .text                                    0x0800c6b6   Section        0  f2d.o(.text)
    .text                                    0x0800c6dc   Section        0  d2f.o(.text)
    .text                                    0x0800c714   Section        0  uldiv.o(.text)
    .text                                    0x0800c776   Section        0  llshl.o(.text)
    .text                                    0x0800c794   Section        0  llushr.o(.text)
    .text                                    0x0800c7b4   Section        0  llsshr.o(.text)
    .text                                    0x0800c7d8   Section        0  fepilogue.o(.text)
    .text                                    0x0800c7d8   Section        0  iusefp.o(.text)
    .text                                    0x0800c846   Section        0  depilogue.o(.text)
    .text                                    0x0800c900   Section       36  init.o(.text)
    .text                                    0x0800c924   Section        0  dsqrt.o(.text)
    .text                                    0x0800c9c6   Section        0  __dczerorl2.o(.text)
    i.__0printf$8                            0x0800ca1c   Section        0  printf8.o(i.__0printf$8)
    i.__ARM_fpclassify                       0x0800ca3c   Section        0  fpclassify.o(i.__ARM_fpclassify)
    i.__hardfp_asin                          0x0800ca70   Section        0  asin.o(i.__hardfp_asin)
    i.__hardfp_atan                          0x0800cdd0   Section        0  atan.o(i.__hardfp_atan)
    i.__hardfp_atan2                         0x0800d0a8   Section        0  atan2.o(i.__hardfp_atan2)
    i.__kernel_poly                          0x0800d298   Section        0  poly.o(i.__kernel_poly)
    i.__mathlib_dbl_infnan                   0x0800d390   Section        0  dunder.o(i.__mathlib_dbl_infnan)
    i.__mathlib_dbl_infnan2                  0x0800d3a4   Section        0  dunder.o(i.__mathlib_dbl_infnan2)
    i.__mathlib_dbl_invalid                  0x0800d3b8   Section        0  dunder.o(i.__mathlib_dbl_invalid)
    i.__mathlib_dbl_underflow                0x0800d3d8   Section        0  dunder.o(i.__mathlib_dbl_underflow)
    i.__scatterload_copy                     0x0800d3f8   Section       14  handlers.o(i.__scatterload_copy)
    i.__scatterload_null                     0x0800d406   Section        2  handlers.o(i.__scatterload_null)
    i.__scatterload_zeroinit                 0x0800d408   Section       14  handlers.o(i.__scatterload_zeroinit)
    i.__set_errno                            0x0800d418   Section        0  errno.o(i.__set_errno)
    i._printf_core                           0x0800d424   Section        0  printf8.o(i._printf_core)
    _printf_core                             0x0800d425   Thumb Code   996  printf8.o(i._printf_core)
    i._printf_post_padding                   0x0800d834   Section        0  printf8.o(i._printf_post_padding)
    _printf_post_padding                     0x0800d835   Thumb Code    36  printf8.o(i._printf_post_padding)
    i._printf_pre_padding                    0x0800d858   Section        0  printf8.o(i._printf_pre_padding)
    _printf_pre_padding                      0x0800d859   Thumb Code    46  printf8.o(i._printf_pre_padding)
    i.atan                                   0x0800d886   Section        0  atan.o(i.atan)
    i.fabs                                   0x0800d896   Section        0  fabs.o(i.fabs)
    i.sqrt                                   0x0800d8ae   Section        0  sqrt.o(i.sqrt)
    .constdata                               0x0800d91c   Section     6080  lcd.o(.constdata)
    .constdata                               0x0800f0dc   Section       80  inv_mpu.o(.constdata)
    .constdata                               0x0800f12c   Section     3062  inv_mpu_dmp_motion_driver.o(.constdata)
    dmp_memory                               0x0800f12c   Data        3062  inv_mpu_dmp_motion_driver.o(.constdata)
    .constdata                               0x0800fd24   Section       28  stm32f4xx_fsmc.o(.constdata)
    .constdata                               0x0800fd40   Section       80  asin.o(.constdata)
    pS                                       0x0800fd40   Data          48  asin.o(.constdata)
    qS                                       0x0800fd70   Data          32  asin.o(.constdata)
    .constdata                               0x0800fd90   Section      152  atan.o(.constdata)
    atanhi                                   0x0800fd90   Data          32  atan.o(.constdata)
    atanlo                                   0x0800fdb0   Data          32  atan.o(.constdata)
    aTodd                                    0x0800fdd0   Data          40  atan.o(.constdata)
    aTeven                                   0x0800fdf8   Data          48  atan.o(.constdata)
    .constdata                               0x0800fe28   Section        8  qnan.o(.constdata)
    .conststring                             0x0800fe30   Section       77  inv_mpu.o(.conststring)
    .conststring                             0x0800fe80   Section       40  usmart.o(.conststring)
    .conststring                             0x0800fea8   Section      203  usmart_config.o(.conststring)
    .data                                    0x20000000   Section       20  system_stm32f4xx.o(.data)
    .data                                    0x20000014   Section        1  key.o(.data)
    key_up                                   0x20000014   Data           1  key.o(.data)
    .data                                    0x20000016   Section        4  lcd.o(.data)
    .data                                    0x2000001c   Section       53  inv_mpu.o(.data)
    st                                       0x2000001c   Data          44  inv_mpu.o(.data)
    gyro_orientation                         0x20000048   Data           9  inv_mpu.o(.data)
    .data                                    0x20000052   Section        4  delay.o(.data)
    fac_us                                   0x20000052   Data           1  delay.o(.data)
    fac_ms                                   0x20000054   Data           2  delay.o(.data)
    .data                                    0x20000058   Section        6  usart.o(.data)
    .data                                    0x2000005e   Section       16  stm32f4xx_rcc.o(.data)
    APBAHBPrescTable                         0x2000005e   Data          16  stm32f4xx_rcc.o(.data)
    .data                                    0x20000070   Section       28  usmart.o(.data)
    .data                                    0x2000008c   Section      300  usmart_config.o(.data)
    .data                                    0x200001b8   Section        4  errno.o(.data)
    _errno                                   0x200001b8   Data           4  errno.o(.data)
    .bss                                     0x200001bc   Section       14  lcd.o(.bss)
    .bss                                     0x200001cc   Section       16  inv_mpu_dmp_motion_driver.o(.bss)
    dmp                                      0x200001cc   Data          16  inv_mpu_dmp_motion_driver.o(.bss)
    .bss                                     0x200001dc   Section      200  usart.o(.bss)
    STACK                                    0x200002a8   Section     1024  startup_stm32f40_41xxx.o(STACK)

    Global Symbols

    Symbol Name                              Value     Ov Type        Size  Object(Section)

    BuildAttributes$$THM_ISAv4$E$P$D$K$B$S$7EM$VFPi3$EXTD16$VFPS$VFMA$PE$A:L22UL41UL21$X:L11$S22US41US21$IEEE1$IW$USESV6$~STKCKD$USESV7$~SHL$OTIME$ROPI$IEEEX$EBA8$MICROLIB$REQ8$PRES8$EABIv2 0x00000000   Number         0  anon$$obj.o ABSOLUTE
    __ARM_use_no_argv                        0x00000000   Number         0  main.o ABSOLUTE
    __use_no_errno                           0x00000000   Number         0  useno.o ABSOLUTE
    __use_no_exception_handling              0x00000000   Number         0  useno.o ABSOLUTE
    __use_no_fp                              0x00000000   Number         0  useno.o ABSOLUTE
    __use_no_heap                            0x00000000   Number         0  useno.o ABSOLUTE
    __use_no_heap_region                     0x00000000   Number         0  useno.o ABSOLUTE
    __use_no_semihosting                     0x00000000   Number         0  useno.o ABSOLUTE
    __use_no_semihosting_swi                 0x00000000   Number         0  useno.o ABSOLUTE
    __use_no_signal_handling                 0x00000000   Number         0  useno.o ABSOLUTE
    _printf_a                                0x00000000   Number         0  stubs.o ABSOLUTE
    _printf_c                                0x00000000   Number         0  stubs.o ABSOLUTE
    _printf_charcount                        0x00000000   Number         0  stubs.o ABSOLUTE
    _printf_d                                0x00000000   Number         0  stubs.o ABSOLUTE
    _printf_e                                0x00000000   Number         0  stubs.o ABSOLUTE
    _printf_f                                0x00000000   Number         0  stubs.o ABSOLUTE
    _printf_flags                            0x00000000   Number         0  stubs.o ABSOLUTE
    _printf_fp_dec                           0x00000000   Number         0  stubs.o ABSOLUTE
    _printf_fp_hex                           0x00000000   Number         0  stubs.o ABSOLUTE
    _printf_g                                0x00000000   Number         0  stubs.o ABSOLUTE
    _printf_i                                0x00000000   Number         0  stubs.o ABSOLUTE
    _printf_int_dec                          0x00000000   Number         0  stubs.o ABSOLUTE
    _printf_l                                0x00000000   Number         0  stubs.o ABSOLUTE
    _printf_lc                               0x00000000   Number         0  stubs.o ABSOLUTE
    _printf_ll                               0x00000000   Number         0  stubs.o ABSOLUTE
    _printf_lld                              0x00000000   Number         0  stubs.o ABSOLUTE
    _printf_lli                              0x00000000   Number         0  stubs.o ABSOLUTE
    _printf_llo                              0x00000000   Number         0  stubs.o ABSOLUTE
    _printf_llu                              0x00000000   Number         0  stubs.o ABSOLUTE
    _printf_llx                              0x00000000   Number         0  stubs.o ABSOLUTE
    _printf_longlong_dec                     0x00000000   Number         0  stubs.o ABSOLUTE
    _printf_longlong_hex                     0x00000000   Number         0  stubs.o ABSOLUTE
    _printf_longlong_oct                     0x00000000   Number         0  stubs.o ABSOLUTE
    _printf_ls                               0x00000000   Number         0  stubs.o ABSOLUTE
    _printf_mbtowc                           0x00000000   Number         0  stubs.o ABSOLUTE
    _printf_n                                0x00000000   Number         0  stubs.o ABSOLUTE
    _printf_o                                0x00000000   Number         0  stubs.o ABSOLUTE
    _printf_p                                0x00000000   Number         0  stubs.o ABSOLUTE
    _printf_percent                          0x00000000   Number         0  stubs.o ABSOLUTE
    _printf_pre_padding                      0x00000000   Number         0  stubs.o ABSOLUTE
    _printf_return_value                     0x00000000   Number         0  stubs.o ABSOLUTE
    _printf_s                                0x00000000   Number         0  stubs.o ABSOLUTE
    _printf_sizespec                         0x00000000   Number         0  stubs.o ABSOLUTE
    _printf_str                              0x00000000   Number         0  stubs.o ABSOLUTE
    _printf_truncate_signed                  0x00000000   Number         0  stubs.o ABSOLUTE
    _printf_truncate_unsigned                0x00000000   Number         0  stubs.o ABSOLUTE
    _printf_u                                0x00000000   Number         0  stubs.o ABSOLUTE
    _printf_wc                               0x00000000   Number         0  stubs.o ABSOLUTE
    _printf_wctomb                           0x00000000   Number         0  stubs.o ABSOLUTE
    _printf_widthprec                        0x00000000   Number         0  stubs.o ABSOLUTE
    _printf_x                                0x00000000   Number         0  stubs.o ABSOLUTE
    __cpp_initialize__aeabi_                  - Undefined Weak Reference
    __cxa_finalize                            - Undefined Weak Reference
    _clock_init                               - Undefined Weak Reference
    _microlib_exit                            - Undefined Weak Reference
    __Vectors_Size                           0x00000188   Number         0  startup_stm32f40_41xxx.o ABSOLUTE
    __Vectors                                0x08000000   Data           4  startup_stm32f40_41xxx.o(RESET)
    __Vectors_End                            0x08000188   Data           0  startup_stm32f40_41xxx.o(RESET)
    __main                                   0x08000189   Thumb Code     0  entry.o(.ARM.Collect$$$$00000000)
    _main_stk                                0x08000189   Thumb Code     0  entry2.o(.ARM.Collect$$$$00000001)
    _main_scatterload                        0x0800018d   Thumb Code     0  entry5.o(.ARM.Collect$$$$00000004)
    __main_after_scatterload                 0x08000191   Thumb Code     0  entry5.o(.ARM.Collect$$$$00000004)
    _main_clock                              0x08000191   Thumb Code     0  entry7b.o(.ARM.Collect$$$$00000008)
    _main_cpp_init                           0x08000191   Thumb Code     0  entry8b.o(.ARM.Collect$$$$0000000A)
    _main_init                               0x08000191   Thumb Code     0  entry9a.o(.ARM.Collect$$$$0000000B)
    __rt_final_cpp                           0x08000199   Thumb Code     0  entry10a.o(.ARM.Collect$$$$0000000D)
    __rt_final_exit                          0x08000199   Thumb Code     0  entry11a.o(.ARM.Collect$$$$0000000F)
    usart1_send_char                         0x0800019d   Thumb Code    28  main.o(.text)
    usart1_niming_report                     0x080001b9   Thumb Code   146  main.o(.text)
    mpu6050_send_data                        0x0800024b   Thumb Code   110  main.o(.text)
    usart1_report_imu                        0x080002b9   Thumb Code    74  main.o(.text)
    main                                     0x08000303   Thumb Code  1314  main.o(.text)
    NMI_Handler                              0x08000829   Thumb Code     2  stm32f4xx_it.o(.text)
    HardFault_Handler                        0x0800082b   Thumb Code     4  stm32f4xx_it.o(.text)
    MemManage_Handler                        0x0800082f   Thumb Code     4  stm32f4xx_it.o(.text)
    BusFault_Handler                         0x08000833   Thumb Code     4  stm32f4xx_it.o(.text)
    UsageFault_Handler                       0x08000837   Thumb Code     4  stm32f4xx_it.o(.text)
    SVC_Handler                              0x0800083b   Thumb Code     2  stm32f4xx_it.o(.text)
    DebugMon_Handler                         0x0800083d   Thumb Code     2  stm32f4xx_it.o(.text)
    PendSV_Handler                           0x0800083f   Thumb Code     2  stm32f4xx_it.o(.text)
    SysTick_Handler                          0x08000841   Thumb Code     2  stm32f4xx_it.o(.text)
    SystemInit                               0x08000921   Thumb Code    88  system_stm32f4xx.o(.text)
    SystemCoreClockUpdate                    0x08000979   Thumb Code   174  system_stm32f4xx.o(.text)
    LED_Init                                 0x08000a55   Thumb Code    60  led.o(.text)
    KEY_Init                                 0x08000a95   Thumb Code    60  key.o(.text)
    KEY_Scan                                 0x08000ad1   Thumb Code   188  key.o(.text)
    LCD_WR_REG                               0x08000b99   Thumb Code    18  lcd.o(.text)
    LCD_WR_DATA                              0x08000bab   Thumb Code    20  lcd.o(.text)
    LCD_RD_DATA                              0x08000bbf   Thumb Code    16  lcd.o(.text)
    LCD_WriteReg                             0x08000bcf   Thumb Code    14  lcd.o(.text)
    LCD_ReadReg                              0x08000bdd   Thumb Code    22  lcd.o(.text)
    LCD_WriteRAM_Prepare                     0x08000bf3   Thumb Code    10  lcd.o(.text)
    LCD_WriteRAM                             0x08000bfd   Thumb Code     8  lcd.o(.text)
    LCD_BGR2RGB                              0x08000c05   Thumb Code    26  lcd.o(.text)
    opt_delay                                0x08000c1f   Thumb Code    14  lcd.o(.text)
    LCD_SetCursor                            0x08000c2d   Thumb Code   418  lcd.o(.text)
    LCD_ReadPoint                            0x08000dcf   Thumb Code   360  lcd.o(.text)
    LCD_DisplayOn                            0x08000f37   Thumb Code   102  lcd.o(.text)
    LCD_DisplayOff                           0x08000f9d   Thumb Code    90  lcd.o(.text)
    LCD_Scan_Dir                             0x08000ff7   Thumb Code   744  lcd.o(.text)
    LCD_DrawPoint                            0x080012df   Thumb Code    28  lcd.o(.text)
    LCD_Fast_DrawPoint                       0x080012fb   Thumb Code   388  lcd.o(.text)
    LCD_SSD_BackLightSet                     0x0800147f   Thumb Code    88  lcd.o(.text)
    LCD_Display_Dir                          0x080014d7   Thumb Code   444  lcd.o(.text)
    LCD_Set_Window                           0x08001693   Thumb Code   546  lcd.o(.text)
    LCD_Clear                                0x080018b5   Thumb Code   100  lcd.o(.text)
    LCD_Init                                 0x08001919   Thumb Code 14696  lcd.o(.text)
    LCD_Fill                                 0x08005281   Thumb Code   180  lcd.o(.text)
    LCD_Color_Fill                           0x08005335   Thumb Code   100  lcd.o(.text)
    LCD_DrawLine                             0x08005399   Thumb Code   176  lcd.o(.text)
    LCD_DrawRectangle                        0x08005449   Thumb Code    60  lcd.o(.text)
    LCD_Draw_Circle                          0x08005485   Thumb Code   152  lcd.o(.text)
    LCD_ShowChar                             0x0800551d   Thumb Code   272  lcd.o(.text)
    LCD_Pow                                  0x0800562d   Thumb Code    22  lcd.o(.text)
    LCD_ShowNum                              0x08005643   Thumb Code   148  lcd.o(.text)
    LCD_ShowxNum                             0x080056d7   Thumb Code   220  lcd.o(.text)
    LCD_ShowString                           0x080057b3   Thumb Code   102  lcd.o(.text)
    IIC_Init                                 0x08005819   Thumb Code    60  myiic.o(.text)
    IIC_Start                                0x08005855   Thumb Code    68  myiic.o(.text)
    IIC_Stop                                 0x08005899   Thumb Code    62  myiic.o(.text)
    IIC_Wait_Ack                             0x080058d7   Thumb Code    82  myiic.o(.text)
    IIC_Ack                                  0x08005929   Thumb Code    66  myiic.o(.text)
    IIC_NAck                                 0x0800596b   Thumb Code    66  myiic.o(.text)
    IIC_Send_Byte                            0x080059ad   Thumb Code    90  myiic.o(.text)
    IIC_Read_Byte                            0x08005a07   Thumb Code    94  myiic.o(.text)
    MPU_Write_Byte                           0x08005a71   Thumb Code    68  mpu6050.o(.text)
    MPU_Set_LPF                              0x08005ab5   Thumb Code    58  mpu6050.o(.text)
    MPU_Set_Rate                             0x08005aef   Thumb Code    58  mpu6050.o(.text)
    MPU_Read_Byte                            0x08005b29   Thumb Code    58  mpu6050.o(.text)
    MPU_Set_Accel_Fsr                        0x08005b63   Thumb Code    16  mpu6050.o(.text)
    MPU_Set_Gyro_Fsr                         0x08005b73   Thumb Code    16  mpu6050.o(.text)
    MPU_Init                                 0x08005b83   Thumb Code   122  mpu6050.o(.text)
    MPU_Read_Len                             0x08005bfd   Thumb Code   116  mpu6050.o(.text)
    MPU_Get_Temperature                      0x08005c71   Thumb Code   110  mpu6050.o(.text)
    MPU_Get_Gyroscope                        0x08005cdf   Thumb Code    80  mpu6050.o(.text)
    MPU_Get_Accelerometer                    0x08005d2f   Thumb Code    80  mpu6050.o(.text)
    MPU_Write_Len                            0x08005d7f   Thumb Code    96  mpu6050.o(.text)
    mpu_reg_dump                             0x08005e7f   Thumb Code    84  inv_mpu.o(.text)
    mpu_read_reg                             0x08005ed3   Thumb Code    66  inv_mpu.o(.text)
    mpu_set_int_latched                      0x08005f15   Thumb Code   102  inv_mpu.o(.text)
    mpu_set_sensors                          0x08005f7b   Thumb Code   202  inv_mpu.o(.text)
    mpu_set_bypass                           0x08006045   Thumb Code   328  inv_mpu.o(.text)
    mpu_reset_fifo                           0x0800618d   Thumb Code   472  inv_mpu.o(.text)
    mpu_configure_fifo                       0x08006365   Thumb Code   106  inv_mpu.o(.text)
    mpu_set_lpf                              0x080063cf   Thumb Code   126  inv_mpu.o(.text)
    mpu_lp_accel_mode                        0x0800644d   Thumb Code   218  inv_mpu.o(.text)
    mpu_set_sample_rate                      0x08006527   Thumb Code   152  inv_mpu.o(.text)
    mpu_set_accel_fsr                        0x080065bf   Thumb Code   132  inv_mpu.o(.text)
    mpu_set_gyro_fsr                         0x08006643   Thumb Code   132  inv_mpu.o(.text)
    mpu_init                                 0x080066c7   Thumb Code   416  inv_mpu.o(.text)
    mget_ms                                  0x08006867   Thumb Code     2  inv_mpu.o(.text)
    mpu_get_gyro_reg                         0x08006869   Thumb Code   110  inv_mpu.o(.text)
    mpu_get_accel_reg                        0x080068d7   Thumb Code   110  inv_mpu.o(.text)
    mpu_get_temperature                      0x08006945   Thumb Code   142  inv_mpu.o(.text)
    mpu_set_accel_bias                       0x080069d3   Thumb Code   472  inv_mpu.o(.text)
    mpu_get_gyro_fsr                         0x08006bab   Thumb Code    64  inv_mpu.o(.text)
    mpu_get_accel_fsr                        0x08006beb   Thumb Code    72  inv_mpu.o(.text)
    mpu_get_lpf                              0x08006c33   Thumb Code    74  inv_mpu.o(.text)
    mpu_get_sample_rate                      0x08006c7d   Thumb Code    26  inv_mpu.o(.text)
    mpu_get_compass_sample_rate              0x08006c97   Thumb Code    10  inv_mpu.o(.text)
    mpu_set_compass_sample_rate              0x08006ca1   Thumb Code     8  inv_mpu.o(.text)
    mpu_get_gyro_sens                        0x08006ca9   Thumb Code    74  inv_mpu.o(.text)
    mpu_get_accel_sens                       0x08006cf3   Thumb Code    78  inv_mpu.o(.text)
    mpu_get_fifo_config                      0x08006d41   Thumb Code    12  inv_mpu.o(.text)
    mpu_get_power_state                      0x08006d4d   Thumb Code    22  inv_mpu.o(.text)
    mpu_get_int_status                       0x08006d63   Thumb Code    64  inv_mpu.o(.text)
    mpu_read_fifo                            0x08006da3   Thumb Code   520  inv_mpu.o(.text)
    mpu_read_fifo_stream                     0x08006fab   Thumb Code   186  inv_mpu.o(.text)
    mpu_set_int_level                        0x08007065   Thumb Code    12  inv_mpu.o(.text)
    mpu_set_dmp_state                        0x08007775   Thumb Code   138  inv_mpu.o(.text)
    mpu_run_self_test                        0x080077ff   Thumb Code   278  inv_mpu.o(.text)
    mpu_write_mem                            0x08007915   Thumb Code   122  inv_mpu.o(.text)
    mpu_read_mem                             0x0800798f   Thumb Code   122  inv_mpu.o(.text)
    mpu_load_firmware                        0x08007a09   Thumb Code   190  inv_mpu.o(.text)
    mpu_get_dmp_state                        0x08007ac7   Thumb Code    14  inv_mpu.o(.text)
    setup_compass                            0x08007ad5   Thumb Code     6  inv_mpu.o(.text)
    mpu_get_compass_reg                      0x08007adb   Thumb Code     8  inv_mpu.o(.text)
    mpu_get_compass_fsr                      0x08007ae3   Thumb Code     8  inv_mpu.o(.text)
    mpu_lp_motion_interrupt                  0x08007aeb   Thumb Code   512  inv_mpu.o(.text)
    run_self_test                            0x08007ceb   Thumb Code   154  inv_mpu.o(.text)
    inv_row_2_scale                          0x08007d85   Thumb Code    78  inv_mpu.o(.text)
    inv_orientation_matrix_to_scalar         0x08007dd3   Thumb Code    40  inv_mpu.o(.text)
    mpu_dmp_init                             0x08007dfb   Thumb Code   152  inv_mpu.o(.text)
    mpu_dmp_get_data                         0x08007e93   Thumb Code   520  inv_mpu.o(.text)
    dmp_load_motion_driver_firmware          0x080080ad   Thumb Code    20  inv_mpu_dmp_motion_driver.o(.text)
    dmp_set_orientation                      0x080080c1   Thumb Code   290  inv_mpu_dmp_motion_driver.o(.text)
    dmp_set_gyro_bias                        0x080081e3   Thumb Code   294  inv_mpu_dmp_motion_driver.o(.text)
    dmp_set_accel_bias                       0x08008309   Thumb Code   300  inv_mpu_dmp_motion_driver.o(.text)
    dmp_set_fifo_rate                        0x08008435   Thumb Code   136  inv_mpu_dmp_motion_driver.o(.text)
    dmp_get_fifo_rate                        0x080084bd   Thumb Code    12  inv_mpu_dmp_motion_driver.o(.text)
    dmp_set_tap_thresh                       0x080084c9   Thumb Code   412  inv_mpu_dmp_motion_driver.o(.text)
    dmp_set_tap_axes                         0x08008665   Thumb Code    70  inv_mpu_dmp_motion_driver.o(.text)
    dmp_set_tap_count                        0x080086ab   Thumb Code    38  inv_mpu_dmp_motion_driver.o(.text)
    dmp_set_tap_time                         0x080086d1   Thumb Code    38  inv_mpu_dmp_motion_driver.o(.text)
    dmp_set_tap_time_multi                   0x080086f7   Thumb Code    38  inv_mpu_dmp_motion_driver.o(.text)
    dmp_set_shake_reject_thresh              0x0800871d   Thumb Code    56  inv_mpu_dmp_motion_driver.o(.text)
    dmp_set_shake_reject_time                0x08008755   Thumb Code    38  inv_mpu_dmp_motion_driver.o(.text)
    dmp_set_shake_reject_timeout             0x0800877b   Thumb Code    38  inv_mpu_dmp_motion_driver.o(.text)
    dmp_get_pedometer_step_count             0x080087a1   Thumb Code    66  inv_mpu_dmp_motion_driver.o(.text)
    dmp_set_pedometer_step_count             0x080087e3   Thumb Code    42  inv_mpu_dmp_motion_driver.o(.text)
    dmp_get_pedometer_walk_time              0x0800880d   Thumb Code    72  inv_mpu_dmp_motion_driver.o(.text)
    dmp_set_pedometer_walk_time              0x08008855   Thumb Code    48  inv_mpu_dmp_motion_driver.o(.text)
    dmp_enable_6x_lp_quat                    0x08008885   Thumb Code   100  inv_mpu_dmp_motion_driver.o(.text)
    dmp_enable_lp_quat                       0x080088e9   Thumb Code    60  inv_mpu_dmp_motion_driver.o(.text)
    dmp_enable_gyro_cal                      0x08008925   Thumb Code    62  inv_mpu_dmp_motion_driver.o(.text)
    dmp_enable_feature                       0x08008963   Thumb Code   530  inv_mpu_dmp_motion_driver.o(.text)
    dmp_get_enabled_features                 0x08008b75   Thumb Code    12  inv_mpu_dmp_motion_driver.o(.text)
    dmp_set_interrupt_mode                   0x08008bdf   Thumb Code    66  inv_mpu_dmp_motion_driver.o(.text)
    dmp_read_fifo                            0x08008c21   Thumb Code   514  inv_mpu_dmp_motion_driver.o(.text)
    dmp_register_tap_cb                      0x08008e23   Thumb Code    10  inv_mpu_dmp_motion_driver.o(.text)
    dmp_register_android_orient_cb           0x08008e2d   Thumb Code    10  inv_mpu_dmp_motion_driver.o(.text)
    delay_init                               0x08008e3d   Thumb Code    52  delay.o(.text)
    delay_us                                 0x08008e71   Thumb Code    72  delay.o(.text)
    delay_xms                                0x08008eb9   Thumb Code    72  delay.o(.text)
    delay_ms                                 0x08008f01   Thumb Code    56  delay.o(.text)
    _sys_exit                                0x08008f41   Thumb Code     4  usart.o(.text)
    fputc                                    0x08008f45   Thumb Code    22  usart.o(.text)
    uart_init                                0x08008f5b   Thumb Code   164  usart.o(.text)
    USART1_IRQHandler                        0x08008fff   Thumb Code   122  usart.o(.text)
    Reset_Handler                            0x08009089   Thumb Code     8  startup_stm32f40_41xxx.o(.text)
    ADC_IRQHandler                           0x080090a3   Thumb Code     0  startup_stm32f40_41xxx.o(.text)
    CAN1_RX0_IRQHandler                      0x080090a3   Thumb Code     0  startup_stm32f40_41xxx.o(.text)
    CAN1_RX1_IRQHandler                      0x080090a3   Thumb Code     0  startup_stm32f40_41xxx.o(.text)
    CAN1_SCE_IRQHandler                      0x080090a3   Thumb Code     0  startup_stm32f40_41xxx.o(.text)
    CAN1_TX_IRQHandler                       0x080090a3   Thumb Code     0  startup_stm32f40_41xxx.o(.text)
    CAN2_RX0_IRQHandler                      0x080090a3   Thumb Code     0  startup_stm32f40_41xxx.o(.text)
    CAN2_RX1_IRQHandler                      0x080090a3   Thumb Code     0  startup_stm32f40_41xxx.o(.text)
    CAN2_SCE_IRQHandler                      0x080090a3   Thumb Code     0  startup_stm32f40_41xxx.o(.text)
    CAN2_TX_IRQHandler                       0x080090a3   Thumb Code     0  startup_stm32f40_41xxx.o(.text)
    CRYP_IRQHandler                          0x080090a3   Thumb Code     0  startup_stm32f40_41xxx.o(.text)
    DCMI_IRQHandler                          0x080090a3   Thumb Code     0  startup_stm32f40_41xxx.o(.text)
    DMA1_Stream0_IRQHandler                  0x080090a3   Thumb Code     0  startup_stm32f40_41xxx.o(.text)
    DMA1_Stream1_IRQHandler                  0x080090a3   Thumb Code     0  startup_stm32f40_41xxx.o(.text)
    DMA1_Stream2_IRQHandler                  0x080090a3   Thumb Code     0  startup_stm32f40_41xxx.o(.text)
    DMA1_Stream3_IRQHandler                  0x080090a3   Thumb Code     0  startup_stm32f40_41xxx.o(.text)
    DMA1_Stream4_IRQHandler                  0x080090a3   Thumb Code     0  startup_stm32f40_41xxx.o(.text)
    DMA1_Stream5_IRQHandler                  0x080090a3   Thumb Code     0  startup_stm32f40_41xxx.o(.text)
    DMA1_Stream6_IRQHandler                  0x080090a3   Thumb Code     0  startup_stm32f40_41xxx.o(.text)
    DMA1_Stream7_IRQHandler                  0x080090a3   Thumb Code     0  startup_stm32f40_41xxx.o(.text)
    DMA2_Stream0_IRQHandler                  0x080090a3   Thumb Code     0  startup_stm32f40_41xxx.o(.text)
    DMA2_Stream1_IRQHandler                  0x080090a3   Thumb Code     0  startup_stm32f40_41xxx.o(.text)
    DMA2_Stream2_IRQHandler                  0x080090a3   Thumb Code     0  startup_stm32f40_41xxx.o(.text)
    DMA2_Stream3_IRQHandler                  0x080090a3   Thumb Code     0  startup_stm32f40_41xxx.o(.text)
    DMA2_Stream4_IRQHandler                  0x080090a3   Thumb Code     0  startup_stm32f40_41xxx.o(.text)
    DMA2_Stream5_IRQHandler                  0x080090a3   Thumb Code     0  startup_stm32f40_41xxx.o(.text)
    DMA2_Stream6_IRQHandler                  0x080090a3   Thumb Code     0  startup_stm32f40_41xxx.o(.text)
    DMA2_Stream7_IRQHandler                  0x080090a3   Thumb Code     0  startup_stm32f40_41xxx.o(.text)
    ETH_IRQHandler                           0x080090a3   Thumb Code     0  startup_stm32f40_41xxx.o(.text)
    ETH_WKUP_IRQHandler                      0x080090a3   Thumb Code     0  startup_stm32f40_41xxx.o(.text)
    EXTI0_IRQHandler                         0x080090a3   Thumb Code     0  startup_stm32f40_41xxx.o(.text)
    EXTI15_10_IRQHandler                     0x080090a3   Thumb Code     0  startup_stm32f40_41xxx.o(.text)
    EXTI1_IRQHandler                         0x080090a3   Thumb Code     0  startup_stm32f40_41xxx.o(.text)
    EXTI2_IRQHandler                         0x080090a3   Thumb Code     0  startup_stm32f40_41xxx.o(.text)
    EXTI3_IRQHandler                         0x080090a3   Thumb Code     0  startup_stm32f40_41xxx.o(.text)
    EXTI4_IRQHandler                         0x080090a3   Thumb Code     0  startup_stm32f40_41xxx.o(.text)
    EXTI9_5_IRQHandler                       0x080090a3   Thumb Code     0  startup_stm32f40_41xxx.o(.text)
    FLASH_IRQHandler                         0x080090a3   Thumb Code     0  startup_stm32f40_41xxx.o(.text)
    FPU_IRQHandler                           0x080090a3   Thumb Code     0  startup_stm32f40_41xxx.o(.text)
    FSMC_IRQHandler                          0x080090a3   Thumb Code     0  startup_stm32f40_41xxx.o(.text)
    HASH_RNG_IRQHandler                      0x080090a3   Thumb Code     0  startup_stm32f40_41xxx.o(.text)
    I2C1_ER_IRQHandler                       0x080090a3   Thumb Code     0  startup_stm32f40_41xxx.o(.text)
    I2C1_EV_IRQHandler                       0x080090a3   Thumb Code     0  startup_stm32f40_41xxx.o(.text)
    I2C2_ER_IRQHandler                       0x080090a3   Thumb Code     0  startup_stm32f40_41xxx.o(.text)
    I2C2_EV_IRQHandler                       0x080090a3   Thumb Code     0  startup_stm32f40_41xxx.o(.text)
    I2C3_ER_IRQHandler                       0x080090a3   Thumb Code     0  startup_stm32f40_41xxx.o(.text)
    I2C3_EV_IRQHandler                       0x080090a3   Thumb Code     0  startup_stm32f40_41xxx.o(.text)
    OTG_FS_IRQHandler                        0x080090a3   Thumb Code     0  startup_stm32f40_41xxx.o(.text)
    OTG_FS_WKUP_IRQHandler                   0x080090a3   Thumb Code     0  startup_stm32f40_41xxx.o(.text)
    OTG_HS_EP1_IN_IRQHandler                 0x080090a3   Thumb Code     0  startup_stm32f40_41xxx.o(.text)
    OTG_HS_EP1_OUT_IRQHandler                0x080090a3   Thumb Code     0  startup_stm32f40_41xxx.o(.text)
    OTG_HS_IRQHandler                        0x080090a3   Thumb Code     0  startup_stm32f40_41xxx.o(.text)
    OTG_HS_WKUP_IRQHandler                   0x080090a3   Thumb Code     0  startup_stm32f40_41xxx.o(.text)
    PVD_IRQHandler                           0x080090a3   Thumb Code     0  startup_stm32f40_41xxx.o(.text)
    RCC_IRQHandler                           0x080090a3   Thumb Code     0  startup_stm32f40_41xxx.o(.text)
    RTC_Alarm_IRQHandler                     0x080090a3   Thumb Code     0  startup_stm32f40_41xxx.o(.text)
    RTC_WKUP_IRQHandler                      0x080090a3   Thumb Code     0  startup_stm32f40_41xxx.o(.text)
    SDIO_IRQHandler                          0x080090a3   Thumb Code     0  startup_stm32f40_41xxx.o(.text)
    SPI1_IRQHandler                          0x080090a3   Thumb Code     0  startup_stm32f40_41xxx.o(.text)
    SPI2_IRQHandler                          0x080090a3   Thumb Code     0  startup_stm32f40_41xxx.o(.text)
    SPI3_IRQHandler                          0x080090a3   Thumb Code     0  startup_stm32f40_41xxx.o(.text)
    TAMP_STAMP_IRQHandler                    0x080090a3   Thumb Code     0  startup_stm32f40_41xxx.o(.text)
    TIM1_BRK_TIM9_IRQHandler                 0x080090a3   Thumb Code     0  startup_stm32f40_41xxx.o(.text)
    TIM1_CC_IRQHandler                       0x080090a3   Thumb Code     0  startup_stm32f40_41xxx.o(.text)
    TIM1_TRG_COM_TIM11_IRQHandler            0x080090a3   Thumb Code     0  startup_stm32f40_41xxx.o(.text)
    TIM1_UP_TIM10_IRQHandler                 0x080090a3   Thumb Code     0  startup_stm32f40_41xxx.o(.text)
    TIM2_IRQHandler                          0x080090a3   Thumb Code     0  startup_stm32f40_41xxx.o(.text)
    TIM3_IRQHandler                          0x080090a3   Thumb Code     0  startup_stm32f40_41xxx.o(.text)
    TIM5_IRQHandler                          0x080090a3   Thumb Code     0  startup_stm32f40_41xxx.o(.text)
    TIM6_DAC_IRQHandler                      0x080090a3   Thumb Code     0  startup_stm32f40_41xxx.o(.text)
    TIM7_IRQHandler                          0x080090a3   Thumb Code     0  startup_stm32f40_41xxx.o(.text)
    TIM8_BRK_TIM12_IRQHandler                0x080090a3   Thumb Code     0  startup_stm32f40_41xxx.o(.text)
    TIM8_CC_IRQHandler                       0x080090a3   Thumb Code     0  startup_stm32f40_41xxx.o(.text)
    TIM8_TRG_COM_TIM14_IRQHandler            0x080090a3   Thumb Code     0  startup_stm32f40_41xxx.o(.text)
    TIM8_UP_TIM13_IRQHandler                 0x080090a3   Thumb Code     0  startup_stm32f40_41xxx.o(.text)
    UART4_IRQHandler                         0x080090a3   Thumb Code     0  startup_stm32f40_41xxx.o(.text)
    UART5_IRQHandler                         0x080090a3   Thumb Code     0  startup_stm32f40_41xxx.o(.text)
    USART2_IRQHandler                        0x080090a3   Thumb Code     0  startup_stm32f40_41xxx.o(.text)
    USART3_IRQHandler                        0x080090a3   Thumb Code     0  startup_stm32f40_41xxx.o(.text)
    USART6_IRQHandler                        0x080090a3   Thumb Code     0  startup_stm32f40_41xxx.o(.text)
    WWDG_IRQHandler                          0x080090a3   Thumb Code     0  startup_stm32f40_41xxx.o(.text)
    NVIC_PriorityGroupConfig                 0x080090ad   Thumb Code    10  misc.o(.text)
    NVIC_Init                                0x080090b7   Thumb Code   106  misc.o(.text)
    NVIC_SetVectorTable                      0x08009121   Thumb Code    14  misc.o(.text)
    NVIC_SystemLPConfig                      0x0800912f   Thumb Code    34  misc.o(.text)
    SysTick_CLKSourceConfig                  0x08009151   Thumb Code    40  misc.o(.text)
    FSMC_NORSRAMDeInit                       0x0800918d   Thumb Code    54  stm32f4xx_fsmc.o(.text)
    FSMC_NORSRAMInit                         0x080091c3   Thumb Code   230  stm32f4xx_fsmc.o(.text)
    FSMC_NORSRAMStructInit                   0x080092a9   Thumb Code    48  stm32f4xx_fsmc.o(.text)
    FSMC_NORSRAMCmd                          0x080092d9   Thumb Code    46  stm32f4xx_fsmc.o(.text)
    FSMC_NANDDeInit                          0x08009307   Thumb Code    62  stm32f4xx_fsmc.o(.text)
    FSMC_NANDInit                            0x08009345   Thumb Code   132  stm32f4xx_fsmc.o(.text)
    FSMC_NANDStructInit                      0x080093c9   Thumb Code    54  stm32f4xx_fsmc.o(.text)
    FSMC_NANDCmd                             0x080093ff   Thumb Code    86  stm32f4xx_fsmc.o(.text)
    FSMC_NANDECCCmd                          0x08009455   Thumb Code    86  stm32f4xx_fsmc.o(.text)
    FSMC_GetECC                              0x080094ab   Thumb Code    24  stm32f4xx_fsmc.o(.text)
    FSMC_PCCARDDeInit                        0x080094c3   Thumb Code    36  stm32f4xx_fsmc.o(.text)
    FSMC_PCCARDInit                          0x080094e7   Thumb Code   130  stm32f4xx_fsmc.o(.text)
    FSMC_PCCARDStructInit                    0x08009569   Thumb Code    60  stm32f4xx_fsmc.o(.text)
    FSMC_PCCARDCmd                           0x080095a5   Thumb Code    44  stm32f4xx_fsmc.o(.text)
    FSMC_ITConfig                            0x080095d1   Thumb Code   128  stm32f4xx_fsmc.o(.text)
    FSMC_GetFlagStatus                       0x08009651   Thumb Code    54  stm32f4xx_fsmc.o(.text)
    FSMC_ClearFlag                           0x08009687   Thumb Code    74  stm32f4xx_fsmc.o(.text)
    FSMC_GetITStatus                         0x080096d1   Thumb Code    62  stm32f4xx_fsmc.o(.text)
    FSMC_ClearITPendingBit                   0x0800970f   Thumb Code    66  stm32f4xx_fsmc.o(.text)
    GPIO_DeInit                              0x08009755   Thumb Code   268  stm32f4xx_gpio.o(.text)
    GPIO_Init                                0x08009861   Thumb Code   144  stm32f4xx_gpio.o(.text)
    GPIO_StructInit                          0x080098f1   Thumb Code    18  stm32f4xx_gpio.o(.text)
    GPIO_PinLockConfig                       0x08009903   Thumb Code    34  stm32f4xx_gpio.o(.text)
    GPIO_ReadInputDataBit                    0x08009925   Thumb Code    18  stm32f4xx_gpio.o(.text)
    GPIO_ReadInputData                       0x08009937   Thumb Code     8  stm32f4xx_gpio.o(.text)
    GPIO_ReadOutputDataBit                   0x0800993f   Thumb Code    18  stm32f4xx_gpio.o(.text)
    GPIO_ReadOutputData                      0x08009951   Thumb Code     8  stm32f4xx_gpio.o(.text)
    GPIO_SetBits                             0x08009959   Thumb Code     4  stm32f4xx_gpio.o(.text)
    GPIO_ResetBits                           0x0800995d   Thumb Code     4  stm32f4xx_gpio.o(.text)
    GPIO_WriteBit                            0x08009961   Thumb Code    10  stm32f4xx_gpio.o(.text)
    GPIO_Write                               0x0800996b   Thumb Code     4  stm32f4xx_gpio.o(.text)
    GPIO_ToggleBits                          0x0800996f   Thumb Code     8  stm32f4xx_gpio.o(.text)
    GPIO_PinAFConfig                         0x08009977   Thumb Code    70  stm32f4xx_gpio.o(.text)
    RCC_DeInit                               0x080099e9   Thumb Code    82  stm32f4xx_rcc.o(.text)
    RCC_HSEConfig                            0x08009a3b   Thumb Code    14  stm32f4xx_rcc.o(.text)
    RCC_GetFlagStatus                        0x08009a49   Thumb Code    60  stm32f4xx_rcc.o(.text)
    RCC_WaitForHSEStartUp                    0x08009a85   Thumb Code    56  stm32f4xx_rcc.o(.text)
    RCC_AdjustHSICalibrationValue            0x08009abd   Thumb Code    20  stm32f4xx_rcc.o(.text)
    RCC_HSICmd                               0x08009ad1   Thumb Code     6  stm32f4xx_rcc.o(.text)
    RCC_LSEConfig                            0x08009ad7   Thumb Code    46  stm32f4xx_rcc.o(.text)
    RCC_LSICmd                               0x08009b05   Thumb Code     6  stm32f4xx_rcc.o(.text)
    RCC_PLLConfig                            0x08009b0b   Thumb Code    32  stm32f4xx_rcc.o(.text)
    RCC_PLLCmd                               0x08009b2b   Thumb Code     6  stm32f4xx_rcc.o(.text)
    RCC_PLLI2SConfig                         0x08009b31   Thumb Code    14  stm32f4xx_rcc.o(.text)
    RCC_PLLI2SCmd                            0x08009b3f   Thumb Code     6  stm32f4xx_rcc.o(.text)
    RCC_PLLSAIConfig                         0x08009b45   Thumb Code    20  stm32f4xx_rcc.o(.text)
    RCC_PLLSAICmd                            0x08009b59   Thumb Code     6  stm32f4xx_rcc.o(.text)
    RCC_ClockSecuritySystemCmd               0x08009b5f   Thumb Code     6  stm32f4xx_rcc.o(.text)
    RCC_MCO1Config                           0x08009b65   Thumb Code    28  stm32f4xx_rcc.o(.text)
    RCC_MCO2Config                           0x08009b81   Thumb Code    28  stm32f4xx_rcc.o(.text)
    RCC_SYSCLKConfig                         0x08009b9d   Thumb Code    20  stm32f4xx_rcc.o(.text)
    RCC_GetSYSCLKSource                      0x08009bb1   Thumb Code    12  stm32f4xx_rcc.o(.text)
    RCC_HCLKConfig                           0x08009bbd   Thumb Code    20  stm32f4xx_rcc.o(.text)
    RCC_PCLK1Config                          0x08009bd1   Thumb Code    20  stm32f4xx_rcc.o(.text)
    RCC_PCLK2Config                          0x08009be5   Thumb Code    22  stm32f4xx_rcc.o(.text)
    RCC_GetClocksFreq                        0x08009bfb   Thumb Code   222  stm32f4xx_rcc.o(.text)
    RCC_RTCCLKConfig                         0x08009cd9   Thumb Code    54  stm32f4xx_rcc.o(.text)
    RCC_RTCCLKCmd                            0x08009d0f   Thumb Code     8  stm32f4xx_rcc.o(.text)
    RCC_BackupResetCmd                       0x08009d17   Thumb Code     8  stm32f4xx_rcc.o(.text)
    RCC_I2SCLKConfig                         0x08009d1f   Thumb Code     6  stm32f4xx_rcc.o(.text)
    RCC_SAIPLLI2SClkDivConfig                0x08009d25   Thumb Code    26  stm32f4xx_rcc.o(.text)
    RCC_SAIPLLSAIClkDivConfig                0x08009d3f   Thumb Code    28  stm32f4xx_rcc.o(.text)
    RCC_SAIBlockACLKConfig                   0x08009d5b   Thumb Code    20  stm32f4xx_rcc.o(.text)
    RCC_SAIBlockBCLKConfig                   0x08009d6f   Thumb Code    20  stm32f4xx_rcc.o(.text)
    RCC_LTDCCLKDivConfig                     0x08009d83   Thumb Code    20  stm32f4xx_rcc.o(.text)
    RCC_TIMCLKPresConfig                     0x08009d97   Thumb Code     6  stm32f4xx_rcc.o(.text)
    RCC_AHB1PeriphClockCmd                   0x08009d9d   Thumb Code    34  stm32f4xx_rcc.o(.text)
    RCC_AHB2PeriphClockCmd                   0x08009dbf   Thumb Code    78  stm32f4xx_rcc.o(.text)
    RCC_AHB3PeriphClockCmd                   0x08009e0d   Thumb Code    34  stm32f4xx_rcc.o(.text)
    RCC_APB1PeriphClockCmd                   0x08009e2f   Thumb Code    34  stm32f4xx_rcc.o(.text)
    RCC_APB2PeriphClockCmd                   0x08009e51   Thumb Code    34  stm32f4xx_rcc.o(.text)
    RCC_AHB1PeriphResetCmd                   0x08009e73   Thumb Code    34  stm32f4xx_rcc.o(.text)
    RCC_AHB2PeriphResetCmd                   0x08009e95   Thumb Code    34  stm32f4xx_rcc.o(.text)
    RCC_AHB3PeriphResetCmd                   0x08009eb7   Thumb Code    34  stm32f4xx_rcc.o(.text)
    RCC_APB1PeriphResetCmd                   0x08009ed9   Thumb Code    34  stm32f4xx_rcc.o(.text)
    RCC_APB2PeriphResetCmd                   0x08009efb   Thumb Code    34  stm32f4xx_rcc.o(.text)
    RCC_AHB1PeriphClockLPModeCmd             0x08009f1d   Thumb Code    34  stm32f4xx_rcc.o(.text)
    RCC_AHB2PeriphClockLPModeCmd             0x08009f3f   Thumb Code    34  stm32f4xx_rcc.o(.text)
    RCC_AHB3PeriphClockLPModeCmd             0x08009f61   Thumb Code    34  stm32f4xx_rcc.o(.text)
    RCC_APB1PeriphClockLPModeCmd             0x08009f83   Thumb Code    34  stm32f4xx_rcc.o(.text)
    RCC_APB2PeriphClockLPModeCmd             0x08009fa5   Thumb Code    34  stm32f4xx_rcc.o(.text)
    RCC_LSEModeConfig                        0x08009fc7   Thumb Code    40  stm32f4xx_rcc.o(.text)
    RCC_ITConfig                             0x08009fef   Thumb Code    34  stm32f4xx_rcc.o(.text)
    RCC_ClearFlag                            0x0800a011   Thumb Code    18  stm32f4xx_rcc.o(.text)
    RCC_GetITStatus                          0x0800a023   Thumb Code    22  stm32f4xx_rcc.o(.text)
    RCC_ClearITPendingBit                    0x0800a039   Thumb Code     8  stm32f4xx_rcc.o(.text)
    USART_DeInit                             0x0800a045   Thumb Code   206  stm32f4xx_usart.o(.text)
    USART_Init                               0x0800a113   Thumb Code   204  stm32f4xx_usart.o(.text)
    USART_StructInit                         0x0800a1df   Thumb Code    24  stm32f4xx_usart.o(.text)
    USART_ClockInit                          0x0800a1f7   Thumb Code    32  stm32f4xx_usart.o(.text)
    USART_ClockStructInit                    0x0800a217   Thumb Code    12  stm32f4xx_usart.o(.text)
    USART_Cmd                                0x0800a223   Thumb Code    24  stm32f4xx_usart.o(.text)
    USART_SetPrescaler                       0x0800a23b   Thumb Code    16  stm32f4xx_usart.o(.text)
    USART_OverSampling8Cmd                   0x0800a24b   Thumb Code    22  stm32f4xx_usart.o(.text)
    USART_OneBitMethodCmd                    0x0800a261   Thumb Code    24  stm32f4xx_usart.o(.text)
    USART_SendData                           0x0800a279   Thumb Code     8  stm32f4xx_usart.o(.text)
    USART_ReceiveData                        0x0800a281   Thumb Code    10  stm32f4xx_usart.o(.text)
    USART_SetAddress                         0x0800a28b   Thumb Code    18  stm32f4xx_usart.o(.text)
    USART_ReceiverWakeUpCmd                  0x0800a29d   Thumb Code    24  stm32f4xx_usart.o(.text)
    USART_WakeUpConfig                       0x0800a2b5   Thumb Code    18  stm32f4xx_usart.o(.text)
    USART_LINBreakDetectLengthConfig         0x0800a2c7   Thumb Code    18  stm32f4xx_usart.o(.text)
    USART_LINCmd                             0x0800a2d9   Thumb Code    24  stm32f4xx_usart.o(.text)
    USART_SendBreak                          0x0800a2f1   Thumb Code    10  stm32f4xx_usart.o(.text)
    USART_HalfDuplexCmd                      0x0800a2fb   Thumb Code    24  stm32f4xx_usart.o(.text)
    USART_SetGuardTime                       0x0800a313   Thumb Code    16  stm32f4xx_usart.o(.text)
    USART_SmartCardCmd                       0x0800a323   Thumb Code    24  stm32f4xx_usart.o(.text)
    USART_SmartCardNACKCmd                   0x0800a33b   Thumb Code    24  stm32f4xx_usart.o(.text)
    USART_IrDAConfig                         0x0800a353   Thumb Code    18  stm32f4xx_usart.o(.text)
    USART_IrDACmd                            0x0800a365   Thumb Code    24  stm32f4xx_usart.o(.text)
    USART_DMACmd                             0x0800a37d   Thumb Code    18  stm32f4xx_usart.o(.text)
    USART_ITConfig                           0x0800a38f   Thumb Code    74  stm32f4xx_usart.o(.text)
    USART_GetFlagStatus                      0x0800a3d9   Thumb Code    26  stm32f4xx_usart.o(.text)
    USART_ClearFlag                          0x0800a3f3   Thumb Code    18  stm32f4xx_usart.o(.text)
    USART_GetITStatus                        0x0800a405   Thumb Code   118  stm32f4xx_usart.o(.text)
    USART_ClearITPendingBit                  0x0800a47b   Thumb Code    30  stm32f4xx_usart.o(.text)
    TIM_DeInit                               0x0800a499   Thumb Code   346  stm32f4xx_tim.o(.text)
    TIM_TimeBaseInit                         0x0800a5f3   Thumb Code   104  stm32f4xx_tim.o(.text)
    TIM_TimeBaseStructInit                   0x0800a65b   Thumb Code    18  stm32f4xx_tim.o(.text)
    TIM_PrescalerConfig                      0x0800a66d   Thumb Code     6  stm32f4xx_tim.o(.text)
    TIM_CounterModeConfig                    0x0800a673   Thumb Code    18  stm32f4xx_tim.o(.text)
    TIM_SetCounter                           0x0800a685   Thumb Code     4  stm32f4xx_tim.o(.text)
    TIM_SetAutoreload                        0x0800a689   Thumb Code     4  stm32f4xx_tim.o(.text)
    TIM_GetCounter                           0x0800a68d   Thumb Code     6  stm32f4xx_tim.o(.text)
    TIM_GetPrescaler                         0x0800a693   Thumb Code     6  stm32f4xx_tim.o(.text)
    TIM_UpdateDisableConfig                  0x0800a699   Thumb Code    24  stm32f4xx_tim.o(.text)
    TIM_UpdateRequestConfig                  0x0800a6b1   Thumb Code    24  stm32f4xx_tim.o(.text)
    TIM_ARRPreloadConfig                     0x0800a6c9   Thumb Code    24  stm32f4xx_tim.o(.text)
    TIM_SelectOnePulseMode                   0x0800a6e1   Thumb Code    18  stm32f4xx_tim.o(.text)
    TIM_SetClockDivision                     0x0800a6f3   Thumb Code    18  stm32f4xx_tim.o(.text)
    TIM_Cmd                                  0x0800a705   Thumb Code    24  stm32f4xx_tim.o(.text)
    TIM_OC1Init                              0x0800a71d   Thumb Code   114  stm32f4xx_tim.o(.text)
    TIM_OC2Init                              0x0800a78f   Thumb Code   154  stm32f4xx_tim.o(.text)
    TIM_OC3Init                              0x0800a829   Thumb Code   204  stm32f4xx_tim.o(.text)
    TIM_OC4Init                              0x0800a8f5   Thumb Code   112  stm32f4xx_tim.o(.text)
    TIM_OCStructInit                         0x0800a965   Thumb Code    20  stm32f4xx_tim.o(.text)
    TIM_SelectOCxM                           0x0800a979   Thumb Code    86  stm32f4xx_tim.o(.text)
    TIM_SetCompare1                          0x0800a9cf   Thumb Code     4  stm32f4xx_tim.o(.text)
    TIM_SetCompare2                          0x0800a9d3   Thumb Code     4  stm32f4xx_tim.o(.text)
    TIM_SetCompare3                          0x0800a9d7   Thumb Code     4  stm32f4xx_tim.o(.text)
    TIM_SetCompare4                          0x0800a9db   Thumb Code     4  stm32f4xx_tim.o(.text)
    TIM_ForcedOC1Config                      0x0800a9df   Thumb Code    18  stm32f4xx_tim.o(.text)
    TIM_ForcedOC2Config                      0x0800a9f1   Thumb Code    26  stm32f4xx_tim.o(.text)
    TIM_ForcedOC3Config                      0x0800aa0b   Thumb Code    18  stm32f4xx_tim.o(.text)
    TIM_ForcedOC4Config                      0x0800aa1d   Thumb Code    26  stm32f4xx_tim.o(.text)
    TIM_OC1PreloadConfig                     0x0800aa37   Thumb Code    18  stm32f4xx_tim.o(.text)
    TIM_OC2PreloadConfig                     0x0800aa49   Thumb Code    26  stm32f4xx_tim.o(.text)
    TIM_OC3PreloadConfig                     0x0800aa63   Thumb Code    18  stm32f4xx_tim.o(.text)
    TIM_OC4PreloadConfig                     0x0800aa75   Thumb Code    26  stm32f4xx_tim.o(.text)
    TIM_OC1FastConfig                        0x0800aa8f   Thumb Code    18  stm32f4xx_tim.o(.text)
    TIM_OC2FastConfig                        0x0800aaa1   Thumb Code    26  stm32f4xx_tim.o(.text)
    TIM_OC3FastConfig                        0x0800aabb   Thumb Code    18  stm32f4xx_tim.o(.text)
    TIM_OC4FastConfig                        0x0800aacd   Thumb Code    26  stm32f4xx_tim.o(.text)
    TIM_ClearOC1Ref                          0x0800aae7   Thumb Code    18  stm32f4xx_tim.o(.text)
    TIM_ClearOC2Ref                          0x0800aaf9   Thumb Code    24  stm32f4xx_tim.o(.text)
    TIM_ClearOC3Ref                          0x0800ab11   Thumb Code    18  stm32f4xx_tim.o(.text)
    TIM_ClearOC4Ref                          0x0800ab23   Thumb Code    24  stm32f4xx_tim.o(.text)
    TIM_OC1PolarityConfig                    0x0800ab3b   Thumb Code    18  stm32f4xx_tim.o(.text)
    TIM_OC1NPolarityConfig                   0x0800ab4d   Thumb Code    18  stm32f4xx_tim.o(.text)
    TIM_OC2PolarityConfig                    0x0800ab5f   Thumb Code    26  stm32f4xx_tim.o(.text)
    TIM_OC2NPolarityConfig                   0x0800ab79   Thumb Code    26  stm32f4xx_tim.o(.text)
    TIM_OC3PolarityConfig                    0x0800ab93   Thumb Code    26  stm32f4xx_tim.o(.text)
    TIM_OC3NPolarityConfig                   0x0800abad   Thumb Code    26  stm32f4xx_tim.o(.text)
    TIM_OC4PolarityConfig                    0x0800abc7   Thumb Code    26  stm32f4xx_tim.o(.text)
    TIM_CCxCmd                               0x0800abe1   Thumb Code    30  stm32f4xx_tim.o(.text)
    TIM_CCxNCmd                              0x0800abff   Thumb Code    30  stm32f4xx_tim.o(.text)
    TIM_SetIC4Prescaler                      0x0800ac1d   Thumb Code    26  stm32f4xx_tim.o(.text)
    TIM_SetIC3Prescaler                      0x0800ac87   Thumb Code    18  stm32f4xx_tim.o(.text)
    TIM_SetIC2Prescaler                      0x0800ace1   Thumb Code    26  stm32f4xx_tim.o(.text)
    TIM_SetIC1Prescaler                      0x0800ad55   Thumb Code    18  stm32f4xx_tim.o(.text)
    TIM_ICInit                               0x0800ada1   Thumb Code   110  stm32f4xx_tim.o(.text)
    TIM_ICStructInit                         0x0800ae0f   Thumb Code    18  stm32f4xx_tim.o(.text)
    TIM_PWMIConfig                           0x0800ae21   Thumb Code   124  stm32f4xx_tim.o(.text)
    TIM_GetCapture1                          0x0800ae9d   Thumb Code     6  stm32f4xx_tim.o(.text)
    TIM_GetCapture2                          0x0800aea3   Thumb Code     6  stm32f4xx_tim.o(.text)
    TIM_GetCapture3                          0x0800aea9   Thumb Code     6  stm32f4xx_tim.o(.text)
    TIM_GetCapture4                          0x0800aeaf   Thumb Code     6  stm32f4xx_tim.o(.text)
    TIM_BDTRConfig                           0x0800aeb5   Thumb Code    32  stm32f4xx_tim.o(.text)
    TIM_BDTRStructInit                       0x0800aed5   Thumb Code    18  stm32f4xx_tim.o(.text)
    TIM_CtrlPWMOutputs                       0x0800aee7   Thumb Code    30  stm32f4xx_tim.o(.text)
    TIM_SelectCOM                            0x0800af05   Thumb Code    24  stm32f4xx_tim.o(.text)
    TIM_CCPreloadControl                     0x0800af1d   Thumb Code    24  stm32f4xx_tim.o(.text)
    TIM_ITConfig                             0x0800af35   Thumb Code    18  stm32f4xx_tim.o(.text)
    TIM_GenerateEvent                        0x0800af47   Thumb Code     4  stm32f4xx_tim.o(.text)
    TIM_GetFlagStatus                        0x0800af4b   Thumb Code    18  stm32f4xx_tim.o(.text)
    TIM_ClearFlag                            0x0800af5d   Thumb Code     6  stm32f4xx_tim.o(.text)
    TIM_GetITStatus                          0x0800af63   Thumb Code    34  stm32f4xx_tim.o(.text)
    TIM_ClearITPendingBit                    0x0800af85   Thumb Code     6  stm32f4xx_tim.o(.text)
    TIM_DMAConfig                            0x0800af8b   Thumb Code    10  stm32f4xx_tim.o(.text)
    TIM_DMACmd                               0x0800af95   Thumb Code    18  stm32f4xx_tim.o(.text)
    TIM_SelectCCDMA                          0x0800afa7   Thumb Code    24  stm32f4xx_tim.o(.text)
    TIM_InternalClockConfig                  0x0800afbf   Thumb Code    12  stm32f4xx_tim.o(.text)
    TIM_SelectInputTrigger                   0x0800afcb   Thumb Code    18  stm32f4xx_tim.o(.text)
    TIM_ITRxExternalClockConfig              0x0800afdd   Thumb Code    24  stm32f4xx_tim.o(.text)
    TIM_TIxExternalClockConfig               0x0800aff5   Thumb Code    62  stm32f4xx_tim.o(.text)
    TIM_ETRConfig                            0x0800b033   Thumb Code    28  stm32f4xx_tim.o(.text)
    TIM_ETRClockMode1Config                  0x0800b04f   Thumb Code    54  stm32f4xx_tim.o(.text)
    TIM_ETRClockMode2Config                  0x0800b085   Thumb Code    32  stm32f4xx_tim.o(.text)
    TIM_SelectOutputTrigger                  0x0800b0a5   Thumb Code    18  stm32f4xx_tim.o(.text)
    TIM_SelectSlaveMode                      0x0800b0b7   Thumb Code    18  stm32f4xx_tim.o(.text)
    TIM_SelectMasterSlaveMode                0x0800b0c9   Thumb Code    18  stm32f4xx_tim.o(.text)
    TIM_EncoderInterfaceConfig               0x0800b0db   Thumb Code    66  stm32f4xx_tim.o(.text)
    TIM_SelectHallSensor                     0x0800b11d   Thumb Code    24  stm32f4xx_tim.o(.text)
    TIM_RemapConfig                          0x0800b135   Thumb Code     6  stm32f4xx_tim.o(.text)
    usmart_sys_cmd_exe                       0x0800b13d   Thumb Code  1554  usmart.o(.text)
    usmart_reset_runtime                     0x0800b74f   Thumb Code    38  usmart.o(.text)
    usmart_get_runtime                       0x0800b775   Thumb Code    60  usmart.o(.text)
    TIM4_IRQHandler                          0x0800b7b1   Thumb Code    46  usmart.o(.text)
    Timer4_Init                              0x0800b7df   Thumb Code    86  usmart.o(.text)
    usmart_init                              0x0800b835   Thumb Code    36  usmart.o(.text)
    usmart_cmd_rec                           0x0800b859   Thumb Code   170  usmart.o(.text)
    usmart_exe                               0x0800b903   Thumb Code   868  usmart.o(.text)
    usmart_scan                              0x0800bc67   Thumb Code   120  usmart.o(.text)
    read_addr                                0x0800bcdf   Thumb Code     6  usmart.o(.text)
    write_addr                               0x0800bce5   Thumb Code     4  usmart.o(.text)
    usmart_strcmp                            0x0800bd71   Thumb Code    34  usmart_str.o(.text)
    usmart_strcopy                           0x0800bd93   Thumb Code    22  usmart_str.o(.text)
    usmart_strlen                            0x0800bda9   Thumb Code    24  usmart_str.o(.text)
    usmart_pow                               0x0800bdc1   Thumb Code    22  usmart_str.o(.text)
    usmart_str2num                           0x0800bdd7   Thumb Code   202  usmart_str.o(.text)
    usmart_get_cmdname                       0x0800bea1   Thumb Code    54  usmart_str.o(.text)
    usmart_search_nextc                      0x0800bed7   Thumb Code    22  usmart_str.o(.text)
    usmart_get_fname                         0x0800beed   Thumb Code   440  usmart_str.o(.text)
    usmart_get_aparm                         0x0800c0a5   Thumb Code   200  usmart_str.o(.text)
    usmart_get_parmpos                       0x0800c16d   Thumb Code    26  usmart_str.o(.text)
    usmart_get_fparam                        0x0800c187   Thumb Code   262  usmart_str.o(.text)
    __aeabi_ldivmod                          0x0800c299   Thumb Code    98  ldiv.o(.text)
    __aeabi_memset                           0x0800c2fb   Thumb Code    14  memseta.o(.text)
    __aeabi_memset4                          0x0800c2fb   Thumb Code     0  memseta.o(.text)
    __aeabi_memset8                          0x0800c2fb   Thumb Code     0  memseta.o(.text)
    __aeabi_memclr                           0x0800c309   Thumb Code     4  memseta.o(.text)
    __aeabi_memclr4                          0x0800c309   Thumb Code     0  memseta.o(.text)
    __aeabi_memclr8                          0x0800c309   Thumb Code     0  memseta.o(.text)
    _memset$wrapper                          0x0800c30d   Thumb Code    18  memseta.o(.text)
    memcmp                                   0x0800c31f   Thumb Code    26  memcmp.o(.text)
    __aeabi_dadd                             0x0800c339   Thumb Code   322  dadd.o(.text)
    __aeabi_dsub                             0x0800c47b   Thumb Code     6  dadd.o(.text)
    __aeabi_drsub                            0x0800c481   Thumb Code     6  dadd.o(.text)
    __aeabi_dmul                             0x0800c487   Thumb Code   228  dmul.o(.text)
    __aeabi_ddiv                             0x0800c56b   Thumb Code   222  ddiv.o(.text)
    __aeabi_i2d                              0x0800c649   Thumb Code    34  dflti.o(.text)
    __aeabi_ui2d                             0x0800c66b   Thumb Code    26  dfltui.o(.text)
    __aeabi_d2uiz                            0x0800c685   Thumb Code    50  dfixui.o(.text)
    __aeabi_f2d                              0x0800c6b7   Thumb Code    38  f2d.o(.text)
    __aeabi_d2f                              0x0800c6dd   Thumb Code    56  d2f.o(.text)
    __aeabi_uldivmod                         0x0800c715   Thumb Code    98  uldiv.o(.text)
    __aeabi_llsl                             0x0800c777   Thumb Code    30  llshl.o(.text)
    _ll_shift_l                              0x0800c777   Thumb Code     0  llshl.o(.text)
    __aeabi_llsr                             0x0800c795   Thumb Code    32  llushr.o(.text)
    _ll_ushift_r                             0x0800c795   Thumb Code     0  llushr.o(.text)
    __aeabi_lasr                             0x0800c7b5   Thumb Code    36  llsshr.o(.text)
    _ll_sshift_r                             0x0800c7b5   Thumb Code     0  llsshr.o(.text)
    __I$use$fp                               0x0800c7d9   Thumb Code     0  iusefp.o(.text)
    _float_round                             0x0800c7d9   Thumb Code    18  fepilogue.o(.text)
    _float_epilogue                          0x0800c7eb   Thumb Code    92  fepilogue.o(.text)
    _double_round                            0x0800c847   Thumb Code    30  depilogue.o(.text)
    _double_epilogue                         0x0800c865   Thumb Code   156  depilogue.o(.text)
    __scatterload                            0x0800c901   Thumb Code    28  init.o(.text)
    __scatterload_rt2                        0x0800c901   Thumb Code     0  init.o(.text)
    _dsqrt                                   0x0800c925   Thumb Code   162  dsqrt.o(.text)
    __decompress                             0x0800c9c7   Thumb Code     0  __dczerorl2.o(.text)
    __decompress1                            0x0800c9c7   Thumb Code    86  __dczerorl2.o(.text)
    __0printf$8                              0x0800ca1d   Thumb Code    22  printf8.o(i.__0printf$8)
    __1printf$8                              0x0800ca1d   Thumb Code     0  printf8.o(i.__0printf$8)
    __2printf                                0x0800ca1d   Thumb Code     0  printf8.o(i.__0printf$8)
    __ARM_fpclassify                         0x0800ca3d   Thumb Code    48  fpclassify.o(i.__ARM_fpclassify)
    __hardfp_asin                            0x0800ca71   Thumb Code   770  asin.o(i.__hardfp_asin)
    __hardfp_atan                            0x0800cdd1   Thumb Code   622  atan.o(i.__hardfp_atan)
    __hardfp_atan2                           0x0800d0a9   Thumb Code   432  atan2.o(i.__hardfp_atan2)
    __kernel_poly                            0x0800d299   Thumb Code   248  poly.o(i.__kernel_poly)
    __mathlib_dbl_infnan                     0x0800d391   Thumb Code    20  dunder.o(i.__mathlib_dbl_infnan)
    __mathlib_dbl_infnan2                    0x0800d3a5   Thumb Code    20  dunder.o(i.__mathlib_dbl_infnan2)
    __mathlib_dbl_invalid                    0x0800d3b9   Thumb Code    24  dunder.o(i.__mathlib_dbl_invalid)
    __mathlib_dbl_underflow                  0x0800d3d9   Thumb Code    24  dunder.o(i.__mathlib_dbl_underflow)
    __scatterload_copy                       0x0800d3f9   Thumb Code    14  handlers.o(i.__scatterload_copy)
    __scatterload_null                       0x0800d407   Thumb Code     2  handlers.o(i.__scatterload_null)
    __scatterload_zeroinit                   0x0800d409   Thumb Code    14  handlers.o(i.__scatterload_zeroinit)
    __set_errno                              0x0800d419   Thumb Code     6  errno.o(i.__set_errno)
    atan                                     0x0800d887   Thumb Code    16  atan.o(i.atan)
    fabs                                     0x0800d897   Thumb Code    24  fabs.o(i.fabs)
    sqrt                                     0x0800d8af   Thumb Code   110  sqrt.o(i.sqrt)
    asc2_1206                                0x0800d91c   Data        1140  lcd.o(.constdata)
    asc2_1608                                0x0800dd90   Data        1520  lcd.o(.constdata)
    asc2_2412                                0x0800e380   Data        3420  lcd.o(.constdata)
    reg                                      0x0800f0dc   Data          27  inv_mpu.o(.constdata)
    hw                                       0x0800f0f8   Data          12  inv_mpu.o(.constdata)
    test                                     0x0800f104   Data          40  inv_mpu.o(.constdata)
    FSMC_DefaultTimingStruct                 0x0800fd24   Data          28  stm32f4xx_fsmc.o(.constdata)
    __mathlib_zero                           0x0800fe28   Data           8  qnan.o(.constdata)
    Region$$Table$$Base                      0x0800ff74   Number         0  anon$$obj.o(Region$$Table)
    Region$$Table$$Limit                     0x0800ff94   Number         0  anon$$obj.o(Region$$Table)
    SystemCoreClock                          0x20000000   Data           4  system_stm32f4xx.o(.data)
    AHBPrescTable                            0x20000004   Data          16  system_stm32f4xx.o(.data)
    POINT_COLOR                              0x20000016   Data           2  lcd.o(.data)
    BACK_COLOR                               0x20000018   Data           2  lcd.o(.data)
    __stdout                                 0x20000058   Data           4  usart.o(.data)
    USART_RX_STA                             0x2000005c   Data           2  usart.o(.data)
    sys_cmd_tab                              0x20000070   Data          28  usmart.o(.data)
    usmart_nametab                           0x2000008c   Data          56  usmart_config.o(.data)
    usmart_dev                               0x200000c4   Data         244  usmart_config.o(.data)
    lcddev                                   0x200001bc   Data          14  lcd.o(.bss)
    USART_RX_BUF                             0x200001dc   Data         200  usart.o(.bss)
    __initial_sp                             0x200006a8   Data           0  startup_stm32f40_41xxx.o(STACK)



==============================================================================

Memory Map of the image

  Image Entry point : 0x08000189

  Load Region LR_IROM1 (Base: 0x08000000, Size: 0x00010150, Max: 0x00100000, ABSOLUTE, COMPRESSED[0x0001001c])

    Execution Region ER_IROM1 (Exec base: 0x08000000, Load base: 0x08000000, Size: 0x0000ff94, Max: 0x00100000, ABSOLUTE)

    Exec Addr    Load Addr    Size         Type   Attr      Idx    E Section Name        Object

    0x08000000   0x08000000   0x00000188   Data   RO          631    RESET               startup_stm32f40_41xxx.o
    0x08000188   0x08000188   0x00000000   Code   RO          879  * .ARM.Collect$$$$00000000  mc_w.l(entry.o)
    0x08000188   0x08000188   0x00000004   Code   RO         1216    .ARM.Collect$$$$00000001  mc_w.l(entry2.o)
    0x0800018c   0x0800018c   0x00000004   Code   RO         1219    .ARM.Collect$$$$00000004  mc_w.l(entry5.o)
    0x08000190   0x08000190   0x00000000   Code   RO         1221    .ARM.Collect$$$$00000008  mc_w.l(entry7b.o)
    0x08000190   0x08000190   0x00000000   Code   RO         1223    .ARM.Collect$$$$0000000A  mc_w.l(entry8b.o)
    0x08000190   0x08000190   0x00000008   Code   RO         1224    .ARM.Collect$$$$0000000B  mc_w.l(entry9a.o)
    0x08000198   0x08000198   0x00000000   Code   RO         1226    .ARM.Collect$$$$0000000D  mc_w.l(entry10a.o)
    0x08000198   0x08000198   0x00000000   Code   RO         1228    .ARM.Collect$$$$0000000F  mc_w.l(entry11a.o)
    0x08000198   0x08000198   0x00000004   Code   RO         1217    .ARM.Collect$$$$00002712  mc_w.l(entry2.o)
    0x0800019c   0x0800019c   0x0000068c   Code   RO            3    .text               main.o
    0x08000828   0x08000828   0x0000001a   Code   RO          169    .text               stm32f4xx_it.o
    0x08000842   0x08000842   0x00000002   PAD
    0x08000844   0x08000844   0x00000210   Code   RO          293    .text               system_stm32f4xx.o
    0x08000a54   0x08000a54   0x00000040   Code   RO          319    .text               led.o
    0x08000a94   0x08000a94   0x00000104   Code   RO          371    .text               key.o
    0x08000b98   0x08000b98   0x00004c80   Code   RO          398    .text               lcd.o
    0x08005818   0x08005818   0x00000258   Code   RO          440    .text               myiic.o
    0x08005a70   0x08005a70   0x00000384   Code   RO          463    .text               mpu6050.o
    0x08005df4   0x08005df4   0x000022b8   Code   RO          486    .text               inv_mpu.o
    0x080080ac   0x080080ac   0x00000d90   Code   RO          521    .text               inv_mpu_dmp_motion_driver.o
    0x08008e3c   0x08008e3c   0x00000104   Code   RO          560    .text               delay.o
    0x08008f40   0x08008f40   0x00000148   Code   RO          600    .text               usart.o
    0x08009088   0x08009088   0x00000024   Code   RO          632    .text               startup_stm32f40_41xxx.o
    0x080090ac   0x080090ac   0x000000e0   Code   RO          638    .text               misc.o
    0x0800918c   0x0800918c   0x000005c8   Code   RO          658    .text               stm32f4xx_fsmc.o
    0x08009754   0x08009754   0x00000294   Code   RO          681    .text               stm32f4xx_gpio.o
    0x080099e8   0x080099e8   0x0000065c   Code   RO          701    .text               stm32f4xx_rcc.o
    0x0800a044   0x0800a044   0x00000454   Code   RO          743    .text               stm32f4xx_usart.o
    0x0800a498   0x0800a498   0x00000ca2   Code   RO          763    .text               stm32f4xx_tim.o
    0x0800b13a   0x0800b13a   0x00000002   PAD
    0x0800b13c   0x0800b13c   0x00000c34   Code   RO          783    .text               usmart.o
    0x0800bd70   0x0800bd70   0x00000528   Code   RO          835    .text               usmart_str.o
    0x0800c298   0x0800c298   0x00000062   Code   RO          882    .text               mc_w.l(ldiv.o)
    0x0800c2fa   0x0800c2fa   0x00000024   Code   RO          884    .text               mc_w.l(memseta.o)
    0x0800c31e   0x0800c31e   0x0000001a   Code   RO          886    .text               mc_w.l(memcmp.o)
    0x0800c338   0x0800c338   0x0000014e   Code   RO         1149    .text               mf_w.l(dadd.o)
    0x0800c486   0x0800c486   0x000000e4   Code   RO         1151    .text               mf_w.l(dmul.o)
    0x0800c56a   0x0800c56a   0x000000de   Code   RO         1153    .text               mf_w.l(ddiv.o)
    0x0800c648   0x0800c648   0x00000022   Code   RO         1155    .text               mf_w.l(dflti.o)
    0x0800c66a   0x0800c66a   0x0000001a   Code   RO         1157    .text               mf_w.l(dfltui.o)
    0x0800c684   0x0800c684   0x00000032   Code   RO         1159    .text               mf_w.l(dfixui.o)
    0x0800c6b6   0x0800c6b6   0x00000026   Code   RO         1161    .text               mf_w.l(f2d.o)
    0x0800c6dc   0x0800c6dc   0x00000038   Code   RO         1163    .text               mf_w.l(d2f.o)
    0x0800c714   0x0800c714   0x00000062   Code   RO         1232    .text               mc_w.l(uldiv.o)
    0x0800c776   0x0800c776   0x0000001e   Code   RO         1234    .text               mc_w.l(llshl.o)
    0x0800c794   0x0800c794   0x00000020   Code   RO         1236    .text               mc_w.l(llushr.o)
    0x0800c7b4   0x0800c7b4   0x00000024   Code   RO         1238    .text               mc_w.l(llsshr.o)
    0x0800c7d8   0x0800c7d8   0x00000000   Code   RO         1247    .text               mc_w.l(iusefp.o)
    0x0800c7d8   0x0800c7d8   0x0000006e   Code   RO         1248    .text               mf_w.l(fepilogue.o)
    0x0800c846   0x0800c846   0x000000ba   Code   RO         1250    .text               mf_w.l(depilogue.o)
    0x0800c900   0x0800c900   0x00000024   Code   RO         1258    .text               mc_w.l(init.o)
    0x0800c924   0x0800c924   0x000000a2   Code   RO         1260    .text               mf_w.l(dsqrt.o)
    0x0800c9c6   0x0800c9c6   0x00000056   Code   RO         1272    .text               mc_w.l(__dczerorl2.o)
    0x0800ca1c   0x0800ca1c   0x00000020   Code   RO         1095    i.__0printf$8       mc_w.l(printf8.o)
    0x0800ca3c   0x0800ca3c   0x00000030   Code   RO         1199    i.__ARM_fpclassify  m_wm.l(fpclassify.o)
    0x0800ca6c   0x0800ca6c   0x00000004   PAD
    0x0800ca70   0x0800ca70   0x00000360   Code   RO          853    i.__hardfp_asin     m_wm.l(asin.o)
    0x0800cdd0   0x0800cdd0   0x000002d8   Code   RO         1165    i.__hardfp_atan     m_wm.l(atan.o)
    0x0800d0a8   0x0800d0a8   0x000001f0   Code   RO          867    i.__hardfp_atan2    m_wm.l(atan2.o)
    0x0800d298   0x0800d298   0x000000f8   Code   RO         1201    i.__kernel_poly     m_wm.l(poly.o)
    0x0800d390   0x0800d390   0x00000014   Code   RO         1180    i.__mathlib_dbl_infnan  m_wm.l(dunder.o)
    0x0800d3a4   0x0800d3a4   0x00000014   Code   RO         1181    i.__mathlib_dbl_infnan2  m_wm.l(dunder.o)
    0x0800d3b8   0x0800d3b8   0x00000020   Code   RO         1182    i.__mathlib_dbl_invalid  m_wm.l(dunder.o)
    0x0800d3d8   0x0800d3d8   0x00000020   Code   RO         1185    i.__mathlib_dbl_underflow  m_wm.l(dunder.o)
    0x0800d3f8   0x0800d3f8   0x0000000e   Code   RO         1266    i.__scatterload_copy  mc_w.l(handlers.o)
    0x0800d406   0x0800d406   0x00000002   Code   RO         1267    i.__scatterload_null  mc_w.l(handlers.o)
    0x0800d408   0x0800d408   0x0000000e   Code   RO         1268    i.__scatterload_zeroinit  mc_w.l(handlers.o)
    0x0800d416   0x0800d416   0x00000002   PAD
    0x0800d418   0x0800d418   0x0000000c   Code   RO         1242    i.__set_errno       mc_w.l(errno.o)
    0x0800d424   0x0800d424   0x00000410   Code   RO         1102    i._printf_core      mc_w.l(printf8.o)
    0x0800d834   0x0800d834   0x00000024   Code   RO         1103    i._printf_post_padding  mc_w.l(printf8.o)
    0x0800d858   0x0800d858   0x0000002e   Code   RO         1104    i._printf_pre_padding  mc_w.l(printf8.o)
    0x0800d886   0x0800d886   0x00000010   Code   RO         1167    i.atan              m_wm.l(atan.o)
    0x0800d896   0x0800d896   0x00000018   Code   RO         1195    i.fabs              m_wm.l(fabs.o)
    0x0800d8ae   0x0800d8ae   0x0000006e   Code   RO         1206    i.sqrt              m_wm.l(sqrt.o)
    0x0800d91c   0x0800d91c   0x000017c0   Data   RO          400    .constdata          lcd.o
    0x0800f0dc   0x0800f0dc   0x00000050   Data   RO          487    .constdata          inv_mpu.o
    0x0800f12c   0x0800f12c   0x00000bf6   Data   RO          523    .constdata          inv_mpu_dmp_motion_driver.o
    0x0800fd22   0x0800fd22   0x00000002   PAD
    0x0800fd24   0x0800fd24   0x0000001c   Data   RO          659    .constdata          stm32f4xx_fsmc.o
    0x0800fd40   0x0800fd40   0x00000050   Data   RO          856    .constdata          m_wm.l(asin.o)
    0x0800fd90   0x0800fd90   0x00000098   Data   RO         1168    .constdata          m_wm.l(atan.o)
    0x0800fe28   0x0800fe28   0x00000008   Data   RO         1203    .constdata          m_wm.l(qnan.o)
    0x0800fe30   0x0800fe30   0x0000004d   Data   RO          488    .conststring        inv_mpu.o
    0x0800fe7d   0x0800fe7d   0x00000003   PAD
    0x0800fe80   0x0800fe80   0x00000028   Data   RO          784    .conststring        usmart.o
    0x0800fea8   0x0800fea8   0x000000cb   Data   RO          814    .conststring        usmart_config.o
    0x0800ff73   0x0800ff73   0x00000001   PAD
    0x0800ff74   0x0800ff74   0x00000020   Data   RO         1264    Region$$Table       anon$$obj.o


    Execution Region RW_IRAM1 (Exec base: 0x20000000, Load base: 0x0800ff94, Size: 0x000006a8, Max: 0x00020000, ABSOLUTE, COMPRESSED[0x00000088])

    Exec Addr    Load Addr    Size         Type   Attr      Idx    E Section Name        Object

    0x20000000   COMPRESSED   0x00000014   Data   RW          294    .data               system_stm32f4xx.o
    0x20000014   COMPRESSED   0x00000001   Data   RW          372    .data               key.o
    0x20000015   COMPRESSED   0x00000001   PAD
    0x20000016   COMPRESSED   0x00000004   Data   RW          401    .data               lcd.o
    0x2000001a   COMPRESSED   0x00000002   PAD
    0x2000001c   COMPRESSED   0x00000035   Data   RW          489    .data               inv_mpu.o
    0x20000051   COMPRESSED   0x00000001   PAD
    0x20000052   COMPRESSED   0x00000004   Data   RW          561    .data               delay.o
    0x20000056   COMPRESSED   0x00000002   PAD
    0x20000058   COMPRESSED   0x00000006   Data   RW          602    .data               usart.o
    0x2000005e   COMPRESSED   0x00000010   Data   RW          702    .data               stm32f4xx_rcc.o
    0x2000006e   COMPRESSED   0x00000002   PAD
    0x20000070   COMPRESSED   0x0000001c   Data   RW          785    .data               usmart.o
    0x2000008c   COMPRESSED   0x0000012c   Data   RW          815    .data               usmart_config.o
    0x200001b8   COMPRESSED   0x00000004   Data   RW         1243    .data               mc_w.l(errno.o)
    0x200001bc        -       0x0000000e   Zero   RW          399    .bss                lcd.o
    0x200001ca   COMPRESSED   0x00000002   PAD
    0x200001cc        -       0x00000010   Zero   RW          522    .bss                inv_mpu_dmp_motion_driver.o
    0x200001dc        -       0x000000c8   Zero   RW          601    .bss                usart.o
    0x200002a4   COMPRESSED   0x00000004   PAD
    0x200002a8        -       0x00000400   Zero   RW          629    STACK               startup_stm32f40_41xxx.o


==============================================================================

Image component sizes


      Code (inc. data)   RO Data    RW Data    ZI Data      Debug   Object Name

       260          8          0          4          0       1669   delay.o
      8888        220        157         53          0      24613   inv_mpu.o
      3472        142       3062          0         16      15847   inv_mpu_dmp_motion_driver.o
       260         12          0          1          0        972   key.o
     19584        174       6080          4         14      23358   lcd.o
        64          4          0          0          0     229955   led.o
      1676        242          0          0          0     235325   main.o
       224         20          0          0          0       2005   misc.o
       900         22          0          0          0       4667   mpu6050.o
       600         12          0          0          0       2012   myiic.o
        36          8        392          0       1024        892   startup_stm32f40_41xxx.o
      1480         18         28          0          0       5930   stm32f4xx_fsmc.o
       660         44          0          0          0       4345   stm32f4xx_gpio.o
        26          0          0          0          0      57538   stm32f4xx_it.o
      1628         52          0         16          0      13316   stm32f4xx_rcc.o
      3234         60          0          0          0      23200   stm32f4xx_tim.o
      1108         34          0          0          0       8068   stm32f4xx_usart.o
       528         46          0         20          0       2059   system_stm32f4xx.o
       328         16          0          6        200       3598   usart.o
      3124       1286         40         28          0       4702   usmart.o
         0          0        203        300          0       1780   usmart_config.o
      1320         12          0          0          0       5529   usmart_str.o

    ----------------------------------------------------------------------
     49404       2432      10000        440       1260     671380   Object Totals
         0          0         32          0          0          0   (incl. Generated)
         4          0          6          8          6          0   (incl. Padding)

    ----------------------------------------------------------------------

      Code (inc. data)   RO Data    RW Data    ZI Data      Debug   Library Member Name

       864         94         80          0          0        280   asin.o
       744        106        152          0          0        352   atan.o
       496         64          0          0          0        192   atan2.o
       104         16          0          0          0        496   dunder.o
        24          0          0          0          0        124   fabs.o
        48          0          0          0          0        124   fpclassify.o
       248          0          0          0          0        152   poly.o
         0          0          8          0          0          0   qnan.o
       110          0          0          0          0        148   sqrt.o
        86          0          0          0          0          0   __dczerorl2.o
         0          0          0          0          0          0   entry.o
         0          0          0          0          0          0   entry10a.o
         0          0          0          0          0          0   entry11a.o
         8          4          0          0          0          0   entry2.o
         4          0          0          0          0          0   entry5.o
         0          0          0          0          0          0   entry7b.o
         0          0          0          0          0          0   entry8b.o
         8          4          0          0          0          0   entry9a.o
        12          6          0          4          0         68   errno.o
        30          0          0          0          0          0   handlers.o
        36          8          0          0          0         68   init.o
         0          0          0          0          0          0   iusefp.o
        98          0          0          0          0         84   ldiv.o
        30          0          0          0          0         68   llshl.o
        36          0          0          0          0         68   llsshr.o
        32          0          0          0          0         68   llushr.o
        26          0          0          0          0         80   memcmp.o
        36          0          0          0          0        108   memseta.o
      1154         54          0          0          0        352   printf8.o
        98          0          0          0          0         92   uldiv.o
        56          0          0          0          0         88   d2f.o
       334          0          0          0          0        148   dadd.o
       222          0          0          0          0        100   ddiv.o
       186          0          0          0          0        176   depilogue.o
        50          0          0          0          0         76   dfixui.o
        34          0          0          0          0         76   dflti.o
        26          0          0          0          0         76   dfltui.o
       228          0          0          0          0         96   dmul.o
       162          0          0          0          0        100   dsqrt.o
        38          0          0          0          0         68   f2d.o
       110          0          0          0          0        168   fepilogue.o

    ----------------------------------------------------------------------
      5784        356        240          4          0       4096   Library Totals
         6          0          0          0          0          0   (incl. Padding)

    ----------------------------------------------------------------------

      Code (inc. data)   RO Data    RW Data    ZI Data      Debug   Library Name

      2638        280        240          0          0       1868   m_wm.l
      1694         76          0          4          0       1056   mc_w.l
      1446          0          0          0          0       1172   mf_w.l

    ----------------------------------------------------------------------
      5784        356        240          4          0       4096   Library Totals

    ----------------------------------------------------------------------

==============================================================================


      Code (inc. data)   RO Data    RW Data    ZI Data      Debug   

     55188       2788      10240        444       1260     669068   Grand Totals
     55188       2788      10240        136       1260     669068   ELF Image Totals (compressed)
     55188       2788      10240        136          0          0   ROM Totals

==============================================================================

    Total RO  Size (Code + RO Data)                65428 (  63.89kB)
    Total RW  Size (RW Data + ZI Data)              1704 (   1.66kB)
    Total ROM Size (Code + RO Data + RW Data)      65564 (  64.03kB)

==============================================================================

