:020000040800F2
:100000005007002039020008C31C0008D11B00085B
:10001000C11C000859080008292C00080000000035
:10002000000000000000000000000000752A000829
:10003000CD080008000000004D290008772A0008BC
:10004000530200085302000853020008530200083C
:10005000530200085302000853020008530200082C
:10006000530200085302000853020008530200081C
:10007000530200085302000853020008530200080C
:1000800053020008530200085302000853020008FC
:1000900053020008530200085302000853020008EC
:1000A00053020008530200085302000853020008DC
:1000B00053020008530200085302000853020008CC
:1000C00053020008530200085302000853020008BC
:1000D00053020008530200085302000853020008AC
:1000E000530200085302000853020008530200089C
:1000F000530200085302000853020008530200088C
:10010000530200085302000853020008530200087B
:10011000530200085302000853020008530200086B
:10012000530200085302000853020008530200085B
:10013000530200085302000853020008530200084B
:10014000530200085302000853020008530200083B
:10015000530200085302000853020008530200082B
:10016000530200085302000853020008530200081B
:100170005302000853020008530200080000000068
:10018000530200085302000800F002F800F045F89E
:100190000AA090E8000C82448344AAF10107DA45E2
:1001A00001D100F03AF8AFF2090EBAE80F0013F0EF
:1001B000010F18BFFB1A43F00103184768650000E0
:1001C00088650000103A24BF78C878C1FAD8520771
:1001D00024BF30C830C144BF04680C6070470000C1
:1001E0000023002400250026103A28BF78C1FBD840
:1001F000520728BF30C148BF0B607047642900F028
:100200004981002070471FB502F03CFD9DE80300C6
:1002100000F0C2F91FBD10B510BD00F0A1FA1146E3
:10022000FFF7F1FF02F01CFD00F0BFFA03B4FFF787
:10023000F2FF03BC02F009FD094880470948004766
:10024000FEE7FEE7FEE7FEE7FEE7FEE7FEE7FEE786
:10025000FEE7FEE704480549054A064B70470000E3
:100260000D2B0008890100085001002050070020D4
:10027000500300205003002070B5064600F070F9CE
:10028000056806F10B0020F00704B4429CBF002073
:1002900070BD2B466A68BAB11068A04210D304F151
:1002A000080188423CBF5068586007D35168101954
:1002B00041601168091B016058601460101D70BD19
:1002C00013465268002AE7D12146284600F050F92B
:1002D0000028DED170BD70B50446051F00F040F95E
:1002E0000068002C14BF446870BD002C18BFAC42DD
:1002F0003CBF20466468F8D301680A18AA4218BFB8
:10030000456003D12A6805461144016028684119F7
:10031000A1421CBF6C6070BD6168696021680844BF
:10032000286070BD53EA020C00F069802DE9F04BA3
:100330004FF00006002B1FBFB3FA83F503FA05F454
:1003400024FA05F65E4012BF1643B2FA82F502FAAD
:1003500005F4C5F120051EBF22FA05FC44EA0C0491
:10036000203556EA044C4FEA144418BF641C4FF081
:1003700000084FF00009904271EB030C39D30029BB
:1003800019BFB1FA81F701FA07F6B0FA80F700FA5F
:1003900007F6C7F120071EBF20FA07FC46EA0C0645
:1003A0002037B6FBF4FCA7EB0507103F07F01F0B47
:1003B000CBF120060CFA0BFB2CFA06F644BFB34631
:1003C0000026202FA4BF5E464FF0000B5BEA060C10
:1003D00008BF4FF0010B19EB0B09ABFB027C48EB9C
:1003E0000608C01B06FB02CC0BFB03CC71EB0C0117
:1003F000C1E70B46024641464846BDE8F08B13B5BF
:100400004FF000004FF00001AFF30080BDE81C404A
:10041000704700000FB4044910B503AA029800F019
:100420004BF910BC5DF814FB000000202DE9F041F1
:100430000E460446002020622046E168884730B31B
:10044000252805D0D4E901219047206A401CF2E715
:10045000E168204600278847050018D0A5F1410033
:10046000192802D820354FF4006732462946204625
:100470002760FFF7C3FE40B1012804D0F61D26F027
:1004800007060836D8E7361DD6E72846DAE7206A99
:10049000BDE8F0812DE9F041064600241068752979
:1004A000314616A510D0AFF30080002802DA404292
:1004B00013A507E031688A0701D512A502E04907B4
:1004C00004D511A5012401E0AFF3008000210A2228
:1004D00006F1240709E0B0FBF2FCB0FBF2F302FBEB
:1004E0001C00303078541846491C0028F3D12346AC
:1004F0002A463046BDE8F04100F084B80000000014
:100500002D0000002B000000200000004FF0000232
:1005100000B5134694469646203922BFA0E80C50F9
:10052000A0E80C50B1F12001BFF4F7AF090728BFD4
:10053000A0E80C5048BF0CC05DF804EB890028BF50
:1005400040F8042B08BF704748BF20F8022B11F079
:10055000804F18BF00F8012B7047704770477047F5
:1005600000487047F400002070477047704770479C
:1005700038B504460A4600206946AFF300800028DB
:1005800008BF38BD02460099204600F0ABF80120B4
:1005900038BD012000F0DCB8F8B5AFF300800546A7
:1005A00000200C46102000BF0646A819A0420DD915
:1005B000324669460020AFF30080070008BF00F014
:1005C000C7F80098A04218BF0546C419FFF7C8FF36
:1005D00005600746F01D20F007004619284600F088
:1005E0000AF8B44208BFF8BDA21B31463868BDE81E
:1005F000F84000F077B800210160C0E901107047B1
:10060000102070472DE9F0470D4699469246044662
:1006100000F124080168880604D5E06921F0100182
:10062000216000E00120A84201DD471B00E0002717
:10063000A1697A1902EB0900081AA0612078C006A6
:1006400002D42046AFF30080002608E0D4E901215F
:100650001AF806009047206A401C761C20624E451E
:10066000F4DB2078C0060AD52046AFF3008006E010
:10067000D4E9012130209047206A401C2062381EB6
:10068000A7F10107F4DC07E0D4E9012118F805001F
:100690009047206A401C2062281EA5F10105F3DC6A
:1006A0002046AFF300802078000602D50220BDE886
:1006B000F0870120FBE70000074B70B50D467B4437
:1006C00000F02FF80446284600F03EF810B14FF035
:1006D000FF3070BD204670BD8B250000004870477C
:1006E000EC000020034640688C46002818BF884272
:1006F0003CBF03464068F8D318681844884207D0C6
:100700000CF1030020F00700001D411A521A0146A7
:10071000081D0A60FFF7DFBD01694A1C0261087805
:10072000704700B58FB0CDE9013100210591054931
:100730007944CDE9031011466846FFF777FE0FB004
:1007400000BD0000E5FFFFFF007B00F08000704768
:1007500010B500F039F8BDE8104000F02FB8704730
:100760007546FFF7BBFFAE4605006946534620F0CD
:100770000700854618B020B5FFF76CFDBDE82040A6
:100780004FF000064FF000074FF000084FF0000B4D
:1007900021F00701AC46ACE8C009ACE8C009ACE800
:1007A000C009ACE8C0098D46704710B50446AFF3E8
:1007B00000802046BDE81040FFF738BD002801D07A
:1007C00002F043BA7047000010B5012805D000219F
:1007D00003A000F021F8012010BD09A1F8E70000F6
:1007E00053494752544D454D3A204F7574206F661A
:1007F0002068656170206D656D6F72790000000082
:100800003A2048656170206D656D6F727920636F65
:10081000727275707465640070B505460C460A20E6
:1008200000E06D1C00F011F835B128780028F8D1EF
:1008300002E0641C00F009F814B120780028F8D117
:10084000BDE870400A20AFF3008008B569468DF816
:1008500000000320ABBE08BDFEE7000010B5094C48
:1008600000220421204600F0B6FC00221021204680
:1008700000F0B1FC20460022BDE81040022100F04B
:10088000AABC00000000024010B5094C002204215F
:10089000204600F0A0FC00221021204600F09BFC26
:1008A00001220221204600F096FC002010BD00002D
:1008B0000000024001B54FF47A73012269460248F4
:1008C00001F052F808BD00003400002070472DE907
:1008D000F041C827002119263B463A46084600F059
:1008E00048F900242146002000F02EF9242000F0D1
:1008F000F7F80025FF2000F00DF96D1CADB2B542F0
:10090000F8D3641CA4B2BC42ECD3BDE8F04100F0C3
:100910005BB92DE9F041C8278046002119263B46E6
:100920003A46084600F025F900242146002000F050
:100930000BF9242000F0D4F8002504FB065018F829
:10094000000000F0E7F86D1CADB2B542F5D3641CB1
:10095000A4B2BC42E9D3BDE8F04100F035B90000D3
:1009600070B5354D044601220221284600F033FCC3
:10097000C82000F021FB00220221284600F02BFCB9
:10098000022000F019FB01220221284600F023FC7E
:10099000C82000F011FB012000F0A2F8C72000F0F1
:1009A000B9F8002000F0B6F8002000F0B3F80C20F1
:1009B00000F096F8D72000F0ADF8D62000F0AAF8A5
:1009C0009D2000F0A7F82C2000F08AF8A82000F065
:1009D000A1F83A2000F084F81A2000F09BF83B20A0
:1009E00000F07EF8082000F095F8112000F078F86B
:1009F000032000F08FF8322000F072F834B1012C9F
:100A00000ED0BDE870400DA0FFF704BD1A4D0024C4
:100A1000285D00F07FF8641CA4B21E2CF8D370BDD2
:100A2000154D00241E35285D00F074F8641CA4B236
:100A30001E2CF8D370BD00000000024044656275B2
:100A4000673A206572726F722C20746865204D6F52
:100A50006465206973204550445F31494E35345FE9
:100A600046554C4C206F72204550445F31494E35FD
:100A7000345F504152540000A62C000810B509A064
:100A8000FFF7C8FC0D4C02E0642000F095FA082145
:100A9000204600F09BFB0128F6D0BDE8104008A0DE
:100AA000FFF7B8BC44656275673A20652D506170E8
:100AB000657220627573790D0A0000000000024023
:100AC00044656275673A20652D50617065722062D9
:100AD0007573792072656C656173650D0A0000009D
:100AE00070B50B4C054600220421204600F073FB34
:100AF00000221021204600F06EFB2846FFF7DAFEA8
:100B00002046BDE870400122102100F064BB0000C7
:100B10000000024070B50B4C05460122042120461E
:100B200000F059FB00221021204600F054FB28461B
:100B3000FFF7C0FE2046BDE870400122102100F002
:100B40004ABB00000000024070B505460C464E202E
:100B5000FFF7C6FFC5F3C700FFF7DCFF4F20FFF725
:100B6000BFFFE0B2FFF7D6FF200ABDE87040FFF7F5
:100B7000D1BF2DE9F04107461C4616460D464420DC
:100B8000FFF7AEFFC7F3C700FFF7C4FFC6F3C70008
:100B9000FFF7C0FF4520FFF7A3FFE8B2FFF7BAFF5A
:100BA000280AFFF7B7FFE0B2FFF7B4FF200ABDE85D
:100BB000F041FFF7AFBF10B51020FFF791FFBDE880
:100BC00010400120FFF7A6BF10B52220FFF788FFD5
:100BD000C420FFF79FFF2020FFF782FFFF20FFF7D1
:100BE0007FFFBDE81040FFF749BF00002DE9F0434B
:100BF00085B0A2A0FFF70EFCFFF746FEA5A0FFF709
:100C000009FC0020FFF7ACFEFFF761FE4FF4FA7914
:100C1000484600F0D1F941F28830FFF72DFB5FEA3A
:100C200000087DD0A2A0FFF7F5FBFF26C8224FF4F5
:100C3000877311464046009601F0D6FDA1A0FFF74C
:100C4000E9FB404601F0EEFDFF2001F03BF8A34830
:100C500001F08AF84046FFF75CFE4FF4FA67384629
:100C600000F0AAF99EA0FFF7D5FB404601F0DAFD9F
:100C7000FF2001F027F80124234600220A21052045
:100C8000009401F001FB02230022192105200094A9
:100C900001F0FAFA0323002228210520009401F034
:100CA000F3FA0423002237210520009401F0ECFA26
:100CB0000025CDE900543C2346220A211420029548
:100CC00001F0F2F9CDE900543C2314220A21462018
:100CD000029501F0E9F9CDE90054AA2237230F214A
:100CE0001046029401F0E0F9CDE900542323BE221E
:100CF00019469620029401F0D7F9CDE900543C231F
:100D000046220A211420029501F060FBCDE900542F
:100D10003C2382220A215520029401F057FB00E077
:100D200053E0002314222321AA20CDE9004501F03D
:100D3000ADF80094002314225521AA20019401F05B
:100D4000A5F8CDE90056694B69A25521052001F0AF
:100D500077FCCDE90056654B684A6E21052001F00D
:100D600029FACDE90056664B66A28721052001F0DD
:100D70009DFBCDE90065664B66A29B21052001F035
:100D800095FB4046FFF7C5FD384600F015F966A013
:100D9000FFF740FB0120FFF7E3FD404601F042FD75
:100DA0000C208DF8100022208DF8110038204F4FB4
:100DB0008DF81200142400BF9DF81200401CC0B230
:100DC0008DF812003C2808D021E05CA0FFF722FB40
:100DD0004FF0FF3005B0BDE8F0839DF81100401CD6
:100DE000C0B28DF811008DF812503C280FD19DF83B
:100DF0001000401CC0B28DF810008DF8115018285A
:100E000005D18DF810508DF811508DF812500096C4
:100E1000F8884121413083B2B888C0EBC0000F3060
:100E200082B20F2000F086FFCDE900652F4B03AAA8
:100E300041210F2001F042FC641E14F0FF0406D093
:100E40004046FFF766FD484600F0B6F8B4E745A017
:100E5000FFF7E0FA0020FFF783FDFFF738FD44A01D
:100E6000FFF7D8FAFFF7A7FE4046FFF734FA44A091
:100E7000FFF7D0FAFFF7F2FC0020ABE74550445FE4
:100E800031494E35345F746573742044656D6F0D60
:100E90000A000000652D506170657220496E69740A
:100EA00020616E6420436C6561722E2E2E0D0A0047
:100EB0005061696E745F4E6577496D6167650D0AB3
:100EC0000000000073686F7720696D6167652066B8
:100ED0006F722061727261790D0A0000E22C0008C5
:100EE00044726177696E670D0A00000020000020DF
:100EF00077617665736861726500000015CD5B07E8
:100F000014000020C384C3A3C2BAC3836162630018
:100F100028000020C38EC2A2C391C2A9C2B5C3A734
:100F2000C397C393000000005061727469616C2024
:100F3000726566726573680D0A0000004661696C2F
:100F4000656420746F206170706C7920666F722008
:100F5000626C61636B206D656D6F72792E2E2E0D44
:100F60000A000000436C6561722E2E2E0D0A0000EF
:100F7000476F746F20536C6565702E2E2E0D0A001E
:100F8000636C6F73652035562C204D6F64756C65EE
:100F900020656E74657273203020706F77657220E3
:100FA000636F6E73756D7074696F6E202E2E2E0DCB
:100FB0000A00000072B6FEE770B5044600F010F9B2
:100FC0000546601C02D004480078044400F008F98B
:100FD000401BA042FAD370BD040000202DE9F84F59
:100FE000DFF8BCA10022012503264FF00F090AF10A
:100FF000040BAAF1040E00BF0B6805FA02F42340AB
:10100000A34270D10F7907F00307012F01D0022FFF
:1010100016D187684FEA420806FA08FC27EA0C074F
:10102000D1F80CC00CFA08FC4CEA070CC0F808C058
:101030004768A7430C79C4F3001494403C434460D0
:101040000C79E443A4070AD0C4684FEA420C06FABC
:101050000CF7BC438F6807FA0CF72743C7600C797D
:1010600004F00304022C12D1D40800EB840CDCF849
:1010700020405707FF0E09FA07F824EA0804D1F8C0
:10108000108008FA07F848EA0408CCF820800468C1
:101090004FEA420C06FA0CF7BC430F7907F003073E
:1010A00007FA0CF7274307604C6814F4403F70D0F0
:1010B0003C4C276847F480472760246822F00307E8
:1010C00004F480440094384C07EB040CDCF8084826
:1010D00097074FEA177809FA08F7BC43334FB8422D
:1010E00002D1002724E054E0314FB84201D101275A
:1010F0001EE0304FB84201D1022719E02E4FB8420E
:1011000001D1032714E02D4FB84201D104270FE08D
:101110002B4FB84201D105270AE02A4FB84201D12E
:10112000062705E0284FB84201D1072700E008272D
:1011300007FA08F72743CCF80878DAF80040574652
:10114000D1F804C09C435FEACC2C00D51C433C6022
:10115000DBF800405F46D1F804C09C435FEA8C2C6A
:1011600000D51C433C60DEF800407746D1F804C04F
:101170009C435FEA8C3C00D51C433C60084F083F11
:101180003C68D1F804C09C435FEACC3C00D51C43CA
:101190003C60521C102AFFF42FAFBDE8F88F00000E
:1011A000083C014044380240003001400000024049
:1011B0000004024000080240000C024000100240FF
:1011C0000014024000180240001C02400069084060
:1011D00000D0012070470AB1816170470904FBE724
:1011E00001488068704700000400002002488168C0
:1011F0000278114481607047040000200B4810B54C
:10120000016841F400710160016841F4806101608E
:10121000016841F480710160032000F061F80F2043
:1012200000F006F800F024F8002010BD003C024059
:1012300070B50D4D04464FF47A712878B1FBF0F08B
:101240000A490968B1FBF0F000F045FC48B9102CE0
:1012500007D200222146501E00F022F800206C60C8
:1012600070BD012070BD00000400002010000020AF
:101270000A4808B5016841F480410160006800F443
:10128000804000900548001F016841F080510160D6
:10129000006800F08050009008BD00004438024013
:1012A000F0B40E4B1B680C46C3F30223C3F10705D1
:1012B000042D00D90425191D072901D2002300E0BF
:1012C000DB1E012606FA05F1491E214099409E4089
:1012D000761E16403143F0BC01F0A7BC0CED00E0D7
:1012E000064900F0070208684FF6FF03184040EA7D
:1012F0000220034A10430860704700000CED00E034
:101300000000FA052DE9F0470E46050065D0DFF82C
:101310001481D8F80000F7B200F00700B04207D2FD
:1013200088F80070D8F8000000F00700B04254D1EF
:1013300028683D4C810712D5400703D5206840F44A
:10134000E05020602878000703D5206840F4604012
:1013500020602068A96820F0F00008432060287809
:10136000C0072DD0304968680839012812D00228FA
:1013700013D0032811D00968890700292DDA2168C4
:1013800021F0030101432160FFF72AFF814641F26A
:10139000883A0EE009688903EFE709688901ECE7FC
:1013A000FFF71EFFA0EB0901514502D90320BDE85C
:1013B000F0872068696800F00C00B0EB810FEFD176
:1013C000D8F80010404601F00701B14207D9077074
:1013D000006800F00700B04201D00120E7E728785C
:1013E000400705D52068E96820F4E05008432060F4
:1013F0002878000706D52068296920F4604040EA73
:10140000C100206000F038F82168084AC1F30311D8
:10141000515CC8400649086006480068FFF708FFAD
:101420000020C4E7003C0240083802408E2C00082F
:1014300010000020080000200448054900680968E1
:10144000044AC1F38221515CC8407047100000205B
:10145000083802409E2C00080448054900680968C5
:10146000044AC1F34231515CC8407047100000206B
:10147000083802409E2C0008154810B5006810F08E
:101480000C02144813D04110042A0FD0082A0ED1A0
:101490000F4C241F2268236802F03F025B0207D52D
:1014A0002068C0F38810A0FB010106E0084610BDCB
:1014B0002168C1F38811A1FB00010023FEF732FF70
:1014C0002168C1F30141491C4900B0FBF1F010BD96
:1014D000083802400024F4002DE9F84F04006ED0D3
:1014E0002078DFF84C93C007A9F104054AD009F130
:1014F00004000168C1F38101012908D00068C0F32C
:10150000810002280AD1D9F80000400206D52868D7
:10151000800337D560680028E1D033E06068B0F51B
:10152000803F10D0B0F5A02F286810D020F4803074
:101530002860286820F4802028606068A8B1FFF740
:101540004FFE06460DE0286840F48030F4E740F492
:1015500080202860F7E700BFFFF742FE801B642869
:1015600073D828688003F7D50CE0FFF739FE0646EC
:1015700005E000BFFFF734FE801B6428F0D8286820
:101580008003F7D42078DFF8AC8280074FF0000AA0
:101590003ED5A748001D016811F00C0F08D0006867
:1015A000C0F3810002280BD1D9F80000400207D413
:1015B0002868800716D5E068012800D112E033E1E1
:1015C000E068B8B10120C8F80000FFF709FE064640
:1015D00005E000BFFFF704FE801B0228C0D8286882
:1015E0008007F7D52868216920F0F80040EAC1009B
:1015F00028600DE0C8F800A0FFF7F2FD064604E001
:10160000FFF7EEFD801B02281FD828688007F7D45B
:101610002078000722D5864F87486169703771B1FD
:1016200001210160FFF7DCFD064604E0FFF7D8FD6D
:10163000801B022809D838688007F7D50EE0C0F86B
:1016400000A0FFF7CDFD064605E082E0FFF7C8FDEC
:10165000801B02287DD838688007F7D4207840079F
:1016600068D5DFF8CCB100270BF13C0BDBF80000AC
:10167000C0000BD4DBF8001041F08051CBF8001013
:10168000DBF80000012700F0805000906B4E3068BE
:10169000C00510D4306840F480703060FFF7A0FDC2
:1016A000009005E0FFF79CFD0099401A022850D8F1
:1016B0003068C005F6D55E4EA0686C3601280FD0A4
:1016C0000528306810D020F001003060306820F02C
:1016D00004003060A068B8B1FFF782FD00900FE011
:1016E000306840F00100F4E740F004003060F7E7B4
:1016F000FFF776FD0099411A41F28830814266D8A1
:1017000030688007F4D50EE0FFF76AFD009007E02F
:10171000FFF766FD0099411A41F28830814256D8A0
:1017200030688007F4D42FB1DBF8001021F080512D
:10173000CBF80010A069C8B33D49091D0968C1F381
:10174000810102294AD00228504607D0C8F860001B
:1017500000E03CE0FFF744FD04463BE04746C8F8A4
:101760006000FFF73DFD064605E000BFFFF738FDCE
:10177000801B02282BD828688001F7D4D4E9070100
:101780000843A16A2E4A490802EB0141626A41EA14
:101790008211084394F82C1040EA0161C9F8001046
:1017A00001203866FFF71CFD044606E03EE000BF5E
:1017B000FFF716FD001B022809D828688001F7D51D
:1017C00034E000BFFFF70CFD001B022802D9032004
:1017D000BDE8F88F28688001F4D427E00128F7D00D
:1017E000D9F80000E26900F4800191421CD1226A1C
:1017F00000F03F01914217D147F6C071626A014083
:10180000B1EB821F10D1A26A4FF0FF3300F44031D8
:1018100003EB5202B1EB024F06D194F82C1000F00A
:101820007060B0EB016F01D00120D1E70020CFE75D
:101830000438024000004742800E474200700040DA
:101840000000FFFF70B5040009D0606A002540B1B8
:1018500025616561A56294F8510040B10CE001205A
:1018600070BD6068B0F5827FF4D0E561F2E784F87E
:101870005050204600F044F8022084F851002068BF
:10188000016821F040010160A088218900F4827084
:1018900001F404410843A18901F400610843217C5B
:1018A00001F002010843217D01F001010843218B71
:1018B00001F400710843217F01F03801084394F8D6
:1018C000201001F080010843218D01F400510843EC
:1018D00021680860A069042101EA104094F82410EE
:1018E00001F010010843216848602068C16921F4B3
:1018F0000061C1616565012084F85100002070BD60
:1019000010B586B0044614216846FEF7FFFD134962
:101910002068884220D112480021026842F4805297
:101920000260006800F4805005900D481438026889
:1019300042F001020260006800F001000590A02062
:1019400000900220CDE901010320039005200490BE
:1019500069460448FFF742FB06B010BD0030014065
:1019600044380240000002402DE9F84F044690F848
:1019700050000026984615468A4601280CD00127BB
:1019800084F85070FFF72CFC814694F85100B34660
:10199000012804D002269AE00220BDE8F88FBAF1AF
:1019A000000F6FD0002D6DD0032084F85100C4F8D3
:1019B00054B0C4F830A0A586E586C4F838B0A4F8C1
:1019C0003CB0A4F83EB0C4F844B0C4F840B0A0683D
:1019D000B0F5004F09D12068016821F04001016095
:1019E0002068016841F4804101602068016849066F
:1019F00003D4016841F040010160E068B0F5006F78
:101A0000606803D058B3012D29D049E008B1012DF9
:101A10001FD1206B21680088C86006E020688168BB
:101A2000890709D5216B0988C160206B801C206360
:101A3000E08E401EE0860CE0FFF7D2FBA0EB090130
:101A4000414503D3B8F1FF3F03D006E0B8F1000FE2
:101A500003D0E08E0028E1D125E0032635E0206B9D
:101A600021680078087306E02068816889070AD534
:101A7000216B09780173206B401C2063E08E401EAF
:101A8000E0860DE01FE0FFF7ABFBA0EB090141454D
:101A900003D3B8F1FF3F03D0DFE7B8F1000FDCD08C
:101AA000E08E0028E0D14A464146204600F050FF33
:101AB00008B120206065A06818B92068C1688068F6
:101AC0000090606D08B1012601E084F8517084F83F
:101AD00050B0304661E710B5401EB0F1807F01D3B1
:101AE000012010BD4FF0E02460610F21601701F06C
:101AF0009CF80020A06107202061002010BD70B577
:101B0000040004D094F84100002510B106E0012043
:101B100070BD84F84050204600F024F8242084F85A
:101B200041002068C16821F40051C160204600F0E6
:101B3000F5FF2068016921F4904101612068416945
:101B400021F02A0141612068C16841F40051C1605F
:101B50006564202084F8410084F842006563002019
:101B600070BD000010B586B0044614216846FEF72B
:101B7000CDFC14492068884221D113480021026815
:101B800042F010020260006800F0100005900E485C
:101B90001438026842F001020260006800F001009F
:101BA00005904FF4C06000900220CDE901010320B0
:101BB00003900720049069460448FFF70FFA06B027
:101BC00010BD0000001001404438024000000240F7
:101BD000FEE7000030B587B014216846FEF796FC9A
:101BE00015480024016841F080010160016801F09E
:101BF00080010591016841F00101016000680F4D0D
:101C000000F001000590224616212846FFF7E3FA6E
:101C1000162000900120CDE901046946284603946E
:101C2000FFF7DCF90820CDE9000469462846029454
:101C3000FFF7D4F907B030BD303802400000024051
:101C4000104810B50E4901604FF4827141600021C7
:101C50008160C1604FF400720161C0E90512282261
:101C6000C0E90721416281620A21C162FFF7EAFDF2
:101C7000002803D0BDE81040FFF79CB910BD00005C
:101C800000300140340000200C4810B50A490160C2
:101C90004FF4E1314160002181600C22C160C0E954
:101CA00004128161C161FFF72AFF002803D0BDE85B
:101CB0001040FFF77FB910BD001001408C000020DC
:101CC000FEE7FEE730B51A49CA8A022A08D0042A7C
:101CD00006D0072A18D140EA00100022C3B222E041
:101CE0000022C3B20DE0002006E000BF02FB0404A6
:101CF0000D68401C80B22B554C8A8442F6D8521C89
:101D000092B2888A9042EED830BD002006E000BF33
:101D100002FB04040D68401C80B22B554C8A84429F
:101D2000F6D8521C92B2888A9042EED830BD00009C
:101D3000D40000202DE9F0471F4616460D46804688
:101D4000DDF820900CE0444606E04A46294620464D
:101D500000F06EFD641CA4B2B442F6D36D1CADB2AB
:101D6000BD42F0D3BDE8F08770B50022094B0DE00D
:101D7000002106E002FB04141E68055D491C355570
:101D800089B25C8A8C42F5D8521C92B2998A9142EF
:101D9000EED870BDD40000202DE9F05F81462A48BE
:101DA0001E46DDF82CB0838888464B4502D3C18897
:101DB000414504D2BDE8F05F24A0FEF72BBBB088FC
:101DC000410700D0012101EBD000203A10FB02F0C6
:101DD000F1884FF0800A484331680F1800252EE043
:101DE000002423E0BBF1FF0F397804F007022AFA40
:101DF00002F001EA000101D009B908E081B108EB65
:101E0000050081B209EB040080B20A9A06E008EBF3
:101E1000050081B209EB040080B25A4600F008FDCB
:101E2000E043400700D17F1C641CA4B2B088A042EC
:101E3000D8D83079400700D07F1C6D1CADB2F08837
:101E4000A842CDD8BDE8F09FD4000020446562755B
:101E5000673A205061696E745F44726177436861CC
:101E60007220496E707574206578636565647320AF
:101E7000746865206E6F726D616C20646973706C3C
:101E800061792072616E67650D0A00002DE9FF4FD0
:101E90008046834885B00F4684881399444502D311
:101EA000C088B84205D809B07E48BDE8F04FFEF7BB
:101EB000B1BA03200024A0EB420015B20FFA80FA59
:101EC00001297AD0E9E0264661E000BF4FF0010920
:101ED00008EB040007EB060B02901FFA8BF1CDF81C
:101EE000009080B24B46089A00F0CEF9A8EB0400AF
:101EF00004901FFA8BF1CDF8009080B20123089A6C
:101F000000F0C2F93819CDE9009081B2A8EB060BB8
:101F10001FFA8BF00123089A00F0B6F9381B0390E2
:101F200081B2CDF800901FFA8BF00123089A00F0DF
:101F3000ABF90498A7EB060B1FFA8BF1CDF80090D4
:101F400080B20123089A00F09FF902981FFA8BF1E2
:101F5000CDF8009080B20123089A00F095F903981B
:101F600008EB060B81B2CDF800901FFA8BF001232D
:101F7000089A00F089F90198CDF8009081B21FFA13
:101F80008BF00123089A00F07FF9761C36B2AE423E
:101F90009CDDBAF1000F06DA0AEB8400801D0FFA0F
:101FA00080FA08E009E0611B0AEB81000A306D1E2F
:101FB0000FFA80FA2DB2641C24B2AC4283DD09B062
:101FC000BDE8F08F08EB0400012607EB050902903D
:101FD0001FFA89F1009680B2129B089A00F054F91A
:101FE000A8EB040003901FFA89F1009680B2129BBF
:101FF000089A00F049F93819CDE9006081B2A8EBE0
:1020000005091FFA89F0129B089A00F03DF9A7EB29
:10201000040B1FFA8BF11FFA89F00096129B089AA5
:1020200000F032F90398A7EB05091FFA89F1009631
:1020300080B2129B089A00F027F902981FFA89F1E2
:10204000009680B2129B089A00F01EF908EB050971
:102050001FFA8BF11FFA89F00096129B089A00F084
:1020600013F90198009681B21FFA89F0129B089A21
:1020700000F00AF9BAF1000F05DA0AEB8400801DBE
:102080000FFA80FA07E0611B0AEB81000A306D1E2F
:102090000FFA80FA2DB2641C24B2AC4292DD8EE7B6
:1020A000D4000020E06600082DE9FE4F1D46304BAD
:1020B00016469A88824206D3DB888B4203D3B2420B
:1020C00001D3AB4204D2BDE8FE4F2AA0FEF7A2B96D
:1020D00083468A46321A00D5821B91466A1A002A24
:1020E00000DD4A1B90464FF0FF32B34501D201207C
:1020F00000E010460290AA4500D2012209EB080434
:10210000002701927F1C0E98FFB2012805D1032001
:10211000B7FBF0F100FB1170F0B10120DDE90C23F9
:1021200000905146584600F0AFF800BFB8EB440F9E
:1021300007DCB3451AD0029944440BEB01001FFAA7
:1021400080FBB9EB440FDDDBAA450FD001984C446E
:1021500050441FFA80FAD5E701200090FF22514633
:1021600058460D9B00F090F80027DFE7BDE8FE8F92
:10217000D400002044656275673A205061696E742E
:102180005F447261774C696E6520496E707574208A
:102190006578636565647320746865206E6F726D21
:1021A000616C20646973706C61792072616E67651F
:1021B0000D0A00002DE9FF4FADF5037D8846DDE9EE
:1021C00090AB814600244FF4807715462646394669
:1021D00042A8FEF79BF9394602A8FEF797F919487D
:1021E00042AA83884B4503D3C38802A8434512D231
:1021F00015A0FEF70FF90DF5077DBDE8F08F00BFC4
:1022000095FBF1F301FB135395FBF1F530330355C7
:10221000641C24B200E00A21002DF1D11146002CEB
:1022200008DD031913F8013C8B55761C641E36B289
:1022300024B2F4E7CDE900BA41464846869B00F057
:10224000FFF9D8E7D400002044656275673A205052
:1022500061696E745F4469734E756D20496E707567
:1022600074206578636565647320746865206E6F9B
:10227000726D616C20646973706C61792072616E3B
:1022800067650D0A000000002DE9F05F2B4D9346B5
:102290008146AA880A981C4688464A4502D3EA889D
:1022A00042450ED226A0FEF7B5F8AA88494634A0CA
:1022B000FEF7B0F8EA884146BDE8F05F39A0FEF7C6
:1022C000A9B8012801D0002634E00025681E00EBE3
:1022D000440718E009EB05000026A0EB040A0EE015
:1022E000BAF1000F0DD408EB0600001B09D481B22F
:1022F0001FFA8AF05A4600F09BFA761C36B2B742B3
:10230000EEDC6D1C2DB2AF42E4DCBDE8F09F002591
:1023100009EB06077F1E09E008EB0500401E81B2AD
:10232000B8B25A4600F084FA6D1C2DB2A542F3DB18
:10233000761C36B2A642EADBE7E70000D4000020B4
:1023400044656275673A205061696E745F447261DA
:1023500077506F696E7420496E707574206578636C
:102360006565647320746865206E6F726D616C20A2
:10237000646973706C61792072616E67650D0A0023
:1023800058706F696E74203D202564202C205061A8
:10239000696E742E5769647468203D20256420207E
:1023A0000D0A200059706F696E74203D202564204D
:1023B0002C205061696E742E486569676874203DF1
:1023C00020256420200D0A20000000002DE9FE4F8A
:1023D0008246294891460C46DDE90D5281880C9EC3
:1023E0001F46514506D3C088A04203D3494501D3B7
:1023F000B84204D2BDE8FE4F20A0FEF70BB8002083
:10240000804662B90FE0CDE9006523464A46194689
:102410005046CDF80880FFF747FE641CA4B2BC42CA
:10242000F1D3BDE8FE8FCDE9006523464A46194643
:102430005046CDF80880FFF737FECDE900655246DB
:102440003B4621461046CDF80880FFF72DFECDE92A
:1024500000654A46234639461046CDF80880FFF706
:1024600023FECDE900653B46524619464846CDF865
:102470000880FFF719FED4E7D40000204465627598
:10248000673A20496E70757420657863656564737A
:1024900020746865206E6F726D616C206469737062
:1024A0006C61792072616E67650D0A002DE9F05F3D
:1024B0001D46904606468A46DDF82CB0B6E07F29D8
:1024C0004FF0000054D8AA884CE053232C684343B3
:1024D00014F813308B4244D153214843022101EBBD
:1024E000400004EB0009002737E000242CE000BF87
:1024F0004FEAE47004EB507020F00700A4EB0002F8
:10250000BBF1FF0F99F800104FF0800020FA02F0A5
:1025100001EA000101D009B907E071B10AEB070037
:1025200081B2301980B20A9A05E00AEB070081B245
:10253000301980B25A4600F07BF940482040072805
:1025400001D109F10109641C2889A042D0DC287A54
:10255000400701D009F101097F1C6889B842C4DC39
:1025600002E0401C8242B0DC08F10108E8885CE02F
:102570000127AB8854E053222C68424314F812C060
:102580008C454CD107EB4202A45C98F801209442A0
:1025900045D1532250430222296802EB400001EB4F
:1025A0000009002737E000242CE000BF4FEAE47068
:1025B00004EB507020F00700A4EB0002BBF1FF0F0A
:1025C00099F800104FF0800020FA02F001EA0001B3
:1025D00001D009B907E071B10AEB070081B23019E7
:1025E00080B20A9A05E00AEB070081B2301980B286
:1025F0005A4600F01DF911482040072801D109F181
:102600000109641C2889A042D0DC287A400701D047
:1026100009F101097F1C6889B842C4DC02E0401C52
:102620008342A8DC288908F10208064498F80010C3
:1026300000297FF444AFBDE8F09F00000700008050
:102640002DE9FC5F80461B4889460D46818844463B
:10265000DDF834B01E461746A14203D3C188824636
:10266000A94222D2BDE8FC5F1348FDF7D3BEB08873
:10267000BAF804300119994203D9F1884446294433
:102680008DB2F188BAF806002944814201D9444646
:102690004D460C983346CDE900B029462046FFF759
:1026A0007BFBB0887F1C204484B23A78002ADED1BC
:1026B000BDE8FC9FD40000209C6600082DE9FF4F78
:1026C00085B046A117468046DDE9126507C902AB11
:1026D0004FF00A0983E8070039790898B1FBF9F14E
:1026E0009A4684881AF80120CDE900564046089B96
:1026F0000699FFF751FB397908EB040BB1FBF9F2AE
:1027000009FB12111FFA8BF01AF80120CDE90056CF
:10271000089B0699FFF740FBCDE900560BEB9400B0
:1027200000EB540080B23A22089B0699FFF734FB75
:10273000797908EB4400B1FBF9F100EB54001AF889
:102740000120CDE9005680B2089B0699FFF724FBD3
:10275000797904EB440BB1FBF9F209FB12110BEB95
:1027600008001AF80120CDE9005600EB540080B2B1
:10277000089B0699FFF710FB08EB8400CDE9005693
:1027800000EB5400A0EB940080B23A22089B06991B
:10279000FFF702FBB979089BB1FBF9F11AF80120A8
:1027A00004EB8401CDE9005601EB080080B20699E4
:1027B000FFF7F2FABA7908EB4B00B2FBF9F109FB2B
:1027C000112180B21AF80120CDE90056089B069924
:1027D000FFF7E2FA09B0BDE8F08F00003031323384
:1027E000343536373839000070B50D4C049E00255D
:1027F000206021816281A6810220E0824E074FEA9B
:10280000D10000D0401C6082A282E381258223B1E6
:10281000B42B02D0A280E18070BDA180E28070BDA7
:10282000D40000200149086070470000D400002057
:10283000F0B43B4CA388834234D3E3888B4231D33A
:102840002346E7891E895D89CFB15A2F1AD0B42F4C
:102850001CD0B7F5877F40D10B46281A401E80B2A6
:10286000218AD9B1012916D0022904D0032934D1F3
:10287000F11A491E8BB2281A401E80B20EE00346A0
:102880000846EDE7711A491E8BB2E9E7301A401E7F
:1028900083B2681AE2E7F11A491E8BB29E4201D355
:1028A000854203D2F0BC1FA0FDF7B4BD1C49E58AE8
:1028B0004C8A0968022D12D0042D21D0072D0CD18D
:1028C000444304EB5304DB075B0FF025DD40085D58
:1028D0001201A843DA4002430A55F0BC7047444352
:1028E00004EBD3048020002A0D5D03F0070220FAD8
:1028F00002F002D028430855EFE785430D55ECE779
:10290000444304EB930094079B075D0F0A5CC023CC
:10291000EB409A43230EEB4013430B54DDE70000DA
:10292000D400002044656275673A20457863656588
:1029300064696E6720646973706C617920626F7579
:102940006E6461726965730D0A00000070470000D3
:10295000F8B515460E460B460092044601220221A8
:1029600000F02CF8A0B9134813490068B0FBF1F04F
:102970004FF47A71484300906068B0F5827F0DD1C2
:102980003346002280212046009500F017F870B1F0
:10299000606D40F0200060650320F8BD009830B104
:1029A000401E009020688068C0430006F6D50020D5
:1029B000F8BD00001000002000366E012DE9F8433C
:1029C0001E46914688460446089DFEF709FC401BBA
:1029D000351AFEF705FC074625480068C0F3CB30E2
:1029E000684338E0701C37D0FEF7FAFBC01BA842E2
:1029F00003D215B1009860B32CE02068416821F043
:102A0000E00141606068B0F5827F0BD1A068B0F54D
:102A1000004F02D0B0F5806F04D12068016821F02A
:102A200040010160A06AB0F5005F09D1206801682B
:102A300021F4005101602068016841F400510160F7
:102A4000012084F85100002084F850000320BDE8E4
:102A5000F8830025401E00902068816838EA010054
:102A600004D000214945BDD10020F0E70121F9E75C
:102A7000100000207047FEF7B9BB000030B593B0DE
:102A800030216846FDF742FD14210CA8FDF73EFDFC
:102A90001C480025016841F080510160006800F089
:102AA000805011901848016841F48041016000682D
:102AB000022400F480401190012000900004019055
:102AC0008001CDE9064008AA0420322182E81300E3
:102AD0000B906846FEF700FD08B172B6FEE70CA940
:102AE0000F2081E831004FF48050CDE90F0501211E
:102AF0000CA8FEF707FC002801D072B6FEE713B061
:102B000030BD0000403802400070004002480168BB
:102B100041F470010160704788ED00E070B5044633
:102B200000680169E26821F44051114301612169A3
:102B3000A068E26908436169114308432168CA68D3
:102B400049F20C639A430243CA6020684169A26952
:102B500021F440711143416131492068884202D01B
:102B60003049884202D1FEF777FC01E0FEF764FCB1
:102B7000E2690023192164253226B2F5004F62680C
:102B800028D0A0FB0101930F9200FDF7CBFB01467B
:102B9000B0FBF5F06FF01802504301EB800006EB3C
:102BA0000010B0FBF5F000F0F002B1FBF5F002EB25
:102BB0000012B1FBF5F06FF01803584301EB8000F1
:102BC00006EB0010B0FBF5F000F00F002168104498
:102BD000886070BDA0FB010192185B41FDF7A2FB6C
:102BE0000146B0FBF5F00201B1FBF5F06FF0180300
:102BF000584301EB800006EBC000B0FBF5F000F09D
:102C0000F80002EB4002B1FBF5F0584301EB800005
:102C100006EBC000B0FBF5F000F00700D6E70000BF
:102C20000010014000140140FEE70907090E0028CA
:102C300004DB00F1E02080F80014704700F00F0082
:102C400000F1E02080F8141D7047704703490A68BE
:102C50005206FCD5C2B24A60704700000010014025
:102C6000FEF7CCFAFFF70AFFFEF7B4FFFEF7E8FF26
:102C7000FFF70AF8FDF7BAFF42F210742046FEF79C
:102C80009BF9FBE74FF04070E1EE100A704700003F
:102C9000000000000000010203040607080900000C
:102CA00000000102030402020111121222226669CD
:102CB00069595899998800000000F8B413513551AA
:102CC0005119010010181808181808000000000019
:102CD0000000000000000000131444120000000077
:102CE0000000FFFFFFFFFFFFFFFF8FFFFFFFFFFF62
:102CF000FFFFF1FFFFFFFFFFFFFFFFFFFFFFFFFFF2
:102D0000FFFFFF8FFFFFFFFFFFFFFFF1FFFFFFFF51
:102D1000FFFFFFFFFFFFFFFFFFFFFFFF8FFFFFFF33
:102D2000FFFFFFFFF1FFFFFFFFFFFFFFFFFFFFFFC1
:102D3000FFFFFFFFFF8FFFFFFFFFFFFFFFF1FE0120
:102D4000FFFFFFFFFFFFFFFFFFFFFFFFFFFF8FFF03
:102D5000FFFFFFFFFFFFF1F8007FFFFFFFFFFFFF17
:102D6000F7FF3FFFFFFFFF8FFFFFFFFFFFFFFFF1B9
:102D7000F0003FFFFFFFFFFFFFE1FE1FFFFFFFFF30
:102D80008FFFFFFFFFFFFFFFF1F0001FFFFFFFFFBF
:102D9000FFFFE3FF1FFFFFFFFF8FFFFFFFFFFFFFAF
:102DA000FFF1E0001FFFFFFFFFFFFFE3FF9FFFFFBB
:102DB000FFFF8FFFFFFFFFFFFFFFF1E1E3000000D8
:102DC0000001FFFFE7FF8FFFFFFFFF8FFFFFFFFF08
:102DD000FFFFFFF1C3F30FFFFFFFFCFFFFE3FF8FD8
:102DE000FFFFFFFF8FFFFFFFFFFFFFFFF1C33B0F61
:102DF000FFFFFFFEFFFFE3FF1FFFFFFFFF8FFFFF50
:102E0000FFFFFFFFFFF1C30F0FFFFFFFFEFFFFE11B
:102E1000FE1FFFFFFFFF8FFFFFFFFFFFFFFFF1C35D
:102E20000F0FFFFFFFFEFFFFF0FC1FFFFFFFFF8FF5
:102E3000FFE3FFFFFFFFFFF1C3870FFFFFFFFEFF71
:102E4000FFF0003FFFFFFFFF8FFFE07FFFFFFFFF6F
:102E5000F1C1030FFFFFFFFEFFFFF8007FFFFFFF41
:102E6000FF8FFFE00FFFFFFFFFF1E0001FFFFFFFFD
:102E7000FEFFFFFE01FFFFFFFFFF8FFFFC03FFFFD1
:102E8000FFFFF1E0001FFFFFFFFEFFFFFFFFFFFF5F
:102E9000FFFFFF8FFFFF807FFFFFFFF1F0003FFF8D
:102EA000FFFF7EFFFFFBFFFFFFFFFFFF8FFFFFF036
:102EB0001FFFFFFFF1F8007FFFFFFC3EFFFFE0FF79
:102EC000FFFFFFFFFF8FFFFF001FFFFFFFF1FE006F
:102ED000FFFFFFF03EFFFFC67FFFFFFFFFFF8FFFFB
:102EE000F8078FFFFFFFF1FE87FFFFFFE0CEFFFF38
:102EF000CE7FFFFFFFFFFF8FFFE01F8FC007FFF1B7
:102F0000FEFFFFFFFF8186FFFFCE7FFFFFFFFFFF7A
:102F10008FFFE0FFCF8007FFF1FEFFFFFFFF0206FC
:102F2000FFFFC67FFFFFFFFFFF8FFFE3FFEF0007FD
:102F3000FFF1FEFFFFFFFE0C02FFFFE0FFFFFFFFC0
:102F4000FFFF8FFFFFFFFF1FFFFFF1FEFFFFFFFEF1
:102F50001802FFFFFBFFFFFFFFFFFF8FFFFFFFFFD9
:102F60001FFFFFF1FEFFFFFFFE2000FFFFFFFFFF3F
:102F7000FFFFFFFF8FFFFE01FF1FFFFFF1FEFFFFBF
:102F8000FFFEC002FFFFFF03FFFFFFFFFF8FFFF009
:102F900001FF9FFFFFF1FEFFFFFFFF0002FFFFF8B1
:102FA000007FFFFFFFFF8FFFE001E0800FFFF1FEDA
:102FB000FFFFFFFF0002FFFFF0003FFFE7FFFF8F73
:102FC000FFE003E00007FFF1FEFFFFFFFF8006FFC9
:102FD000FFE0CC1FFFE0FFFF8FFFE271E00007FF83
:102FE000F1FEFFFFFFFFC00EFFFFE3C71FFFE03F43
:102FF000FF8FFFE739E0000FFFF1FEFFFFFFFFC08B
:103000000EFFFFE7E78FFFF007FF8FFFE738FFFFB7
:10301000FFFFF1FEFFFFFFFF001EFFFFE7E78FFF4F
:10302000FE01FF8FFFE310FFFFFFFFF1FEFFFFFF39
:10303000FC003EFFFFE3C78FFFFFC07F8FFFE30170
:10304000FF1FC7FFF1FEFF83FFF0007EFFFFE007D9
:103050001FFFFFF83F8FFFF381FF1FC7FFF1FEFC4B
:1030600001FFE000FEFFFFF00F1FFFFFC01F8FFFFB
:10307000FFC7FF1FC7FFF1FEF007FF8001FEFFFF44
:10308000F81FBFFFFE000F8FFFFFFFF80007FFF1E3
:10309000FEC018FE0003FEFFFFFFFFFFFFF00787E3
:1030A0008FFFFFFFF8000FFFF1FEC0E0F8000FFEFA
:1030B000FFFFFFFFFFFFE01FC78FFFFFFFF8000FBD
:1030C000FFF1FEC700E0001FFEFFFFFFFF9FFFE0D4
:1030D000FFC78FFE0001FF1EFFFFF1FEDC00C000F6
:1030E0003FFEFFFFF83F1FFFE3FFC78FFE0001FF1A
:1030F0001FFFFFF1FEE0000000FFFEFFFFF00F1FCB
:10310000FFFFFFC78FFE0001FFFFFFFFF1FEC000C2
:103110000003FFFEFFFFE0031FFFFFFFFF8FFE0323
:10312000FFF87FFFFFF1FEE0000007FFFEFFFFE377
:10313000C19FFFFFFFFF8FFFC07FF81FFFFFF1FE62
:10314000E000001FFFFEFFFFE7E09FFFF800FF8F9A
:10315000FFF81FF807FFFFF1FEF00000FFFFFEFF82
:10316000FFE7F81FFFF000FF8FFFFE03F801FFFFEE
:10317000F1FEF80003FFFFFEFFFFE7FC1FFFE0008A
:10318000FF8FFFFF83F8C07FFFF1FEFC003FFFFFD2
:10319000FEFFFFE3FE1FFFE000FF8FFFFC07F8F0DC
:1031A0001FFFF1FEFFB7FFFFFFFEFFFFF1FF1FFF55
:1031B000E331FF8FFFE03FF8FC07FFF1FEFFFFFF69
:1031C000FFFFFEFFFFF3FF9FFFE338FF8FFF00FFCE
:1031D000F8FF03FFF1FEFFFFFFFFFFFEFFFFFFFF12
:1031E000FFFFE338FF8FFE07FFF8FFC3FFF1FEFF8D
:1031F000FFFFFFFFFEFFFFFFFFFFFFE318FF8FFE54
:103200000001F8FFF3FFF1FEFFFFFFFFFFFEFFFFEE
:10321000FFDFFFFFE300FF8FFE0001F8FFFFFFF17C
:10322000FEFFFFFFFFFFFEFFFFFF8FFFFFE380FFBB
:103230008FFE0001F8FFFFFFF1FEFFFFFFFFFFFE23
:10324000FFFFFF87FFFFF181FF8FFFFFFFFFFFFF02
:10325000FFF1FEFFFFFFFFFFFEFFFFFFC3FFFFFFCA
:10326000C3FF8FFFFFFFFFFFFFFFF1FEFFFFFFFF29
:10327000FFFEFFFFFFE3FFFFFFFFFF8FFFFFFFFFEB
:10328000FFFFFFF1FE7FFFFFFFFFFCFFFFFFF3FFEC
:10329000FFFFFFFF8FFFFFFFFFFFFFFFF1FF0000BA
:1032A00000000001FFFFFFE3FFFC0000FF8FFFFFB6
:1032B000FFFFFFFFFFF1FFFFFFFFFFFFFFFFFFFF2C
:1032C000E3FFFC0000FF8FFFFFFFFFFFFFFFF1FFA9
:1032D000FFFFFFFFFFFFFFFFFFC3FFFC0000FF8FAB
:1032E000FFFFFFFFFFFFFFF1FFFFFFFFFFFFFFFFFC
:1032F000FFFF87FFFC0000FF8FFFFFFFFFFFFFFFC7
:10330000F1FFFFFFFFFFFFFFFFFFFF8FFFFFE3F175
:10331000FF8FFFFFFFFFFFFFFFF1FFFFFFFFFFFF3B
:10332000FFFFFFFF1FFFFFE3F9FF8FFFFFFFFFFF1F
:10333000FFFFF1FFFFFFFFFFFFFFFFFFFF1FFFFF8B
:10334000E3F8FF8FFFFFFFFFFFFFFFF1FFFFFFFF2E
:10335000FFFFFFFFFFFF3FFFFFE3F8FF80000000DC
:103360000000000001FFFFFFFFFFFFFFFFFFFE3F28
:10337000FFFFE1F0FF800000000000000001FFFF00
:10338000FFFFFFFFFFFFFFFF1FFFFFF000FF8FFFAB
:10339000FFFFFFFFFFFFF1FFFFFFFFFFFFFFFFFF4B
:1033A000FF1FFFFFF001FF8FFFFFFFFFFFFFFFF198
:1033B000FFFFFFFFFFFFFFFFFFFF0FFFFFF801FF12
:1033C0008FFFFFFFFFFFFFFFF1FFFFFFFFFFFFFF8B
:1033D000FFFFFF87FFFFFE07FF8FFFFFFFFFFFFFDE
:1033E000FFF1FFFFFFFFFFFFFFFFFFFFCFFFFFFF2B
:1033F000FFFF8FFFFFFFFFFFFFFFF1FFFFFFFFFF5B
:10340000FFFFFFFFFFFFFFFFFFFFFF8FFFFFFFFF3C
:10341000FFFFFFF1FFFFFFFFFFFFFFFFFFFFFFFFCA
:10342000FFF800FF8FFFFFFFFFFFFFFFF1FFFFFF30
:10343000FFFFFFFFFFFFFFF8FFFFF000FF8FFFFF21
:10344000FFFFFFFFFFF1FFFFFFFFFFFFFFFFFFF8A1
:10345000703FFFE000FF8FFFFFFFFFFFFFFFF1FF67
:10346000FFFFFFFAFFFFFFFFF0201FFFE000FF8FCD
:10347000FFFFFFFFFFFFFFF1FFFFFFFFC01FFFFF89
:10348000FFE0021FFFE3FFFF8FFFFFFFFF0FFFFFC4
:10349000F1FFFFFFFF000FFFFFFFE3871FFFE3FFC9
:1034A000FF8FFFFFFFFF0FFFFFF1FFFFFFFE000792
:1034B000FFFFFFE78F8FFFE3FFFF8FFFFFFFFF0F90
:1034C000FFFFF1FFFFFFFE00027FFFFFE7CF8FFF4F
:1034D000F0FFFF8FFFFFFFFF0FFFFFF1FFFFFFFC7C
:1034E00000007FFFFFE7CF9FFFE000FF8FFFFE00A0
:1034F00000003FFFF1FFFFFFF80000FFFFFFE3FFC9
:103500001FFFE000FF8FFFFE0000003FFFF1FFFF05
:10351000FFF83000FFFFFFF3FE1FFFE000FF8FFF0B
:10352000FE0000003FFFF1FFFFFFF83000FFFFFF4C
:10353000F7FF3FFFE000FF8FFFFE0000003FFFF1BD
:10354000FFFFFFF00000FFFFFFFFFFFFFFFFFFFF98
:103550008FFFFE0000003FFFF1FFFFFFF00000FFC4
:10356000FFFFFFFFFFFFFFFFFF8FFFFF01FF0FFFC9
:10357000FFF1FFFFFF900000FFFFFFFFFF1FFFFFB6
:10358000FFFF8FFFFFC07F0FFFFFF1FFFFFF100066
:1035900000FFFFFFF81F1FFFE000FF8FFFFFE03F6E
:1035A0000FFFFFF1FFFFFC100000FFFFFFF00F1FF8
:1035B000FFE000FF8FFFFFF81F0FFFFFF1FFFFF895
:1035C000183000FFFFFFE0031FFFE000FF8FFFFF49
:1035D000FC070FFFFFF1FFFFF8083800FFFFFFE3D4
:1035E000C19FFFE000FF8FFFFFFF030FFFFFF1FF11
:1035F000FFF0083001FFFFFFE7F09FFFFFE1FF8FC3
:10360000FFFFFF810FFFFFF1FFFFE0080001FFFF59
:10361000FFE7F81FFFFFF9FF8FFFFFFFE00FFFFF3E
:10362000F1FFFFE0E40001FFFFFFE7FC1FFFFFF8F1
:10363000FF8FFFFFFFF00FFFFFF1FFFFE0E200034E
:10364000FFFFFFE3FE1FFFFFF8FF8FFFFFFFF80FF5
:10365000FFFFF1FFFFC0E20007FFFFFFF1FF1FFFC9
:10366000E000FF8FFFFFFFFC0FFFFFF1FFFFC041F6
:10367000000FFFFFFFF3FF9FFFE000FF8FFFFFFF43
:10368000FE0FFFFFF1FFFFC000C01FFFFFFFFFFFA6
:10369000FFFFE001FF8FFFFFFFFFFFFFFFF1FFFFD5
:1036A000C00030FFFFFFFFFFFFFFFFE003FF8FFFC2
:1036B000FFFFFFFFFFFFF1FFFFC000077FFFFFFFDE
:1036C000FFFFFFFFFFFFFF8FFFFFFFFFFFFFFFF188
:1036D000FFFFC000003FFFFFFFFFFFFFFFFFFFFFF7
:1036E0008FFFFFFFFF07FFFFF1FFFFC000007FFF1D
:1036F000FFFFFFFFFFFFFFFFFF8FFFFFE0FC01FF6A
:10370000FFF1FFFFC040007FFFFFFFFFBFFFFFFF94
:10371000FFFF8FFFFFC07800FFFFF1FFFFC0E00059
:103720007FFFFFFFFF3FFFFFFF87FF8FFFFF803817
:1037300000FFFFF1FFFFE0E0007FFFFFFFFF3FFF23
:10374000FF1E03FF8FFFFF0010007FFFF1FFFFE070
:10375000E0007FFFFFFEFFBFCFFE3E01FF8FFFFFB8
:103760000010007FFFF1FFFFE000003FFFFFFE3F82
:10377000FF8FFE3C01FF8FFFFE0000F07FFFF1FF97
:10378000FFF000003FFFFFFF3C0F9FFE3C30FF8F2C
:10379000FFFE0F01F83FFFF1FFFFF800011FFFFFE1
:1037A000FFF003FFFE3C78FF8FFFFE0F81FC3FFF21
:1037B000F1FFFFF80003FFFFFFFFE000FFFE387896
:1037C000FF8FFFFE1FC3FC3FFFF1FFFFFC0007FF61
:1037D000FFFFFFC000FFFE1878FF8FFFFE1FC3FC36
:1037E0003FFFF1FFFFFF000FFFFFFFFFC0007FFE65
:1037F00000F8FF8FFFFE1FC3FC3FFFF1FFFFFF80BC
:103800003FFFFFFFFF80003FFF00F8FF8FFFFE1F1D
:10381000C3FC3FFFF1FFFFFFFFFFFFFFFFFF800043
:103820003FFF01F0FF8FFFFE1FC3FC3FFFF1FFFFD3
:10383000FFFFFFFFFFFFFF80003FFFC3F1FF8FFF90
:10384000FF0FC3FC3FFFF1FFFFFFFFFFFFFFFFF193
:10385000000031FFFFFFFF8FFFFF0FFFF83FFFF179
:10386000FFFFFFFFFFFFFFFFF1000031FFFFFFFF42
:103870008FFFFF07FFF87FFFF1FFFFFFFFFFFFFF55
:10388000FFFF80003FFFFFFFFF8FFFFFFFFFF07F85
:10389000FFF1FFFFFFFFFFFFFFFFFF80003FFFFF84
:1038A000FFFF8FFFFFFFFFFFFFFFF1FFFFFFFFFFA6
:1038B000FFFFFFFF80007FFFFFFFFF8FFFFFFFFF86
:1038C000FFFFFFF1FFFFFFFFFFFFFFFFFFC0007FD4
:1038D000FFFFFFFF8FFFFFFFFFFFFFFFF1FFFFFF76
:1038E000FFFFFFFFFFFFE000FFFFFFFFFF8FFFFF76
:1038F000FFFFFFFFFFF1FFFFFFFFFFFFFFFFFFF0F5
:1039000001FFFFFFFFFF8FFFFFFFFFFFFFFFF1FF43
:10391000FFFFFFFFFFFFFFFF7803DFFFFFFFFF8FCA
:10392000FFFFFFFFFFFFFFF1FFFFFFFFFFFFFFFFB5
:10393000FE3F1F8FFFFFFFFF8FFFFFFFFFFFFFFF18
:10394000F1FFFFFFFFFFFFFFFFFE7FFFCFFFFFFF46
:10395000FF8FFFFFFFFFFFFFFFF1FFFFFFFFFFFFF5
:10396000FFFFFEFF3FFFFFFFFFFF8FFFFFFFFFFF98
:10397000FFFFF1FFFFFFFFFFFFFFFFFFFF3FFFFF25
:10398000FFFFFF8FFFFFFFFFFFFFFFF1FFFFFFFFC5
:10399000FFFFFFFFFFFF3FFFFFFFFFFF8FFFFFFF67
:1039A000FFFFFFFFF1FFFFFFFFFFFFFFFFFFFFFF35
:1039B000FFFFFFFFFF8FFFFFFFFFFFFFFFF1FFFF95
:1039C000000000017FFF00000000000000000FFF6A
:1039D000FFFFFFFFFFFFF1FFFD800000031FFF005F
:1039E000000000000000000FFFFFFF0FF87FFFF155
:1039F000FFF8800000020FFFFFFFFFFFFFFFFFFF48
:103A00008FFFFFFE07F83FFFF1FFF0400000040FBB
:103A1000FFFFFFFFFFFFFFFFFF8FFFFFFE07F03FEE
:103A2000FFF1FFF06000000C07FFFFFFFFFFFFFF4B
:103A3000FFFF8FFFFFFE07F03FFFF1FFF0200000C8
:103A40000807FFFFFFFFFFFFFFFFFF8FFFFFFE07DE
:103A5000F03FFFF1FFF03000001007FFFFFFFFFF16
:103A6000FFFFFFFF8FFFFFFF07F87FFFF1FFF01061
:103A700000003007FFFFFFFFFFFFFFFFFF8FFFFF8B
:103A8000FF0FF87FFFF1FFF01800002007FFFFFF96
:103A9000FFFFFFFFFFFF8FFFFFFFFFFFFFFFF1FFB4
:103AA000F00800006007FFFFFFFFFFFFFFFFFF8F31
:103AB000FFFFFFFFFFFFFFF1FFF00400004007FFE3
:103AC000FFFFFFFFFFFFFFFF8FFFFFFFFFFFFFFF76
:103AD000F1FFF00600008007FFFFFFFFFFFFFFFF81
:103AE000FF8FFFFFFFFFFFFFFFF1FFF002000180EC
:103AF00007FFFFFFFFFFFFFFFFFF8FFFFFFFFFFF3E
:103B0000FFFFF1FFF00300010007FFFFFFFFE000F0
:103B10000000FF8FFFFFFFFFFFFFFFF1FFF001003D
:103B2000020007FFFFFFFF00000000FF8FFFFFFF05
:103B3000FFFFFFFFF1FFF00180060007FFFFFFFC22
:103B400000000000FF8FFFFFFFFFFFFFFFF1FFF00E
:103B50000080040007FFFFFFF000380000FF8FFF28
:103B6000FFFFFFFFFFFFF1FFF00040080007FFFF2E
:103B7000FFE000FE0000FF8FFFFFFFFFFFFFFFF1F0
:103B8000FFF00040080007FFFFFFC003FF8000FFB9
:103B90008FFFFFFFFFFFFFFFF1FFF0002010000786
:103BA000FFFFFF800FFFF800FF8FFFFFFFFFFFFF0A
:103BB000FFF1FFF00030300007FFFFFF003FFFFC88
:103BC00000FF8FFFFFFFFFFFFFFFF1FFF00010205E
:103BD0000007FFFFFE00FFE7FE00FF8FFFFFFFFF74
:103BE000FFFFFFF1FFF00018400007FFFFFC01FF9F
:103BF00081FF00FF8FFFFFF03FFC3FFFF1FFF00070
:103C000008C00007FFFFFC01FF007F00FF8FFFFFE0
:103C1000C00FFC3FFFF1FFF00004800007FFFFF83A
:103C200001FFC07F80FF8FFFFF8007FC3FFFF1FF98
:103C3000F00005000007FFFFF800FFF80000FF8F0D
:103C4000FFFF0003FC3FFFF1FFF00003000007FF50
:103C5000FFF0001FFE0000FF8FFFFF0001FC3FFF91
:103C6000F1FFF00003000007FFFFF00007FF8000F6
:103C7000FF8FFFFE0000FC3FFFF1FFF0000100009E
:103C800007FFFFF1FF81FF8000FF8FFFFE0780FC31
:103C90003FFFF1FFF00001800007FFFFE0FF007F22
:103CA0008000FF8FFFFE0FE07C3FFFF1FFF04780B9
:103CB000800007FFFFE07FC13F8000FF8FFFFE1FF6
:103CC000F03C3FFFF1FFF04FC0400007FFFFE03F37
:103CD000F94F0000FF8FFFFE1FF81C3FFFF1FFF0C0
:103CE0004C40400007FFFFE01FFE780000FF8FFF01
:103CF000FE1FF80C3FFFF1FFF064C0400007FFFF1C
:103D0000E00FFF800000FF8FFFFE1FFC043FFFF16C
:103D1000FFF07FC0400007FFFFE005FFF00000FF5D
:103D20008FFFFE1FFE003FFFF1FFF01F00C00007E6
:103D3000FFFFE0003FFC0000FF8FFFFF0FFF003F91
:103D4000FFF1FFF00000800007FFFFE0000FFF0021
:103D500000FF8FFFFF0FFF003FFFF1FFF0000100AA
:103D60000007FFFFE00003FF8000FF8FFFFF07FF5A
:103D7000C03FFFF1FFF00001000007FFFFE0000778
:103D8000FF8001FF8FFFFF87FFE03FFFF1FFF000A3
:103D900002000007FFFFE0003FFF0001FF8FFFFF71
:103DA000FFFFF83FFFF1FFF00006000007FFFFE014
:103DB00000FFFC0001FF8FFFFFFFFFFFFFFFF1FF90
:103DC000F00005000007FFFFE001FFE00001FF8FAA
:103DD000FFFFFFFFFFFFFFF1FFF0000D800007FF77
:103DE000FFE001FF000003FF8FFFFFFFFFFFFFFF6A
:103DF000F1FFF00008800007FFFFE001FF800003F3
:103E0000FF8FFFFFFFFFFFFFFFF1FFF000104000FB
:103E100007FFFFE000FFF00003FF8FFFFFFFFFFF42
:103E2000FFFFF1FFF00010400007FFFFE0001FFE62
:103E30000007FF8FFFFFFFFFFFFFFFF1FFF00020F4
:103E4000200007FFFFE00003FF8007FF8FFFFFFF59
:103E5000FFFFFFFFF1FFF00060300007FFFFE00011
:103E600007FF800FFF8FFFFFFFFFFFFFFFF1FFF056
:103E70000040100007FFFFE0003FFF801FFF8FFFA3
:103E8000FFFFFFFFFFFFF1FFF000C0080007FFFF8B
:103E9000E001FFFF001FFF8FFFFE0000003FFFF16A
:103EA000FFF000800C0007FFFFE001FFF8003FFF7C
:103EB0008FFFFE0000003FFFF1FFF00180040007CC
:103EC000FFFFE001FFE0007FFF8FFFFE0000003FEB
:103ED000FFF1FFF00100020007FFFFE001FE00001C
:103EE000FFFF8FFFFE0000003FFFF1FFF002000325
:103EF0000007FFFFE001F00003FFFF8FFFFE00005F
:103F0000003FFFF1FFF00600010007FFFFE0018026
:103F10000007FFFF8FFFFF0000003FFFF1FFF004ED
:103F200000018007FFFFE00000001FFFFF8FFFFF81
:103F300083FFFFFFFFF1FFF00C00008007FFFFE0B1
:103F4000000000FFFFFF8FFFFF81FFFFFFFFF1FF7A
:103F5000F00800004007FFFFE000000FFFFFFF8FA9
:103F6000FFFFC1FFFFFFFFF1FFF01800006007FF38
:103F7000FFFFFFFFFFFFFFFF8FFFFFC1FFFFFFFFFF
:103F8000F1FFF01000002007FFFFFFFFFFFFFFFF22
:103F9000FF8FFFFFE0FFFFFFFFF1FFF020000010A9
:103FA00007FFFFFFFFFFFFFFFFFF8FFFFFE0FFFFA8
:103FB000FFFFF1FFF06000001807FFFFFFFFFFFFAA
:103FC000FFFFFF8FFFFFFFFFFFFFFFF1FFF040004C
:103FD000000807FFFFFFFFFFFFFFFFFF8FFFFFFF4F
:103FE000FFFFFFFFF1FFF8C00000040FFFFFFFFF1E
:103FF000FFFFFFFFFF8FFFFFFFFFFFFFFFF1FFF856
:10400000800000041FFFFFFFFFFFFFFFFFFF8FFF88
:10401000FFFFFFFFFFFFF1FFFF000000023FFFFF78
:10402000FFFFFFFFFFFFFF8FFFFFFFFFFFFFFFF11E
:10403000FFFFFFFFFFFFFFFFFFFFFFFFFFFFFFFF90
:104040008FFFFFFFFFFFFFFFF1FFFFFFFFFFFFFFFE
:10405000FFFFFFFFFFFFFFFFFF8FFFFFFFFFFFFFE0
:10406000FFF1FFFFFFFFFFFFFFFFC4E300000000C1
:10407000000000001DC01D803BFF3B073F777E76A0
:10408000F870FBFEFBFE3F773F773E733870387069
:104090003BE0000000000000000000000000000005
:1040A0000000000000000000000000000000000010
:1040B0000000000000000000000000000000000000
:1040C00000000000000000000000000000000000F0
:1040D00000000000000000000000000000000000E0
:1040E00000000000000000000000000000000000D0
:1040F00000000000000000000000000000000000C0
:1041000000000000000000000000000000000000AF
:10411000BAC30000000000000000300073FF700F01
:10412000FE1E7E3C6E38EE30EFFFFC307C303830C7
:104130003E307E30E030C1F00000000000000000A2
:10414000000000000000000000000000000000006F
:10415000000000000000000000000000000000005F
:10416000000000000000000000000000000000004F
:10417000000000000000000000000000000000003F
:10418000000000000000000000000000000000002F
:10419000000000000000000000000000000000001F
:1041A000000000000000000000000000000000000F
:1041B000000000000000CAF700000000000000003E
:1041C000300E300E3FEE30EEFCFF76CE77FE7BFEFB
:1041D000FFFEF3DEF3CE37EE3E6E3C0E303E0000C7
:1041E00000000000000000000000000000000000CF
:1041F00000000000000000000000000000000000BF
:1042000000000000000000000000000000000000AE
:10421000000000000000000000000000000000009E
:10422000000000000000000000000000000000008E
:10423000000000000000000000000000000000007E
:10424000000000000000000000000000000000006E
:10425000000000000000000000000000DDAE0000D3
:104260000000000000000670FFFF3E7038007FFF76
:10427000E000FFFC3B8C39CCFFFF739C71DC7FFFBF
:10428000001C01F800000000000000000000000019
:10429000000000000000000000000000000000001E
:1042A000000000000000000000000000000000000E
:1042B00000000000000000000000000000000000FE
:1042C00000000000000000000000000000000000EE
:1042D00000000000000000000000000000000000DE
:1042E00000000000000000000000000000000000CE
:1042F00000000000000000000000000000000000BE
:104300000000C5C90000000000000000E01FFFF031
:104310003E000E1FCFFBFFF83FFF0FFF7FD87FDC73
:104320006FCEEDFFFDF7F9C00000000000000000B7
:10433000000000000000000000000000000000007D
:10434000000000000000000000000000000000006D
:10435000000000000000000000000000000000005D
:10436000000000000000000000000000000000004D
:10437000000000000000000000000000000000003D
:10438000000000000000000000000000000000002D
:10439000000000000000000000000000000000001D
:1043A00000000000000000006100000000000000AC
:1043B000000000000000000000003E0067000780D1
:1043C0000F807F80E380E780E7807F80000000002F
:1043D00000000000000000000000000000000000DD
:1043E00000000000000000000000000000000000CD
:1043F00000000000000000000000000000000000BD
:1044000000000000000000000000000000000000AC
:10441000000000000000000000000000000000009C
:10442000000000000000000000000000000000008C
:10443000000000000000000000000000000000007C
:10444000000000000000000000000000000062000A
:10445000000000000000000070007000700070009C
:104460007F007B8071C071C071C071C071C07B80E2
:104470007F000000000000000000000000000000BD
:10448000000000000000000000000000000000002C
:10449000000000000000000000000000000000001C
:1044A000000000000000000000000000000000000C
:1044B00000000000000000000000000000000000FC
:1044C00000000000000000000000000000000000EC
:1044D00000000000000000000000000000000000DC
:1044E00000000000000000000000000000000000CC
:1044F0000000000063000000000000000000000059
:104500000000000000003F007300F000E000E00049
:10451000E000F00073003F00000000000000000019
:10452000000000000000000000000000000000008B
:10453000000000000000000000000000000000007B
:10454000000000000000000000000000000000006B
:10455000000000000000000000000000000000005B
:10456000000000000000000000000000000000004B
:10457000000000000000000000000000000000003B
:10458000000000000000000000000000000000002B
:1045900000000000000000000000410000000000DA
:1045A0000000000000000E001F001F001F003B80E5
:1045B0003B8071807FC071C0E0E0E0E0E0E000009F
:1045C00000000000000000000000000000000000EB
:1045D00000000000000000000000000000000000DB
:1045E00000000000000000000000000000000000CB
:1045F00000000000000000000000000000000000BB
:1046000000000000000000000000000000000000AA
:10461000000000000000000000000000000000009A
:10462000000000000000000000000000000000008A
:10463000000000000000000000000000000000007A
:10464000000000000000000000000000000000006A
:10465000000000000000000000000000000000005A
:104660000000000000000000000007000700070035
:10467000070007000700070002000200000000001A
:10468000070007000000000000000000000000001C
:10469000000000001CE01CE01CE00840084008404E
:1046A000000000000000000000000000000000000A
:1046B00000000000000000000CC00CC00CC00CC0CA
:1046C0000CC03FF03FF00CC00CC03FF03FF00CC0FE
:1046D0000CC00CC00CC00CC00000000000000000AA
:1046E0000300030007E00FE0186018001F000FC070
:1046F00000E0186018601FC01F8003000300030063
:10470000000000000000000000001C002200220049
:1047100022001C6001E00F803C0031C0022002201A
:10472000022001C0000000000000000000000000A6
:1047300000000000000003E00FE00C000C00060089
:104740000F301FF019E018C01FF007B00000000084
:104750000000000000000000000000000380038053
:1047600003800100010001000000000000000000C3
:104770000000000000000000000000000000000039
:10478000000000C000C00180018001800300030020
:10479000030003000300030001800180018000C0CA
:1047A00000C000000000000000000C000C0006002B
:1047B00006000600030003000300030003000300DB
:1047C0000600060006000C000C00000000000000BF
:1047D00000000300030003001B601FE00780078048
:1047E0000FC00CC00000000000000000000000002E
:1047F00000000000000000000000000000000300B6
:104800000300030003003FF03FF003000300030038
:104810000300000000000000000000000000000095
:104820000000000000000000000000000000000088
:1048300000000000000003800300030006000600E3
:104840000400000000000000000000000000000064
:104850000000000000003FE03FE00000000000001A
:104860000000000000000000000000000000000048
:104870000000000000000000000000000000000038
:10488000000000000000038003800380000000009F
:1048900000000000000000000060006000C000C0D8
:1048A00000C00180018003000300060006000C0028
:1048B0000C000C00180018000000000000000000B0
:1048C00000000F801FC018C0306030603060306062
:1048D00030603060306018C01FC00F8000000000E2
:1048E0000000000000000000000003001F001F0087
:1048F00003000300030003000300030003000300A0
:104900001FE01FE0000000000000000000000000A9
:1049100000000F801FC038E03060006000C00180E0
:10492000030006000C0018003FE03FE0000000001C
:10493000000000000000000000000F803FC030E0D9
:10494000006000E007C007C000E00060006060E0B9
:104950007FC03F8000000000000000000000000059
:10496000000001C003C003C006C00CC00CC018C0CA
:1049700030C03FE03FE000C003E003E00000000083
:10498000000000000000000000001FC01FC0180051
:1049900018001F801FC018E000600060006030E059
:1049A0003FC01F8000000000000000000000000069
:1049B000000003E00FE01E001800380037803FC001
:1049C00038E03060306018E01FC007800000000051
:1049D000000000000000000000003FE03FE0306009
:1049E000006000C000C000C00180018001800300A1
:1049F00003000300000000000000000000000000B1
:104A000000000F801FC038E0306038E01FC01FC0BA
:104A100038E03060306038E01FC00F8000000000D8
:104A2000000000000000000000000F001FC038C0A0
:104A30003060306038E01FE00F6000E000C003C06D
:104A40003F803E0000000000000000000000000069
:104A500000000000000000000000038003800380CD
:104A600000000000000003800380038000000000BD
:104A70000000000000000000000000000000000036
:104A8000000001C001C001C0000000000000038060
:104A90000300060006000400000000000000000003
:104AA000000000000000003000F003C007001C0000
:104AB00078001C00070003C000F000300000000078
:104AC00000000000000000000000000000000000E6
:104AD00000007FF07FF0000000007FF07FF000001A
:104AE00000000000000000000000000000000000C6
:104AF00000000000000030003C000F00038000E0D8
:104B0000007800E003800F003C003000000000004F
:104B10000000000000000000000000000F801FC027
:104B200018601860006001C00380030000000000EE
:104B30000700070000000000000000000000000067
:104B4000000003800C8008401040104011C012404B
:104B50001240124011C010000800084007800000F9
:104B60000000000000000000000000001F801F8007
:104B7000038006C006C00CC00C601FE01FE0303090
:104B80007878787800000000000000000000000045
:104B9000000000003F803FC01860186018E01FC090
:104BA0001FE01870183018303FF03FE000000000A0
:104BB00000000000000000000000000007B00FF03F
:104BC0001C703830300030003000300038301C703D
:104BD0000FE007C00000000000000000000000001F
:104BE000000000007F807FC030E030703030303017
:104BF00030303030307030E07FC07F800000000007
:104C00000000000000000000000000003FF03FF046
:104C10001830183019801F801F8019801830183004
:104C20003FF03FF000000000000000000000000026
:104C3000000000003FF03FF01830183019801F804E
:104C40001F801980180018003F003F00000000007E
:104C500000000000000000000000000007B01FF08E
:104C6000187030303000300031F831F83030183002
:104C70001FF007C00000000000000000000000005E
:104C8000000000003CF03CF01860186018601FE065
:104C90001FE01860186018603CF03CF00000000055
:104CA0000000000000000000000000001FE01FE006
:104CB00003000300030003000300030003000300DC
:104CC0001FE01FE0000000000000000000000000E6
:104CD0000000000003F803F800600060006000605E
:104CE00030603060306030E03FC00F800000000076
:104CF0000000000000000000000000003EF83EF848
:104D000018E019801B001F001D8018C018C0186013
:104D10003E783E3800000000000000000000000067
:104D2000000000003F003F000C000C000C000C00D5
:104D30000C000C300C300C303FF03FF00000000055
:104D40000000000000000000000000007878787883
:104D500038703CF034B037B037B0333033303030A7
:104D60007CF87CF80000000000000000000000005B
:104D70000000000039F03DF01C601E601E601B60EA
:104D80001B6019E019E018E03EE03E600000000002
:104D900000000000000000000000000007800FC0BD
:104DA0001CE03870303030303030303038701CE03B
:104DB0000FC007800000000000000000000000009D
:104DC000000000003FC03FE0187018301830187025
:104DD0001FE01FC0180018003F003F000000000047
:104DE00000000000000000000000000007800FC06D
:104DF0001CE03870303030303030303038701CE0EB
:104E00000FC0078007B00FF00CE0000000000000AA
:104E1000000000003FC03FE01870183018701FE01D
:104E20001FC018E0186018703E383E1800000000DF
:104E30000000000000000000000000000FB01FF0A4
:104E40003870303038001F8007E000703030387024
:104E50003FE037C00000000000000000000000003C
:104E6000000000003FF03FF03330333033300300B8
:104E700003000300030003000FC00FC00000000088
:104E80000000000000000000000000003CF03CF0CA
:104E900018601860186018601860186018601CE0CE
:104EA0000FC00780000000000000000000000000AC
:104EB0000000000078F078F03060306018C018C052
:104EC0000D800D800D800700070007000000000026
:104ED0000000000000000000000000007C7C7C7CE2
:104EE000301833983398339836D816D01C701C700D
:104EF0001C701830000000000000000000000000DE
:104F00000000000078F078F0306018C00D800700D5
:104F100007000D8018C0306078F078F000000000C5
:104F20000000000000000000000000003CF03CF029
:104F300018600CC007800780030003000300030013
:104F40000FC00FC0000000000000000000000000C3
:104F5000000000001FE01FE0186018C0018003007F
:104F6000030006000C6018601FE01FE00000000056
:104F70000000000000000000000003C003C00300A8
:104F80000300030003000300030003000300030009
:104F900003000300030003C003C000000000000082
:104FA000180018000C000C000C000600060003009E
:104FB00003000180018000C000C000C000600060EC
:104FC000000000000000000000000F000F000300C0
:104FD00003000300030003000300030003000300B9
:104FE0000300030003000F000F000000000000009A
:104FF0000000020007000D8018C030602020000073
:1050000000000000000000000000000000000000A0
:105010000000000000000000000000000000000090
:105020000000000000000000000000000000000080
:10503000000000000000000000000000FFFCFFFC7A
:1050400000000400030000800000000000000000D9
:105050000000000000000000000000000000000050
:105060000000000000000000000000000000000040
:1050700000000FC01FE000600FE01FE0386030E06C
:105080003FF01F7000000000000000000000000062
:105090000000700070003000300037803FE0386062
:1050A00030303030303038607FE0778000000000F2
:1050B00000000000000000000000000000000000F0
:1050C000000007B01FF018303030300030003830AA
:1050D0001FF00FC0000000000000000000000000F2
:1050E0000000007000700030003007B01FF0187032
:1050F00030303030303038701FF807B80000000012
:10510000000000000000000000000000000000009F
:10511000000007801FE018603FF03FF030001830BB
:105120001FF007C0000000000000000000000000A9
:10513000000003F007F0060006001FE01FE0060075
:1051400006000600060006001FE01FE00000000049
:10515000000000000000000000000000000000004F
:10516000000007B81FF81870303030303030187039
:105170001FF007B0003000700FE00FC0000000000B
:10518000000038003800180018001BC01FE01C6029
:1051900018601860186018603CF03CF000000000D7
:1051A00000000000000000000000030003000000F9
:1051B00000001F001F0003000300030003000300A2
:1051C0001FE01FE0000000000000000000000000E1
:1051D000000003000300000000001FC01FC000C04B
:1051E00000C000C000C000C000C000C000C001C0BE
:1051F0003F803F0000000000000038003800180029
:1052000018001BE01BE01B001E001E001B00198085
:1052100039F039F00000000000000000000000003C
:1052200000001F001F000300030003000300030031
:1052300003000300030003001FE01FE00000000064
:10524000000000000000000000000000000000005E
:1052500000007EE07FF03330333033303330333092
:105260007BB87BB8000000000000000000000000D8
:10527000000000000000000000003BC03FE01C6098
:1052800018601860186018603CF03CF000000000E6
:10529000000000000000000000000000000000000E
:1052A000000007801FE01860303030303030186068
:1052B0001FE0078000000000000000000000000068
:1052C0000000000000000000000077807FE03860F0
:1052D00030303030303038603FE0378030003000E0
:1052E0007C007C00000000000000000000000000C6
:1052F000000007B81FF818703030303030301870A8
:105300001FF007B00030003000F800F80000000087
:10531000000000000000000000003CE03DF00F3005
:105320000E000C000C000C003FC03FC0000000004D
:10533000000000000000000000000000000000006D
:10534000000007E01FE018601E000FC001E01860B9
:105350001FE01F80000000000000000000000000AF
:10536000000000000C000C000C003FE03FE00C00CF
:105370000C000C000C000C300FF007C00000000007
:10538000000000000000000000000000000000001D
:10539000000038E038E0186018601860186018E005
:1053A0001FF00F700000000000000000000000006F
:1053B0000000000000000000000078F078F030608D
:1053C00018C018C00D800D80070007000000000005
:1053D00000000000000000000000000000000000CD
:1053E000000078F078F03260326037E01DC01DC0F8
:1053F00018C018C0000000000000000000000000FD
:10540000000000000000000000003CF03CF00CC078
:105410000780030007800CC03CF03CF00000000057
:10542000000000000000000000000000000000007C
:10543000000078F078F0306018C018C00D800F8040
:105440000700060006000C007F007F00000000003F
:10545000000000000000000000001FE01FE018C076
:105460000180030006000C601FE01FE00000000048
:105470000000000000000000000001C003C00300A5
:10548000030003000300030007000E0007000300F1
:1054900003000300030003C001C00000000000007F
:1054A00000000300030003000300030003000300E7
:1054B00003000300030003000300030003000300D4
:1054C000030000000000000000001C001E00060099
:1054D000060006000600060007000380070006001D
:1054E0000600060006001E001C0000000000000070
:1054F0000000000000000000000000000E003F302F
:1055000033F001E000000000000000000000000097
:105510000000000000000000C4E3000000000000E4
:10552000000000000000000000000000000000007B
:1055300000000000000001C1C00001E3E00003E33F
:10554000C00003C7800003C7FFFF078FFFFF078F5F
:10555000000F0F1E001E0F3C1E1E1F3C1E3E1F187C
:105560001E3C3F001E1C7F001E007F079E70FF0731
:105570009EF0EF0F9E786F0F1E780F0F1E3C0F1ED0
:105580001E3C0F1E1E1E0F3C1E1E0F3C1E1F0F7CBE
:105590001E0F0F781E0E0F001E000F001E000F00C2
:1055A0003C000F07FC000F07F8000000000000009F
:1055B0000000000000000000000000000000BAC36E
:1055C00000000000000000000000000000000000DB
:1055D00000000000000000000F0000000F000000AD
:1055E0000F07FFFE0F07FFFE0F00003E1E0000FC2E
:1055F000FFF801F0FFF803E01E7807C01E780F8067
:105600003C780F003C780F003C780F003C780F008E
:105610003C7FFFFF78FFFFFF78F00F0078F00F006E
:105620003DE00F001FE00F000FE00F0007C00F006C
:1056300007E00F0007F00F000FF80F001E7C0F00AF
:105640003C380F0078000F00F003FF006001FE00FF
:10565000000000000000000000000000000000004A
:1056600000000000CEA200000000000000000000CA
:105670000000000000000000000000000000030720
:1056800001E0078701E0070701C00FF779C01EF7A7
:105690007BC01EF77B803CF77BFF78F77BFFF8F73A
:1056A0007F9EF7FFFF9E67FFFF9E07007F9C0F0016
:1056B0000F9C1E001F9C1E7FFFBC3E7FF3FC3E0024
:1056C00003FC7E0001F8FE0001F8FE7FE1F8DE7FBA
:1056D000E1F81E78E0F01E78EEF01E78FFF01E78FC
:1056E000FDF81E79FBFC1EF1F7BC1EF0EF9E1FE0DB
:1056F0000F0F1EC01E0F1E000C0700000000000050
:1057000000000000000000000000C8ED00000000E4
:105710000000000000000000000000000000000089
:1057200003C0780007807800078078000780F000C9
:105730000F00F000FFFFFFFFFFFFFFFF1E03C01F72
:105740001E03C01E1FE78F3E3DE78F3C3DEF0F7CE1
:105750003DE70F7879E00F0079E00E007FFE0E0044
:105760007FFE1F0001E01F0001E01F0001E01F801D
:1057700001E01F8001E03F8001FF3FC00FFF7BC0C1
:10578000FFF079E0F9E0F1F001E1F0F001E3E0F899
:1057900001E7C07C01FF803F01FF001F01EC000E0C
:1057A00000000000000000000000000000000000F9
:1057B000D1C5000000000000000000000000000053
:1057C0000000000000000000000000007700000062
:1057D000FF007FFCF7807FFDE3C001C1E3C001C390
:1057E000C1803DC7FFFF39C7FFFF39CF838079DF15
:1057F000838079FF838079DF838071C383807FFF1B
:10580000FFFE7FFFFFFE03C3838007C3838007C3C0
:1058100083800FC383800FC383801FC3FFFE1DC31C
:10582000FFFE3DC3838079C38380F1C38380F1C3CE
:10583000838061C3838001C3FFFF03C3FFFF1FC3D6
:1058400080001F83800000000000000000000000B6
:10585000000000000000BADA0000000000000000B4
:105860000000000000000000000000000000000038
:1058700000000000000000001FFFFFFC1FFFFFFCF6
:105880001E03C03C1EC3C73C1FE3C7BC1EF3CF3C76
:105890001EFBDF3C1E7BDE3C1E33DC3C1E03C03C9B
:1058A0001FFFFFFC1FFFFFFC1E03C03C0003C000E6
:1058B0000003C0003FFFFFFC3FFFFFFC0003C000F0
:1058C0000003C0000003C000FFFFFFFFFFFFFFFF5A
:1058D000000000001C3870703E78F8F83C7C787C42
:1058E0007C3C3C3EF83E3C1FF01C180E00000000C3
:1058F000000000000000000000000000B4CB000029
:105900000000000000000000000000000000000097
:105910000000000000000000000000783C0000785B
:105920003C0000783C0000783C0000783C000078A7
:105930003C0C3C783C1E3C783C3F3C783CF83C7F3F
:10594000FDF03C7FFFE03C783F803C783E003C78B7
:105950003C003C783C003C783C003C783C003C7887
:105960003C003C783C003C783C0E3C783C0F3C785A
:105970003C0F3C79FC0F3C7FFC0F3FFF3C0F3FF09E
:105980003E1EFF001FFEF0000FFC000000000000A4
:105990000000000000000000000000000000000007
:1059A0000000D7D60000000000000000000000004A
:1059B00000000000000000000003800000078000DD
:1059C0000003C0000003E0000001E0007FFFFFFED5
:1059D0007FFFFFFE7800001E7800001E7800001E8A
:1059E0007800001E7BFFFFDE03FFFFC000000FC03A
:1059F00000003F0000007E000001F8000001E00010
:105A00000001E000FFFFFFFFFFFFFFFF0001E000DC
:105A10000001E0000001E0000001E0000001E00002
:105A20000001E0000003E0000003C00000FFC00030
:105A300000FF8000000000000000000000000000E7
:105A40000000000000000000CCE5000000000000A5
:105A50000000000000000000000000000000000046
:105A600000000000000003C03C0003C03C0003C075
:105A70003C0007803C0007803C0007803C000FFF93
:105A8000FFFF0FFFFFFF1F01FE001F01FF003F018F
:105A9000FF003F03FF007F03FF807F07BF80FF07FA
:105AA000BFC0EF0F3DC0CF0F3DE00F1E3DE00F1E0A
:105AB0003CF00F3C3C780F7C3C7C0FF83C3E0FF7F1
:105AC000FFDF0FE7FFCF0FC03C060F003C000F00C9
:105AD0003C000F003C000F003C000F003C000000A9
:105AE0000000000000000000000000000000CFC225
:105AF00000000000000000000000000000000000A6
:105B00000000000000000000000000000000000095
:105B1000FFFFFFFFFFFFFFFF000F8000000F80006F
:105B2000000F8000000F8000000F8000000F800039
:105B3000000FE000000FF800000FFC00000FBF0096
:105B4000000F9F80000F87E0000F83F0000F80F8A8
:105B5000000F807C000F8038000F8000000F800055
:105B6000000F8000000F8000000F8000000F8000F9
:105B7000000F8000000F8000000F8000000F8000E9
:105B80000000000000000000000000000000000015
:105B900000000000B6D4000000000000000000007B
:105BA00000000000000000000000000000000000F5
:105BB00000000000007800000078000000787FFC02
:105BC00000787FFC0078003C0078003FFFFF303F0A
:105BD000FFFF783C00783C3800783E7800781E78EB
:105BE000C0780F79E0780FF0F07807F0F87803F0DC
:105BF000787801E03C7803F03E7803F0187807F8F5
:105C0000007807FC00780F3E00781F1E00783E1FCA
:105C100000787C0E00F8F80000F0F0003FF0600023
:105C20003FE0000000000000000000000000000055
:105C300000000000000000000000D3A600000000EB
:105C40000000000000000000000000000000000054
:105C50000001C0000003E0000001E0000001F000CE
:105C60000000F0001FFFFFFF1FFFFFFF1E000000EE
:105C70001E0000001E01E0781E01E0781EE1E078C1
:105C80001FF1F0F81EF0F0F01EF0F0F01EF8F0F04A
:105C90001E78F1F01E78F9E01E7879E01E7C7BE03A
:105CA0001E3C7BC01E3C7BC01E3C7BC03C3E078034
:105CB0003C1C07803C0007803C000F0078000F0070
:105CC0007BFFFFFFF3FFFFFFF0000000600000001C
:105CD00000000000000000000000000000000000C4
:105CE000B5C400000000000000000000000000003B
:105CF0000000000000000000000003803C0007C01E
:105D00003E0007803C0007807C000F0078007FFE8B
:105D10007FFE7FFEFFFE781EF01E781FE01E781FBC
:105D2000E01E781FC01E781FC01E781FF01E781E50
:105D3000F81E781E7C1E7FFE3C1E7FFE1E1E781EF7
:105D40001F1E781E0F9E781E079E781E071E781E47
:105D5000001E781E001E781E003E781E003C781E35
:105D6000003C7FFE003C7FFE007C781E3FF8781EE2
:105D70003FF00000000000000000000000000000F4
:105D8000000000000000B5E300000000000000007B
:105D90000000000000000000000000000000000003
:105DA0000003C0000003C0000003C0000003C000E7
:105DB0000003FFFF0003FFFF0003C0000003C0005B
:105DC0000003C0000003C0000FFFFFF80FFFFFF843
:105DD0000F0000780F0000780F0000780F000078A7
:105DE0000F0000780F0000780FFFFFF80FFFFFF89B
:105DF0000F000078000000000C3838301E7C7878E6
:105E00003E3C78783C3C3C3C7C3E3C3EF81E3C1E94
:105E1000F01E1E1F701E1C0E00000000000000007F
:105E2000000000000000000000000000D5F30000AA
:105E30000000000000000000000000000000000062
:105E400000000000000000003C00000078007FF02F
:105E500078007FF0780079FFFFFF79FFFFFF79E19D
:105E6000E00079E1E0007BC1EF807BC3CF807BC3A2
:105E7000CF807F87CF807F878F807F878F807BCF0A
:105E80000F807BCFFFFE79EFFFFE79E00F8078E097
:105E90000F8078F00F8078F00F8078F00F8078FF17
:105EA000FFFF79FFFFFF7FE00F807FC00F8078004A
:105EB0000F8078000F8078000F8078000F807800C6
:105EC0000F80000000000000000000000000000043
:105ED0000000CEAA0000000000000000000000004A
:105EE00000000000000000000000000000000000B2
:105EF000000780000E0780001F0780000F878000CA
:105F000007C7800001E7800000C78000000780000D
:105F10007FFFFFFC7FFFFFFC0007803C000F803C01
:105F2000000F003C000F003C000F603C001FF03CE5
:105F3000001E783C003E3C3C003C3E3C007C1F3C4C
:105F400000780F3C00F8063C01F0003C03E0007CC8
:105F500007C0007C0F8000781F0000F83E00FFF0B3
:105F60007C00FFE03800000000000000000000009E
:105F70000000000000000000CAF700000000000060
:105F80000000000000000000000000000000000011
:105F90000000000000000F0000380F0000380F0064
:105FA00000380F3FF8380F3FF8380F007838FFE01F
:105FB0007FFFFFE07FFF0F0070380F18F0381F3CA5
:105FC000F0381F1CFE381FDEFE383FEFEF383FFF72
:105FD000EF383FF7E7B87F67C7B87F03C3B8FF075D
:105FE000E038EF07E038EF0FF038CF1FF0380F1E22
:105FF00078380F3C7C380F783C380FF838380F6011
:1060000000780F000FF80F0007F00F0000000000ED
:106010000000000000000000000000000000DDAEF5
:106020000000000000000000000000000000000070
:106030000000000000000000003C1E00003C1E00AC
:10604000003C1E00FFFFFFFFFFFFFFFF003C1E00A4
:1060500007BC1E00078000000FFFFFFC0FFFFFFCC6
:106060001E0000003C0000003C0000007FFFFFF02D
:10607000F7FFFFF0378380F00787C0F00783F0F069
:106080000700E0F0FFFFFFFFFFFFFFFF0F0F00E043
:106090000F0F81E00E03E1E01E01C1E01FFFFFFED4
:1060A0001FFFFFFE000001E0000003C00000FFC072
:1060B0000000FF8000000000000000000000000061
:1060C00000000000C5C90000000000000000000042
:1060D00000000000000000000000000000000000C0
:1060E00000003800003E7C003FFE3F3FFFF01FBF36
:1060F000E00007BC0000033C0000003C003C003C0A
:106100000FFE703DFFF8F83DFF007C3DE7803F3D0E
:10611000E7801F3DE78E0E3DE79F003DE7FE00391B
:10612000E7F80039E3F01C39E3C01E79E3C01E79BB
:10613000E1E01E79E1E03C79E0F03C79E0F83CF107
:10614000E07C3CF1E37C7DF1EF3F79E1FE1F7BE1F8
:10615000F80E7BC3E0007981C00000000000000061
:1061600000000000000000000000410000000000EE
:10617000000000000000000000000000000000001F
:10618000000000000000000000000000007C000093
:1061900000FC000000FE000000FE000001FF000007
:1061A00001FF000001EF000003EF800003CF80003B
:1061B00007C7800007C7C0000787C0000F83E00043
:1061C0000F83E0000F01E0001FFFF0001FFFF00051
:1061D0003FFFF8003E00F8003C00F8007C007C0027
:1061E0007C007C0078003C00F8003E00F8003E0097
:1061F000000000000000000000000000000000009F
:10620000000000000000000000000000000000008E
:10621000610000000000000000000000000000001D
:10622000000000000000000000000000000000006E
:10623000000000000000000000000000000000005E
:10624000000000000000000000000000000007F84F
:1062500000001FFE00003FFE00003E3F0000381F10
:106260000000000F0000000F000003FF00001FFFF0
:1062700000003F8F00007C0F00007C0F0000781FA3
:1062800000007C1F00007E7F00007FFF00003FFFBA
:1062900000000FCF00000000000000000000000020
:1062A00000000000000000000000000000000000EE
:1062B000000000000000620000000000000000007C
:1062C00000000000000000000000000000000000CE
:1062D000000000003C0000003C0000003C0000000A
:1062E0003C0000003C0000003C0000003C000000BE
:1062F0003C0000003CFE00003DFF80003FFFC0006E
:106300003F8FC0003F07E0003E03E0003E03E00097
:106310003C01E0003C01E0003C01E0003C03E00007
:106320003E03E0003E03E0003F07C0003F8FC00097
:106330003FFF80003FFF00003CFC00000000000029
:10634000000000000000000000000000000000004D
:1063500000000000000000000000000063000000DA
:10636000000000000000000000000000000000002D
:10637000000000000000000000000000000000001D
:10638000000000000000000000000000000000000D
:106390000000000000000000000001FC000007FEFB
:1063A00000001FFE00003F8600003E0000007C0051
:1063B00000007C0000007C000000780000007800F5
:1063C00000007C0000007C0000007C0000003E001B
:1063D00000003F8600001FFE00000FFE000003FCCF
:1063E00000000000000000000000000000000000AD
:1063F000000000000000000000000000000000009D
:106400000000CEA20000000000000000000000001C
:10641000000000000000000000000000030701E091
:10642000078701E0070701C00FF779C01EF77BC09F
:106430001EF77B803CF77BFF78F77BFFF8F77F9EAA
:10644000F7FFFF9E67FFFF9E07007F9C0F000F9CDA
:106450001E001F9C1E7FFFBC3E7FF3FC3E0003FC22
:106460007E0001F8FE0001F8FE7FE1F8DE7FE1F832
:106470001E78E0F01E78EEF01E78FFF01E78FDF832
:106480001E79FBFC1EF1F7BC1EF0EF9E1FE00F0F04
:106490001EC01E0F1E000C070000000000000000C0
:1064A0000000000000000000D1A900000000000072
:1064B00000000000000000000000000000000000DC
:1064C000000000000000000000001FFFFFF81FFF99
:1064D000FFF80003C0000003C0007FFFFFFE7FFF46
:1064E000FFFE7803C01E7803C01E7FFFFFFE7FFF04
:1064F000FFFE0003C0000003C00007FFFFE007FF2E
:10650000FFE00003C000000000001FFFFFF81FFFB6
:10651000FFF800000078000000781FFFFFF81FFF61
:10652000FFF80000007800000078000000783FFFCE
:10653000FFF83FFFFFF800000078000000000000B7
:106540000000000000000000000000000000B5E7AF
:10655000000000000000000000000000000000003B
:10656000000000000000000000078000000780001D
:1065700000078000000780007FFFFFF87FFFFFF823
:10658000780780F8780780F8780780F8780780F82F
:10659000780780F8780780F87FFFFFF87FFFFFF823
:1065A000780780F8780780F8780780F8780780F80F
:1065B000780780F8780780F87FFFFFF87FFFFFF803
:1065C0007807800E7807800F0007800F0007800F84
:1065D0000007801F0007801E0003FFFE0001FFFC74
:1065E00000000000000000000000000000000000AB
:1065F00000000000D7D300000000000000000000F1
:10660000000000000000000000000000000000008A
:106610000000000000001FFFFFF81FFFFFF8000050
:1066200001F8000007E000000FC000001F8000001C
:106630003E000000FC000001F8000003E000000341
:10664000E0000003E000FFFFFFFFFFFFFFFF00038C
:10665000E0000003E0000003E0000003E0000003AE
:10666000E0000003E0000003E0000003E00000039E
:10667000E0000003E0000003E0000003C00001FFB1
:10668000C00000FF800000000000000000000000CB
:10669000000000000000000000000000446562757A
:1066A000673A205061696E745F4472617753747207
:1066B000696E675F454E20496E707574206578631A
:1066C0006565647320746865206E6F726D616C20FF
:1066D000646973706C61792072616E67650D0A0080
:1066E00044656275673A205061696E745F447261F7
:1066F00077436972636C6520496E707574206578A4
:10670000636565647320746865206E6F726D616C7B
:1067100020646973706C61792072616E67650D0A1F
:106720000000000044670008000000203400000062
:10673000C401000878670008340000201C0700002E
:10674000E00100080000000001000000100000004F
:10675000000000000024F4006A40000809000B005B
:1067600010001500404600080E00140018550008DF
:086770001B00180020002900A5
:040000050800018965
:00000001FF
