:020000040800F2
:10000000700B002089010008D70F0008AD0E000812
:10001000D50F00087F0300085F15000800000000EE
:10002000000000000000000000000000E9120008CD
:100030008103000800000000D90F0008EB1200083F
:10004000A3010008A3010008A3010008A301000800
:10005000A3010008A3010008A3010008A3010008F0
:10006000A3010008A3010008A3010008A3010008E0
:10007000A3010008A3010008A3010008A3010008D0
:10008000A3010008A3010008A3010008A3010008C0
:10009000A3010008A3010008A3010008A3010008B0
:1000A000A3010008A3010008A3010008A3010008A0
:1000B000A3010008A3010008A3010008A301000890
:1000C000A3010008A3010008A3010008A301000880
:1000D000A3010008A3010008A3010008A301000870
:1000E000A3010008A3010008A301000800F002F822
:1000F00000F03AF80AA090E8000C82448344AAF188
:100100000107DA4501D100F02FF8AFF2090EBAE885
:100110000F0013F0010F18BFFB1A43F0010318473B
:10012000A4180000C4180000103A24BF78C878C191
:10013000FAD8520724BF30C830C144BF04680C60ED
:10014000704700000023002400250026103A28BF35
:1001500078C1FBD8520728BF30C148BF0B60704739
:100160001FB51FBD10B510BD00F0CFF81146FFF749
:10017000F7FF01F07FFB00F0EDF803B4FFF7F2FFAB
:1001800003BC00F0F5F80000094880470948004723
:10019000FEE7FEE7FEE7FEE7FEE7FEE7FEE7FEE737
:1001A000FEE7FEE704480549054A064B7047000094
:1001B00043130008ED00000870050020700B0020BC
:1001C0007007002070070020032A40F2308010F0F2
:1001D000030C00F0158011F8013BBCF1020F6244E2
:1001E00098BF11F801CB00F8013B38BF11F8013B73
:1001F000A2F1040298BF00F801CB38BF00F8013B20
:1002000011F0030300F04F80083AC0F0088051F865
:10021000043B083A51F804CBA0E80810F5E7121D9A
:100220005CBF51F8043B40F8043BAFF30080D207B9
:1002300024BF11F8013B11F801CB48BF11F8012B85
:1002400024BF00F8013B00F801CB48BF00F8012BA8
:1002500070474FF0000200B5134694469646203989
:1002600022BFA0E80C50A0E80C50B1F12001BFF46F
:10027000F7AF090728BFA0E80C5048BF0CC05DF8D5
:1002800004EB890028BF40F8042B08BF704748BF23
:1002900020F8022B11F0804F18BF00F8012B704797
:1002A00070477047704710B5203AC0F00B80B1E836
:1002B0001850203AA0E81850B1E81850A0E818509B
:1002C000BFF4F5AF5FEA027C24BFB1E81850A0E8A4
:1002D000185044BF18C918C0BDE810405FEA827CBE
:1002E00024BF51F8043B40F8043B08BF7047D207D5
:1002F00028BF31F8023B48BF11F8012B28BF20F876
:10030000023B48BF00F8012B7047754600F02CF8FF
:10031000AE4605006946534620F00700854618B0F2
:1003200020B5FFF73FFFBDE820404FF000064FF03B
:1003300000074FF000084FF0000B21F00701AC461A
:10034000ACE8C009ACE8C009ACE8C009ACE8C00939
:100350008D46704710B50446AFF300802046BDE8D7
:100360001040FFF70ABF000000487047100500204A
:1003700001491820ABBEFEE7260002007047FEE7E9
:10038000704772B6FEE7000070B5044600F004F94D
:100390000546601C02D004480078044400F0FCF8D4
:1003A000401BA042FAD370BD040000202DE9F84F95
:1003B000DFF8B8910024A9F1040B23460F2709F1B7
:1003C000040AABF1040EC9E00125A5402A40AA4267
:1003D0007DD1674ED1F804C0ACEB0608B44532D0ED
:1003E00014DCBCF1030F3AD009DCBCF1000F2AD0B9
:1003F000BCF1010F1CD0BCF1020F31D11DE0BCF1EA
:10040000110F17D0BCF1120F2AD119E0B8F5881FCF
:1004100019D006DCB8F5803F15D0B8F5801F1FD184
:1004200011E0B8F5001F0ED0B8F5041F18D10AE08E
:10043000CB6815E0CB681B1D12E0CB6808330FE0DA
:10044000CB680C330CE08B682BB1012B4FF0080309
:1004500003D0456104E0042302E0056100E00023CD
:10046000FF2A01D8064601E000F104064FEA8405A0
:1004700001D9A5F12005D6F8008007FA05FC28EA85
:100480000C0803FA05F548EA0508C6F800804D682F
:10049000ED0062D5374DAE6946F00106AE61AD693B
:1004A00024F0030605F001050095334D06EB050C1D
:1004B000DCF80850A607360F07FA06F825EA080503
:1004C000DFF8B880404503D14FF0000817E044E062
:1004D000DFF8AC80404502D14FF001080FE0DFF8B3
:1004E000A480404502D14FF0020808E0DFF8988070
:1004F000404502D14FF0030801E04FF0040808FA2C
:1005000006F848EA0508CCF808804D68D9F800607C
:10051000ED024D4601D5164300E096432E604D682E
:10052000DAF80060AD02554601D5164300E0964367
:100530002E604D68DBF80060AD035D4601D51643C3
:1005400000E096432E604D68DEF80060ED037546CE
:1005500001D5164300E096432E60641C0D682A46C0
:10056000E5407FF431AFBDE8F88F0000080401409A
:10057000000011100010024000000140000801407E
:10058000000C014000100140001401400AB101615B
:1005900070470904FBE700000148806870470000CD
:1005A000040000200248816802781144816070478D
:1005B00004000020074810B5016841F010010160F7
:1005C000032000F067F80F2000F006F800F024F890
:1005D000002010BD0020024070B50D4D04464FF4C0
:1005E0007A712878B1FBF0F00A490968B1FBF0F0A4
:1005F00000F0AEFA48B9102C07D200222146501E56
:1006000000F028F800206C6070BD012070BD000073
:1006100004000020000000200C4808B5816941F06A
:1006200001018161816901F001010091C16941F01D
:100630008051C161C06900F0805000900448416859
:1006400021F0E06141F00071416008BD00100240FE
:1006500000000140F0B40E4B1B680C46C3F30223AC
:10066000C3F10705042D00D90425191D072901D25E
:10067000002300E0DB1E012606FA05F1491E214099
:1006800099409E40761E16403143F0BC01F0E1B81F
:100690000CED00E0064900F0070208684FF6FF0382
:1006A000184040EA0220034A1043086070470000E7
:1006B0000CED00E00000FA052DE9F0470F460500BB
:1006C00061D0434E306800F00700B84209D230686C
:1006D00020F0070038433060306800F00700B8426F
:1006E00051D128683B4C810712D5400703D560687B
:1006F00040F4E06060602878000703D5606840F44B
:10070000605060606068A96820F0F0000843606095
:100710002878C00728D06868012810D021680228EE
:1007200010D0890700292EDA616821F00301014306
:100730006160FFF731FF804641F288390DE02168A2
:100740008903EFE78901EDE7FFF726FFA0EB08013A
:10075000494502D90320BDE8F0876068696800F068
:100760000C00B0EB810FEFD1306800F00700B84209
:100770000BD9306820F0070038433060306800F053
:100780000700B84201D00120E5E72878400705D5E9
:100790006068E96820F4E06008436060287800073A
:1007A00006D56068296920F4605040EAC1006060A5
:1007B00000F018F86168084AC1F30311515CC840A1
:1007C0000649086006480068FFF706FF0020C2E7F8
:1007D00000200240001002407019000800000020B4
:1007E000080000200E4A51680E4801F00C03042B4B
:1007F00011D0082B0FD10C48C1F38343C903C05C4F
:100800000AD55168084AC1F34041921E515C054A1D
:100810005043B0FBF1F07047044948437047000073
:100820000010024000127A008219000800093D0001
:100830002DE9F84F040070D02078C04DC00749D092
:100840006868C0F38100012807D06868C0F38100A0
:10085000022809D16868C00306D52868800339D505
:1008600060680028E7D035E06068B0F5803F0BD0C5
:1008700010B1B0F5A02F11D0286820F48030286086
:10088000286820F4802002E0286840F48030286046
:10089000606890B1FFF780FE06460AE0286840F4E1
:1008A00080202860F0E700BFFFF776FE801B6428F9
:1008B00073D828688003F7D50CE0FFF76DFE064675
:1008C00005E000BFFFF768FE801B6428F0D82868A9
:1008D0008003F7D420789A4E80074FF001094FF03B
:1008E000000839D5686810F00C0F07D06868C0F3AD
:1008F0008100022809D16868C00306D428688007EF
:1009000014D52069012808D110E02069B0B1C6F8DB
:100910000090FFF741FE074605E00AE1FFF73CFEC5
:10092000C01B0228C4D828688007F7D528686169E9
:1009300020F0F80040EAC10028600DE0C6F8008011
:10094000FFF72AFE074604E0FFF726FEC01B022839
:1009500023D828688007F7D4207800072CD5794859
:10096000A169D9B1C0F80090FFF716FE074604E070
:10097000FFF712FEC01B02280FD8686A8007F7D560
:1009800071484FF4FA510068B0FBF1F0009000BFDD
:100990000098411E0091FAD20EE080E0C0F800807D
:1009A000FFF7FAFD074604E0FFF7F6FDC01B02283B
:1009B00075D8686A8007F7D42078400760D5E86961
:1009C0000027C00008D4E86940F08050E861E86979
:1009D000012700F0805000905C480168C90513D4DD
:1009E0000168834641F480710160FFF7D5FD8246BE
:1009F00006E000BFFFF7D0FDA0EB0A0064284ED848
:100A0000DBF80000C005F5D5E06801280AD008B180
:100A1000052813D0286A20F001002862286A20F0F7
:100A2000040002E0286A40F001002862E06841F218
:100A3000883B98B1FFF7B0FD82460BE0286A40F092
:100A400004002862EEE700BFFFF7A6FDA0EB0A0155
:100A500059455AD8286A8007F6D50CE0FFF79CFD67
:100A6000824605E0FFF798FDA0EB0A0159454CD8F6
:100A7000286A8007F6D41FB1E86920F08050E86149
:100A8000E06988B36968C1F38101022944D0022872
:100A9000C6F8608004D0FFF77FFD044638E034E0FC
:100AA000FFF77AFD074604E0FFF776FDC01B02283A
:100AB0002BD828688001F7D4206AB0F5803F05D193
:100AC0006868A16820F4003008436860D4E9080130
:100AD0000843696821F4741108436860C6F860909F
:100AE000FFF75AFD044606E025E000BFFFF754FD7E
:100AF000001B022809D828688001F7D51BE000BF39
:100B0000FFF74AFD001B022802D90320BDE8F88F39
:100B100028688001F4D40EE00128F7D06868226AC2
:100B200000F48031914204D1616A00F4701088426F
:100B300001D00120EAE70020E8E7000000100240B1
:100B40000000424280044242000000200070004049
:100B500010B5401EB0F1807F01D3012010BD4FF0D1
:100B6000E02460610F21601700F073FE0020A06197
:100B700007202061002010BD70B590F83C20012AAC
:100B800026D0012480F83C40022280F83D200368F2
:100B90005A689D6822F070060A6832435A600D4B0D
:100BA00002689A4208D0B2F1804F05D00A4B9A42AF
:100BB00002D00A4B9A4204D1496825F080031943B8
:100BC000916080F83D40002180F83C10084670BDDF
:100BD000022070BD002C01400004004000080040CD
:100BE00010B5040003D094F83D0010B107E00120D7
:100BF00010BD002084F83C00204600F01FF80220C1
:100C000084F83D00211D206800F09CFB012084F841
:100C1000460084F83E0084F83F0084F8400084F8E1
:100C2000410084F8420084F8430084F8440084F8CA
:100C3000450084F83D00002010BD000008B50068A4
:100C4000B0F1804F08D10548C16941F00101C1618F
:100C5000C06900F00100009008BD000000100240D3
:100C600070B5044690F83C000025012817D00126F5
:100C700084F83C60022084F83D002068826822F0FD
:100C8000770222F47F4282600868502838D00DDC59
:100C900020284FD005DC90B3102811D14AE0022063
:100CA00070BD302846D040280AD13BE060282FD0C4
:100CB00070280DD0B0F5805F03D0B0F5005F12D082
:100CC000012584F83D60002084F83C00284670BD72
:100CD000CB68D1E90121206800F06AFB20688168B7
:100CE00041F0770109E0CB68D1E90121206800F0EB
:100CF0005FFB2068816841F480418160E1E719E091
:100D0000CA684968206800F007FC5021206806E0A6
:100D1000CA684968206800F010FC6021206800F073
:100D200051FBCEE7CA684968206800F0F5FB402116
:100D30002068F4E7226801461046F0E700B585B068
:100D4000002100910191029103910068B0F1804F60
:100D500011D10A48816941F00401816180696946C5
:100D600000F00400049007200090022001900390FE
:100D70000348FFF71BFB05B000BD00000010024058
:100D80000008014070B5044690F83C0000260D466E
:100D900001280FD0012084F83C006AB1042A1DD03C
:100DA000082A2FD00C2A3FD00126002084F83C00CE
:100DB000304670BD022070BD206800F00BFB20683B
:100DC000816941F0080181612068816921F0040195
:100DD0008161206881692A69114311E0206800F06F
:100DE00021FB2068816941F400618161206881698B
:100DF00021F480618161206881692A6941EA0221C8
:100E00008161D2E7206800F039FB2068C16941F0B8
:100E10000801C1612068C16921F00401C161206835
:100E2000C1692A69114311E0206800F053FB206872
:100E3000C16941F40061C1612068C16921F4806128
:100E4000C1612068C1692A6941EA0221C161ACE738
:100E500010B5040003D094F83D0010B107E0012064
:100E600010BD002084F83C00204600F01EF802204F
:100E700084F83D00211D206800F064FA012084F808
:100E8000460084F83E0084F83F0084F8400084F86F
:100E9000410084F8420084F8430084F8440084F858
:100EA000450084F83D00002010BD7047FEE70000BB
:100EB00010B586B000200090019002900390164873
:100EC000816941F010018161816901F01001049193
:100ED000816941F020018161816901F02001049163
:100EE000816941F00401816180690C4C00F00400CB
:100EF0000490002208212046FFF748FB082001212A
:100F0000CDE900010220CDE9020169462046FFF744
:100F10004DFA06B010BD000000100240000801406C
:100F200010B58EB000240794089409940A940B9489
:100F30001C2168460C94FFF78CF925484FF080413E
:100F4000C0E900144FF6FF71C0E9024104618461F9
:100F5000FFF746FE08B1FFF714FA4FF480500790F0
:100F600007A91B48FFF77CFE08B1FFF70AFA1848EB
:100F7000FFF76EFF08B1FFF704FA0B940BA91448B2
:100F80000C94FFF7F9FD08B1FFF7FBF96020CDE9FC
:100F900000040294002269460D480494FFF7F2FE13
:100FA00008B1FFF7EEF9042269460948FFF7EAFEA7
:100FB00008B1FFF7E6F9082269460548FFF7E2FEA7
:100FC00008B1FFF7DEF90248FFF7B8FE0EB010BD1A
:100FD00010000020FEE7FEE770470000074810B54C
:100FE0000078532801D000F0BBFA0448016FC06EAE
:100FF000884201D0012010BD002010BD5800002003
:1010000000F0AEBA10B5EFF31184202383F31188FA
:1010100000F004F8E1B281F3118810BD2DE9F0472A
:1010200005461C4816460C460078532801D000F0AF
:1010300097FA184905EB450001EBC007A046D7E930
:101040001B95002460374D4511D9B868441BB44244
:1010500000D334467868224641194046FFF7B4F879
:10106000B868361B2544A044A84200D10025A9EB4E
:101070000500B04200D206463EB1786832464119BA
:101080004046FFF7A1F83444354404B13D612046A1
:10109000BDE8F087580000202DE9F04107460B48D5
:1010A00015460E460078532801D000F059FAEFF3A8
:1010B0001184202080F311882A463146384600F0FA
:1010C00007F8E1B281F31188BDE8F08158000020F3
:1010D00070B50E46144900EB400001EBC005144604
:1010E000E86A183520B101280FD0022805D113E095
:1010F000284600F067FAA04201D2002411E02246FF
:101100003146284600F084FB0BE0284600F05AFAEE
:10111000A042F4D20446F2E73146284600F04BFBE9
:101120000446204670BD0000580000200FB408B5EA
:1011300004A900916A46039900F004F801B05DF833
:1011400014FB00002DE9F04198B0064607A8029074
:1011500040200025CDE90305CDE9055690460C4613
:1011600014F8011B002973D0252908D002A800F02B
:1011700003FB05980028F3DA18B0BDE8F0810020E1
:1011800001212278232A1ED02B2A19D02D2A02D001
:10119000302A08D102E040F0010001E040F00200F6
:1011A000641C0029EDD100222178A1F130030A2B23
:1011B0000CD202EB820201EB4202303A641CF3E7EC
:1011C00040F00400ECE740F00800E9E70023CFB26C
:1011D0002E2F0BD114F8011FA1F130070A2F05D2D1
:1011E00003EB830301EB4303303BF3E76C290DD0A2
:1011F00068290BD0702956D00BDC252916D0582928
:1012000031D063290CD0642913D114E014F8011FE4
:10121000ECE7732934D075291BD0782909D122E055
:10122000D8F80000011DC8F80010017802A800F0ED
:10123000A3FA641C9DE7D8F800100F1DC8F80070D1
:101240000968CDE900200A2202A800F0C7F9F0E7FA
:1012500035E0D8F800100F1DC8F800700968CDE916
:1012600000200A2208E0D8F800100F1DC8F800700E
:101270000968CDE90020102202A800F013FAD8E78F
:10128000D8F80000011DC8F80010076807B914A7B6
:1012900017F8011B0029CCD002A800F06DFA0598C0
:1012A0000028F5DAC5E7D8F80000011DC8F80010DD
:1012B00001680820CDE9000503461022DCE7059807
:1012C00000287FF759AF049820B1024607A930469D
:1012D000FFF7E2FEDDE90410084405904CE700004A
:1012E000284E554C4C2900007047FFF75BB930B5CC
:1012F0008FB028216846FEF7ACFF14210AA8FEF73C
:10130000A8FF0120022504900095102005900024DC
:10131000CDE9075468460994FFF78AFA08B172B616
:10132000FEE70F200A90CDE90B540D9400210AA886
:101330000E94FFF7C1F9002801D072B6FEE70FB096
:1013400030BD7047F0B50268164B174C174D4FF083
:101350008047984205D0B84203D0A04201D0A842AD
:1013600003D122F070064A683243984205D0B84251
:1013700003D0A04201D0A84203D122F44074CA682D
:1013800022434C6922F08002224302608A68C262D2
:101390000A688262984201D10969016301214161B1
:1013A000F0BD0000002C0140000400400008004097
:1013B00010B5846842EA032224F47F440A4322439E
:1013C000826010BD826822F070020A4342F0070179
:1013D0008160704730B5036A026A22F0010202623E
:1013E0004268846924F073050C682C4323F00205DD
:1013F0008B682B430A4DA8420BD123F00805CB681C
:1014000022F440722B434D6923F0040315438A698B
:101410002A434260846149684163036230BD000031
:10142000002C014030B5026A036A23F01003036206
:10143000436884690D6824F4E64444EA05248D6811
:1014400022F0200242EA05120B4DA8420ED1CD68CF
:1014500022F0800242EA05124D6923F4406343EA18
:1014600085038D6922F0400243EA8503436084616D
:1014700049688163026230BD002C014030B5036AC7
:10148000026A22F4807202624268C46923F4007323
:1014900024F073050C682C438D6843EA05230C4D3A
:1014A000A8420ED1CD6823F4006343EA05234D69B9
:1014B00022F4405242EA05128D6923F4806342EA25
:1014C00005124260C4614968C163036230BD000017
:1014D000002C014030B5046A026A22F48052026294
:1014E0004268C3690D6823F4E64343EA05238D6827
:1014F00024F4005444EA0534064DA84204D14D6951
:1015000022F4804242EA85124260C3614968016464
:10151000046230BD002C014010B5036A046A24F057
:1015200001040462846924F0F00444EA021423F004
:101530000A020A438461026210BD10B5036A046A9C
:1015400024F010040462846923F0A00324F470449E
:1015500044EA023243EA01118261016210BDFEE7F2
:1015600010B5134CA8212046FEF773FE032020611E
:10157000606110A0A06104F1A800E0614FF48060F8
:1015800020620020A0626062E0620AA1216604F588
:10159000956161661021A1662067E0666067084971
:1015A000C0F10F028A5C2254401C1028F8D310BDF1
:1015B000580000205465726D696E616C0000000077
:1015C000A21900080269C1688A4203D88068401ADB
:1015D000104400E0501A401E704700002DE9FC5FE7
:1015E0000E008146DDE90C47C6F10000984693469F
:1015F000824600D40846012503E000BF90FBFBF0C3
:101600006D1C5845FADAA84500D9454624B1002E8C
:1016100001DB780700D5641EB80702D5B8F1000FCA
:101620000FD0F8070DD164B1A5420AD22021484657
:10163000641E00F0A1F8D9F80C000028F3DABDE828
:10164000FC9FD9F80C000028F9DB002E02DA564680
:101650002D2102E0780707D52B21484600F08CF8B1
:10166000D9F80C000028EADB07F0030002280FD1AC
:10167000B8F1000F0CD15CB1A54209D23021484627
:10168000641E00F079F8D9F80C000028F3DAD6E7E8
:10169000CDE9004743465A463146484600F002F835
:1016A000CDE700002DE9F84F8246DDE90A4B01261F
:1016B000984691460D460846374602E0B0FBF9F0E1
:1016C0007F1C4845FAD2B84500D947465FEACB703F
:1016D00017D1B4B15FEA8B7002D5B8F1000F02D018
:1016E000202000900BE03020FBE75046641E00995C
:1016F00000F042F8DAF80C00002838DB0CB1A74201
:10170000F3D3DAF80C00002831DB00BFB8F1010F89
:1017100002D9A8F1010803E0B5FBF6F0484502D371
:1017200006FB09F6F2E7DFF84C8000BFB5FBF6F0E8
:1017300000FB165518F80010504600F01DF8DAF8B6
:101740000C00002803DBB6FBF9F6002EEED15FEAB1
:10175000CB700CD0002C0AD0A74208D220215046D2
:10176000641E00F009F8DAF80C000028F2DABDE88F
:10177000F88F0000B319000810B50446D4E9013011
:10178000421C934205D323681954A260E068401CB0
:10179000E060D4E90102824209D121682069FFF7A3
:1017A0007BFCA168884203D04FF0FF30E06010BDA1
:1017B0000020A06010BD2DE9F047C4681746894697
:1017C00006464FF000083069A04201D9051B02E02F
:1017D000B168201A0D1AB0686D1E001BA84200D80F
:1017E0000546BD4200D33D4670682A46204449461E
:1017F000FEF7EAFCB0687F1B2C44A844A944A04231
:1018000000D10024F460002FDDD14046BDE8F08710
:101810002DE9F04104468846D4E90207C51BE1687A
:10182000606816460844B54206D94146FEF7CCFC2E
:10183000B819E060BDE8F0812A464146FEF7C4FCD5
:10184000761B08EB050132466068FEF7BDFCE660DA
:10185000F0E70907090E002804DB00F1E02080F81A
:101860000014704700F00F0000F1E02080F8141D14
:101870007047000008B500200090FEF79BFEFFF7C0
:1018800036FDFFF715FBFFF74BFBFFF7B9FB002019
:1018900000F036F8204600F053F80446FFF79EFBB0
:1018A00070B1012269460020FFF7ACFB06A10020C1
:1018B000009AFFF73BFC03220AA10020FFF736FC49
:1018C000204600F01DF8E9E75345474745525F526F
:1018D00054545F4765744B6579203D2025640D0A9B
:1018E000000000005345474745525F5254545F473C
:1018F00065744B65792033203D2025640D0A000076
:1019000070B50E4C002208212046FEF73FFE4FF432
:10191000FA752846FEF738FD012208212046FEF719
:1019200035FE2846FEF730FD002208212046FEF74E
:101930002DFE6800BDE87040FEF726BD000801409E
:1019400010F0004148BF4042B0FA80F310FA03F2B1
:10195000C3F19D030BD051EAC35101EB1220530692
:1019600038BF704700F1010008BF20F00100704748
:10197000000000000000000001020304060708093F
:10198000010202030405060708090A0B0C0D0E0FDD
:101990001010303132333435363738394142434410
:1019A000454600000000000054545220524547476D
:1019B00045530030313233343536373839414243BC
:1019C00044454600E4190008000000201000000013
:1019D00028010008F419000810000020600B000026
:1019E000440100080024F400010000001000000081
:0419F00000000000F3
:04000005080000ED02
:00000001FF
