:020000040800F2
:10000000F804002045010008BF310008D11F000896
:10001000BD310008790900084934000800000000DB
:10002000000000000000000000000000C3310008D4
:100030007B09000800000000C1310008C53100083C
:100040005F0100085F0100085F0100085F01000810
:100050005F0100085F0100085F0100085F01000800
:100060005F0100085F0100085F0100085F010008F0
:100070005F0100085F0100085F0100085F010008E0
:100080005F0100085F0100085F0100085F010008D0
:100090005F0100085F0100085F0100085F010008C0
:1000A0005F0100085F0100085F0100085F010008B0
:1000B0005F0100085F0100085F010008E11F000800
:1000C000D51F00085F0100085F0100085F010008FC
:1000D0005F0100085F0100083D3400085F0100086F
:1000E0005F0100085F0100085F0100085F01000870
:1000F0005F0100085F0100085F0100085F01000860
:100100005F0100085F0100085F0100085F0100084F
:100110005F0100085F0100085F0100085F0100083F
:100120005F0100085F0100085F0100085F0100082F
:10013000DFF80CD000F00EFC0048004781400008BA
:10014000F80400200648804706480047FEE7FEE71F
:10015000FEE7FEE7FEE7FEE7FEE7FEE7FEE7FEE777
:100160002732000831010008202A04DB203A21FA56
:1001700002F00021704721FA02F3D040C2F12002C0
:100180009140084319467047D2B201E000F8012BB4
:10019000491EFBD270470022F6E710B513460A4607
:1001A00004461946FFF7F0FF204610BDF0B480EA80
:1001B0000102D40F4200B2EB410F02D202460846C0
:1001C00011464A0042D0C30DDDB2C1F3C752AD1A89
:1001D000202D35DAC1F3160141F4000204B1524278
:1001E000C5F1200602FA06F12A411044B3EBD05FB4
:1001F00023D0C4B1012DA0EBC35009DCF0BC4FF0FB
:10020000004202EAC352DBB200F5000000F0E6BA99
:10021000400000F1807000EBC350A0F1807040EA14
:10022000D170490009E0490841EAC071A0EBC35010
:1002300000F50000400800EBC350F0BC00F0C5BA68
:100240006142012202EB4101001BF6E7F0BC70475E
:1002500081F00041AAE780F00040A7E780EA0102B0
:1002600010B502F00043400022D04A001FD0010E1A
:1002700001EB1261C0F35600C2F3560240F40000D5
:1002800042F40002A0FB022000047F39140400D0D5
:10029000401C50EA124001D44000491EC2B20C0674
:1002A00004EBD010401C4008802A02D003E000205C
:1002B00010BD20F00100002900DA0020184310BD15
:1002C00030B480EA010202F0004530F0004221F033
:1002D000004013D090B1C30DD40DC2F31601C0F38A
:1002E0001600E41A41F4000140F400027D3491420A
:1002F00001D3641C00E04900002C02DA30BC00206D
:1003000070474FF400000023914201D3891A034340
:1003100040084FEA4101F7D151B1914202D14FF06B
:10032000004105E002D24FF0010101E06FF0010150
:1003300003EBC450284430BC00F047BA2DE9FE4F0F
:10034000804681EA0300C00F0C46009021F0004176
:1003500023F00045B8EB0200A94105D240462146F2
:1003600090461C460B46024623F00040104347D0FF
:10037000270DC7F30A00C3F30A510290401A0190F7
:1003800040286BDAC3F3130040F4801B00989246B8
:1003900020B10023D2EB030A63EB0B0B0198594603
:1003A000C0F14002504600F0EFF906460D465046B7
:1003B0005946019A00F0F7F910EB0800614100245A
:1003C00087EA115284EAE7731A4340D0009A62B375
:1003D000019A012A4FEA075215DC001B61EB02016A
:1003E0004FF0004202EA0752CDE90042001C41F5FD
:1003F000801132462B4600F02EFA03B0BDE8F08F94
:1004000040462146F9E7001B61EB0201001C41F563
:10041000801300185B412018A2F5001747EB030179
:1004200040EAD570B6196D4111E06D084FEA360605
:1004300045EAC0754FEA0752001B61EB0201001C40
:1004400041F5801149084FEA300000195141324608
:100450002B4603B0BDE8F04F00F0EEB90098012242
:1004600040000023D0EB020263EBE07300982146CA
:100470004FEAE074B8EB000061EB0401E9E783F0B8
:1004800000435BE781F0004158E72DE9FE4F81EA28
:10049000030404F0004421F0004100944FF0000BED
:1004A00023F0004350EA01045ED052EA03045BD01B
:1004B000C3F30A54C1F30A552C44A4F2F334019453
:1004C000A0FB0254C1F3130141F48011C3F31303E1
:1004D00043F4801301FB024400FB034E840A970A95
:1004E00044EA815447EA8357A4FB076802958D0AC2
:1004F00005FB07854FEA932C04FB0C542705029D4E
:100500004FEA065847EA1637B5EB08056EEB070CBD
:10051000870E920E47EA811742EA8312A7FB020177
:10052000B6EB0B0164EB00042B0D43EA0C335E18B1
:1005300044EB1C50DA465146E7FB0201C5F31304B5
:100540004FEA0B3343EA14534FEA0432019C43EA67
:100550000603A4F10C040294009CCDE900B400F061
:100560007AF903B0BDE8F08F00200146F9E72DE9E4
:10057000F04D81EA030404F0004B21F000451446DD
:100580004FF0000A23F0004150EA050220D054EA5F
:1005900001021DD0C5F30A570246C5F31303C1F388
:1005A0001300C1F30A5640F4801543F48013A7EBFF
:1005B0000608101BD64608F2FD3873EB050002D37F
:1005C00008F1010801E092185B41B8F1000F03DA6D
:1005D00000200146BDE8F08D00204FF48011064652
:1005E00084460EE0171B73EB050705D3121B63EB64
:1005F000050306434CEA010C49084FEA3000921803
:100600005B4150EA0107EDD152EA030012D082EAC1
:10061000040083EA0501084305D0101BAB4106D254
:100620000122002306E000224FF0004302E06FF0B9
:10063000010253101AEB06004CEB085110EB0A00B4
:1006400041EB0B01BDE8F04D00F0F6B870B521F0BC
:10065000004303430CD0C1F30A550024D5EB040535
:1006600064EB0403D617AD1AB34102DB0020014648
:1006700070BD201841EB025170BD0EB5C10F80EA6C
:10068000E0700844CA07002140F233438DE80E00B1
:100690000A460B4600F0DFF803B000BD00F0004250
:1006A00030F000400AD0C10D01F56071C0F31600B2
:1006B00042EA0151C2084007114370470020014639
:1006C000704701F0004330B421F0004150EA0102CC
:1006D00006D00A0DA2F56072C1F31301002A02DCF4
:1006E00030BC00207047440F44EAC104C100E01848
:1006F00030BC00EBC25000F068B830B50B46014684
:1007000000202022012409E021FA02F59D4205D3B0
:1007100003FA02F5491B04FA02F52844151EA2F15A
:100720000102F1DC30BD2DE9F05F05460020924664
:100730009B4688460646814640241BE028464146A3
:1007400047462246FFF710FD53465A46C01A9141CC
:1007500010D311461846224600F016F82D1A67EB02
:1007600001084F4622460120002100F00DF817EB4A
:1007700000094E41201EA4F10104DFDC4846314649
:100780002A464346BDE8F09F202A04DB203A00FABF
:1007900002F1002070479140C2F1200320FA03F3D8
:1007A000194390407047202A06DBCB17203A41FAC4
:1007B00002F043EAE07306E041FA02F3D040C2F1EE
:1007C000200291400843194670470029A8BF70478E
:1007D000401C490008BF20F00100704710B4B0FA77
:1007E00080FC00FA0CF050EA010404BF10BC704712
:1007F00049B1CCF1200421FA04F411FA0CF118BF2C
:10080000012121430843A3EB0C01CB1D4FEA0061FA
:100810004FEA102042BF002010BC704700EBC350CD
:1008200010440029A4BF10BC7047401C490008BFF9
:1008300020F0010010BC704710B5141E73F10004C5
:1008400008DA401C41F1000192185B411A4301D1C2
:1008500020F0010010BD2DE9F04D92469B4611B1EC
:10086000B1FA81F202E0B0FA80F220329046FFF74E
:100870008BFF04460F4640EA0A0041EA0B0153464B
:100880005A46084313D0114653EA010019D0C8F163
:1008900040025046FFF768FC05460E465046594652
:1008A0004246FFF771FF084305D0012004E02046CF
:1008B0003946BDE8F08D0020054346EAE0762C433A
:1008C00037430A986305E40AA0EB08000022FD0AFA
:1008D00044EA47540A3002D500200146E9E7010501
:1008E00010196941DDE9084500196941BDE8F04D7D
:1008F000A2E7C1F30A52C1F3130140F2FF3341F4FE
:1009000080119A4202DA00200146704740F23343D8
:100910009A42A2F2334202DC5242FFF725BCFFF7B3
:1009200033BF000030B5041E71F1000404DB4FF04A
:100930000044404264EB0101141E73F1000405DB26
:100940001C464FF00043524263EB0403994208BF38
:10095000904230BD064C074D06E0E06840F00103D0
:1009600094E8070098471034AC42F6D3FFF7E4FB55
:10097000E841000808420008FEE7704772B6FEE74B
:1009800010B590F821100022022905D004218163BE
:1009900080F82020012010BD01680B6823F00E03B1
:1009A0000B6001680B6823F001030B6090F8403086
:1009B000C46B012101FA03F3636080F8211080F811
:1009C0002020104610BD00002DE9F05F90F82110A6
:1009D0000024022903D004218163012485E00168F9
:1009E0000A6822F00E020A6001680A6822F0010219
:1009F0000A603F4E3E4FB215DFF8F4C0DFF8F090CA
:100A0000DFF8ECA0DFF8E8B0DFF8E4E00168783F59
:100A100013011502ACF1640CA9F15009AAF13C0ACA
:100A2000ABF1280BAEF1140E4FF48018B14227D968
:100A3000B9420ED0614512D049451DD0514518D05C
:100A4000594518D0714501D1424615E0294EB142B1
:100A500001D1012210E0274E1436B14201D11022FB
:100A60000AE0244E2836B14206D0224A3C32914256
:100A700001D11A4600E02A461E49091F0A602BE0F0
:100A8000B94213D0614517D0494522D051451DD0F8
:100A900059451DD0714501D142461AE0B14202D1FB
:100AA0004FF0807215E0134EB14201D1012210E0E7
:100AB000104E1436B14201D110220AE00D4E2836F4
:100AC000B14206D00B4A3C32914201D11A4600E0B5
:100AD0002A46074980394A60012180F82110002107
:100AE00080F82010416B01B188472046BDE8F09F97
:100AF000800002400804024090F821007047000086
:100B000070B5044600F018F90546601C02D0044890
:100B10000078044400F010F9401BA042FAD370BDE5
:100B2000000000202DE9F84FDFF8C891002409F1FA
:100B3000040A0AF1040B23460F270BF1040ED1E03F
:100B40000125A54006EA0502AA4276D1DFF8A8C130
:100B50004E68A6EB0C0866452BD00DDC032E34D076
:100B600005DC36B3012E19D0022E2FD11BE0112E39
:100B700016D0122E2AD119E0B8F5881F19D006DC3C
:100B8000B8F5803F15D0B8F5801F1FD111E0B8F53A
:100B9000001F0ED0B8F5041F18D10AE0CB6815E08D
:100BA000CB681B1D12E0CB6808330FE0CB680C3319
:100BB0000CE08B682BB1012B4FF0080303D045618B
:100BC00004E0042302E0056100E00023FF2A01D8CD
:100BD000064601E000F104064FEA840501D9A5F1BB
:100BE0002005D6F8008007FA05FC28EA0C0803FA6D
:100BF00005F548EA0508C6F800804D68ED0070D597
:100C00003E4DAE6946F00106AE61AD6924F00306C3
:100C100005F0010500953A4D06EB050CDCF808508F
:100C2000A607360F07FA06F825EA0805DFF8D4808C
:100C3000404503D14FF0000825E052E0DFF8C880BE
:100C4000404502D14FF001081DE0DFF8C08040456B
:100C500002D14FF0020816E0DFF8B480404502D11F
:100C60004FF003080FE0DFF8AC80404502D14FF0B1
:100C7000040808E0DFF8A080404502D14FF00508E5
:100C800001E04FF0060808FA06F848EA0508CCF833
:100C900008804D68D9F80060ED034D4601D5164334
:100CA00000E096432E604D68DAF80060AD035546CB
:100CB00001D5164300E096432E604D68DBF80060D6
:100CC000ED025D4601D5164300E096432E604D6867
:100CD000DEF80060AD02754601D5164300E096438C
:100CE0002E60641C0A681646E2407FF429AFBDE816
:100CF000F88F0000000401400000111000100240B5
:100D00000000014000080140000C014000100140BB
:100D10000014014000180140001C0140C26821EA93
:100D200002030A4043EA0241016170470AB10161CE
:100D300070470904FBE70000014880687047000025
:100D400000000020704770472DE9F041016804461B
:100D50004A694E6890F83E000025D743FA050BD447
:100D6000F243D20508D46FF4807201254A612168EC
:100D70000A6842F400420A60B90508D4F143C90583
:100D800005D422686FF4007145F0020551617905C0
:100D900025D4F143C90522D4638D94F83D10226B0C
:100DA000202808D13BB9212910D029290ED0282983
:100DB00001D1212A0AD022686FF48061516145F087
:100DC0000405102806D0402804D008E0204601F091
:100DD000E1FD04E02068016841F40071016038051C
:100DE00008D4F043C00505D421686FF4006045F0D5
:100DF00008054861002D07D0206C28432064204658
:100E0000BDE8F04101F050B9BDE8F0812DE9F047AF
:100E1000026800215368C66A90F83E4090F83D5041
:100E2000102C12D0402C10D0046C002C7DD05469B2
:100E3000E443A6077AD4DE43B60577D4036C03B146
:100E40009169BDE8F04701F081BD976951694FF4A0
:100E50002A0CC9435FEAC1784FF02A4904D066459D
:100E60002AD04E4528D010E0DE43B6050DD4C16A25
:100E7000614501D1012103E0C16A494501D1082141
:100E8000C162BDE8F04701F0F9BB0E0716D4DE439E
:100E9000B60513D4416CC9B21161416B09B1896ABD
:100EA00029B9816B002907D0896A002904D000681C
:100EB000416841F400614160BDE8F0878E0706D4C7
:100EC000DE43B60503D4BDE8F04701F02BBBFE437B
:100ED000526876074FEA02521DD4002AECDB0A065C
:100EE00008D4DA43520505D4490705D5BDE8F047D3
:100EF00001F0BCBA4907DFD4D9438905DCD4212DE0
:100F000005D0402CD8D1BDE8F04701F0FDBBBDE8CD
:100F1000F04701F069BA002ACEDB4A060BD4DA4367
:100F2000520508D4490708D501E00DE00EE0BDE800
:100F3000F04701F0E5B94907BED4D9438905BBD4D0
:100F4000BDE8F04701F073B9916970E7E10606D496
:100F5000D943890503D4BDE8F04701F05DBD2821E0
:100F6000212D27D0292D25D0650655D4DD436D05CB
:100F700052D4640752D590F83D30448D002C9BD05C
:100F80001269446A2270426A521C4262428D521EA9
:100F90004285428D002A8FD12A2B8DD10268536859
:100FA00023F4806353602222026380F83D1000F036
:100FB0000FFB81E7250623D4DD436D0520D46407AC
:100FC00020D590F83D30448D002CF2D0446A24782E
:100FD0001461426A521C4262428D521E4285428D09
:100FE000002AE6D1292BE4D10268536823F48063F8
:100FF00053602122026380F83D1000F0EAFA5BE7BB
:101000006107D6D4D9438905D3D4418D0029D0D0E6
:10101000416A097811610AE06107CAD4D943890598
:10102000C7D4418D0029C4D01169426A1170416A48
:10103000491C4162418D491E41853DE770470000D2
:1010400070B5040025D094F83D00002520B984F83F
:101050003C50204600F07EFA242084F83D002068B1
:10106000016821F0010101602068016841F400413C
:1010700001602068016821F40041016000F0D8FBA4
:101080004D4A6168914201D84C4900E04C49884280
:1010900001D2012070BD4B492368B0FBF1F15E68BD
:1010A00026F03F060E435E606368934206D94FF414
:1010B000967359434FF47A73B1FBF3F12368491CDB
:1010C0001E6A26F03F06314319626168914210D8CA
:1010D0004900401EB0FBF1F2521CC2F30B02042A7D
:1010E00001D2042022E0B0FBF1F0401CC0F30B0061
:1010F0001CE0A268F2B301EBC10303EB0116431E2F
:10110000B3FBF6F35B1C43F480431B0549D092B359
:1011100001EBC10202EB0111401EB0FBF1F0401CDB
:10112000C0F30B0040F4804040F400402168CA69DD
:101130004CF6FF739A431043C861D4E9071001438A
:101140002068026822F0C00211430160D4E9030163
:1011500001432068826848F2FF339A43114381605B
:10116000D4E9050108432168CA6822F0FF02104350
:10117000C86001E00EE016E02068016841F001015E
:1011800001602564202084F83D00256384F83E50EA
:10119000002070BD01EB4106431EB3FBF6F35B1C60
:1011A000B3E70120C2E701EB4101401EB0FBF1F0C3
:1011B000401CC0F30B00B7E7A086010080841E002E
:1011C00000093D0040420F0070477047704770476C
:1011D000704700002DE9FF4F83B00025DDE910794D
:1011E0009A4693460446DDF848800095FFF7A4FD33
:1011F000064694F83D0020287CD119230122854918
:101200002046009601F0DCFC0028F5D194F83C0063
:1012100001286FD0012084F83C0020680168C907CC
:1012200003D1016841F0010101602068016821F4E7
:1012300000610160222084F83D00402084F83E00D7
:1012400025646762A4F82A90608D20857248E06268
:10125000CDE9008653465A462046049901F0A4FA87
:1012600000287DD1208DDFF8B491202768B10128B6
:1012700014D00228206801681ED041F4806101600A
:101280002068416980690090B6E020684169816901
:101290000091016841F400710160ADE020680168CF
:1012A00021F48061016072B6206841698169009112
:1012B000016841F400710AE041F40061016072B616
:1012C0002068416981690091016821F480610160B1
:1012D00062B691E0032868D801280CD00228434662
:1012E0004FF000024946204600960FD001F068FCFE
:1012F000B0BB10E08BE032464146204601F0DFFCF7
:1013000070BB20680069616A08706CE001F058FCED
:1013100030BB72B634E02068016821F4806101605E
:1013200072B620680069616A0870606A401C606279
:10133000208D401E2085608D401E6085384846F215
:10134000A8110068B0FBF1F0C0EBC00000EB80001A
:101350000090401E009008D020684069C04300E023
:1013600029E040070CD50098F3E744F8305F677335
:10137000A573206940F02000206162B625731AE051
:101380002068016841F40071016020680069616AA9
:101390000870606A401C6062218D491E2185618D44
:1013A000491E618562B621681BE0324641462046EF
:1013B00001F085FC18B1012007B0BDE8F08F20686E
:1013C0000069616A0870606A401C6062218D491E74
:1013D0002185618D491E618521684A69D243520782
:1013E0000AD409690170606A401C6062208D401E49
:1013F0002085608D401E6085208D00287FF46AAFB7
:1014000084F83D7084F83E5084F83C50D4E70220C4
:10141000D2E70000020010000000FFFF04000100FE
:101420000C0000202DE9FF4F83B09A46DDE91197AB
:1014300093460446DDF84080FFF77EFC054694F8AD
:101440003D0020287FD119230122404920460095E4
:1014500001F0B6FB002876D194F83C00012872D048
:10146000012084F83C0020680168C90703D10168A5
:1014700041F0010101602068016821F40061016010
:10148000212084F83D00402084F83E000026266498
:10149000C4F82480A4F82A90608D20852C48E0624E
:1014A000CDE9007553465A462046049901F0FAF9F1
:1014B00070B930E02A463946204601F033FC58B175
:1014C000206C042804D12068016841F40071016097
:1014D000012007B0BDE8F08F606A216800780861DC
:1014E000606A401C6062218D491E89B22185628D2F
:1014F000521E628522685369DB435B070BD469B1D6
:1015000000781061606A401C6062208D401E20855A
:10151000608D401E6085208D0028CBD12A4639463B
:10152000204601F027FB0028CAD154F83D0B016882
:1015300041F400710160202004F81E09E677667707
:101540000020C6E7FFE70220C3E70000020010000A
:101550000000FFFF10B586B00021009101910291BB
:1015600003910068174988422AD1174CA06940F0BE
:101570000800A061A069694600F008000490C0203E
:10158000009012200190032003901048FFF7CAFA40
:10159000E06940F40010E061E069002200F400100E
:1015A000049011461F2000F07BF81F2000F06AF81D
:1015B00000221146202000F073F8202000F062F88D
:1015C00006B010BD0054004000100240000C014065
:1015D0007047704702488168027811448160704703
:1015E00000000020074810B5016841F010010160BB
:1015F000032000F075F80F2000F006F800F024F842
:10160000002010BD0020024070B50D4D04464FF47F
:101610007A712878B1FBF0F00A490968B1FBF0F063
:1016200000F0ECFA48B9102C07D200222146501ED7
:1016300000F036F800206C6070BD012070BD000025
:10164000000000200C0000200C4808B5816941F022
:1016500001018161816901F001010091C16941F0DD
:101660008051C161C06900F0805000900448416819
:1016700021F0E06141F00071416008BD00100240BE
:1016800000000140002809DB00F01F020121914009
:101690004009800000F1E020C0F800117047000010
:1016A000F0B40E4B1B680C46C3F30223C3F10705CD
:1016B000042D00D90425191D072901D2002300E0BB
:1016C000DB1E012606FA05F1491E214099409E4085
:1016D000761E16403143F0BC01F0DCBE0CED00E09C
:1016E000064900F0070208684FF6FF03184040EA79
:1016F0000220034A10430860704700000CED00E030
:101700000000FA052DE9F0470F46050061D0434E71
:10171000306800F00700B84209D2306820F00700B6
:1017200038433060306800F00700B84251D1286873
:101730003B4C810712D5400703D5606840F4E06058
:1017400060602878000703D5606840F460506060EE
:101750006068A96820F0F000084360602878C0073E
:1017600028D06868012810D02168022810D0890785
:1017700000292EDA616821F0030101436160FFF75F
:10178000DBFA804641F288390DE021688903EFE7F2
:101790008901EDE7FFF7D0FAA0EB0801494502D92E
:1017A0000320BDE8F0876068696800F00C00B0EBCA
:1017B000810FEFD1306800F00700B8420BD93068D4
:1017C00020F0070038433060306800F00700B8426E
:1017D00001D00120E5E72878400705D56068E96871
:1017E00020F4E060084360602878000706D5606850
:1017F000296920F4605040EAC100606000F038F8C8
:101800006168084AC1F30311515CC8400649086089
:1018100006480068FFF7F8FE0020C2E700200240FB
:1018200000100240384100080C0000200400002095
:101830000448054900684968044AC1F30221515C23
:10184000C84070470C0000200010024048410008CA
:101850000448054900684968044AC1F3C221515C43
:10186000C84070470C0000200010024048410008AA
:1018700012A185B00FC98DE80F0014A0144A0068AA
:1018800004905168134801F00C03042B10D0082B6E
:101890000ED1C1F38343C9031DF803000AD5516873
:1018A00004AAC1F34041515C0A4A5043B0FBF1F035
:1018B00005B0704708494843FAE7000002030405F1
:1018C000060708090A0B0C0D0E0F1010010200008C
:1018D0000010024000127A0000093D002DE9F84F87
:1018E000040070D02078C04DC00749D06868C0F3AC
:1018F0008100012807D06868C0F38100022809D15F
:101900006868C00306D52868800339D56068002858
:10191000E7D035E06068B0F5803F0BD010B1B0F58E
:10192000A02F11D0286820F480302860286820F487
:10193000802002E0286840F480302860606890B120
:10194000FFF7FAF906460AE0286840F4802028608C
:10195000F0E700BFFFF7F0F9801B642873D8286810
:101960008003F7D50CE0FFF7E7F9064605E000BF76
:10197000FFF7E2F9801B6428F0D828688003F7D4C9
:1019800020789A4E80074FF001094FF0000839D5B2
:10199000686810F00C0F07D06868C0F38100022857
:1019A00009D16868C00306D42868800714D5206967
:1019B000012808D110E02069B0B1C6F80090FFF707
:1019C000BBF9074605E00AE1FFF7B6F9C01B02289C
:1019D000C4D828688007F7D52868616920F0F80026
:1019E00040EAC10028600DE0C6F80080FFF7A4F9C6
:1019F000074604E0FFF7A0F9C01B022823D8286897
:101A00008007F7D4207800072CD57948A169D9B18F
:101A1000C0F80090FFF790F9074604E0FFF78CF953
:101A2000C01B02280FD8686A8007F7D571484FF4A9
:101A3000FA510068B0FBF1F0009000BF0098411E21
:101A40000091FAD20EE080E0C0F80080FFF774F950
:101A5000074604E0FFF770F9C01B022875D8686AD2
:101A60008007F7D42078400760D5E8690027C000D8
:101A700008D4E86940F08050E861E869012700F087
:101A8000805000905C480168C90513D40168834602
:101A900041F480710160FFF74FF9824606E000BF14
:101AA000FFF74AF9A0EB0A0064284ED8DBF80000E3
:101AB000C005F5D5E06801280AD008B1052813D083
:101AC000286A20F001002862286A20F0040002E061
:101AD000286A40F001002862E06841F2883B98B132
:101AE000FFF72AF982460BE0286A40F004002862DA
:101AF000EEE700BFFFF720F9A0EB0A0159455AD8DD
:101B0000286A8007F6D50CE0FFF716F9824605E053
:101B1000FFF712F9A0EB0A0159454CD8286A800753
:101B2000F6D41FB1E86920F08050E861E06988B31D
:101B30006968C1F38101022944D00228C6F8608097
:101B400004D0FFF7F9F8044638E034E0FFF7F4F882
:101B5000074604E0FFF7F0F8C01B02282BD82868DE
:101B60008001F7D4206AB0F5803F05D16868A1688C
:101B700020F4003008436860D4E90801084369682C
:101B800021F4741108436860C6F86090FFF7D4F838
:101B9000044606E025E000BFFFF7CEF8001B022850
:101BA00009D828688001F7D51BE000BFFFF7C4F80B
:101BB000001B022802D90320BDE8F88F28688001A5
:101BC000F4D40EE00128F7D06868226A00F480316E
:101BD000914204D1616A00F47010884201D0012062
:101BE000EAE70020E8E7000000100240000042425F
:101BF000800442420C0000200070004010B5401EDE
:101C0000B0F1807F01D3012010BD4FF0E02460616E
:101C10000F21601701F03EFC0020A0610720206129
:101C2000002010BD70477047F8B502680446106880
:101C3000D168536910F00F0F4FF0000553D003F037
:101C4000010601F4907737435FD0C20705D0CA057B
:101C500003D5226C42F001022264420705D5DA075F
:101C600003D0226C42F002022264820705D5DA0713
:101C700003D0226C42F004022264020707D501F06F
:101C80002002324303D0226C42F008022264226C0C
:101C9000002A34D0800604D5880602D5204601F0FB
:101CA000E3FA20684069216CC0F38010090700D472
:101CB00030B3204601F0C0FA2068416949061BD5BF
:101CC000416921F040014161A06BA8B158494163CD
:101CD000A06BFEF779FE002811D0A06B416B01B01C
:101CE000BDE8F040084783060FD58B060DD520468A
:101CF000BDE8F84001F0B8BA2046FFF794FFF8BD00
:101D00002046FFF790FF2564F8BD266B2023012EA7
:101D100052D1C60650D5CE064ED5106850680090F8
:101D2000506940062AD5A16B086840680004000C81
:101D3000EAD0A68D8642E7D9E0858869202818D0A8
:101D4000D06820F48070D0602068416921F00101E2
:101D500041612068416921F04001416184F83E30D1
:101D600025632068C16821F01001C160A06BFEF7F7
:101D700007FEA08DE18D401A81B219E0A08DE18DA2
:101D8000401A81B2E08D0028BED00029BCD0D068B6
:101D900020F49070D0602068426922F00102426114
:101DA00084F83E3025632068C26822F01002C260C9
:101DB0002046FFF737FFF8BD05062BD50D0629D5C0
:101DC00094F83D002128F6D1A068B0F5805F01D1DC
:101DD0002069B0B1206A411C216221680078486006
:101DE000E08C401E0004000CE084E4D12068C1684F
:101DF00021F08001C1602068C16841F04001C160EC
:101E0000F8BD206A0088C0F308005060206A801C7A
:101E10002062E5E74006F3D54806F1D5D1682046B3
:101E200021F04001D16084F83D3000F0D0F8F8BDD9
:101E30002932000870B5040004D094F83D00002554
:101E400010B106E0012070BD84F83C50204600F03F
:101E500023F8242084F83D002068C16821F4005153
:101E6000C160204601F05CFA2068016921F49041CC
:101E700001612068416921F02A0141612068C1683F
:101E800041F40051C1602564202084F83D0084F8AD
:101E90003E00002070BD000030B585B000240094E5
:101EA0000194029403940068184988422BD1184881
:101EB000C16941F40031C161C16901F4003104918B
:101EC000816941F0040181618069124D00F00400D4
:101ED00004900420009002200190032003906946A2
:101EE0002846FEF71FFE0820CDE900046946284673
:101EF0000294FEF717FE002211462620FFF7D0FBC2
:101F00002620FFF7BFFB05B030BD000000440040B5
:101F10000010024000080140704700002DE9F8431E
:101F2000044690F83D001F4616460D4620284CD129
:101F3000C5B1BEB194F83C00012846D0012084F818
:101F40003C004FF00008C4F84080212084F83D0098
:101F5000FEF7F2FEA6848146E684A068B0F5805FB5
:101F600003D004E00120BDE8F883206928B12E46A3
:101F70005FF0000584F83C800EE00026FAE780213F
:101F8000204601F029FAA0B9AEB116F8010B21687C
:101F90004860E08C401EE084E08C4B464FF000022D
:101FA00000970028EBD14FF04001204601F014FAD1
:101FB00030B10320D7E735F8020BC0F30800E6E79D
:101FC000202084F83D000020CDE70220CBE77047B9
:101FD000FEE700000148FEF7B7BE00005C000020ED
:101FE0000148FEF713BF00005C00002038B5406ACE
:101FF000002190F83D202B4B46F2A8141B68B3FB40
:10200000F4F3C3EBC30303EB830300933BB15B1E09
:10201000009303681B689B0505D5009BF6E7036CDE
:1020200043F020030364436B03B19962836B03B1F4
:10203000996203681C6824F480641C604185436BCA
:1020400003B15963836B03B1596303681C6824F0BF
:1020500001041C6090F83D402023602C0BD0282404
:1020600034EA02020FD080F83D3080F83E1000BF05
:10207000FEF7E4FF38BD80F83D3080F83E10016483
:10208000FEF760FE38BD0268136843F00103136079
:102090000268136843F480631360016380F83D4075
:1020A000E6E700000C00002070B5044690F83D0003
:1020B00094F83E10102901D0402906D1222804D1DD
:1020C00021680A6822F400620A60282131EA0002CD
:1020D0004FF000054FF0200626D021684968090519
:1020E00005D4602803D084F83D6084F83E50256311
:1020F00020684168090537D5416821F400614160D5
:10210000606B3D4990F82120012A11D04163606B3A
:10211000FEF75AFC38B32068016821F00101016024
:1021200084F83D60606B1CE0256384F83D10DFE7B8
:10213000A06B4163A06BFEF747FCA0B1206841692A
:10214000C943490605D40069616A0870606A401C89
:1021500060622068016821F00101016084F83D603F
:10216000A06B416B884710E094F83D10602910D0B7
:102170004169C943490605D40069616A0870606A0B
:10218000401C60622046FEF759FF206CC1071CD13D
:1021900015E084F83D6025644169C943490605D4CA
:1021A0000069616A0870606A401C606220680168AA
:1021B00021F0010101602046FEF7C4FDE5E781073B
:1021C00003D4410701D4000704D52068416821F4F5
:1021D000E061416094F83D00216C49070BD5282847
:1021E00009D10648E062256384F83D6084F83E50DA
:1021F0002046FEF7E9FF70BDED1F00080000FFFF5D
:1022000001684A69D24352050FD46FF480624A6173
:10221000002140F8301F202242738173026942F08E
:10222000040202610173012070470020704710B55D
:10223000C26A438D0168042B06D0438D032B08D05E
:10224000438D022B1DD012E04A6822F480624A605E
:102250000CE04B6823F480634B60042A06D0022A0A
:1022600004D001680A6822F480620A600168096982
:10227000426A1170416A491C4162418D491E418583
:1022800010BD012A30D0102A2ED0042A30D0022AC4
:102290002ED00A6842F400720A6001680969426A35
:1022A0001170416A491C4162428D521E428502688A
:1022B00012690A70416A491C4162418D491E41857B
:1022C00001684A6822F440724A60202180F83D107B
:1022D00090F83E200021402A80F83E100CD01221B8
:1022E0000163FEF772FF10BD0A6822F48062D3E733
:1022F0000A6842F48062CFE70163FEF768FF10BD11
:1023000038B590F83D10222914D1418D032912D9F6
:1023100001680969426A1170416A491C4162418D34
:10232000491E4185418D032904D10068416821F48B
:102330008061416038BDC26A022AFBD0012901D008
:102340000029F7D1274946F2A81300220968B1FBFA
:10235000F3F101EB8101009101682023009C641ED0
:10236000009422D00C68A405F8D40C6824F480648E
:102370000C6001684C6824F4E0644C6001680969F1
:10238000446A2170416A491C4162418D491E418560
:1023900080F83D3090F83E1080F83E2040291DD056
:1023A00012210163FEF711FF38BD046C44F02004D4
:1023B00004644C6824F4E0644C6001680969446A70
:1023C0002170416A491C4162418D491E418580F856
:1023D0003D3080F83E20FEF731FE38BD0263FEF747
:1023E000F6FE38BD0C00002010B5C26A90F83D1012
:1023F00021290BD1418D51B1416A026809781161DF
:10240000416A491C4162418D491E418510BD20230E
:102410000021082A13D0202A11D012F5803F0ED0B7
:102420000268546824F4E06454601122026380F866
:102430003E1080F83D3000BFFEF7C8FE10BD0268B8
:10244000546824F4E06454600268146844F400742E
:102450001460016380F83D3090F83E2080F83E1013
:10246000402AE9D1FEF7B4FE10BD000010B590F887
:102470003D1090F83E30C26A048DB4B1212903D0DA
:10248000402B11D122290FD1418DE1B390F83E109C
:10249000402942D0416A026809781161416A491CA9
:1024A0004162418D491E418510BD2129E8D120237B
:1024B0000021082A13D0202A11D012F5803F0ED017
:1024C0000268546824F4E06454601122026380F8C6
:1024D0003E1080F83D3000BFFEF778FE10BD026868
:1024E000546824F4E06454600268146844F400748E
:1024F0001460016380F83D3090F83E2080F83E1073
:10250000402AE9D100E002E0FEF762FE10BD00685B
:10251000416821F48061416010BDBDE8104000F0C9
:10252000F3B8000078B590F83E50C26A046B90F89A
:102530003D6000230168222E73D1066D0EB9402D37
:102540006FD0056D1DB90569B5F5404F1BD0458DA0
:1025500095B3468D484D012E20D0448D022C4DD090
:102560000C6844F480640C6001684C68240579D5DB
:10257000AA4273D0012A71D0082A6FD0102A6DD0D8
:10258000202A6BD06EE04A698A6900920A6842F498
:1025900080720A60016D491C016578BDAA4214D1A0
:1025A0000A6822F480620A6001684A68120504D54C
:1025B0000A6822F4806217E0FFE74A698A6900929C
:1025C0000A6842F400720A6050E0082A10D0202AFB
:1025D0000ED0122C0AD0042A03D0022A01D0102ACD
:1025E000E6D10A6842F480620A603BE0012ADFD04B
:1025F0000A6822F480620A600168DEE7042A11D0CA
:10260000022A0FD0102A0DD00C6844F400640C602C
:1026100001684C698C6900940C6824F480640C6037
:1026200008E025E00C6844F480640C6001684C69A3
:102630008969009101684C68240517D5AA4207D022
:10264000012A05D0082A03D0102A01D0202A0DD152
:102650004A6842F480524A6008E0FFE74A6842F460
:1026600080524A6001684A6989690091036578BDB2
:1026700048698869009078BD0000FFFF90F83E101F
:10268000402910D00169B1F5804F19D0016DA9B36F
:10269000016D012910D1416C5FF0F10201F440712C
:1026A00042EAD11106E0016D0029416C05D0C9B2A2
:1026B00041F0010100680161704701F0FE01F9E796
:1026C00090F83D102129416C09D0C9B241F00101B7
:1026D00002681161416B29B1896A49B902E001F0D0
:1026E000FE01F5E7816B0029E6D0896A0029E3D075
:1026F0000068416841F4006141607047FFE7416C48
:10270000F02201F44071CBE710B590F83D10026D56
:1027100022B3026D012A2FD0026D022A1DD1222977
:102720002FD0428D0AB1212933D0428D002A14D1F5
:10273000212912D101684A6822F4E0624A600168E6
:102740000A6842F400720A6000210163202280F8C6
:102750003D2080F83E10FEF73BFD10BDC16C012905
:10276000816C02D0C1F3072108E00268C9B211618F
:10277000016D891C016510BD816CC9B202681161CF
:1027800004E001680A6842F480720A60016D491C25
:10279000F0E7416A026809781161416A491C4162A7
:1027A000418D491E418510BD2DE9F84F0446006852
:1027B00089460B9D01689846174641F48061016087
:1027C0002068016841F48071016000954FF0011BA1
:1027D0000022594620460A9B00F0F2F94FF4007A95
:1027E00040B120680068C00501D5C4F840A00320AE
:1027F000BDE8F88F216809F0FE0008612B462849E2
:1028000020460A9A00F010FAF0BB206841698069FE
:1028100000902A4620460A9900F084FA40B1206CC4
:1028200004283AD12068016841F40071016034E065
:10283000FEB2B8F1010F09D02168380A08612A46B2
:1028400020460A9900F06EFA0028E8D12068066157
:102850002A4620460A9900F065FA0028DFD1206850
:10286000016841F4807101600095002259462046BC
:102870000A9B00F0A5F90028B3D1216809F0FF00F8
:1028800040F00100086100E007E02B4604492046C3
:102890000A9A00F0C9F90028AAD00120A8E7000090
:1028A000020001002DE9F843044600680D46DDE909
:1028B000089701689846164641F4807101604B46BE
:1028C00000224FF001112046009700F079F948B13D
:1028D00020680068C00502D54FF400702064032012
:1028E000BDE8F883216805F0FE0008613B464A46D2
:1028F0001549204600F098F988B920684169806937
:1029000000903A464946204600F00CFA48B1206C47
:10291000042804D12068016841F40071016001209D
:10292000DEE7F5B2B8F1010F09D02168300A08617D
:102930003A464946204600F0F5F90028E7D12068DC
:1029400005610020CCE700000200010038B50C460C
:1029500090F83D2000212825954302680B4605D0BC
:1029600051699169009180F83C3038BD556825F473
:1029700080655560E243540700D50121120601D558
:10298000828900E0028B80F83C3092B2FEF7DBF9DE
:1029900038BD00002DE9F04190F83D40C26A0023A7
:1029A00020261C4F01686FF48065082A01D0202A78
:1029B00001D1282C04D0212C16D04D61BDE8F08126
:1029C000C7624A6822F4E0624A6001684D610168AA
:1029D0000A6822F480620A60036380F83D6080F830
:1029E0003E30FEF7F1FBE9E7C7622122026380F87F
:1029F0003D6080F83E304A6822F4E0624A60016837
:102A00004D6101680A6822F480620A60FEF7E1FD08
:102A1000D4E700000000FFFFF8B590F83D600446E1
:102A20000068416821F4E061416020680025416947
:102A30000091016841F0010101602068016821F402
:102A40008061016020684168090520D5474F222E2A
:102A500048D02A2E46D0616B096849686185618D2E
:102A600019B1216C41F004012164416821F4006135
:102A70004160606BFEF740F8012808D0606B476347
:102A8000606BFDF7A1FF10B1606B416B8847608DF3
:102A900008B320684169C943490708D40069616ADD
:102AA0000870606A401C6062608D401E608520680E
:102AB0004169C943490608D40069616A0870606ABF
:102AC000401C6062608D401E6085608D18B1206C76
:102AD00040F004002064206C00B32046BDE8F840BC
:102AE000FFF7E2BAA16B096849686185618D19B188
:102AF000216C41F004012164416821F400614160CE
:102B0000A06BFDF7F9FF0128C1D0A06B4763A06B54
:102B1000FDF75AFF0028BAD0A06BB6E72A2E06D1DF
:102B20002563282084F83D002046FEF751FD94F8E7
:102B30003D10202028290DD0216B222901D0222EE2
:102B400007D1256384F83D0084F83E502046FEF707
:102B50003FFDF8BD0649E162256384F83D0084F835
:102B60003E502046FEF730FBF8BD0000ED1F000888
:102B70000000FFFF70B516460D4604460DE02046E6
:102B8000FFF73EFB08B1012070BD681C05D0FEF7C1
:102B9000D3F8801BA84207D835B120684069C043EC
:102BA0004007ECD4002070BD002044F8300F2021F5
:102BB0006173A073216941F0200121612073E2E774
:102BC0002DE9F0471E4690460D460446C1F30747DF
:102BD000DDF8209008E0701C06D0FEF7ADF8A0EB01
:102BE0000900B0420FD876B12068012F18D0806953
:102BF00025EA00000004000C14D000214145EAD071
:102C00000020BDE8F087002044F8300F20216173D8
:102C1000A073216941F02001216120730120F0E7B8
:102C20004069E5E70121E9E72DE9F0479A46914639
:102C30000E46044600254FF02008C1F3074725E063
:102C400020684069C043400514D42068016841F4FD
:102C50000071016021686FF480604861256384F829
:102C60003D8084F83E50206C40F00400206484F8DD
:102C70003C501FE0B9F1FF3F08D0FEF75DF8A0EB34
:102C80000A0149450CD8B9F1000F09D02068012F7D
:102C900013D0806926EA00000004000C0BD0CFE7B7
:102CA00044F8305F84F80D80A573206940F020005F
:102CB000206125730120BDE8F0874069EAE72DE92E
:102CC000F041002590460E460446202717E0406953
:102CD000C043C0060CD454F8301B6FF0100048619C
:102CE00044F810596777A577206A2062257717E0A6
:102CF000FEF722F8A0EB0800B04208D83EB12068E9
:102D00004169C9434906E2D40020BDE8F08144F896
:102D1000305F6773A573206940F020002061257340
:102D20000120F2E770B516460D4604460DE0204638
:102D3000FFF766FA08B1012070BD681C05D0FDF7E9
:102D4000FBFF801BA84207D835B120684069C0430B
:102D50000006ECD4002070BD002044F8300F202184
:102D60006173A073216941F0200121612073E2E7C2
:102D70002DE9F0471B4C216AE0698946FDF7A0FA6E
:102D8000FDF78CFC01F060F8174D00222B46FDF793
:102D90007CFB164E164F32463B46FDF7E8FB4FF0E4
:102DA00066384246134BFDF7C9FAFDF78AFC2064EA
:102DB0004946A069FDF784FAFDF770FC01F044F87C
:102DC00000222B46FDF761FB32463B46FDF7CFFB69
:102DD0004246094BFDF7B2FAFDF773FC6064BDE8AB
:102DE000F087000010000020008066401F85EB5136
:102DF000B81E09406666084066661740F0B585B0A3
:102E00004FF47A72062103A88DE8070001233B22C4
:102E1000D0211B48FEF7DEF9BDF80C00194C40BA72
:102E2000A0F5C87000B22080BDF80E1049BAC839AC
:102E30000EB26680BDF8101049BAA1F614210DB289
:102E4000A580FDF71AFC6FF00D073A46FDF7FEFB73
:102E5000FDF737FCA0613046FDF70FFC3A46FDF761
:102E6000F5FBFDF72EFCE0612846FDF706FC3A462F
:102E7000FDF7ECFBFDF725FC206205B0F0BD00007E
:102E80005C00002010000020F0B585B04FF47A728D
:102E9000062103A88DE8070001234322D0211B4807
:102EA000FEF798F9BDF80C00194C40BA7D3000B21D
:102EB000E080BDF80E1049BA01F58C710EB2268182
:102EC000BDF8101049BAA5390DB26581FDF7D5FBE3
:102ED000104F00223B46FDF74AFBFDF7F2FB606214
:102EE0003046FDF7CAFB00223B46FDF740FBFDF7ED
:102EF000E8FBA0622846FDF7C0FB00223B46FDF739
:102F000036FBFDF7DEFBE06205B0F0BD5C000020A3
:102F100010000020006060402DE9F041284C274F50
:102F20003946606AFDF79AF9616BFDF73FF905468E
:102F300060633946A06AFDF791F9A16BFDF736F998
:102F40000646A0633946E06AFDF788F9E16BFDF7B4
:102F50002DF9DFF870800746E063454501DC606BC2
:102F600004E041462846FDF773F96063164DA84218
:102F700003D94146FDF71AF96063464501DCA06BB1
:102F800004E041463046FDF763F9A063A84203D947
:102F90004146FDF70BF9A063474501DCE06B04E017
:102FA00041463846FDF754F9E063A84203D941464B
:102FB000FDF7FCF8E063BDE8F081000017B7513A77
:102FC000100000200000B4430000B4C3F0B585B089
:102FD000012504A8CDE900054FF47A742B4675222B
:102FE000D02102942148FEF7F5F89DF810006828DA
:102FF0003AD1002703AE8DF80C700096CDE901544C
:1030000001236B22D0211948FEF70CFA07208DF816
:103010000C000096CDE9015401231922D021134858
:10302000FEF700FA03208DF80C000096CDE901545C
:1030300001231A22D0210D48FEF7F4F98DF80C7007
:103040000096CDE9015401231C22D0210748FEF748
:10305000E9F98DF80C700096CDE9015401231B228B
:10306000D0210248FEF7DEF905B0F0BD5C0000207B
:103070001FB54FF47A72022103A88DE807000123DF
:103080004122D0210B48FEF7A5F8BDF80C000A4CF0
:1030900040BA00B2A0814FF4AA7190FBF1F0FDF7A5
:1030A000ECFA064A064BFDF749F9FDF70AFB2063E7
:1030B0001FBD00005C00002010000020A4703D0A2D
:1030C000D743424030B585B0002000900190029077
:1030D00003901A48816941F010018161816901F012
:1030E00010010491816941F020018161816901F041
:1030F00020010491816941F004018161816901F03D
:1031000004010491816941F0080181618069012213
:1031100000F008000A4D5403049021462846FDF7AC
:1031200005FE01210220CDE90210CDE900416946EA
:103130002846FDF7F7FC05B030BD00000010024046
:10314000001001400D4810B50B4901600C49416069
:1031500000214FF480428160C0E903124161816126
:10316000C1610162FDF76CFF002803D0BDE810408B
:10317000FDF704BC10BD0000005400405C000020BE
:10318000A08601000C4810B50A4901604FF4E131F6
:103190004160002181600C22C160C0E9041281619C
:1031A000C161FEF747FE002803D0BDE81040FDF7DF
:1031B000E5BB10BD00440040B0000020FEE7FEE784
:1031C00070477047FEF706BA30B58FB028216846C1
:1031D000FCF7E1FF14210AA8FCF7DDFF0121080438
:1031E000CDE900100024029402250491CDE9075096
:1031F0004FF4E01009906846FEF770FB08B172B614
:10320000FEE70F20CDE90A054FF48060CDE90C40C0
:1032100002210AA80E94FEF775FA002801D072B6B2
:10322000FEE70FB030BD704710B5406A0021C18580
:10323000C184FEF7F8FC10BD0168CA6822F49072E0
:10324000CA6001684A6922F001024A61016B0129E2
:1032500004D10168CA6822F01002CA60202180F8F7
:103260003E1000210163704708B590F83E102229F6
:1032700001D0022008BD82684FF480539A4201D1E8
:10328000016921B1816A9A421BD04AB10AE0026801
:10329000816A5268C2F308020A80816A891C08E0C8
:1032A000026972B10268526802F07F020A70816A94
:1032B000491C8162C18D491E0904090CC18503D0D6
:1032C00019E002685268F1E70168CA6822F020023A
:1032D000CA600168CA6822F48072CA6001684A69DB
:1032E00022F001024A61202180F83E10016B012981
:1032F00003D0FEF711FE002008BD00210163016824
:10330000CA6822F01002CA6001680A68D20602D5B3
:103310000A6849680091818DFEF784FCEBE70000A4
:1033200070B5044600680169E26821F44051114318
:1033300001612169A0680843616908432168CA687E
:1033400041F20C639A430243CA6020684169A26952
:1033500021F44071114341611E492068884202D125
:10336000FEF776FA01E0FEF763FA00EBC00101EB2D
:103370000012606864218000B2FBF0F3B3FBF1F34C
:103380006FF018067343B2FBF0F5B2FBF0F605EBF5
:103390008305322303EB0515B5FBF1F5B6FBF1F61A
:1033A00005F0F00505EB0615B2FBF0F6B2FBF0F008
:1033B000B0FBF1F06FF01802504306EB800003EB16
:1033C0000010B0FBF1F0216800F00F002844886085
:1033D00070BD0000003801402DE9F04198461746C5
:1033E0000E460446069D1DE0681C1BD02DB1FDF75E
:1033F000A3FCA0EB0800A84214D92068C16821F4FE
:10340000D071C1602068416921F001014161202033
:1034100084F83D0084F83E00002084F83C0003203E
:10342000BDE8F0812068006836EA000004D0002082
:10343000B842D9D00020F3E70120F9E70148FEF7B0
:10344000F3BB0000B0000020FEE700000FB4054B06
:1034500010B503A9044A029800F05EF910BC5DF8AB
:1034600014FB00006940000858000020490050EAA1
:10347000C12018BF04204A0D18BF40F0010040F2DF
:10348000FF72B2EB515F08BF40F00200012808BF95
:10349000052070470907090E002804DB00F1E02031
:1034A00080F80014704700F00F0000F1E02080F871
:1034B000141D70472DE9F0414F1E00EBC701044673
:1034C000D1E9000115461E4637F006020DD02A4606
:1034D0003346FCF7DAFF7F1E04EBC703D3E9002372
:1034E000FCF72CFF37F00602F1D1022F25D0042F74
:1034F00013D0062F18BFBDE8F0812A463346FCF7EB
:10350000C4FFD4E90A23FCF719FF2A463346FCF727
:10351000BCFFD4E90823FCF711FF2A463346FCF729
:10352000B4FFD4E90623FCF709FF2A463346FCF72B
:10353000ACFFD4E90423FCF701FF2A463346FCF72D
:10354000A4FFD4E90223FCF7F9FE2A463346FCF730
:103550009CFFD4E90023BDE8F041FCF7EFBE012257
:10356000FDF774B8024A00201107FDF76FB800009C
:1035700001FDFFFF02E008C8121F08C1002AFAD1AE
:1035800070477047002001E001C1121F002AFBD1E3
:10359000704700002DE9FF5F82B00021DDE90430B3
:1035A000020DDDF840B0034318D044F61050A2F2EB
:1035B000FF3242431514119801281FD0A5EB0B00D0
:1035C000401C5FEA000A4FF000064E4FDFF83891CA
:1035D000B046504615D5CAF1000413E011980124F5
:1035E0004AA3012801D16FEA0B010298119AC0E9A0
:1035F0000031C0E9024206B0BDE8F09FCBF1000007
:10360000DFE704460021404A491842EB0450CDE967
:10361000001012E0E00707D032463B4640464946DC
:10362000FCF733FF8046894632463B461046194632
:10363000FCF72BFF06460F466410002CEAD1DDE9AB
:103640000401DDE90023BAF1000F06DAFCF71DFFE3
:1036500042464B46FCF719FF05E0FCF788FF42465F
:103660004B46FCF784FF04460E460022284BFDF72C
:1036700059F903D84FF0FF30014607E00022254BEF
:1036800020463146FCF75AFEFDF733F9102409E0D5
:10369000002C0ADB0A220023FDF745F8039B303299
:1036A0001A55641E50EA0102F2D1641C039AC4F157
:1036B00011031444119A012A03D0012208430DD1A9
:1036C0000AE0084304D000204FF0110B119072E77C
:1036D000A3EB0B056D1E0DE05B4504DD4FF0000212
:1036E00005F1010504E003DA4FF00002A5F1010540
:1036F000002AECD002981199C0E90231C0E90045D6
:1037000079E70000000014400000F03F30000000A6
:103710000000F0430000E03F2DE9FF4F95B09B46CD
:103720008946064600250FE2252877D10024274642
:10373000F84A0121059400E0044316F8013F203BBC
:1037400001FA03F01042F7D130782A2811D06FF037
:103750002F033078A0F13002092A16D8059A44F0D8
:10376000020402EB820203EB42021044761C059035
:10377000EFE759F8042B0592002A03DA504244F48B
:103780000054059044F00204761C30782E2816D19F
:1037900016F8010F44F004042A280DD06FF02F0210
:1037A0003078A0F13003092B09D807EB870302EB2F
:1037B0004303C718761CF3E759F8047B761C30786E
:1037C0006C280FD006DC4C2817D068280DD06A284A
:1037D00014D104E0742810D07A280FD10DE044F4FD
:1037E00000140AE044F4801401E044F440147278B8
:1037F000824202D104F58014761C761C307866284B
:103800000BD013DC582877D009DC002875D0452868
:10381000F6D04628F4D047281AD19DE118E0632855
:1038200035D0642879D0652812D195E1702873D0FD
:1038300008DC6728F1D069286FD06E280DD06F287A
:1038400006D1B5E073282CD0752875D0782874D0AF
:103850005A46179990476D1C75E1C4F3025002282F
:1038600009D003280DD0D9F8001004280DD00D6020
:1038700009F1040967E1D9F80010EA17C1E900521B
:10388000F6E7D9F800100D80F2E70D70F0E719F8AF
:10389000041B8DF8001000208DF80100EA4601207D
:1038A00003E059F804AB4FF0FF3061074FF000011F
:1038B00002D40DE008F101018846B9420FDA8045D3
:1038C000F8DB1AF808100029F4D108E008F101012A
:1038D00088468142FADB1AF808100029F6D10598CB
:1038E0005B46A0EB080721463846179A00F094FA89
:1038F000284400EB080507E04DE029E10DE01AF847
:10390000010B5A4617999047B8F10108F7D25B4668
:1039100021463846179A13E142E00A220092C4F386
:1039200002524FF0000A022A08D059F804CB032AA9
:103930004FEAEC710AD00DE029E02AE009F1070115
:1039400021F00702F2E802C1914609E00FFA8CFC6F
:103950004FEAEC71042A03D14FFA8CFC4FEAEC7168
:10396000002907DA0A460021DCF1000C61EB0201B4
:103970002D2202E0220504D52B228DF804200122FD
:1039800003E0E20701D02022F7E7904659E00A2140
:1039900002E010220DE010214FF0000A00910BE030
:1039A00010224FF0000A44F004040827009203E0BC
:1039B00008224FF0000A0092C4F30252022A05D0F6
:1039C00059F804CB0021032A08D009E009F10701C6
:1039D00021F00702F2E802C1914605E01FFA8CFCD3
:1039E000042A01D10CF0FF0C4FF00008220728D563
:1039F000702806D0009B83F0100353EA0A0305D019
:103A00000EE040228DF80420012208E05CEA010269
:103A100006D030228DF804208DF805000222904651
:103A2000009B83F0080353EA0A030AD15CEA01020F
:103A300001D1620705D530228DF804204FF001082E
:103A40007F1E582804D034A003900EA802900DE0E9
:103A500036A0F9E753466046009AFCF764FE8446B8
:103A60000398825C0298401E029002705CEA01009A
:103A7000F0D1029806A9081A00F1200A600702D5C1
:103A800024F4803400E00127574502DDA7EB0A004B
:103A900000E0002000EB0A01009005984144401A24
:103AA0000590E00306D45B462146179A059800F07E
:103AB000B3F90544002706E001A85A46C05D1799EE
:103AC00090476D1C7F1C4745F6DBE0030CD55B4639
:103AD0002146179A059800F09FF9054404E030202C
:103AE0005A46179990476D1C0099481E009000296E
:103AF000F5DC08E0029802995A460078491C0291C8
:103B0000179990476D1CBAF10001AAF1010AF1DC86
:103B100065E1000009280100303132333435363791
:103B20003839616263646566000000003031323309
:103B300034353637383941424344454600000000A9
:103B400000F058F90544761C307800287FF4ECAD7D
:103B500019B02846BDE8F08F620700D4062709F1A6
:103B6000070222F0070CFCE80223E14603F00048BC
:103B70005FEA080C02D00FF2702C0DE05FEA045CE3
:103B800002D50FF2682C07E05FEAC47C02D00FF286
:103B9000602C01E0AFF2700C4FF0FF3823F00043CF
:103BA000CDF850C065280CD006DC452809D0462841
:103BB0001DD047283DD13DE0662818D067287ED12A
:103BC00038E00021112F01DB112000E0781CCDE945
:103BD000000106A90EA8FFF7DDFCDDE90F010E9A32
:103BE00003910021009207F1010A04914DE04FF08A
:103BF00000400097CDE9011006A90EA8FFF7CAFC06
:103C0000DDE90F0203920E9B11990022DDF80CA052
:103C10000093049211B9791C00EB010AB7EB0A007A
:103C200004D4C0F1FF3007F1010A0490AAEB0700A9
:103C3000019044E0012F00DA01270021112F01DD5E
:103C4000112000E03846CDE9000106A90EA8FFF7D3
:103C5000A1FCDDE90F010E9A03910021049100926D
:103C6000BA4621070CD40399514500DA8A46BAF1C5
:103C7000010F05DD009AAAF10101515C302908D03D
:103C8000B84202DA10F1040F06DA0121CDE9011081
:103C900015E0AAF10101E9E7002805DC04990144D7
:103CA0000491AAEB000102E0411C514500DD8A4667
:103CB0000499401A401C01904FF0004002902007E8
:103CC00004D40198504501DBCDF8048000208DF824
:103CD0004F0002980DF14F07B0F1004F25D02B2077
:103CE0000E9002984FF0020800280CDA4042029031
:103CF0002D200E9007E00A210298FCF7FEFC3031DF
:103D0000029007F8011DB8F10001A8F10108F2DCEA
:103D100002980028EFD1791E0E980870307800F0D4
:103D2000200040F0450007F8020D12A8C01B00F16A
:103D300007081498007800B1012000EB0A010198EF
:103D400001EBE07105984144401A401E0590E003E4
:103D500006D45B462146179A059800F05DF80544A5
:103D60001498007818B15A46179990476D1CE003D3
:103D700024D55B462146179A059800F04DF8054476
:103D80001CE00498002807DBDDE90301884203DD1D
:103D90000098405C179901E0179930205A469047E7
:103DA000049805F10105401C04900198401E019003
:103DB00004D12E205A46179990476D1CBAF1000184
:103DC000AAF1010ADDDC05E017F8010B5A46179944
:103DD00090476D1CB8F10001A8F10108F4DC5B46C6
:103DE0002146179A0598ABE62D0000002B00000035
:103DF000200000002DE9F041044600251E4617462C
:103E0000880404D405E039462020B0476D1C641EA8
:103E1000F9D52846BDE8F0812DE9F041044600259A
:103E20001E469046C80301D5302700E020278804AD
:103E300004D505E041463846B0476D1C641EF9D5EF
:103E40002846BDE8F08100002DE9F84F04460D46F4
:103E500021F0004000917349814211DC724988428F
:103E600001DC06D12CB120462946BDE8F84FFFF70A
:103E700076BB6E48002DCCBF6D496E49BDE8F88F0A
:103E80006D49814211DD6D498142D8BF4FF0FF3647
:103E90006DDD20462946FFF7E9FA042808BFFFF741
:103EA00061FB20462946BDE8F88F6549654F25F03E
:103EB0000045814233DD6449814219DD00263246E6
:103EC0004FF0804320462946FCF738FA80468A4660
:103ED000012220462946FCF7B9FB00223B46FCF7AD
:103EE000CEFA42465346FCF742FB04460D463EE0FE
:103EF00001260022BA463B4620462946FCF71EFA18
:103F000080460F460022534620462946FCF7B7FA62
:103F100042463B46FCF72BFB04460D4627E04B4947
:103F200081421BDDDFF828A10226002253462046ED
:103F30002946FCF7AAFA00223B46FCF7FFF9804627
:103F40000F460022534620462946FCF798FA42467F
:103F50003B46FCF70CFB04460D4608E003262246D0
:103F60002B4600203B49FCF702FB04460D46224647
:103F70002B4610461946FCF788FA8B4682460246C5
:103F80000B46FCF782FA07460246334888460B4642
:103F900006217844FFF78EFA52465B46FCF775FA25
:103FA00082462E488B463A46434605217844FFF721
:103FB00081FA3A464346FCF768FA02460B46002E61
:103FC000504659460CDAFCF7B9F922462B46FCF765
:103FD0005CFA01B022462B46BDE8F04FFCF752BA1E
:103FE000FCF7ACF922462B46FCF74FFA1C4A7A4400
:103FF00002EBC603D3E90023FCF741FA22462B4625
:10400000FCF73DFA174A7A4402EBC603D3E90023D2
:10401000FCF738FA009A002AB8BF81F00041BDE8E9
:10402000F88F0000000010440000F07F182D445469
:10403000FB21F93FFB21F9BF0000DC3F0000203EDF
:104040000000F33F0000F03F0000E63F0080034027
:104050000000F83F0000F0BF22020000E001000075
:104060007E0100004601000013B54FF0FF3301222E
:1040700069460248FDF752FF00981CBDB0000020C1
:104080001FB5FDF7AFFAFFF79FF8FFF71BF8FFF733
:1040900059F8FFF777F8FEF799FF4FF47A70FCF7BD
:1040A0002FFD18A0FFF7D2F9DFF86880DFF86890DD
:1040B000DFF868A04FF4005B59461948FCF72EFE64
:1040C000FEF79CFEFEF7E0FEFEF7D2FFFEF724FFB0
:1040D000FEF74EFED8F80000FCF7E0FA06460F4661
:1040E000D9F80000FCF7DAFA04460D46DAF80000C9
:1040F000FCF7D4FA8DE8F00002460B4609A0FFF762
:10410000A5F9D9E74D5055363035305F494E495401
:10411000203173004C0000204800002044000020A3
:1041200000100140252E33662C20252E33662C20CE
:10413000252E33660A000000000000000000000089
:10414000010203040607080900000000010203043D
:104150004FBB610567ACDD3F182D4454FB21E93F9F
:104160009BF681D20B73EF3F182D4454FB21F93F8E
:10417000E2652F227F2B7A3C075C143326A6813C14
:10418000BDCBF07A8807703C075C143326A6913CBF
:10419000C4EB98999999C9BF711623FEC671BCBF2B
:1041A0006D9A74AFF2B0B3BF9AFDDE522DDEADBF93
:1041B0002F6C6A2C44B4A2BF0D5555555555D53FAB
:1041C000FF8300922449C23F6E204CC5CD45B73FC6
:1041D000513DD0A0660DB13FEB0D76244B7BA93F3E
:1041E00011DA22E33AAD903F0842000800000020B7
:1041F0005C00000074350008644200085C00002088
:104200009C0400008435000801000000100000003C
:10421000000000000024F400000000000000000086
:10422000000000000000000000000000000000008E
:10423000000000000000000000000000000000007E
:10424000000000000000000000000000000000006E
:10425000000000000000000000000000000000005E
:04426000000000005A
:0400000508000131BD
:00000001FF
